{
	"data": {
		"bytecode": {
			"linkReferences": {},
			"object": "608060405234801561001057600080fd5b506101ba806100206000396000f3fe608060405234801561001057600080fd5b50600436106100365760003560e01c80634154b2431461003b578063c8d2db7814610045575b600080fd5b61004361004f565b005b61004d61007f565b005b4360016000805481526020019081526020016000208190555060016000546100779190610126565b600081905550565b60005b6000548110156100ea577fcfc79fb3095ec654f760c3b3a233f83d7dcffa683101718c07fec80791e7b3c760016000838152602001908152602001600020546040516100ce9190610169565b60405180910390a16001816100e39190610126565b9050610082565b50565b6000819050919050565b7f4e487b7100000000000000000000000000000000000000000000000000000000600052601160045260246000fd5b6000610131826100ed565b915061013c836100ed565b9250828201905080821115610154576101536100f7565b5b92915050565b610163816100ed565b82525050565b600060208201905061017e600083018461015a565b9291505056fea2646970667358221220f914399dbd2c4b000a157f3f513aae106fd257e8db181357bc7a7b62a7f58af364736f6c63430008120033",
			"opcodes": "PUSH1 0x80 PUSH1 0x40 MSTORE CALLVALUE DUP1 ISZERO PUSH2 0x10 JUMPI PUSH1 0x0 DUP1 REVERT JUMPDEST POP PUSH2 0x1BA DUP1 PUSH2 0x20 PUSH1 0x0 CODECOPY PUSH1 0x0 RETURN INVALID PUSH1 0x80 PUSH1 0x40 MSTORE CALLVALUE DUP1 ISZERO PUSH2 0x10 JUMPI PUSH1 0x0 DUP1 REVERT JUMPDEST POP PUSH1 0x4 CALLDATASIZE LT PUSH2 0x36 JUMPI PUSH1 0x0 CALLDATALOAD PUSH1 0xE0 SHR DUP1 PUSH4 0x4154B243 EQ PUSH2 0x3B JUMPI DUP1 PUSH4 0xC8D2DB78 EQ PUSH2 0x45 JUMPI JUMPDEST PUSH1 0x0 DUP1 REVERT JUMPDEST PUSH2 0x43 PUSH2 0x4F JUMP JUMPDEST STOP JUMPDEST PUSH2 0x4D PUSH2 0x7F JUMP JUMPDEST STOP JUMPDEST NUMBER PUSH1 0x1 PUSH1 0x0 DUP1 SLOAD DUP2 MSTORE PUSH1 0x20 ADD SWAP1 DUP2 MSTORE PUSH1 0x20 ADD PUSH1 0x0 KECCAK256 DUP2 SWAP1 SSTORE POP PUSH1 0x1 PUSH1 0x0 SLOAD PUSH2 0x77 SWAP2 SWAP1 PUSH2 0x126 JUMP JUMPDEST PUSH1 0x0 DUP2 SWAP1 SSTORE POP JUMP JUMPDEST PUSH1 0x0 JUMPDEST PUSH1 0x0 SLOAD DUP2 LT ISZERO PUSH2 0xEA JUMPI PUSH32 0xCFC79FB3095EC654F760C3B3A233F83D7DCFFA683101718C07FEC80791E7B3C7 PUSH1 0x1 PUSH1 0x0 DUP4 DUP2 MSTORE PUSH1 0x20 ADD SWAP1 DUP2 MSTORE PUSH1 0x20 ADD PUSH1 0x0 KECCAK256 SLOAD PUSH1 0x40 MLOAD PUSH2 0xCE SWAP2 SWAP1 PUSH2 0x169 JUMP JUMPDEST PUSH1 0x40 MLOAD DUP1 SWAP2 SUB SWAP1 LOG1 PUSH1 0x1 DUP2 PUSH2 0xE3 SWAP2 SWAP1 PUSH2 0x126 JUMP JUMPDEST SWAP1 POP PUSH2 0x82 JUMP JUMPDEST POP JUMP JUMPDEST PUSH1 0x0 DUP2 SWAP1 POP SWAP2 SWAP1 POP JUMP JUMPDEST PUSH32 0x4E487B7100000000000000000000000000000000000000000000000000000000 PUSH1 0x0 MSTORE PUSH1 0x11 PUSH1 0x4 MSTORE PUSH1 0x24 PUSH1 0x0 REVERT JUMPDEST PUSH1 0x0 PUSH2 0x131 DUP3 PUSH2 0xED JUMP JUMPDEST SWAP2 POP PUSH2 0x13C DUP4 PUSH2 0xED JUMP JUMPDEST SWAP3 POP DUP3 DUP3 ADD SWAP1 POP DUP1 DUP3 GT ISZERO PUSH2 0x154 JUMPI PUSH2 0x153 PUSH2 0xF7 JUMP JUMPDEST JUMPDEST SWAP3 SWAP2 POP POP JUMP JUMPDEST PUSH2 0x163 DUP2 PUSH2 0xED JUMP JUMPDEST DUP3 MSTORE POP POP JUMP JUMPDEST PUSH1 0x0 PUSH1 0x20 DUP3 ADD SWAP1 POP PUSH2 0x17E PUSH1 0x0 DUP4 ADD DUP5 PUSH2 0x15A JUMP JUMPDEST SWAP3 SWAP2 POP POP JUMP INVALID LOG2 PUSH5 0x6970667358 0x22 SLT KECCAK256 0xF9 EQ CODECOPY SWAP14 0xBD 0x2C 0x4B STOP EXP ISZERO PUSH32 0x3F513AAE106FD257E8DB181357BC7A7B62A7F58AF364736F6C63430008120033 "
		},
		"gasEstimates": {
			"creation": {
				"codeDepositCost": "88400",
				"executionCost": "135",
				"totalCost": "88535"
			},
			"external": {
				"getBlocknumber()": "infinite",
				"setNumber()": "infinite"
			}
		},
		"methodIdentifiers": {
			"getBlocknumber()": "c8d2db78",
			"setNumber()": "4154b243"
		}
	},
	"abi": [
		{
			"anonymous": false,
			"inputs": [
				{
					"indexed": false,
					"internalType": "uint256",
					"name": "",
					"type": "uint256"
				}
			],
			"name": "logBlockNumbers",
			"type": "event"
		},
		{
			"inputs": [],
			"name": "getBlocknumber",
			"outputs": [],
			"stateMutability": "nonpayable",
			"type": "function"
		},
		{
			"inputs": [],
			"name": "setNumber",
			"outputs": [],
			"stateMutability": "nonpayable",
			"type": "function"
		}
	]
}