{
	"contracts/MBD_Bank.sol": {
		"MBD_BANK": {
			"abi": [
				{
					"anonymous": false,
					"inputs": [
						{
							"indexed": false,
							"internalType": "address",
							"name": "",
							"type": "address"
						},
						{
							"indexed": false,
							"internalType": "string",
							"name": "",
							"type": "string"
						},
						{
							"indexed": false,
							"internalType": "uint256",
							"name": "",
							"type": "uint256"
						}
					],
					"name": "logTransactionFlow",
					"type": "event"
				},
				{
					"inputs": [],
					"name": "checkMBDBalance",
					"outputs": [
						{
							"internalType": "uint256",
							"name": "_MBD_Balance",
							"type": "uint256"
						}
					],
					"stateMutability": "view",
					"type": "function"
				},
				{
					"inputs": [],
					"name": "depositMoney",
					"outputs": [],
					"stateMutability": "payable",
					"type": "function"
				},
				{
					"inputs": [],
					"name": "getBalance",
					"outputs": [
						{
							"internalType": "uint256",
							"name": "_userBalance",
							"type": "uint256"
						}
					],
					"stateMutability": "view",
					"type": "function"
				},
				{
					"inputs": [
						{
							"internalType": "address payable",
							"name": "receiverAddress",
							"type": "address"
						},
						{
							"internalType": "uint256",
							"name": "amount",
							"type": "uint256"
						}
					],
					"name": "transferAmount",
					"outputs": [
						{
							"internalType": "uint256",
							"name": "updatedBalance",
							"type": "uint256"
						}
					],
					"stateMutability": "payable",
					"type": "function"
				},
				{
					"inputs": [
						{
							"internalType": "uint256",
							"name": "amount",
							"type": "uint256"
						}
					],
					"name": "withdrawAmount",
					"outputs": [],
					"stateMutability": "nonpayable",
					"type": "function"
				}
			],
			"devdoc": {
				"kind": "dev",
				"methods": {},
				"version": 1
			},
			"evm": {
				"assembly": "    /* \"contracts/MBD_Bank.sol\":842:6718  contract MBD_BANK {... */\n  mstore(0x40, 0x80)\n  callvalue\n  dup1\n  iszero\n  tag_1\n  jumpi\n  0x00\n  dup1\n  revert\ntag_1:\n  pop\n  dataSize(sub_0)\n  dup1\n  dataOffset(sub_0)\n  0x00\n  codecopy\n  0x00\n  return\nstop\n\nsub_0: assembly {\n        /* \"contracts/MBD_Bank.sol\":842:6718  contract MBD_BANK {... */\n      mstore(0x40, 0x80)\n      jumpi(tag_1, lt(calldatasize, 0x04))\n      shr(0xe0, calldataload(0x00))\n      dup1\n      0x0562b9f7\n      eq\n      tag_2\n      jumpi\n      dup1\n      0x12065fe0\n      eq\n      tag_3\n      jumpi\n      dup1\n      0x16c05aa2\n      eq\n      tag_4\n      jumpi\n      dup1\n      0x20c2909d\n      eq\n      tag_5\n      jumpi\n      dup1\n      0xd7081e03\n      eq\n      tag_6\n      jumpi\n    tag_1:\n      0x00\n      dup1\n      revert\n        /* \"contracts/MBD_Bank.sol\":6006:6715  function withdrawAmount(uint256 amount) external validateUser {... */\n    tag_2:\n      callvalue\n      dup1\n      iszero\n      tag_7\n      jumpi\n      0x00\n      dup1\n      revert\n    tag_7:\n      pop\n      tag_8\n      0x04\n      dup1\n      calldatasize\n      sub\n      dup2\n      add\n      swap1\n      tag_9\n      swap2\n      swap1\n      tag_10\n      jump\t// in\n    tag_9:\n      tag_11\n      jump\t// in\n    tag_8:\n      stop\n        /* \"contracts/MBD_Bank.sol\":3352:3610  function getBalance() public view returns (uint256 _userBalance) {... */\n    tag_3:\n      callvalue\n      dup1\n      iszero\n      tag_12\n      jumpi\n      0x00\n      dup1\n      revert\n    tag_12:\n      pop\n      tag_13\n      tag_14\n      jump\t// in\n    tag_13:\n      mload(0x40)\n      tag_15\n      swap2\n      swap1\n      tag_16\n      jump\t// in\n    tag_15:\n      mload(0x40)\n      dup1\n      swap2\n      sub\n      swap1\n      return\n        /* \"contracts/MBD_Bank.sol\":2471:3189  function depositMoney() public payable  mapUser {... */\n    tag_4:\n      tag_17\n      tag_18\n      jump\t// in\n    tag_17:\n      stop\n        /* \"contracts/MBD_Bank.sol\":3705:3964  function checkMBDBalance() external view returns (uint256 _MBD_Balance) {... */\n    tag_5:\n      callvalue\n      dup1\n      iszero\n      tag_19\n      jumpi\n      0x00\n      dup1\n      revert\n    tag_19:\n      pop\n      tag_20\n      tag_21\n      jump\t// in\n    tag_20:\n      mload(0x40)\n      tag_22\n      swap2\n      swap1\n      tag_16\n      jump\t// in\n    tag_22:\n      mload(0x40)\n      dup1\n      swap2\n      sub\n      swap1\n      return\n        /* \"contracts/MBD_Bank.sol\":4357:5771  function transferAmount(address payable receiverAddress, uint256 amount)... */\n    tag_6:\n      tag_23\n      0x04\n      dup1\n      calldatasize\n      sub\n      dup2\n      add\n      swap1\n      tag_24\n      swap2\n      swap1\n      tag_25\n      jump\t// in\n    tag_24:\n      tag_26\n      jump\t// in\n    tag_23:\n      mload(0x40)\n      tag_27\n      swap2\n      swap1\n      tag_16\n      jump\t// in\n    tag_27:\n      mload(0x40)\n      dup1\n      swap2\n      sub\n      swap1\n      return\n        /* \"contracts/MBD_Bank.sol\":6006:6715  function withdrawAmount(uint256 amount) external validateUser {... */\n    tag_11:\n        /* \"contracts/MBD_Bank.sol\":2291:2295  true */\n      0x01\n        /* \"contracts/MBD_Bank.sol\":2261:2295  userExistOrNot[msg.sender] == true */\n      iszero\n      iszero\n        /* \"contracts/MBD_Bank.sol\":2261:2275  userExistOrNot */\n      0x01\n        /* \"contracts/MBD_Bank.sol\":2261:2287  userExistOrNot[msg.sender] */\n      0x00\n        /* \"contracts/MBD_Bank.sol\":2276:2286  msg.sender */\n      caller\n        /* \"contracts/MBD_Bank.sol\":2261:2287  userExistOrNot[msg.sender] */\n      0xffffffffffffffffffffffffffffffffffffffff\n      and\n      0xffffffffffffffffffffffffffffffffffffffff\n      and\n      dup2\n      mstore\n      0x20\n      add\n      swap1\n      dup2\n      mstore\n      0x20\n      add\n      0x00\n      keccak256\n      0x00\n      swap1\n      sload\n      swap1\n      0x0100\n      exp\n      swap1\n      div\n      0xff\n      and\n        /* \"contracts/MBD_Bank.sol\":2261:2295  userExistOrNot[msg.sender] == true */\n      iszero\n      iszero\n      eq\n        /* \"contracts/MBD_Bank.sol\":2239:2360  require(... */\n      tag_29\n      jumpi\n      mload(0x40)\n      0x08c379a000000000000000000000000000000000000000000000000000000000\n      dup2\n      mstore\n      0x04\n      add\n      tag_30\n      swap1\n      tag_31\n      jump\t// in\n    tag_30:\n      mload(0x40)\n      dup1\n      swap2\n      sub\n      swap1\n      revert\n    tag_29:\n        /* \"contracts/MBD_Bank.sol\":6189:6190  0 */\n      0x00\n        /* \"contracts/MBD_Bank.sol\":6180:6186  amount */\n      dup2\n        /* \"contracts/MBD_Bank.sol\":6180:6190  amount > 0 */\n      gt\n        /* \"contracts/MBD_Bank.sol\":6158:6270  require(... */\n      tag_33\n      jumpi\n      mload(0x40)\n      0x08c379a000000000000000000000000000000000000000000000000000000000\n      dup2\n      mstore\n      0x04\n      add\n      tag_34\n      swap1\n      tag_35\n      jump\t// in\n    tag_34:\n      mload(0x40)\n      dup1\n      swap2\n      sub\n      swap1\n      revert\n    tag_33:\n        /* \"contracts/MBD_Bank.sol\":6332:6338  amount */\n      dup1\n        /* \"contracts/MBD_Bank.sol\":6303:6316  balanceLedger */\n      0x00\n        /* \"contracts/MBD_Bank.sol\":6303:6328  balanceLedger[msg.sender] */\n      dup1\n        /* \"contracts/MBD_Bank.sol\":6317:6327  msg.sender */\n      caller\n        /* \"contracts/MBD_Bank.sol\":6303:6328  balanceLedger[msg.sender] */\n      0xffffffffffffffffffffffffffffffffffffffff\n      and\n      0xffffffffffffffffffffffffffffffffffffffff\n      and\n      dup2\n      mstore\n      0x20\n      add\n      swap1\n      dup2\n      mstore\n      0x20\n      add\n      0x00\n      keccak256\n      sload\n        /* \"contracts/MBD_Bank.sol\":6303:6338  balanceLedger[msg.sender] >= amount */\n      lt\n      iszero\n        /* \"contracts/MBD_Bank.sol\":6281:6413  require(... */\n      tag_36\n      jumpi\n      mload(0x40)\n      0x08c379a000000000000000000000000000000000000000000000000000000000\n      dup2\n      mstore\n      0x04\n      add\n      tag_37\n      swap1\n      tag_38\n      jump\t// in\n    tag_37:\n      mload(0x40)\n      dup1\n      swap2\n      sub\n      swap1\n      revert\n    tag_36:\n        /* \"contracts/MBD_Bank.sol\":6432:6442  msg.sender */\n      caller\n        /* \"contracts/MBD_Bank.sol\":6424:6452  payable(msg.sender).transfer */\n      0xffffffffffffffffffffffffffffffffffffffff\n      and\n        /* \"contracts/MBD_Bank.sol\":6424:6460  payable(msg.sender).transfer(amount) */\n      0x08fc\n        /* \"contracts/MBD_Bank.sol\":6453:6459  amount */\n      dup3\n        /* \"contracts/MBD_Bank.sol\":6424:6460  payable(msg.sender).transfer(amount) */\n      swap1\n      dup2\n      iszero\n      mul\n      swap1\n      mload(0x40)\n      0x00\n      mload(0x40)\n      dup1\n      dup4\n      sub\n      dup2\n      dup6\n      dup9\n      dup9\n      call\n      swap4\n      pop\n      pop\n      pop\n      pop\n      iszero\n      dup1\n      iszero\n      tag_40\n      jumpi\n      returndatasize\n      0x00\n      dup1\n      returndatacopy\n      revert(0x00, returndatasize)\n    tag_40:\n      pop\n        /* \"contracts/MBD_Bank.sol\":6527:6533  amount */\n      dup1\n        /* \"contracts/MBD_Bank.sol\":6499:6512  balanceLedger */\n      0x00\n        /* \"contracts/MBD_Bank.sol\":6499:6524  balanceLedger[msg.sender] */\n      dup1\n        /* \"contracts/MBD_Bank.sol\":6513:6523  msg.sender */\n      caller\n        /* \"contracts/MBD_Bank.sol\":6499:6524  balanceLedger[msg.sender] */\n      0xffffffffffffffffffffffffffffffffffffffff\n      and\n      0xffffffffffffffffffffffffffffffffffffffff\n      and\n      dup2\n      mstore\n      0x20\n      add\n      swap1\n      dup2\n      mstore\n      0x20\n      add\n      0x00\n      keccak256\n      sload\n        /* \"contracts/MBD_Bank.sol\":6499:6533  balanceLedger[msg.sender] + amount */\n      tag_41\n      swap2\n      swap1\n      tag_42\n      jump\t// in\n    tag_41:\n        /* \"contracts/MBD_Bank.sol\":6471:6484  balanceLedger */\n      0x00\n        /* \"contracts/MBD_Bank.sol\":6471:6496  balanceLedger[msg.sender] */\n      dup1\n        /* \"contracts/MBD_Bank.sol\":6485:6495  msg.sender */\n      caller\n        /* \"contracts/MBD_Bank.sol\":6471:6496  balanceLedger[msg.sender] */\n      0xffffffffffffffffffffffffffffffffffffffff\n      and\n      0xffffffffffffffffffffffffffffffffffffffff\n      and\n      dup2\n      mstore\n      0x20\n      add\n      swap1\n      dup2\n      mstore\n      0x20\n      add\n      0x00\n      keccak256\n        /* \"contracts/MBD_Bank.sol\":6471:6533  balanceLedger[msg.sender] = balanceLedger[msg.sender] + amount */\n      dup2\n      swap1\n      sstore\n      pop\n        /* \"contracts/MBD_Bank.sol\":6551:6707  logTransactionFlow(... */\n      0x3928eb6c73f8b27f8264006f092393f8ff2e5684ac2e649d0a932ae36df69088\n        /* \"contracts/MBD_Bank.sol\":6584:6594  msg.sender */\n      caller\n        /* \"contracts/MBD_Bank.sol\":6671:6684  balanceLedger */\n      0x00\n        /* \"contracts/MBD_Bank.sol\":6671:6696  balanceLedger[msg.sender] */\n      dup1\n        /* \"contracts/MBD_Bank.sol\":6685:6695  msg.sender */\n      caller\n        /* \"contracts/MBD_Bank.sol\":6671:6696  balanceLedger[msg.sender] */\n      0xffffffffffffffffffffffffffffffffffffffff\n      and\n      0xffffffffffffffffffffffffffffffffffffffff\n      and\n      dup2\n      mstore\n      0x20\n      add\n      swap1\n      dup2\n      mstore\n      0x20\n      add\n      0x00\n      keccak256\n      sload\n        /* \"contracts/MBD_Bank.sol\":6551:6707  logTransactionFlow(... */\n      mload(0x40)\n      tag_43\n      swap3\n      swap2\n      swap1\n      tag_44\n      jump\t// in\n    tag_43:\n      mload(0x40)\n      dup1\n      swap2\n      sub\n      swap1\n      log1\n        /* \"contracts/MBD_Bank.sol\":6006:6715  function withdrawAmount(uint256 amount) external validateUser {... */\n      pop\n      jump\t// out\n        /* \"contracts/MBD_Bank.sol\":3352:3610  function getBalance() public view returns (uint256 _userBalance) {... */\n    tag_14:\n        /* \"contracts/MBD_Bank.sol\":3395:3415  uint256 _userBalance */\n      0x00\n        /* \"contracts/MBD_Bank.sol\":3480:3484  true */\n      0x01\n        /* \"contracts/MBD_Bank.sol\":3450:3484  userExistOrNot[msg.sender] == true */\n      iszero\n      iszero\n        /* \"contracts/MBD_Bank.sol\":3450:3464  userExistOrNot */\n      0x01\n        /* \"contracts/MBD_Bank.sol\":3450:3476  userExistOrNot[msg.sender] */\n      0x00\n        /* \"contracts/MBD_Bank.sol\":3465:3475  msg.sender */\n      caller\n        /* \"contracts/MBD_Bank.sol\":3450:3476  userExistOrNot[msg.sender] */\n      0xffffffffffffffffffffffffffffffffffffffff\n      and\n      0xffffffffffffffffffffffffffffffffffffffff\n      and\n      dup2\n      mstore\n      0x20\n      add\n      swap1\n      dup2\n      mstore\n      0x20\n      add\n      0x00\n      keccak256\n      0x00\n      swap1\n      sload\n      swap1\n      0x0100\n      exp\n      swap1\n      div\n      0xff\n      and\n        /* \"contracts/MBD_Bank.sol\":3450:3484  userExistOrNot[msg.sender] == true */\n      iszero\n      iszero\n      eq\n        /* \"contracts/MBD_Bank.sol\":3428:3551  require(... */\n      tag_46\n      jumpi\n      mload(0x40)\n      0x08c379a000000000000000000000000000000000000000000000000000000000\n      dup2\n      mstore\n      0x04\n      add\n      tag_47\n      swap1\n      tag_48\n      jump\t// in\n    tag_47:\n      mload(0x40)\n      dup1\n      swap2\n      sub\n      swap1\n      revert\n    tag_46:\n        /* \"contracts/MBD_Bank.sol\":3577:3590  balanceLedger */\n      0x00\n        /* \"contracts/MBD_Bank.sol\":3577:3602  balanceLedger[msg.sender] */\n      dup1\n        /* \"contracts/MBD_Bank.sol\":3591:3601  msg.sender */\n      caller\n        /* \"contracts/MBD_Bank.sol\":3577:3602  balanceLedger[msg.sender] */\n      0xffffffffffffffffffffffffffffffffffffffff\n      and\n      0xffffffffffffffffffffffffffffffffffffffff\n      and\n      dup2\n      mstore\n      0x20\n      add\n      swap1\n      dup2\n      mstore\n      0x20\n      add\n      0x00\n      keccak256\n      sload\n        /* \"contracts/MBD_Bank.sol\":3562:3602  _userBalance = balanceLedger[msg.sender] */\n      swap1\n      pop\n        /* \"contracts/MBD_Bank.sol\":3352:3610  function getBalance() public view returns (uint256 _userBalance) {... */\n      swap1\n      jump\t// out\n        /* \"contracts/MBD_Bank.sol\":2471:3189  function depositMoney() public payable  mapUser {... */\n    tag_18:\n        /* \"contracts/MBD_Bank.sol\":1620:1624  true */\n      0x01\n        /* \"contracts/MBD_Bank.sol\":1590:1624  userExistOrNot[msg.sender] != true */\n      iszero\n      iszero\n        /* \"contracts/MBD_Bank.sol\":1590:1604  userExistOrNot */\n      0x01\n        /* \"contracts/MBD_Bank.sol\":1590:1616  userExistOrNot[msg.sender] */\n      0x00\n        /* \"contracts/MBD_Bank.sol\":1605:1615  msg.sender */\n      caller\n        /* \"contracts/MBD_Bank.sol\":1590:1616  userExistOrNot[msg.sender] */\n      0xffffffffffffffffffffffffffffffffffffffff\n      and\n      0xffffffffffffffffffffffffffffffffffffffff\n      and\n      dup2\n      mstore\n      0x20\n      add\n      swap1\n      dup2\n      mstore\n      0x20\n      add\n      0x00\n      keccak256\n      0x00\n      swap1\n      sload\n      swap1\n      0x0100\n      exp\n      swap1\n      div\n      0xff\n      and\n        /* \"contracts/MBD_Bank.sol\":1590:1624  userExistOrNot[msg.sender] != true */\n      iszero\n      iszero\n      eq\n        /* \"contracts/MBD_Bank.sol\":1586:2016  if (userExistOrNot[msg.sender] != true) {... */\n      tag_50\n      jumpi\n        /* \"contracts/MBD_Bank.sol\":1670:1674  true */\n      0x01\n        /* \"contracts/MBD_Bank.sol\":1641:1655  userExistOrNot */\n      dup1\n        /* \"contracts/MBD_Bank.sol\":1641:1667  userExistOrNot[msg.sender] */\n      0x00\n        /* \"contracts/MBD_Bank.sol\":1656:1666  msg.sender */\n      caller\n        /* \"contracts/MBD_Bank.sol\":1641:1667  userExistOrNot[msg.sender] */\n      0xffffffffffffffffffffffffffffffffffffffff\n      and\n      0xffffffffffffffffffffffffffffffffffffffff\n      and\n      dup2\n      mstore\n      0x20\n      add\n      swap1\n      dup2\n      mstore\n      0x20\n      add\n      0x00\n      keccak256\n      0x00\n        /* \"contracts/MBD_Bank.sol\":1641:1674  userExistOrNot[msg.sender] = true */\n      0x0100\n      exp\n      dup2\n      sload\n      dup2\n      0xff\n      mul\n      not\n      and\n      swap1\n      dup4\n      iszero\n      iszero\n      mul\n      or\n      swap1\n      sstore\n      pop\n        /* \"contracts/MBD_Bank.sol\":1717:1718  0 */\n      0x00\n        /* \"contracts/MBD_Bank.sol\":1689:1702  balanceLedger */\n      dup1\n        /* \"contracts/MBD_Bank.sol\":1689:1714  balanceLedger[msg.sender] */\n      0x00\n        /* \"contracts/MBD_Bank.sol\":1703:1713  msg.sender */\n      caller\n        /* \"contracts/MBD_Bank.sol\":1689:1714  balanceLedger[msg.sender] */\n      0xffffffffffffffffffffffffffffffffffffffff\n      and\n      0xffffffffffffffffffffffffffffffffffffffff\n      and\n      dup2\n      mstore\n      0x20\n      add\n      swap1\n      dup2\n      mstore\n      0x20\n      add\n      0x00\n      keccak256\n        /* \"contracts/MBD_Bank.sol\":1689:1718  balanceLedger[msg.sender] = 0 */\n      dup2\n      swap1\n      sstore\n      pop\n        /* \"contracts/MBD_Bank.sol\":1770:1774  true */\n      0x01\n        /* \"contracts/MBD_Bank.sol\":1741:1755  userExistOrNot */\n      dup1\n        /* \"contracts/MBD_Bank.sol\":1741:1767  userExistOrNot[msg.sender] */\n      0x00\n        /* \"contracts/MBD_Bank.sol\":1756:1766  msg.sender */\n      caller\n        /* \"contracts/MBD_Bank.sol\":1741:1767  userExistOrNot[msg.sender] */\n      0xffffffffffffffffffffffffffffffffffffffff\n      and\n      0xffffffffffffffffffffffffffffffffffffffff\n      and\n      dup2\n      mstore\n      0x20\n      add\n      swap1\n      dup2\n      mstore\n      0x20\n      add\n      0x00\n      keccak256\n      0x00\n        /* \"contracts/MBD_Bank.sol\":1741:1774  userExistOrNot[msg.sender] = true */\n      0x0100\n      exp\n      dup2\n      sload\n      dup2\n      0xff\n      mul\n      not\n      and\n      swap1\n      dup4\n      iszero\n      iszero\n      mul\n      or\n      swap1\n      sstore\n        /* \"contracts/MBD_Bank.sol\":1733:1775  require(userExistOrNot[msg.sender] = true) */\n      tag_51\n      jumpi\n      0x00\n      dup1\n      revert\n    tag_51:\n        /* \"contracts/MBD_Bank.sol\":1827:1828  0 */\n      0x00\n        /* \"contracts/MBD_Bank.sol\":1798:1811  balanceLedger */\n      dup1\n        /* \"contracts/MBD_Bank.sol\":1798:1823  balanceLedger[msg.sender] */\n      0x00\n        /* \"contracts/MBD_Bank.sol\":1812:1822  msg.sender */\n      caller\n        /* \"contracts/MBD_Bank.sol\":1798:1823  balanceLedger[msg.sender] */\n      0xffffffffffffffffffffffffffffffffffffffff\n      and\n      0xffffffffffffffffffffffffffffffffffffffff\n      and\n      dup2\n      mstore\n      0x20\n      add\n      swap1\n      dup2\n      mstore\n      0x20\n      add\n      0x00\n      keccak256\n      sload\n        /* \"contracts/MBD_Bank.sol\":1798:1828  balanceLedger[msg.sender] == 0 */\n      eq\n        /* \"contracts/MBD_Bank.sol\":1790:1829  require(balanceLedger[msg.sender] == 0) */\n      tag_52\n      jumpi\n      0x00\n      dup1\n      revert\n    tag_52:\n        /* \"contracts/MBD_Bank.sol\":1849:2004  logTransactionFlow(... */\n      0x3928eb6c73f8b27f8264006f092393f8ff2e5684ac2e649d0a932ae36df69088\n        /* \"contracts/MBD_Bank.sol\":1886:1896  msg.sender */\n      caller\n        /* \"contracts/MBD_Bank.sol\":1964:1977  balanceLedger */\n      0x00\n        /* \"contracts/MBD_Bank.sol\":1964:1989  balanceLedger[msg.sender] */\n      dup1\n        /* \"contracts/MBD_Bank.sol\":1978:1988  msg.sender */\n      caller\n        /* \"contracts/MBD_Bank.sol\":1964:1989  balanceLedger[msg.sender] */\n      0xffffffffffffffffffffffffffffffffffffffff\n      and\n      0xffffffffffffffffffffffffffffffffffffffff\n      and\n      dup2\n      mstore\n      0x20\n      add\n      swap1\n      dup2\n      mstore\n      0x20\n      add\n      0x00\n      keccak256\n      sload\n        /* \"contracts/MBD_Bank.sol\":1849:2004  logTransactionFlow(... */\n      mload(0x40)\n      tag_53\n      swap3\n      swap2\n      swap1\n      tag_54\n      jump\t// in\n    tag_53:\n      mload(0x40)\n      dup1\n      swap2\n      sub\n      swap1\n      log1\n        /* \"contracts/MBD_Bank.sol\":1586:2016  if (userExistOrNot[msg.sender] != true) {... */\n    tag_50:\n        /* \"contracts/MBD_Bank.sol\":2688:2689  0 */\n      0x00\n        /* \"contracts/MBD_Bank.sol\":2676:2685  msg.value */\n      callvalue\n        /* \"contracts/MBD_Bank.sol\":2676:2689  msg.value > 0 */\n      gt\n        /* \"contracts/MBD_Bank.sol\":2654:2769  require(... */\n      tag_56\n      jumpi\n      mload(0x40)\n      0x08c379a000000000000000000000000000000000000000000000000000000000\n      dup2\n      mstore\n      0x04\n      add\n      tag_57\n      swap1\n      tag_58\n      jump\t// in\n    tag_57:\n      mload(0x40)\n      dup1\n      swap2\n      sub\n      swap1\n      revert\n    tag_56:\n        /* \"contracts/MBD_Bank.sol\":2815:2825  msg.sender */\n      caller\n        /* \"contracts/MBD_Bank.sol\":2815:2833  msg.sender.balance */\n      0xffffffffffffffffffffffffffffffffffffffff\n      and\n      balance\n        /* \"contracts/MBD_Bank.sol\":2802:2811  msg.value */\n      callvalue\n        /* \"contracts/MBD_Bank.sol\":2802:2833  msg.value <= msg.sender.balance */\n      gt\n      iszero\n        /* \"contracts/MBD_Bank.sol\":2780:2938  require(... */\n      tag_59\n      jumpi\n      mload(0x40)\n      0x08c379a000000000000000000000000000000000000000000000000000000000\n      dup2\n      mstore\n      0x04\n      add\n      tag_60\n      swap1\n      tag_61\n      jump\t// in\n    tag_60:\n      mload(0x40)\n      dup1\n      swap2\n      sub\n      swap1\n      revert\n    tag_59:\n        /* \"contracts/MBD_Bank.sol\":3005:3014  msg.value */\n      callvalue\n        /* \"contracts/MBD_Bank.sol\":2977:2990  balanceLedger */\n      0x00\n        /* \"contracts/MBD_Bank.sol\":2977:3002  balanceLedger[msg.sender] */\n      dup1\n        /* \"contracts/MBD_Bank.sol\":2991:3001  msg.sender */\n      caller\n        /* \"contracts/MBD_Bank.sol\":2977:3002  balanceLedger[msg.sender] */\n      0xffffffffffffffffffffffffffffffffffffffff\n      and\n      0xffffffffffffffffffffffffffffffffffffffff\n      and\n      dup2\n      mstore\n      0x20\n      add\n      swap1\n      dup2\n      mstore\n      0x20\n      add\n      0x00\n      keccak256\n      sload\n        /* \"contracts/MBD_Bank.sol\":2977:3014  balanceLedger[msg.sender] + msg.value */\n      tag_62\n      swap2\n      swap1\n      tag_42\n      jump\t// in\n    tag_62:\n        /* \"contracts/MBD_Bank.sol\":2949:2962  balanceLedger */\n      0x00\n        /* \"contracts/MBD_Bank.sol\":2949:2974  balanceLedger[msg.sender] */\n      dup1\n        /* \"contracts/MBD_Bank.sol\":2963:2973  msg.sender */\n      caller\n        /* \"contracts/MBD_Bank.sol\":2949:2974  balanceLedger[msg.sender] */\n      0xffffffffffffffffffffffffffffffffffffffff\n      and\n      0xffffffffffffffffffffffffffffffffffffffff\n      and\n      dup2\n      mstore\n      0x20\n      add\n      swap1\n      dup2\n      mstore\n      0x20\n      add\n      0x00\n      keccak256\n        /* \"contracts/MBD_Bank.sol\":2949:3014  balanceLedger[msg.sender] = balanceLedger[msg.sender] + msg.value */\n      dup2\n      swap1\n      sstore\n      pop\n        /* \"contracts/MBD_Bank.sol\":3030:3181  logTransactionFlow(... */\n      0x3928eb6c73f8b27f8264006f092393f8ff2e5684ac2e649d0a932ae36df69088\n        /* \"contracts/MBD_Bank.sol\":3063:3073  msg.sender */\n      caller\n        /* \"contracts/MBD_Bank.sol\":3145:3158  balanceLedger */\n      0x00\n        /* \"contracts/MBD_Bank.sol\":3145:3170  balanceLedger[msg.sender] */\n      dup1\n        /* \"contracts/MBD_Bank.sol\":3159:3169  msg.sender */\n      caller\n        /* \"contracts/MBD_Bank.sol\":3145:3170  balanceLedger[msg.sender] */\n      0xffffffffffffffffffffffffffffffffffffffff\n      and\n      0xffffffffffffffffffffffffffffffffffffffff\n      and\n      dup2\n      mstore\n      0x20\n      add\n      swap1\n      dup2\n      mstore\n      0x20\n      add\n      0x00\n      keccak256\n      sload\n        /* \"contracts/MBD_Bank.sol\":3030:3181  logTransactionFlow(... */\n      mload(0x40)\n      tag_63\n      swap3\n      swap2\n      swap1\n      tag_64\n      jump\t// in\n    tag_63:\n      mload(0x40)\n      dup1\n      swap2\n      sub\n      swap1\n      log1\n        /* \"contracts/MBD_Bank.sol\":2471:3189  function depositMoney() public payable  mapUser {... */\n      jump\t// out\n        /* \"contracts/MBD_Bank.sol\":3705:3964  function checkMBDBalance() external view returns (uint256 _MBD_Balance) {... */\n    tag_21:\n        /* \"contracts/MBD_Bank.sol\":3755:3775  uint256 _MBD_Balance */\n      0x00\n        /* \"contracts/MBD_Bank.sol\":3840:3844  true */\n      0x01\n        /* \"contracts/MBD_Bank.sol\":3810:3844  userExistOrNot[msg.sender] == true */\n      iszero\n      iszero\n        /* \"contracts/MBD_Bank.sol\":3810:3824  userExistOrNot */\n      0x01\n        /* \"contracts/MBD_Bank.sol\":3810:3836  userExistOrNot[msg.sender] */\n      0x00\n        /* \"contracts/MBD_Bank.sol\":3825:3835  msg.sender */\n      caller\n        /* \"contracts/MBD_Bank.sol\":3810:3836  userExistOrNot[msg.sender] */\n      0xffffffffffffffffffffffffffffffffffffffff\n      and\n      0xffffffffffffffffffffffffffffffffffffffff\n      and\n      dup2\n      mstore\n      0x20\n      add\n      swap1\n      dup2\n      mstore\n      0x20\n      add\n      0x00\n      keccak256\n      0x00\n      swap1\n      sload\n      swap1\n      0x0100\n      exp\n      swap1\n      div\n      0xff\n      and\n        /* \"contracts/MBD_Bank.sol\":3810:3844  userExistOrNot[msg.sender] == true */\n      iszero\n      iszero\n      eq\n        /* \"contracts/MBD_Bank.sol\":3788:3909  require(... */\n      tag_66\n      jumpi\n      mload(0x40)\n      0x08c379a000000000000000000000000000000000000000000000000000000000\n      dup2\n      mstore\n      0x04\n      add\n      tag_67\n      swap1\n      tag_31\n      jump\t// in\n    tag_67:\n      mload(0x40)\n      dup1\n      swap2\n      sub\n      swap1\n      revert\n    tag_66:\n        /* \"contracts/MBD_Bank.sol\":3935:3956  address(this).balance */\n      selfbalance\n        /* \"contracts/MBD_Bank.sol\":3920:3956  _MBD_Balance = address(this).balance */\n      swap1\n      pop\n        /* \"contracts/MBD_Bank.sol\":3705:3964  function checkMBDBalance() external view returns (uint256 _MBD_Balance) {... */\n      swap1\n      jump\t// out\n        /* \"contracts/MBD_Bank.sol\":4357:5771  function transferAmount(address payable receiverAddress, uint256 amount)... */\n    tag_26:\n        /* \"contracts/MBD_Bank.sol\":4503:4525  uint256 updatedBalance */\n      0x00\n        /* \"contracts/MBD_Bank.sol\":2291:2295  true */\n      0x01\n        /* \"contracts/MBD_Bank.sol\":2261:2295  userExistOrNot[msg.sender] == true */\n      iszero\n      iszero\n        /* \"contracts/MBD_Bank.sol\":2261:2275  userExistOrNot */\n      0x01\n        /* \"contracts/MBD_Bank.sol\":2261:2287  userExistOrNot[msg.sender] */\n      0x00\n        /* \"contracts/MBD_Bank.sol\":2276:2286  msg.sender */\n      caller\n        /* \"contracts/MBD_Bank.sol\":2261:2287  userExistOrNot[msg.sender] */\n      0xffffffffffffffffffffffffffffffffffffffff\n      and\n      0xffffffffffffffffffffffffffffffffffffffff\n      and\n      dup2\n      mstore\n      0x20\n      add\n      swap1\n      dup2\n      mstore\n      0x20\n      add\n      0x00\n      keccak256\n      0x00\n      swap1\n      sload\n      swap1\n      0x0100\n      exp\n      swap1\n      div\n      0xff\n      and\n        /* \"contracts/MBD_Bank.sol\":2261:2295  userExistOrNot[msg.sender] == true */\n      iszero\n      iszero\n      eq\n        /* \"contracts/MBD_Bank.sol\":2239:2360  require(... */\n      tag_69\n      jumpi\n      mload(0x40)\n      0x08c379a000000000000000000000000000000000000000000000000000000000\n      dup2\n      mstore\n      0x04\n      add\n      tag_70\n      swap1\n      tag_31\n      jump\t// in\n    tag_70:\n      mload(0x40)\n      dup1\n      swap2\n      sub\n      swap1\n      revert\n    tag_69:\n        /* \"contracts/MBD_Bank.sol\":4671:4695  uint256 senderOldBalance */\n      0x00\n        /* \"contracts/MBD_Bank.sol\":4698:4711  balanceLedger */\n      dup1\n        /* \"contracts/MBD_Bank.sol\":4698:4723  balanceLedger[msg.sender] */\n      0x00\n        /* \"contracts/MBD_Bank.sol\":4712:4722  msg.sender */\n      caller\n        /* \"contracts/MBD_Bank.sol\":4698:4723  balanceLedger[msg.sender] */\n      0xffffffffffffffffffffffffffffffffffffffff\n      and\n      0xffffffffffffffffffffffffffffffffffffffff\n      and\n      dup2\n      mstore\n      0x20\n      add\n      swap1\n      dup2\n      mstore\n      0x20\n      add\n      0x00\n      keccak256\n      sload\n        /* \"contracts/MBD_Bank.sol\":4671:4723  uint256 senderOldBalance = balanceLedger[msg.sender] */\n      swap1\n      pop\n        /* \"contracts/MBD_Bank.sol\":4734:4760  uint256 receiverOldBalance */\n      0x00\n        /* \"contracts/MBD_Bank.sol\":4763:4776  balanceLedger */\n      dup1\n        /* \"contracts/MBD_Bank.sol\":4763:4793  balanceLedger[receiverAddress] */\n      0x00\n        /* \"contracts/MBD_Bank.sol\":4777:4792  receiverAddress */\n      dup7\n        /* \"contracts/MBD_Bank.sol\":4763:4793  balanceLedger[receiverAddress] */\n      0xffffffffffffffffffffffffffffffffffffffff\n      and\n      0xffffffffffffffffffffffffffffffffffffffff\n      and\n      dup2\n      mstore\n      0x20\n      add\n      swap1\n      dup2\n      mstore\n      0x20\n      add\n      0x00\n      keccak256\n      sload\n        /* \"contracts/MBD_Bank.sol\":4734:4793  uint256 receiverOldBalance = balanceLedger[receiverAddress] */\n      swap1\n      pop\n        /* \"contracts/MBD_Bank.sol\":4863:4867  true */\n      0x01\n        /* \"contracts/MBD_Bank.sol\":4828:4867  userExistOrNot[receiverAddress] == true */\n      iszero\n      iszero\n        /* \"contracts/MBD_Bank.sol\":4828:4842  userExistOrNot */\n      0x01\n        /* \"contracts/MBD_Bank.sol\":4828:4859  userExistOrNot[receiverAddress] */\n      0x00\n        /* \"contracts/MBD_Bank.sol\":4843:4858  receiverAddress */\n      dup8\n        /* \"contracts/MBD_Bank.sol\":4828:4859  userExistOrNot[receiverAddress] */\n      0xffffffffffffffffffffffffffffffffffffffff\n      and\n      0xffffffffffffffffffffffffffffffffffffffff\n      and\n      dup2\n      mstore\n      0x20\n      add\n      swap1\n      dup2\n      mstore\n      0x20\n      add\n      0x00\n      keccak256\n      0x00\n      swap1\n      sload\n      swap1\n      0x0100\n      exp\n      swap1\n      div\n      0xff\n      and\n        /* \"contracts/MBD_Bank.sol\":4828:4867  userExistOrNot[receiverAddress] == true */\n      iszero\n      iszero\n      eq\n        /* \"contracts/MBD_Bank.sol\":4806:4937  require(... */\n      tag_72\n      jumpi\n      mload(0x40)\n      0x08c379a000000000000000000000000000000000000000000000000000000000\n      dup2\n      mstore\n      0x04\n      add\n      tag_73\n      swap1\n      tag_74\n      jump\t// in\n    tag_73:\n      mload(0x40)\n      dup1\n      swap2\n      sub\n      swap1\n      revert\n    tag_72:\n        /* \"contracts/MBD_Bank.sol\":4981:4982  0 */\n      0x00\n        /* \"contracts/MBD_Bank.sol\":4972:4978  amount */\n      dup5\n        /* \"contracts/MBD_Bank.sol\":4972:4982  amount > 0 */\n      gt\n        /* \"contracts/MBD_Bank.sol\":4950:5062  require(... */\n      tag_75\n      jumpi\n      mload(0x40)\n      0x08c379a000000000000000000000000000000000000000000000000000000000\n      dup2\n      mstore\n      0x04\n      add\n      tag_76\n      swap1\n      tag_77\n      jump\t// in\n    tag_76:\n      mload(0x40)\n      dup1\n      swap2\n      sub\n      swap1\n      revert\n    tag_75:\n        /* \"contracts/MBD_Bank.sol\":5126:5132  amount */\n      dup4\n        /* \"contracts/MBD_Bank.sol\":5097:5110  balanceLedger */\n      0x00\n        /* \"contracts/MBD_Bank.sol\":5097:5122  balanceLedger[msg.sender] */\n      dup1\n        /* \"contracts/MBD_Bank.sol\":5111:5121  msg.sender */\n      caller\n        /* \"contracts/MBD_Bank.sol\":5097:5122  balanceLedger[msg.sender] */\n      0xffffffffffffffffffffffffffffffffffffffff\n      and\n      0xffffffffffffffffffffffffffffffffffffffff\n      and\n      dup2\n      mstore\n      0x20\n      add\n      swap1\n      dup2\n      mstore\n      0x20\n      add\n      0x00\n      keccak256\n      sload\n        /* \"contracts/MBD_Bank.sol\":5097:5132  balanceLedger[msg.sender] >= amount */\n      lt\n      iszero\n        /* \"contracts/MBD_Bank.sol\":5075:5207  require(... */\n      tag_78\n      jumpi\n      mload(0x40)\n      0x08c379a000000000000000000000000000000000000000000000000000000000\n      dup2\n      mstore\n      0x04\n      add\n      tag_79\n      swap1\n      tag_38\n      jump\t// in\n    tag_79:\n      mload(0x40)\n      dup1\n      swap2\n      sub\n      swap1\n      revert\n    tag_78:\n        /* \"contracts/MBD_Bank.sol\":5220:5235  receiverAddress */\n      dup5\n        /* \"contracts/MBD_Bank.sol\":5220:5244  receiverAddress.transfer */\n      0xffffffffffffffffffffffffffffffffffffffff\n      and\n        /* \"contracts/MBD_Bank.sol\":5220:5252  receiverAddress.transfer(amount) */\n      0x08fc\n        /* \"contracts/MBD_Bank.sol\":5245:5251  amount */\n      dup6\n        /* \"contracts/MBD_Bank.sol\":5220:5252  receiverAddress.transfer(amount) */\n      swap1\n      dup2\n      iszero\n      mul\n      swap1\n      mload(0x40)\n      0x00\n      mload(0x40)\n      dup1\n      dup4\n      sub\n      dup2\n      dup6\n      dup9\n      dup9\n      call\n      swap4\n      pop\n      pop\n      pop\n      pop\n      iszero\n      dup1\n      iszero\n      tag_81\n      jumpi\n      returndatasize\n      0x00\n      dup1\n      returndatacopy\n      revert(0x00, returndatasize)\n    tag_81:\n      pop\n        /* \"contracts/MBD_Bank.sol\":5310:5316  amount */\n      dup4\n        /* \"contracts/MBD_Bank.sol\":5291:5307  senderOldBalance */\n      dup3\n        /* \"contracts/MBD_Bank.sol\":5291:5316  senderOldBalance - amount */\n      tag_82\n      swap2\n      swap1\n      tag_83\n      jump\t// in\n    tag_82:\n        /* \"contracts/MBD_Bank.sol\":5263:5276  balanceLedger */\n      0x00\n        /* \"contracts/MBD_Bank.sol\":5263:5288  balanceLedger[msg.sender] */\n      dup1\n        /* \"contracts/MBD_Bank.sol\":5277:5287  msg.sender */\n      caller\n        /* \"contracts/MBD_Bank.sol\":5263:5288  balanceLedger[msg.sender] */\n      0xffffffffffffffffffffffffffffffffffffffff\n      and\n      0xffffffffffffffffffffffffffffffffffffffff\n      and\n      dup2\n      mstore\n      0x20\n      add\n      swap1\n      dup2\n      mstore\n      0x20\n      add\n      0x00\n      keccak256\n        /* \"contracts/MBD_Bank.sol\":5263:5316  balanceLedger[msg.sender] = senderOldBalance - amount */\n      dup2\n      swap1\n      sstore\n      pop\n        /* \"contracts/MBD_Bank.sol\":5381:5387  amount */\n      dup4\n        /* \"contracts/MBD_Bank.sol\":5360:5378  receiverOldBalance */\n      dup2\n        /* \"contracts/MBD_Bank.sol\":5360:5387  receiverOldBalance + amount */\n      tag_84\n      swap2\n      swap1\n      tag_42\n      jump\t// in\n    tag_84:\n        /* \"contracts/MBD_Bank.sol\":5327:5340  balanceLedger */\n      0x00\n        /* \"contracts/MBD_Bank.sol\":5327:5357  balanceLedger[receiverAddress] */\n      dup1\n        /* \"contracts/MBD_Bank.sol\":5341:5356  receiverAddress */\n      dup8\n        /* \"contracts/MBD_Bank.sol\":5327:5357  balanceLedger[receiverAddress] */\n      0xffffffffffffffffffffffffffffffffffffffff\n      and\n      0xffffffffffffffffffffffffffffffffffffffff\n      and\n      dup2\n      mstore\n      0x20\n      add\n      swap1\n      dup2\n      mstore\n      0x20\n      add\n      0x00\n      keccak256\n        /* \"contracts/MBD_Bank.sol\":5327:5387  balanceLedger[receiverAddress] = receiverOldBalance + amount */\n      dup2\n      swap1\n      sstore\n      pop\n        /* \"contracts/MBD_Bank.sol\":5403:5541  logTransactionFlow(... */\n      0x3928eb6c73f8b27f8264006f092393f8ff2e5684ac2e649d0a932ae36df69088\n        /* \"contracts/MBD_Bank.sol\":5436:5446  msg.sender */\n      caller\n        /* \"contracts/MBD_Bank.sol\":5505:5518  balanceLedger */\n      0x00\n        /* \"contracts/MBD_Bank.sol\":5505:5530  balanceLedger[msg.sender] */\n      dup1\n        /* \"contracts/MBD_Bank.sol\":5519:5529  msg.sender */\n      caller\n        /* \"contracts/MBD_Bank.sol\":5505:5530  balanceLedger[msg.sender] */\n      0xffffffffffffffffffffffffffffffffffffffff\n      and\n      0xffffffffffffffffffffffffffffffffffffffff\n      and\n      dup2\n      mstore\n      0x20\n      add\n      swap1\n      dup2\n      mstore\n      0x20\n      add\n      0x00\n      keccak256\n      sload\n        /* \"contracts/MBD_Bank.sol\":5403:5541  logTransactionFlow(... */\n      mload(0x40)\n      tag_85\n      swap3\n      swap2\n      swap1\n      tag_86\n      jump\t// in\n    tag_85:\n      mload(0x40)\n      dup1\n      swap2\n      sub\n      swap1\n      log1\n        /* \"contracts/MBD_Bank.sol\":5557:5708  logTransactionFlow(... */\n      0x3928eb6c73f8b27f8264006f092393f8ff2e5684ac2e649d0a932ae36df69088\n        /* \"contracts/MBD_Bank.sol\":5590:5605  receiverAddress */\n      dup6\n        /* \"contracts/MBD_Bank.sol\":5667:5680  balanceLedger */\n      0x00\n        /* \"contracts/MBD_Bank.sol\":5667:5697  balanceLedger[receiverAddress] */\n      dup1\n        /* \"contracts/MBD_Bank.sol\":5681:5696  receiverAddress */\n      dup9\n        /* \"contracts/MBD_Bank.sol\":5667:5697  balanceLedger[receiverAddress] */\n      0xffffffffffffffffffffffffffffffffffffffff\n      and\n      0xffffffffffffffffffffffffffffffffffffffff\n      and\n      dup2\n      mstore\n      0x20\n      add\n      swap1\n      dup2\n      mstore\n      0x20\n      add\n      0x00\n      keccak256\n      sload\n        /* \"contracts/MBD_Bank.sol\":5557:5708  logTransactionFlow(... */\n      mload(0x40)\n      tag_87\n      swap3\n      swap2\n      swap1\n      tag_88\n      jump\t// in\n    tag_87:\n      mload(0x40)\n      dup1\n      swap2\n      sub\n      swap1\n      log1\n        /* \"contracts/MBD_Bank.sol\":5738:5751  balanceLedger */\n      0x00\n        /* \"contracts/MBD_Bank.sol\":5738:5763  balanceLedger[msg.sender] */\n      dup1\n        /* \"contracts/MBD_Bank.sol\":5752:5762  msg.sender */\n      caller\n        /* \"contracts/MBD_Bank.sol\":5738:5763  balanceLedger[msg.sender] */\n      0xffffffffffffffffffffffffffffffffffffffff\n      and\n      0xffffffffffffffffffffffffffffffffffffffff\n      and\n      dup2\n      mstore\n      0x20\n      add\n      swap1\n      dup2\n      mstore\n      0x20\n      add\n      0x00\n      keccak256\n      sload\n        /* \"contracts/MBD_Bank.sol\":5721:5763  updatedBalance = balanceLedger[msg.sender] */\n      swap3\n      pop\n        /* \"contracts/MBD_Bank.sol\":4532:5771  {... */\n      pop\n      pop\n        /* \"contracts/MBD_Bank.sol\":4357:5771  function transferAmount(address payable receiverAddress, uint256 amount)... */\n      swap3\n      swap2\n      pop\n      pop\n      jump\t// out\n        /* \"#utility.yul\":88:205   */\n    tag_90:\n        /* \"#utility.yul\":197:198   */\n      0x00\n        /* \"#utility.yul\":194:195   */\n      dup1\n        /* \"#utility.yul\":187:199   */\n      revert\n        /* \"#utility.yul\":334:411   */\n    tag_92:\n        /* \"#utility.yul\":371:378   */\n      0x00\n        /* \"#utility.yul\":400:405   */\n      dup2\n        /* \"#utility.yul\":389:405   */\n      swap1\n      pop\n        /* \"#utility.yul\":334:411   */\n      swap2\n      swap1\n      pop\n      jump\t// out\n        /* \"#utility.yul\":417:539   */\n    tag_93:\n        /* \"#utility.yul\":490:514   */\n      tag_141\n        /* \"#utility.yul\":508:513   */\n      dup2\n        /* \"#utility.yul\":490:514   */\n      tag_92\n      jump\t// in\n    tag_141:\n        /* \"#utility.yul\":483:488   */\n      dup2\n        /* \"#utility.yul\":480:515   */\n      eq\n        /* \"#utility.yul\":470:533   */\n      tag_142\n      jumpi\n        /* \"#utility.yul\":529:530   */\n      0x00\n        /* \"#utility.yul\":526:527   */\n      dup1\n        /* \"#utility.yul\":519:531   */\n      revert\n        /* \"#utility.yul\":470:533   */\n    tag_142:\n        /* \"#utility.yul\":417:539   */\n      pop\n      jump\t// out\n        /* \"#utility.yul\":545:684   */\n    tag_94:\n        /* \"#utility.yul\":591:596   */\n      0x00\n        /* \"#utility.yul\":629:635   */\n      dup2\n        /* \"#utility.yul\":616:636   */\n      calldataload\n        /* \"#utility.yul\":607:636   */\n      swap1\n      pop\n        /* \"#utility.yul\":645:678   */\n      tag_144\n        /* \"#utility.yul\":672:677   */\n      dup2\n        /* \"#utility.yul\":645:678   */\n      tag_93\n      jump\t// in\n    tag_144:\n        /* \"#utility.yul\":545:684   */\n      swap3\n      swap2\n      pop\n      pop\n      jump\t// out\n        /* \"#utility.yul\":690:1019   */\n    tag_10:\n        /* \"#utility.yul\":749:755   */\n      0x00\n        /* \"#utility.yul\":798:800   */\n      0x20\n        /* \"#utility.yul\":786:795   */\n      dup3\n        /* \"#utility.yul\":777:784   */\n      dup5\n        /* \"#utility.yul\":773:796   */\n      sub\n        /* \"#utility.yul\":769:801   */\n      slt\n        /* \"#utility.yul\":766:885   */\n      iszero\n      tag_146\n      jumpi\n        /* \"#utility.yul\":804:883   */\n      tag_147\n      tag_90\n      jump\t// in\n    tag_147:\n        /* \"#utility.yul\":766:885   */\n    tag_146:\n        /* \"#utility.yul\":924:925   */\n      0x00\n        /* \"#utility.yul\":949:1002   */\n      tag_148\n        /* \"#utility.yul\":994:1001   */\n      dup5\n        /* \"#utility.yul\":985:991   */\n      dup3\n        /* \"#utility.yul\":974:983   */\n      dup6\n        /* \"#utility.yul\":970:992   */\n      add\n        /* \"#utility.yul\":949:1002   */\n      tag_94\n      jump\t// in\n    tag_148:\n        /* \"#utility.yul\":939:1002   */\n      swap2\n      pop\n        /* \"#utility.yul\":895:1012   */\n      pop\n        /* \"#utility.yul\":690:1019   */\n      swap3\n      swap2\n      pop\n      pop\n      jump\t// out\n        /* \"#utility.yul\":1025:1143   */\n    tag_95:\n        /* \"#utility.yul\":1112:1136   */\n      tag_150\n        /* \"#utility.yul\":1130:1135   */\n      dup2\n        /* \"#utility.yul\":1112:1136   */\n      tag_92\n      jump\t// in\n    tag_150:\n        /* \"#utility.yul\":1107:1110   */\n      dup3\n        /* \"#utility.yul\":1100:1137   */\n      mstore\n        /* \"#utility.yul\":1025:1143   */\n      pop\n      pop\n      jump\t// out\n        /* \"#utility.yul\":1149:1371   */\n    tag_16:\n        /* \"#utility.yul\":1242:1246   */\n      0x00\n        /* \"#utility.yul\":1280:1282   */\n      0x20\n        /* \"#utility.yul\":1269:1278   */\n      dup3\n        /* \"#utility.yul\":1265:1283   */\n      add\n        /* \"#utility.yul\":1257:1283   */\n      swap1\n      pop\n        /* \"#utility.yul\":1293:1364   */\n      tag_152\n        /* \"#utility.yul\":1361:1362   */\n      0x00\n        /* \"#utility.yul\":1350:1359   */\n      dup4\n        /* \"#utility.yul\":1346:1363   */\n      add\n        /* \"#utility.yul\":1337:1343   */\n      dup5\n        /* \"#utility.yul\":1293:1364   */\n      tag_95\n      jump\t// in\n    tag_152:\n        /* \"#utility.yul\":1149:1371   */\n      swap3\n      swap2\n      pop\n      pop\n      jump\t// out\n        /* \"#utility.yul\":1377:1503   */\n    tag_96:\n        /* \"#utility.yul\":1414:1421   */\n      0x00\n        /* \"#utility.yul\":1454:1496   */\n      0xffffffffffffffffffffffffffffffffffffffff\n        /* \"#utility.yul\":1447:1452   */\n      dup3\n        /* \"#utility.yul\":1443:1497   */\n      and\n        /* \"#utility.yul\":1432:1497   */\n      swap1\n      pop\n        /* \"#utility.yul\":1377:1503   */\n      swap2\n      swap1\n      pop\n      jump\t// out\n        /* \"#utility.yul\":1509:1613   */\n    tag_97:\n        /* \"#utility.yul\":1554:1561   */\n      0x00\n        /* \"#utility.yul\":1583:1607   */\n      tag_155\n        /* \"#utility.yul\":1601:1606   */\n      dup3\n        /* \"#utility.yul\":1583:1607   */\n      tag_96\n      jump\t// in\n    tag_155:\n        /* \"#utility.yul\":1572:1607   */\n      swap1\n      pop\n        /* \"#utility.yul\":1509:1613   */\n      swap2\n      swap1\n      pop\n      jump\t// out\n        /* \"#utility.yul\":1619:1757   */\n    tag_98:\n        /* \"#utility.yul\":1700:1732   */\n      tag_157\n        /* \"#utility.yul\":1726:1731   */\n      dup2\n        /* \"#utility.yul\":1700:1732   */\n      tag_97\n      jump\t// in\n    tag_157:\n        /* \"#utility.yul\":1693:1698   */\n      dup2\n        /* \"#utility.yul\":1690:1733   */\n      eq\n        /* \"#utility.yul\":1680:1751   */\n      tag_158\n      jumpi\n        /* \"#utility.yul\":1747:1748   */\n      0x00\n        /* \"#utility.yul\":1744:1745   */\n      dup1\n        /* \"#utility.yul\":1737:1749   */\n      revert\n        /* \"#utility.yul\":1680:1751   */\n    tag_158:\n        /* \"#utility.yul\":1619:1757   */\n      pop\n      jump\t// out\n        /* \"#utility.yul\":1763:1918   */\n    tag_99:\n        /* \"#utility.yul\":1817:1822   */\n      0x00\n        /* \"#utility.yul\":1855:1861   */\n      dup2\n        /* \"#utility.yul\":1842:1862   */\n      calldataload\n        /* \"#utility.yul\":1833:1862   */\n      swap1\n      pop\n        /* \"#utility.yul\":1871:1912   */\n      tag_160\n        /* \"#utility.yul\":1906:1911   */\n      dup2\n        /* \"#utility.yul\":1871:1912   */\n      tag_98\n      jump\t// in\n    tag_160:\n        /* \"#utility.yul\":1763:1918   */\n      swap3\n      swap2\n      pop\n      pop\n      jump\t// out\n        /* \"#utility.yul\":1924:2414   */\n    tag_25:\n        /* \"#utility.yul\":2000:2006   */\n      0x00\n        /* \"#utility.yul\":2008:2014   */\n      dup1\n        /* \"#utility.yul\":2057:2059   */\n      0x40\n        /* \"#utility.yul\":2045:2054   */\n      dup4\n        /* \"#utility.yul\":2036:2043   */\n      dup6\n        /* \"#utility.yul\":2032:2055   */\n      sub\n        /* \"#utility.yul\":2028:2060   */\n      slt\n        /* \"#utility.yul\":2025:2144   */\n      iszero\n      tag_162\n      jumpi\n        /* \"#utility.yul\":2063:2142   */\n      tag_163\n      tag_90\n      jump\t// in\n    tag_163:\n        /* \"#utility.yul\":2025:2144   */\n    tag_162:\n        /* \"#utility.yul\":2183:2184   */\n      0x00\n        /* \"#utility.yul\":2208:2269   */\n      tag_164\n        /* \"#utility.yul\":2261:2268   */\n      dup6\n        /* \"#utility.yul\":2252:2258   */\n      dup3\n        /* \"#utility.yul\":2241:2250   */\n      dup7\n        /* \"#utility.yul\":2237:2259   */\n      add\n        /* \"#utility.yul\":2208:2269   */\n      tag_99\n      jump\t// in\n    tag_164:\n        /* \"#utility.yul\":2198:2269   */\n      swap3\n      pop\n        /* \"#utility.yul\":2154:2279   */\n      pop\n        /* \"#utility.yul\":2318:2320   */\n      0x20\n        /* \"#utility.yul\":2344:2397   */\n      tag_165\n        /* \"#utility.yul\":2389:2396   */\n      dup6\n        /* \"#utility.yul\":2380:2386   */\n      dup3\n        /* \"#utility.yul\":2369:2378   */\n      dup7\n        /* \"#utility.yul\":2365:2387   */\n      add\n        /* \"#utility.yul\":2344:2397   */\n      tag_94\n      jump\t// in\n    tag_165:\n        /* \"#utility.yul\":2334:2397   */\n      swap2\n      pop\n        /* \"#utility.yul\":2289:2407   */\n      pop\n        /* \"#utility.yul\":1924:2414   */\n      swap3\n      pop\n      swap3\n      swap1\n      pop\n      jump\t// out\n        /* \"#utility.yul\":2420:2589   */\n    tag_100:\n        /* \"#utility.yul\":2504:2515   */\n      0x00\n        /* \"#utility.yul\":2538:2544   */\n      dup3\n        /* \"#utility.yul\":2533:2536   */\n      dup3\n        /* \"#utility.yul\":2526:2545   */\n      mstore\n        /* \"#utility.yul\":2578:2582   */\n      0x20\n        /* \"#utility.yul\":2573:2576   */\n      dup3\n        /* \"#utility.yul\":2569:2583   */\n      add\n        /* \"#utility.yul\":2554:2583   */\n      swap1\n      pop\n        /* \"#utility.yul\":2420:2589   */\n      swap3\n      swap2\n      pop\n      pop\n      jump\t// out\n        /* \"#utility.yul\":2595:2819   */\n    tag_101:\n        /* \"#utility.yul\":2735:2769   */\n      0x4f4f502773202c20596f7520617265206e6f74204d42442042616e6b20637573\n        /* \"#utility.yul\":2731:2732   */\n      0x00\n        /* \"#utility.yul\":2723:2729   */\n      dup3\n        /* \"#utility.yul\":2719:2733   */\n      add\n        /* \"#utility.yul\":2712:2770   */\n      mstore\n        /* \"#utility.yul\":2804:2811   */\n      0x746f6d6572000000000000000000000000000000000000000000000000000000\n        /* \"#utility.yul\":2799:2801   */\n      0x20\n        /* \"#utility.yul\":2791:2797   */\n      dup3\n        /* \"#utility.yul\":2787:2802   */\n      add\n        /* \"#utility.yul\":2780:2812   */\n      mstore\n        /* \"#utility.yul\":2595:2819   */\n      pop\n      jump\t// out\n        /* \"#utility.yul\":2825:3191   */\n    tag_102:\n        /* \"#utility.yul\":2967:2970   */\n      0x00\n        /* \"#utility.yul\":2988:3055   */\n      tag_169\n        /* \"#utility.yul\":3052:3054   */\n      0x25\n        /* \"#utility.yul\":3047:3050   */\n      dup4\n        /* \"#utility.yul\":2988:3055   */\n      tag_100\n      jump\t// in\n    tag_169:\n        /* \"#utility.yul\":2981:3055   */\n      swap2\n      pop\n        /* \"#utility.yul\":3064:3157   */\n      tag_170\n        /* \"#utility.yul\":3153:3156   */\n      dup3\n        /* \"#utility.yul\":3064:3157   */\n      tag_101\n      jump\t// in\n    tag_170:\n        /* \"#utility.yul\":3182:3184   */\n      0x40\n        /* \"#utility.yul\":3177:3180   */\n      dup3\n        /* \"#utility.yul\":3173:3185   */\n      add\n        /* \"#utility.yul\":3166:3185   */\n      swap1\n      pop\n        /* \"#utility.yul\":2825:3191   */\n      swap2\n      swap1\n      pop\n      jump\t// out\n        /* \"#utility.yul\":3197:3616   */\n    tag_31:\n        /* \"#utility.yul\":3363:3367   */\n      0x00\n        /* \"#utility.yul\":3401:3403   */\n      0x20\n        /* \"#utility.yul\":3390:3399   */\n      dup3\n        /* \"#utility.yul\":3386:3404   */\n      add\n        /* \"#utility.yul\":3378:3404   */\n      swap1\n      pop\n        /* \"#utility.yul\":3450:3459   */\n      dup2\n        /* \"#utility.yul\":3444:3448   */\n      dup2\n        /* \"#utility.yul\":3440:3460   */\n      sub\n        /* \"#utility.yul\":3436:3437   */\n      0x00\n        /* \"#utility.yul\":3425:3434   */\n      dup4\n        /* \"#utility.yul\":3421:3438   */\n      add\n        /* \"#utility.yul\":3414:3461   */\n      mstore\n        /* \"#utility.yul\":3478:3609   */\n      tag_172\n        /* \"#utility.yul\":3604:3608   */\n      dup2\n        /* \"#utility.yul\":3478:3609   */\n      tag_102\n      jump\t// in\n    tag_172:\n        /* \"#utility.yul\":3470:3609   */\n      swap1\n      pop\n        /* \"#utility.yul\":3197:3616   */\n      swap2\n      swap1\n      pop\n      jump\t// out\n        /* \"#utility.yul\":3622:3861   */\n    tag_103:\n        /* \"#utility.yul\":3762:3796   */\n      0x696e76616c696420616d6f756e7421212120616d6f756e742073686f756c6420\n        /* \"#utility.yul\":3758:3759   */\n      0x00\n        /* \"#utility.yul\":3750:3756   */\n      dup3\n        /* \"#utility.yul\":3746:3760   */\n      add\n        /* \"#utility.yul\":3739:3797   */\n      mstore\n        /* \"#utility.yul\":3831:3853   */\n      0x62652067726561746572207468616e207a65726f000000000000000000000000\n        /* \"#utility.yul\":3826:3828   */\n      0x20\n        /* \"#utility.yul\":3818:3824   */\n      dup3\n        /* \"#utility.yul\":3814:3829   */\n      add\n        /* \"#utility.yul\":3807:3854   */\n      mstore\n        /* \"#utility.yul\":3622:3861   */\n      pop\n      jump\t// out\n        /* \"#utility.yul\":3867:4233   */\n    tag_104:\n        /* \"#utility.yul\":4009:4012   */\n      0x00\n        /* \"#utility.yul\":4030:4097   */\n      tag_175\n        /* \"#utility.yul\":4094:4096   */\n      0x34\n        /* \"#utility.yul\":4089:4092   */\n      dup4\n        /* \"#utility.yul\":4030:4097   */\n      tag_100\n      jump\t// in\n    tag_175:\n        /* \"#utility.yul\":4023:4097   */\n      swap2\n      pop\n        /* \"#utility.yul\":4106:4199   */\n      tag_176\n        /* \"#utility.yul\":4195:4198   */\n      dup3\n        /* \"#utility.yul\":4106:4199   */\n      tag_103\n      jump\t// in\n    tag_176:\n        /* \"#utility.yul\":4224:4226   */\n      0x40\n        /* \"#utility.yul\":4219:4222   */\n      dup3\n        /* \"#utility.yul\":4215:4227   */\n      add\n        /* \"#utility.yul\":4208:4227   */\n      swap1\n      pop\n        /* \"#utility.yul\":3867:4233   */\n      swap2\n      swap1\n      pop\n      jump\t// out\n        /* \"#utility.yul\":4239:4658   */\n    tag_35:\n        /* \"#utility.yul\":4405:4409   */\n      0x00\n        /* \"#utility.yul\":4443:4445   */\n      0x20\n        /* \"#utility.yul\":4432:4441   */\n      dup3\n        /* \"#utility.yul\":4428:4446   */\n      add\n        /* \"#utility.yul\":4420:4446   */\n      swap1\n      pop\n        /* \"#utility.yul\":4492:4501   */\n      dup2\n        /* \"#utility.yul\":4486:4490   */\n      dup2\n        /* \"#utility.yul\":4482:4502   */\n      sub\n        /* \"#utility.yul\":4478:4479   */\n      0x00\n        /* \"#utility.yul\":4467:4476   */\n      dup4\n        /* \"#utility.yul\":4463:4480   */\n      add\n        /* \"#utility.yul\":4456:4503   */\n      mstore\n        /* \"#utility.yul\":4520:4651   */\n      tag_178\n        /* \"#utility.yul\":4646:4650   */\n      dup2\n        /* \"#utility.yul\":4520:4651   */\n      tag_104\n      jump\t// in\n    tag_178:\n        /* \"#utility.yul\":4512:4651   */\n      swap1\n      pop\n        /* \"#utility.yul\":4239:4658   */\n      swap2\n      swap1\n      pop\n      jump\t// out\n        /* \"#utility.yul\":4664:4898   */\n    tag_105:\n        /* \"#utility.yul\":4804:4838   */\n      0x696e737566666963656e742062616c616e636520746f20706572666f726d2074\n        /* \"#utility.yul\":4800:4801   */\n      0x00\n        /* \"#utility.yul\":4792:4798   */\n      dup3\n        /* \"#utility.yul\":4788:4802   */\n      add\n        /* \"#utility.yul\":4781:4839   */\n      mstore\n        /* \"#utility.yul\":4873:4890   */\n      0x686973207472616e73616374696f6e0000000000000000000000000000000000\n        /* \"#utility.yul\":4868:4870   */\n      0x20\n        /* \"#utility.yul\":4860:4866   */\n      dup3\n        /* \"#utility.yul\":4856:4871   */\n      add\n        /* \"#utility.yul\":4849:4891   */\n      mstore\n        /* \"#utility.yul\":4664:4898   */\n      pop\n      jump\t// out\n        /* \"#utility.yul\":4904:5270   */\n    tag_106:\n        /* \"#utility.yul\":5046:5049   */\n      0x00\n        /* \"#utility.yul\":5067:5134   */\n      tag_181\n        /* \"#utility.yul\":5131:5133   */\n      0x2f\n        /* \"#utility.yul\":5126:5129   */\n      dup4\n        /* \"#utility.yul\":5067:5134   */\n      tag_100\n      jump\t// in\n    tag_181:\n        /* \"#utility.yul\":5060:5134   */\n      swap2\n      pop\n        /* \"#utility.yul\":5143:5236   */\n      tag_182\n        /* \"#utility.yul\":5232:5235   */\n      dup3\n        /* \"#utility.yul\":5143:5236   */\n      tag_105\n      jump\t// in\n    tag_182:\n        /* \"#utility.yul\":5261:5263   */\n      0x40\n        /* \"#utility.yul\":5256:5259   */\n      dup3\n        /* \"#utility.yul\":5252:5264   */\n      add\n        /* \"#utility.yul\":5245:5264   */\n      swap1\n      pop\n        /* \"#utility.yul\":4904:5270   */\n      swap2\n      swap1\n      pop\n      jump\t// out\n        /* \"#utility.yul\":5276:5695   */\n    tag_38:\n        /* \"#utility.yul\":5442:5446   */\n      0x00\n        /* \"#utility.yul\":5480:5482   */\n      0x20\n        /* \"#utility.yul\":5469:5478   */\n      dup3\n        /* \"#utility.yul\":5465:5483   */\n      add\n        /* \"#utility.yul\":5457:5483   */\n      swap1\n      pop\n        /* \"#utility.yul\":5529:5538   */\n      dup2\n        /* \"#utility.yul\":5523:5527   */\n      dup2\n        /* \"#utility.yul\":5519:5539   */\n      sub\n        /* \"#utility.yul\":5515:5516   */\n      0x00\n        /* \"#utility.yul\":5504:5513   */\n      dup4\n        /* \"#utility.yul\":5500:5517   */\n      add\n        /* \"#utility.yul\":5493:5540   */\n      mstore\n        /* \"#utility.yul\":5557:5688   */\n      tag_184\n        /* \"#utility.yul\":5683:5687   */\n      dup2\n        /* \"#utility.yul\":5557:5688   */\n      tag_106\n      jump\t// in\n    tag_184:\n        /* \"#utility.yul\":5549:5688   */\n      swap1\n      pop\n        /* \"#utility.yul\":5276:5695   */\n      swap2\n      swap1\n      pop\n      jump\t// out\n        /* \"#utility.yul\":5701:5881   */\n    tag_107:\n        /* \"#utility.yul\":5749:5826   */\n      0x4e487b7100000000000000000000000000000000000000000000000000000000\n        /* \"#utility.yul\":5746:5747   */\n      0x00\n        /* \"#utility.yul\":5739:5827   */\n      mstore\n        /* \"#utility.yul\":5846:5850   */\n      0x11\n        /* \"#utility.yul\":5843:5844   */\n      0x04\n        /* \"#utility.yul\":5836:5851   */\n      mstore\n        /* \"#utility.yul\":5870:5874   */\n      0x24\n        /* \"#utility.yul\":5867:5868   */\n      0x00\n        /* \"#utility.yul\":5860:5875   */\n      revert\n        /* \"#utility.yul\":5887:6078   */\n    tag_42:\n        /* \"#utility.yul\":5927:5930   */\n      0x00\n        /* \"#utility.yul\":5946:5966   */\n      tag_187\n        /* \"#utility.yul\":5964:5965   */\n      dup3\n        /* \"#utility.yul\":5946:5966   */\n      tag_92\n      jump\t// in\n    tag_187:\n        /* \"#utility.yul\":5941:5966   */\n      swap2\n      pop\n        /* \"#utility.yul\":5980:6000   */\n      tag_188\n        /* \"#utility.yul\":5998:5999   */\n      dup4\n        /* \"#utility.yul\":5980:6000   */\n      tag_92\n      jump\t// in\n    tag_188:\n        /* \"#utility.yul\":5975:6000   */\n      swap3\n      pop\n        /* \"#utility.yul\":6023:6024   */\n      dup3\n        /* \"#utility.yul\":6020:6021   */\n      dup3\n        /* \"#utility.yul\":6016:6025   */\n      add\n        /* \"#utility.yul\":6009:6025   */\n      swap1\n      pop\n        /* \"#utility.yul\":6044:6047   */\n      dup1\n        /* \"#utility.yul\":6041:6042   */\n      dup3\n        /* \"#utility.yul\":6038:6048   */\n      gt\n        /* \"#utility.yul\":6035:6071   */\n      iszero\n      tag_189\n      jumpi\n        /* \"#utility.yul\":6051:6069   */\n      tag_190\n      tag_107\n      jump\t// in\n    tag_190:\n        /* \"#utility.yul\":6035:6071   */\n    tag_189:\n        /* \"#utility.yul\":5887:6078   */\n      swap3\n      swap2\n      pop\n      pop\n      jump\t// out\n        /* \"#utility.yul\":6084:6180   */\n    tag_108:\n        /* \"#utility.yul\":6121:6128   */\n      0x00\n        /* \"#utility.yul\":6150:6174   */\n      tag_192\n        /* \"#utility.yul\":6168:6173   */\n      dup3\n        /* \"#utility.yul\":6150:6174   */\n      tag_96\n      jump\t// in\n    tag_192:\n        /* \"#utility.yul\":6139:6174   */\n      swap1\n      pop\n        /* \"#utility.yul\":6084:6180   */\n      swap2\n      swap1\n      pop\n      jump\t// out\n        /* \"#utility.yul\":6186:6304   */\n    tag_109:\n        /* \"#utility.yul\":6273:6297   */\n      tag_194\n        /* \"#utility.yul\":6291:6296   */\n      dup2\n        /* \"#utility.yul\":6273:6297   */\n      tag_108\n      jump\t// in\n    tag_194:\n        /* \"#utility.yul\":6268:6271   */\n      dup3\n        /* \"#utility.yul\":6261:6298   */\n      mstore\n        /* \"#utility.yul\":6186:6304   */\n      pop\n      pop\n      jump\t// out\n        /* \"#utility.yul\":6310:6542   */\n    tag_110:\n        /* \"#utility.yul\":6450:6484   */\n      0x416d6f756e742077697468647261776e207375636365737366756c6c7920746f\n        /* \"#utility.yul\":6446:6447   */\n      0x00\n        /* \"#utility.yul\":6438:6444   */\n      dup3\n        /* \"#utility.yul\":6434:6448   */\n      add\n        /* \"#utility.yul\":6427:6485   */\n      mstore\n        /* \"#utility.yul\":6519:6534   */\n      0x20796f7572206163636f756e7400000000000000000000000000000000000000\n        /* \"#utility.yul\":6514:6516   */\n      0x20\n        /* \"#utility.yul\":6506:6512   */\n      dup3\n        /* \"#utility.yul\":6502:6517   */\n      add\n        /* \"#utility.yul\":6495:6535   */\n      mstore\n        /* \"#utility.yul\":6310:6542   */\n      pop\n      jump\t// out\n        /* \"#utility.yul\":6548:6914   */\n    tag_111:\n        /* \"#utility.yul\":6690:6693   */\n      0x00\n        /* \"#utility.yul\":6711:6778   */\n      tag_197\n        /* \"#utility.yul\":6775:6777   */\n      0x2d\n        /* \"#utility.yul\":6770:6773   */\n      dup4\n        /* \"#utility.yul\":6711:6778   */\n      tag_100\n      jump\t// in\n    tag_197:\n        /* \"#utility.yul\":6704:6778   */\n      swap2\n      pop\n        /* \"#utility.yul\":6787:6880   */\n      tag_198\n        /* \"#utility.yul\":6876:6879   */\n      dup3\n        /* \"#utility.yul\":6787:6880   */\n      tag_110\n      jump\t// in\n    tag_198:\n        /* \"#utility.yul\":6905:6907   */\n      0x40\n        /* \"#utility.yul\":6900:6903   */\n      dup3\n        /* \"#utility.yul\":6896:6908   */\n      add\n        /* \"#utility.yul\":6889:6908   */\n      swap1\n      pop\n        /* \"#utility.yul\":6548:6914   */\n      swap2\n      swap1\n      pop\n      jump\t// out\n        /* \"#utility.yul\":6920:7559   */\n    tag_44:\n        /* \"#utility.yul\":7142:7146   */\n      0x00\n        /* \"#utility.yul\":7180:7182   */\n      0x60\n        /* \"#utility.yul\":7169:7178   */\n      dup3\n        /* \"#utility.yul\":7165:7183   */\n      add\n        /* \"#utility.yul\":7157:7183   */\n      swap1\n      pop\n        /* \"#utility.yul\":7193:7264   */\n      tag_200\n        /* \"#utility.yul\":7261:7262   */\n      0x00\n        /* \"#utility.yul\":7250:7259   */\n      dup4\n        /* \"#utility.yul\":7246:7263   */\n      add\n        /* \"#utility.yul\":7237:7243   */\n      dup6\n        /* \"#utility.yul\":7193:7264   */\n      tag_109\n      jump\t// in\n    tag_200:\n        /* \"#utility.yul\":7311:7320   */\n      dup2\n        /* \"#utility.yul\":7305:7309   */\n      dup2\n        /* \"#utility.yul\":7301:7321   */\n      sub\n        /* \"#utility.yul\":7296:7298   */\n      0x20\n        /* \"#utility.yul\":7285:7294   */\n      dup4\n        /* \"#utility.yul\":7281:7299   */\n      add\n        /* \"#utility.yul\":7274:7322   */\n      mstore\n        /* \"#utility.yul\":7339:7470   */\n      tag_201\n        /* \"#utility.yul\":7465:7469   */\n      dup2\n        /* \"#utility.yul\":7339:7470   */\n      tag_111\n      jump\t// in\n    tag_201:\n        /* \"#utility.yul\":7331:7470   */\n      swap1\n      pop\n        /* \"#utility.yul\":7480:7552   */\n      tag_202\n        /* \"#utility.yul\":7548:7550   */\n      0x40\n        /* \"#utility.yul\":7537:7546   */\n      dup4\n        /* \"#utility.yul\":7533:7551   */\n      add\n        /* \"#utility.yul\":7524:7530   */\n      dup5\n        /* \"#utility.yul\":7480:7552   */\n      tag_95\n      jump\t// in\n    tag_202:\n        /* \"#utility.yul\":6920:7559   */\n      swap4\n      swap3\n      pop\n      pop\n      pop\n      jump\t// out\n        /* \"#utility.yul\":7565:7791   */\n    tag_112:\n        /* \"#utility.yul\":7705:7739   */\n      0x4f4f502773202c20596f7520617265206e6f7420726567697374657265642077\n        /* \"#utility.yul\":7701:7702   */\n      0x00\n        /* \"#utility.yul\":7693:7699   */\n      dup3\n        /* \"#utility.yul\":7689:7703   */\n      add\n        /* \"#utility.yul\":7682:7740   */\n      mstore\n        /* \"#utility.yul\":7774:7783   */\n      0x697468204d424400000000000000000000000000000000000000000000000000\n        /* \"#utility.yul\":7769:7771   */\n      0x20\n        /* \"#utility.yul\":7761:7767   */\n      dup3\n        /* \"#utility.yul\":7757:7772   */\n      add\n        /* \"#utility.yul\":7750:7784   */\n      mstore\n        /* \"#utility.yul\":7565:7791   */\n      pop\n      jump\t// out\n        /* \"#utility.yul\":7797:8163   */\n    tag_113:\n        /* \"#utility.yul\":7939:7942   */\n      0x00\n        /* \"#utility.yul\":7960:8027   */\n      tag_205\n        /* \"#utility.yul\":8024:8026   */\n      0x27\n        /* \"#utility.yul\":8019:8022   */\n      dup4\n        /* \"#utility.yul\":7960:8027   */\n      tag_100\n      jump\t// in\n    tag_205:\n        /* \"#utility.yul\":7953:8027   */\n      swap2\n      pop\n        /* \"#utility.yul\":8036:8129   */\n      tag_206\n        /* \"#utility.yul\":8125:8128   */\n      dup3\n        /* \"#utility.yul\":8036:8129   */\n      tag_112\n      jump\t// in\n    tag_206:\n        /* \"#utility.yul\":8154:8156   */\n      0x40\n        /* \"#utility.yul\":8149:8152   */\n      dup3\n        /* \"#utility.yul\":8145:8157   */\n      add\n        /* \"#utility.yul\":8138:8157   */\n      swap1\n      pop\n        /* \"#utility.yul\":7797:8163   */\n      swap2\n      swap1\n      pop\n      jump\t// out\n        /* \"#utility.yul\":8169:8588   */\n    tag_48:\n        /* \"#utility.yul\":8335:8339   */\n      0x00\n        /* \"#utility.yul\":8373:8375   */\n      0x20\n        /* \"#utility.yul\":8362:8371   */\n      dup3\n        /* \"#utility.yul\":8358:8376   */\n      add\n        /* \"#utility.yul\":8350:8376   */\n      swap1\n      pop\n        /* \"#utility.yul\":8422:8431   */\n      dup2\n        /* \"#utility.yul\":8416:8420   */\n      dup2\n        /* \"#utility.yul\":8412:8432   */\n      sub\n        /* \"#utility.yul\":8408:8409   */\n      0x00\n        /* \"#utility.yul\":8397:8406   */\n      dup4\n        /* \"#utility.yul\":8393:8410   */\n      add\n        /* \"#utility.yul\":8386:8433   */\n      mstore\n        /* \"#utility.yul\":8450:8581   */\n      tag_208\n        /* \"#utility.yul\":8576:8580   */\n      dup2\n        /* \"#utility.yul\":8450:8581   */\n      tag_113\n      jump\t// in\n    tag_208:\n        /* \"#utility.yul\":8442:8581   */\n      swap1\n      pop\n        /* \"#utility.yul\":8169:8588   */\n      swap2\n      swap1\n      pop\n      jump\t// out\n        /* \"#utility.yul\":8594:8772   */\n    tag_114:\n        /* \"#utility.yul\":8734:8764   */\n      0x4e65772055736572206d6170706564207375636365737366756c6c7900000000\n        /* \"#utility.yul\":8730:8731   */\n      0x00\n        /* \"#utility.yul\":8722:8728   */\n      dup3\n        /* \"#utility.yul\":8718:8732   */\n      add\n        /* \"#utility.yul\":8711:8765   */\n      mstore\n        /* \"#utility.yul\":8594:8772   */\n      pop\n      jump\t// out\n        /* \"#utility.yul\":8778:9144   */\n    tag_115:\n        /* \"#utility.yul\":8920:8923   */\n      0x00\n        /* \"#utility.yul\":8941:9008   */\n      tag_211\n        /* \"#utility.yul\":9005:9007   */\n      0x1c\n        /* \"#utility.yul\":9000:9003   */\n      dup4\n        /* \"#utility.yul\":8941:9008   */\n      tag_100\n      jump\t// in\n    tag_211:\n        /* \"#utility.yul\":8934:9008   */\n      swap2\n      pop\n        /* \"#utility.yul\":9017:9110   */\n      tag_212\n        /* \"#utility.yul\":9106:9109   */\n      dup3\n        /* \"#utility.yul\":9017:9110   */\n      tag_114\n      jump\t// in\n    tag_212:\n        /* \"#utility.yul\":9135:9137   */\n      0x20\n        /* \"#utility.yul\":9130:9133   */\n      dup3\n        /* \"#utility.yul\":9126:9138   */\n      add\n        /* \"#utility.yul\":9119:9138   */\n      swap1\n      pop\n        /* \"#utility.yul\":8778:9144   */\n      swap2\n      swap1\n      pop\n      jump\t// out\n        /* \"#utility.yul\":9150:9789   */\n    tag_54:\n        /* \"#utility.yul\":9372:9376   */\n      0x00\n        /* \"#utility.yul\":9410:9412   */\n      0x60\n        /* \"#utility.yul\":9399:9408   */\n      dup3\n        /* \"#utility.yul\":9395:9413   */\n      add\n        /* \"#utility.yul\":9387:9413   */\n      swap1\n      pop\n        /* \"#utility.yul\":9423:9494   */\n      tag_214\n        /* \"#utility.yul\":9491:9492   */\n      0x00\n        /* \"#utility.yul\":9480:9489   */\n      dup4\n        /* \"#utility.yul\":9476:9493   */\n      add\n        /* \"#utility.yul\":9467:9473   */\n      dup6\n        /* \"#utility.yul\":9423:9494   */\n      tag_109\n      jump\t// in\n    tag_214:\n        /* \"#utility.yul\":9541:9550   */\n      dup2\n        /* \"#utility.yul\":9535:9539   */\n      dup2\n        /* \"#utility.yul\":9531:9551   */\n      sub\n        /* \"#utility.yul\":9526:9528   */\n      0x20\n        /* \"#utility.yul\":9515:9524   */\n      dup4\n        /* \"#utility.yul\":9511:9529   */\n      add\n        /* \"#utility.yul\":9504:9552   */\n      mstore\n        /* \"#utility.yul\":9569:9700   */\n      tag_215\n        /* \"#utility.yul\":9695:9699   */\n      dup2\n        /* \"#utility.yul\":9569:9700   */\n      tag_115\n      jump\t// in\n    tag_215:\n        /* \"#utility.yul\":9561:9700   */\n      swap1\n      pop\n        /* \"#utility.yul\":9710:9782   */\n      tag_216\n        /* \"#utility.yul\":9778:9780   */\n      0x40\n        /* \"#utility.yul\":9767:9776   */\n      dup4\n        /* \"#utility.yul\":9763:9781   */\n      add\n        /* \"#utility.yul\":9754:9760   */\n      dup5\n        /* \"#utility.yul\":9710:9782   */\n      tag_95\n      jump\t// in\n    tag_216:\n        /* \"#utility.yul\":9150:9789   */\n      swap4\n      swap3\n      pop\n      pop\n      pop\n      jump\t// out\n        /* \"#utility.yul\":9795:10034   */\n    tag_116:\n        /* \"#utility.yul\":9935:9969   */\n      0x496e76616c696420416d6f756e7421212120416d6f756e742073686f756c6420\n        /* \"#utility.yul\":9931:9932   */\n      0x00\n        /* \"#utility.yul\":9923:9929   */\n      dup3\n        /* \"#utility.yul\":9919:9933   */\n      add\n        /* \"#utility.yul\":9912:9970   */\n      mstore\n        /* \"#utility.yul\":10004:10026   */\n      0x62652067726561746572207468616e207a65726f000000000000000000000000\n        /* \"#utility.yul\":9999:10001   */\n      0x20\n        /* \"#utility.yul\":9991:9997   */\n      dup3\n        /* \"#utility.yul\":9987:10002   */\n      add\n        /* \"#utility.yul\":9980:10027   */\n      mstore\n        /* \"#utility.yul\":9795:10034   */\n      pop\n      jump\t// out\n        /* \"#utility.yul\":10040:10406   */\n    tag_117:\n        /* \"#utility.yul\":10182:10185   */\n      0x00\n        /* \"#utility.yul\":10203:10270   */\n      tag_219\n        /* \"#utility.yul\":10267:10269   */\n      0x34\n        /* \"#utility.yul\":10262:10265   */\n      dup4\n        /* \"#utility.yul\":10203:10270   */\n      tag_100\n      jump\t// in\n    tag_219:\n        /* \"#utility.yul\":10196:10270   */\n      swap2\n      pop\n        /* \"#utility.yul\":10279:10372   */\n      tag_220\n        /* \"#utility.yul\":10368:10371   */\n      dup3\n        /* \"#utility.yul\":10279:10372   */\n      tag_116\n      jump\t// in\n    tag_220:\n        /* \"#utility.yul\":10397:10399   */\n      0x40\n        /* \"#utility.yul\":10392:10395   */\n      dup3\n        /* \"#utility.yul\":10388:10400   */\n      add\n        /* \"#utility.yul\":10381:10400   */\n      swap1\n      pop\n        /* \"#utility.yul\":10040:10406   */\n      swap2\n      swap1\n      pop\n      jump\t// out\n        /* \"#utility.yul\":10412:10831   */\n    tag_58:\n        /* \"#utility.yul\":10578:10582   */\n      0x00\n        /* \"#utility.yul\":10616:10618   */\n      0x20\n        /* \"#utility.yul\":10605:10614   */\n      dup3\n        /* \"#utility.yul\":10601:10619   */\n      add\n        /* \"#utility.yul\":10593:10619   */\n      swap1\n      pop\n        /* \"#utility.yul\":10665:10674   */\n      dup2\n        /* \"#utility.yul\":10659:10663   */\n      dup2\n        /* \"#utility.yul\":10655:10675   */\n      sub\n        /* \"#utility.yul\":10651:10652   */\n      0x00\n        /* \"#utility.yul\":10640:10649   */\n      dup4\n        /* \"#utility.yul\":10636:10653   */\n      add\n        /* \"#utility.yul\":10629:10676   */\n      mstore\n        /* \"#utility.yul\":10693:10824   */\n      tag_222\n        /* \"#utility.yul\":10819:10823   */\n      dup2\n        /* \"#utility.yul\":10693:10824   */\n      tag_117\n      jump\t// in\n    tag_222:\n        /* \"#utility.yul\":10685:10824   */\n      swap1\n      pop\n        /* \"#utility.yul\":10412:10831   */\n      swap2\n      swap1\n      pop\n      jump\t// out\n        /* \"#utility.yul\":10837:11138   */\n    tag_118:\n        /* \"#utility.yul\":10977:11011   */\n      0x696e737566666963656e742062616c616e636521212120416d6f756e74207368\n        /* \"#utility.yul\":10973:10974   */\n      0x00\n        /* \"#utility.yul\":10965:10971   */\n      dup3\n        /* \"#utility.yul\":10961:10975   */\n      add\n        /* \"#utility.yul\":10954:11012   */\n      mstore\n        /* \"#utility.yul\":11046:11080   */\n      0x6f756c64206265206c657373206f7220657175616c20746f20796f7572206375\n        /* \"#utility.yul\":11041:11043   */\n      0x20\n        /* \"#utility.yul\":11033:11039   */\n      dup3\n        /* \"#utility.yul\":11029:11044   */\n      add\n        /* \"#utility.yul\":11022:11081   */\n      mstore\n        /* \"#utility.yul\":11115:11130   */\n      0x7272656e742062616c616e636500000000000000000000000000000000000000\n        /* \"#utility.yul\":11110:11112   */\n      0x40\n        /* \"#utility.yul\":11102:11108   */\n      dup3\n        /* \"#utility.yul\":11098:11113   */\n      add\n        /* \"#utility.yul\":11091:11131   */\n      mstore\n        /* \"#utility.yul\":10837:11138   */\n      pop\n      jump\t// out\n        /* \"#utility.yul\":11144:11510   */\n    tag_119:\n        /* \"#utility.yul\":11286:11289   */\n      0x00\n        /* \"#utility.yul\":11307:11374   */\n      tag_225\n        /* \"#utility.yul\":11371:11373   */\n      0x4d\n        /* \"#utility.yul\":11366:11369   */\n      dup4\n        /* \"#utility.yul\":11307:11374   */\n      tag_100\n      jump\t// in\n    tag_225:\n        /* \"#utility.yul\":11300:11374   */\n      swap2\n      pop\n        /* \"#utility.yul\":11383:11476   */\n      tag_226\n        /* \"#utility.yul\":11472:11475   */\n      dup3\n        /* \"#utility.yul\":11383:11476   */\n      tag_118\n      jump\t// in\n    tag_226:\n        /* \"#utility.yul\":11501:11503   */\n      0x60\n        /* \"#utility.yul\":11496:11499   */\n      dup3\n        /* \"#utility.yul\":11492:11504   */\n      add\n        /* \"#utility.yul\":11485:11504   */\n      swap1\n      pop\n        /* \"#utility.yul\":11144:11510   */\n      swap2\n      swap1\n      pop\n      jump\t// out\n        /* \"#utility.yul\":11516:11935   */\n    tag_61:\n        /* \"#utility.yul\":11682:11686   */\n      0x00\n        /* \"#utility.yul\":11720:11722   */\n      0x20\n        /* \"#utility.yul\":11709:11718   */\n      dup3\n        /* \"#utility.yul\":11705:11723   */\n      add\n        /* \"#utility.yul\":11697:11723   */\n      swap1\n      pop\n        /* \"#utility.yul\":11769:11778   */\n      dup2\n        /* \"#utility.yul\":11763:11767   */\n      dup2\n        /* \"#utility.yul\":11759:11779   */\n      sub\n        /* \"#utility.yul\":11755:11756   */\n      0x00\n        /* \"#utility.yul\":11744:11753   */\n      dup4\n        /* \"#utility.yul\":11740:11757   */\n      add\n        /* \"#utility.yul\":11733:11780   */\n      mstore\n        /* \"#utility.yul\":11797:11928   */\n      tag_228\n        /* \"#utility.yul\":11923:11927   */\n      dup2\n        /* \"#utility.yul\":11797:11928   */\n      tag_119\n      jump\t// in\n    tag_228:\n        /* \"#utility.yul\":11789:11928   */\n      swap1\n      pop\n        /* \"#utility.yul\":11516:11935   */\n      swap2\n      swap1\n      pop\n      jump\t// out\n        /* \"#utility.yul\":11941:12168   */\n    tag_120:\n        /* \"#utility.yul\":12081:12115   */\n      0x4d6f6e6579206465706f7369746564207375636365737366756c6c7920746f20\n        /* \"#utility.yul\":12077:12078   */\n      0x00\n        /* \"#utility.yul\":12069:12075   */\n      dup3\n        /* \"#utility.yul\":12065:12079   */\n      add\n        /* \"#utility.yul\":12058:12116   */\n      mstore\n        /* \"#utility.yul\":12150:12160   */\n      0x4d42442042616e6b000000000000000000000000000000000000000000000000\n        /* \"#utility.yul\":12145:12147   */\n      0x20\n        /* \"#utility.yul\":12137:12143   */\n      dup3\n        /* \"#utility.yul\":12133:12148   */\n      add\n        /* \"#utility.yul\":12126:12161   */\n      mstore\n        /* \"#utility.yul\":11941:12168   */\n      pop\n      jump\t// out\n        /* \"#utility.yul\":12174:12540   */\n    tag_121:\n        /* \"#utility.yul\":12316:12319   */\n      0x00\n        /* \"#utility.yul\":12337:12404   */\n      tag_231\n        /* \"#utility.yul\":12401:12403   */\n      0x28\n        /* \"#utility.yul\":12396:12399   */\n      dup4\n        /* \"#utility.yul\":12337:12404   */\n      tag_100\n      jump\t// in\n    tag_231:\n        /* \"#utility.yul\":12330:12404   */\n      swap2\n      pop\n        /* \"#utility.yul\":12413:12506   */\n      tag_232\n        /* \"#utility.yul\":12502:12505   */\n      dup3\n        /* \"#utility.yul\":12413:12506   */\n      tag_120\n      jump\t// in\n    tag_232:\n        /* \"#utility.yul\":12531:12533   */\n      0x40\n        /* \"#utility.yul\":12526:12529   */\n      dup3\n        /* \"#utility.yul\":12522:12534   */\n      add\n        /* \"#utility.yul\":12515:12534   */\n      swap1\n      pop\n        /* \"#utility.yul\":12174:12540   */\n      swap2\n      swap1\n      pop\n      jump\t// out\n        /* \"#utility.yul\":12546:13185   */\n    tag_64:\n        /* \"#utility.yul\":12768:12772   */\n      0x00\n        /* \"#utility.yul\":12806:12808   */\n      0x60\n        /* \"#utility.yul\":12795:12804   */\n      dup3\n        /* \"#utility.yul\":12791:12809   */\n      add\n        /* \"#utility.yul\":12783:12809   */\n      swap1\n      pop\n        /* \"#utility.yul\":12819:12890   */\n      tag_234\n        /* \"#utility.yul\":12887:12888   */\n      0x00\n        /* \"#utility.yul\":12876:12885   */\n      dup4\n        /* \"#utility.yul\":12872:12889   */\n      add\n        /* \"#utility.yul\":12863:12869   */\n      dup6\n        /* \"#utility.yul\":12819:12890   */\n      tag_109\n      jump\t// in\n    tag_234:\n        /* \"#utility.yul\":12937:12946   */\n      dup2\n        /* \"#utility.yul\":12931:12935   */\n      dup2\n        /* \"#utility.yul\":12927:12947   */\n      sub\n        /* \"#utility.yul\":12922:12924   */\n      0x20\n        /* \"#utility.yul\":12911:12920   */\n      dup4\n        /* \"#utility.yul\":12907:12925   */\n      add\n        /* \"#utility.yul\":12900:12948   */\n      mstore\n        /* \"#utility.yul\":12965:13096   */\n      tag_235\n        /* \"#utility.yul\":13091:13095   */\n      dup2\n        /* \"#utility.yul\":12965:13096   */\n      tag_121\n      jump\t// in\n    tag_235:\n        /* \"#utility.yul\":12957:13096   */\n      swap1\n      pop\n        /* \"#utility.yul\":13106:13178   */\n      tag_236\n        /* \"#utility.yul\":13174:13176   */\n      0x40\n        /* \"#utility.yul\":13163:13172   */\n      dup4\n        /* \"#utility.yul\":13159:13177   */\n      add\n        /* \"#utility.yul\":13150:13156   */\n      dup5\n        /* \"#utility.yul\":13106:13178   */\n      tag_95\n      jump\t// in\n    tag_236:\n        /* \"#utility.yul\":12546:13185   */\n      swap4\n      swap3\n      pop\n      pop\n      pop\n      jump\t// out\n        /* \"#utility.yul\":13191:13420   */\n    tag_122:\n        /* \"#utility.yul\":13331:13365   */\n      0x4f4f502773202c20726563656970656e74206973206e6f74204d42442042616e\n        /* \"#utility.yul\":13327:13328   */\n      0x00\n        /* \"#utility.yul\":13319:13325   */\n      dup3\n        /* \"#utility.yul\":13315:13329   */\n      add\n        /* \"#utility.yul\":13308:13366   */\n      mstore\n        /* \"#utility.yul\":13400:13412   */\n      0x6b20637573746f6d657200000000000000000000000000000000000000000000\n        /* \"#utility.yul\":13395:13397   */\n      0x20\n        /* \"#utility.yul\":13387:13393   */\n      dup3\n        /* \"#utility.yul\":13383:13398   */\n      add\n        /* \"#utility.yul\":13376:13413   */\n      mstore\n        /* \"#utility.yul\":13191:13420   */\n      pop\n      jump\t// out\n        /* \"#utility.yul\":13426:13792   */\n    tag_123:\n        /* \"#utility.yul\":13568:13571   */\n      0x00\n        /* \"#utility.yul\":13589:13656   */\n      tag_239\n        /* \"#utility.yul\":13653:13655   */\n      0x2a\n        /* \"#utility.yul\":13648:13651   */\n      dup4\n        /* \"#utility.yul\":13589:13656   */\n      tag_100\n      jump\t// in\n    tag_239:\n        /* \"#utility.yul\":13582:13656   */\n      swap2\n      pop\n        /* \"#utility.yul\":13665:13758   */\n      tag_240\n        /* \"#utility.yul\":13754:13757   */\n      dup3\n        /* \"#utility.yul\":13665:13758   */\n      tag_122\n      jump\t// in\n    tag_240:\n        /* \"#utility.yul\":13783:13785   */\n      0x40\n        /* \"#utility.yul\":13778:13781   */\n      dup3\n        /* \"#utility.yul\":13774:13786   */\n      add\n        /* \"#utility.yul\":13767:13786   */\n      swap1\n      pop\n        /* \"#utility.yul\":13426:13792   */\n      swap2\n      swap1\n      pop\n      jump\t// out\n        /* \"#utility.yul\":13798:14217   */\n    tag_74:\n        /* \"#utility.yul\":13964:13968   */\n      0x00\n        /* \"#utility.yul\":14002:14004   */\n      0x20\n        /* \"#utility.yul\":13991:14000   */\n      dup3\n        /* \"#utility.yul\":13987:14005   */\n      add\n        /* \"#utility.yul\":13979:14005   */\n      swap1\n      pop\n        /* \"#utility.yul\":14051:14060   */\n      dup2\n        /* \"#utility.yul\":14045:14049   */\n      dup2\n        /* \"#utility.yul\":14041:14061   */\n      sub\n        /* \"#utility.yul\":14037:14038   */\n      0x00\n        /* \"#utility.yul\":14026:14035   */\n      dup4\n        /* \"#utility.yul\":14022:14039   */\n      add\n        /* \"#utility.yul\":14015:14062   */\n      mstore\n        /* \"#utility.yul\":14079:14210   */\n      tag_242\n        /* \"#utility.yul\":14205:14209   */\n      dup2\n        /* \"#utility.yul\":14079:14210   */\n      tag_123\n      jump\t// in\n    tag_242:\n        /* \"#utility.yul\":14071:14210   */\n      swap1\n      pop\n        /* \"#utility.yul\":13798:14217   */\n      swap2\n      swap1\n      pop\n      jump\t// out\n        /* \"#utility.yul\":14223:14462   */\n    tag_124:\n        /* \"#utility.yul\":14363:14397   */\n      0x696e76616c696420416d6f756e7421212120616d6f756e742073686f756c6420\n        /* \"#utility.yul\":14359:14360   */\n      0x00\n        /* \"#utility.yul\":14351:14357   */\n      dup3\n        /* \"#utility.yul\":14347:14361   */\n      add\n        /* \"#utility.yul\":14340:14398   */\n      mstore\n        /* \"#utility.yul\":14432:14454   */\n      0x62652067726561746572207468616e207a65726f000000000000000000000000\n        /* \"#utility.yul\":14427:14429   */\n      0x20\n        /* \"#utility.yul\":14419:14425   */\n      dup3\n        /* \"#utility.yul\":14415:14430   */\n      add\n        /* \"#utility.yul\":14408:14455   */\n      mstore\n        /* \"#utility.yul\":14223:14462   */\n      pop\n      jump\t// out\n        /* \"#utility.yul\":14468:14834   */\n    tag_125:\n        /* \"#utility.yul\":14610:14613   */\n      0x00\n        /* \"#utility.yul\":14631:14698   */\n      tag_245\n        /* \"#utility.yul\":14695:14697   */\n      0x34\n        /* \"#utility.yul\":14690:14693   */\n      dup4\n        /* \"#utility.yul\":14631:14698   */\n      tag_100\n      jump\t// in\n    tag_245:\n        /* \"#utility.yul\":14624:14698   */\n      swap2\n      pop\n        /* \"#utility.yul\":14707:14800   */\n      tag_246\n        /* \"#utility.yul\":14796:14799   */\n      dup3\n        /* \"#utility.yul\":14707:14800   */\n      tag_124\n      jump\t// in\n    tag_246:\n        /* \"#utility.yul\":14825:14827   */\n      0x40\n        /* \"#utility.yul\":14820:14823   */\n      dup3\n        /* \"#utility.yul\":14816:14828   */\n      add\n        /* \"#utility.yul\":14809:14828   */\n      swap1\n      pop\n        /* \"#utility.yul\":14468:14834   */\n      swap2\n      swap1\n      pop\n      jump\t// out\n        /* \"#utility.yul\":14840:15259   */\n    tag_77:\n        /* \"#utility.yul\":15006:15010   */\n      0x00\n        /* \"#utility.yul\":15044:15046   */\n      0x20\n        /* \"#utility.yul\":15033:15042   */\n      dup3\n        /* \"#utility.yul\":15029:15047   */\n      add\n        /* \"#utility.yul\":15021:15047   */\n      swap1\n      pop\n        /* \"#utility.yul\":15093:15102   */\n      dup2\n        /* \"#utility.yul\":15087:15091   */\n      dup2\n        /* \"#utility.yul\":15083:15103   */\n      sub\n        /* \"#utility.yul\":15079:15080   */\n      0x00\n        /* \"#utility.yul\":15068:15077   */\n      dup4\n        /* \"#utility.yul\":15064:15081   */\n      add\n        /* \"#utility.yul\":15057:15104   */\n      mstore\n        /* \"#utility.yul\":15121:15252   */\n      tag_248\n        /* \"#utility.yul\":15247:15251   */\n      dup2\n        /* \"#utility.yul\":15121:15252   */\n      tag_125\n      jump\t// in\n    tag_248:\n        /* \"#utility.yul\":15113:15252   */\n      swap1\n      pop\n        /* \"#utility.yul\":14840:15259   */\n      swap2\n      swap1\n      pop\n      jump\t// out\n        /* \"#utility.yul\":15265:15459   */\n    tag_83:\n        /* \"#utility.yul\":15305:15309   */\n      0x00\n        /* \"#utility.yul\":15325:15345   */\n      tag_250\n        /* \"#utility.yul\":15343:15344   */\n      dup3\n        /* \"#utility.yul\":15325:15345   */\n      tag_92\n      jump\t// in\n    tag_250:\n        /* \"#utility.yul\":15320:15345   */\n      swap2\n      pop\n        /* \"#utility.yul\":15359:15379   */\n      tag_251\n        /* \"#utility.yul\":15377:15378   */\n      dup4\n        /* \"#utility.yul\":15359:15379   */\n      tag_92\n      jump\t// in\n    tag_251:\n        /* \"#utility.yul\":15354:15379   */\n      swap3\n      pop\n        /* \"#utility.yul\":15403:15404   */\n      dup3\n        /* \"#utility.yul\":15400:15401   */\n      dup3\n        /* \"#utility.yul\":15396:15405   */\n      sub\n        /* \"#utility.yul\":15388:15405   */\n      swap1\n      pop\n        /* \"#utility.yul\":15427:15428   */\n      dup2\n        /* \"#utility.yul\":15421:15425   */\n      dup2\n        /* \"#utility.yul\":15418:15429   */\n      gt\n        /* \"#utility.yul\":15415:15452   */\n      iszero\n      tag_252\n      jumpi\n        /* \"#utility.yul\":15432:15450   */\n      tag_253\n      tag_107\n      jump\t// in\n    tag_253:\n        /* \"#utility.yul\":15415:15452   */\n    tag_252:\n        /* \"#utility.yul\":15265:15459   */\n      swap3\n      swap2\n      pop\n      pop\n      jump\t// out\n        /* \"#utility.yul\":15465:15642   */\n    tag_126:\n        /* \"#utility.yul\":15605:15634   */\n      0x4d6f6e6579206465647563746564207375636365737366756c6c790000000000\n        /* \"#utility.yul\":15601:15602   */\n      0x00\n        /* \"#utility.yul\":15593:15599   */\n      dup3\n        /* \"#utility.yul\":15589:15603   */\n      add\n        /* \"#utility.yul\":15582:15635   */\n      mstore\n        /* \"#utility.yul\":15465:15642   */\n      pop\n      jump\t// out\n        /* \"#utility.yul\":15648:16014   */\n    tag_127:\n        /* \"#utility.yul\":15790:15793   */\n      0x00\n        /* \"#utility.yul\":15811:15878   */\n      tag_256\n        /* \"#utility.yul\":15875:15877   */\n      0x1b\n        /* \"#utility.yul\":15870:15873   */\n      dup4\n        /* \"#utility.yul\":15811:15878   */\n      tag_100\n      jump\t// in\n    tag_256:\n        /* \"#utility.yul\":15804:15878   */\n      swap2\n      pop\n        /* \"#utility.yul\":15887:15980   */\n      tag_257\n        /* \"#utility.yul\":15976:15979   */\n      dup3\n        /* \"#utility.yul\":15887:15980   */\n      tag_126\n      jump\t// in\n    tag_257:\n        /* \"#utility.yul\":16005:16007   */\n      0x20\n        /* \"#utility.yul\":16000:16003   */\n      dup3\n        /* \"#utility.yul\":15996:16008   */\n      add\n        /* \"#utility.yul\":15989:16008   */\n      swap1\n      pop\n        /* \"#utility.yul\":15648:16014   */\n      swap2\n      swap1\n      pop\n      jump\t// out\n        /* \"#utility.yul\":16020:16659   */\n    tag_86:\n        /* \"#utility.yul\":16242:16246   */\n      0x00\n        /* \"#utility.yul\":16280:16282   */\n      0x60\n        /* \"#utility.yul\":16269:16278   */\n      dup3\n        /* \"#utility.yul\":16265:16283   */\n      add\n        /* \"#utility.yul\":16257:16283   */\n      swap1\n      pop\n        /* \"#utility.yul\":16293:16364   */\n      tag_259\n        /* \"#utility.yul\":16361:16362   */\n      0x00\n        /* \"#utility.yul\":16350:16359   */\n      dup4\n        /* \"#utility.yul\":16346:16363   */\n      add\n        /* \"#utility.yul\":16337:16343   */\n      dup6\n        /* \"#utility.yul\":16293:16364   */\n      tag_109\n      jump\t// in\n    tag_259:\n        /* \"#utility.yul\":16411:16420   */\n      dup2\n        /* \"#utility.yul\":16405:16409   */\n      dup2\n        /* \"#utility.yul\":16401:16421   */\n      sub\n        /* \"#utility.yul\":16396:16398   */\n      0x20\n        /* \"#utility.yul\":16385:16394   */\n      dup4\n        /* \"#utility.yul\":16381:16399   */\n      add\n        /* \"#utility.yul\":16374:16422   */\n      mstore\n        /* \"#utility.yul\":16439:16570   */\n      tag_260\n        /* \"#utility.yul\":16565:16569   */\n      dup2\n        /* \"#utility.yul\":16439:16570   */\n      tag_127\n      jump\t// in\n    tag_260:\n        /* \"#utility.yul\":16431:16570   */\n      swap1\n      pop\n        /* \"#utility.yul\":16580:16652   */\n      tag_261\n        /* \"#utility.yul\":16648:16650   */\n      0x40\n        /* \"#utility.yul\":16637:16646   */\n      dup4\n        /* \"#utility.yul\":16633:16651   */\n      add\n        /* \"#utility.yul\":16624:16630   */\n      dup5\n        /* \"#utility.yul\":16580:16652   */\n      tag_95\n      jump\t// in\n    tag_261:\n        /* \"#utility.yul\":16020:16659   */\n      swap4\n      swap3\n      pop\n      pop\n      pop\n      jump\t// out\n        /* \"#utility.yul\":16665:16725   */\n    tag_128:\n        /* \"#utility.yul\":16693:16696   */\n      0x00\n        /* \"#utility.yul\":16714:16719   */\n      dup2\n        /* \"#utility.yul\":16707:16719   */\n      swap1\n      pop\n        /* \"#utility.yul\":16665:16725   */\n      swap2\n      swap1\n      pop\n      jump\t// out\n        /* \"#utility.yul\":16731:16873   */\n    tag_129:\n        /* \"#utility.yul\":16781:16790   */\n      0x00\n        /* \"#utility.yul\":16814:16867   */\n      tag_264\n        /* \"#utility.yul\":16832:16866   */\n      tag_265\n        /* \"#utility.yul\":16841:16865   */\n      tag_266\n        /* \"#utility.yul\":16859:16864   */\n      dup5\n        /* \"#utility.yul\":16841:16865   */\n      tag_96\n      jump\t// in\n    tag_266:\n        /* \"#utility.yul\":16832:16866   */\n      tag_128\n      jump\t// in\n    tag_265:\n        /* \"#utility.yul\":16814:16867   */\n      tag_96\n      jump\t// in\n    tag_264:\n        /* \"#utility.yul\":16801:16867   */\n      swap1\n      pop\n        /* \"#utility.yul\":16731:16873   */\n      swap2\n      swap1\n      pop\n      jump\t// out\n        /* \"#utility.yul\":16879:17005   */\n    tag_130:\n        /* \"#utility.yul\":16929:16938   */\n      0x00\n        /* \"#utility.yul\":16962:16999   */\n      tag_268\n        /* \"#utility.yul\":16993:16998   */\n      dup3\n        /* \"#utility.yul\":16962:16999   */\n      tag_129\n      jump\t// in\n    tag_268:\n        /* \"#utility.yul\":16949:16999   */\n      swap1\n      pop\n        /* \"#utility.yul\":16879:17005   */\n      swap2\n      swap1\n      pop\n      jump\t// out\n        /* \"#utility.yul\":17011:17145   */\n    tag_131:\n        /* \"#utility.yul\":17069:17078   */\n      0x00\n        /* \"#utility.yul\":17102:17139   */\n      tag_270\n        /* \"#utility.yul\":17133:17138   */\n      dup3\n        /* \"#utility.yul\":17102:17139   */\n      tag_130\n      jump\t// in\n    tag_270:\n        /* \"#utility.yul\":17089:17139   */\n      swap1\n      pop\n        /* \"#utility.yul\":17011:17145   */\n      swap2\n      swap1\n      pop\n      jump\t// out\n        /* \"#utility.yul\":17151:17298   */\n    tag_132:\n        /* \"#utility.yul\":17246:17291   */\n      tag_272\n        /* \"#utility.yul\":17285:17290   */\n      dup2\n        /* \"#utility.yul\":17246:17291   */\n      tag_131\n      jump\t// in\n    tag_272:\n        /* \"#utility.yul\":17241:17244   */\n      dup3\n        /* \"#utility.yul\":17234:17292   */\n      mstore\n        /* \"#utility.yul\":17151:17298   */\n      pop\n      pop\n      jump\t// out\n        /* \"#utility.yul\":17304:17484   */\n    tag_133:\n        /* \"#utility.yul\":17444:17476   */\n      0x4d6f6e6579207472616e73666572656420207375636365737366756c6c790000\n        /* \"#utility.yul\":17440:17441   */\n      0x00\n        /* \"#utility.yul\":17432:17438   */\n      dup3\n        /* \"#utility.yul\":17428:17442   */\n      add\n        /* \"#utility.yul\":17421:17477   */\n      mstore\n        /* \"#utility.yul\":17304:17484   */\n      pop\n      jump\t// out\n        /* \"#utility.yul\":17490:17856   */\n    tag_134:\n        /* \"#utility.yul\":17632:17635   */\n      0x00\n        /* \"#utility.yul\":17653:17720   */\n      tag_275\n        /* \"#utility.yul\":17717:17719   */\n      0x1e\n        /* \"#utility.yul\":17712:17715   */\n      dup4\n        /* \"#utility.yul\":17653:17720   */\n      tag_100\n      jump\t// in\n    tag_275:\n        /* \"#utility.yul\":17646:17720   */\n      swap2\n      pop\n        /* \"#utility.yul\":17729:17822   */\n      tag_276\n        /* \"#utility.yul\":17818:17821   */\n      dup3\n        /* \"#utility.yul\":17729:17822   */\n      tag_133\n      jump\t// in\n    tag_276:\n        /* \"#utility.yul\":17847:17849   */\n      0x20\n        /* \"#utility.yul\":17842:17845   */\n      dup3\n        /* \"#utility.yul\":17838:17850   */\n      add\n        /* \"#utility.yul\":17831:17850   */\n      swap1\n      pop\n        /* \"#utility.yul\":17490:17856   */\n      swap2\n      swap1\n      pop\n      jump\t// out\n        /* \"#utility.yul\":17862:18517   */\n    tag_88:\n        /* \"#utility.yul\":18092:18096   */\n      0x00\n        /* \"#utility.yul\":18130:18132   */\n      0x60\n        /* \"#utility.yul\":18119:18128   */\n      dup3\n        /* \"#utility.yul\":18115:18133   */\n      add\n        /* \"#utility.yul\":18107:18133   */\n      swap1\n      pop\n        /* \"#utility.yul\":18143:18222   */\n      tag_278\n        /* \"#utility.yul\":18219:18220   */\n      0x00\n        /* \"#utility.yul\":18208:18217   */\n      dup4\n        /* \"#utility.yul\":18204:18221   */\n      add\n        /* \"#utility.yul\":18195:18201   */\n      dup6\n        /* \"#utility.yul\":18143:18222   */\n      tag_132\n      jump\t// in\n    tag_278:\n        /* \"#utility.yul\":18269:18278   */\n      dup2\n        /* \"#utility.yul\":18263:18267   */\n      dup2\n        /* \"#utility.yul\":18259:18279   */\n      sub\n        /* \"#utility.yul\":18254:18256   */\n      0x20\n        /* \"#utility.yul\":18243:18252   */\n      dup4\n        /* \"#utility.yul\":18239:18257   */\n      add\n        /* \"#utility.yul\":18232:18280   */\n      mstore\n        /* \"#utility.yul\":18297:18428   */\n      tag_279\n        /* \"#utility.yul\":18423:18427   */\n      dup2\n        /* \"#utility.yul\":18297:18428   */\n      tag_134\n      jump\t// in\n    tag_279:\n        /* \"#utility.yul\":18289:18428   */\n      swap1\n      pop\n        /* \"#utility.yul\":18438:18510   */\n      tag_280\n        /* \"#utility.yul\":18506:18508   */\n      0x40\n        /* \"#utility.yul\":18495:18504   */\n      dup4\n        /* \"#utility.yul\":18491:18509   */\n      add\n        /* \"#utility.yul\":18482:18488   */\n      dup5\n        /* \"#utility.yul\":18438:18510   */\n      tag_95\n      jump\t// in\n    tag_280:\n        /* \"#utility.yul\":17862:18517   */\n      swap4\n      swap3\n      pop\n      pop\n      pop\n      jump\t// out\n\n    auxdata: 0xa26469706673582212205189cdcd0340958cf76723071c664811ffc8f7723c7d87243124245600a15bb764736f6c63430008120033\n}\n",
				"bytecode": {
					"linkReferences": {},
					"object": "608060405234801561001057600080fd5b5061179b806100206000396000f3fe60806040526004361061004a5760003560e01c80630562b9f71461004f57806312065fe01461007857806316c05aa2146100a357806320c2909d146100ad578063d7081e03146100d8575b600080fd5b34801561005b57600080fd5b5061007660048036038101906100719190610d9e565b610108565b005b34801561008457600080fd5b5061008d6103ac565b60405161009a9190610dda565b60405180910390f35b6100ab610485565b005b3480156100b957600080fd5b506100c261083c565b6040516100cf9190610dda565b60405180910390f35b6100f260048036038101906100ed9190610e53565b6108d7565b6040516100ff9190610dda565b60405180910390f35b60011515600160003373ffffffffffffffffffffffffffffffffffffffff1673ffffffffffffffffffffffffffffffffffffffff16815260200190815260200160002060009054906101000a900460ff1615151461019b576040517f08c379a000000000000000000000000000000000000000000000000000000000815260040161019290610f16565b60405180910390fd5b600081116101de576040517f08c379a00000000000000000000000000000000000000000000000000000000081526004016101d590610fa8565b60405180910390fd5b806000803373ffffffffffffffffffffffffffffffffffffffff1673ffffffffffffffffffffffffffffffffffffffff16815260200190815260200160002054101561025f576040517f08c379a00000000000000000000000000000000000000000000000000000000081526004016102569061103a565b60405180910390fd5b3373ffffffffffffffffffffffffffffffffffffffff166108fc829081150290604051600060405180830381858888f193505050501580156102a5573d6000803e3d6000fd5b50806000803373ffffffffffffffffffffffffffffffffffffffff1673ffffffffffffffffffffffffffffffffffffffff168152602001908152602001600020546102f09190611089565b6000803373ffffffffffffffffffffffffffffffffffffffff1673ffffffffffffffffffffffffffffffffffffffff168152602001908152602001600020819055507f3928eb6c73f8b27f8264006f092393f8ff2e5684ac2e649d0a932ae36df69088336000803373ffffffffffffffffffffffffffffffffffffffff1673ffffffffffffffffffffffffffffffffffffffff168152602001908152602001600020546040516103a1929190611150565b60405180910390a150565b600060011515600160003373ffffffffffffffffffffffffffffffffffffffff1673ffffffffffffffffffffffffffffffffffffffff16815260200190815260200160002060009054906101000a900460ff16151514610441576040517f08c379a0000000000000000000000000000000000000000000000000000000008152600401610438906111fe565b60405180910390fd5b6000803373ffffffffffffffffffffffffffffffffffffffff1673ffffffffffffffffffffffffffffffffffffffff16815260200190815260200160002054905090565b60011515600160003373ffffffffffffffffffffffffffffffffffffffff1673ffffffffffffffffffffffffffffffffffffffff16815260200190815260200160002060009054906101000a900460ff1615151461069a5760018060003373ffffffffffffffffffffffffffffffffffffffff1673ffffffffffffffffffffffffffffffffffffffff16815260200190815260200160002060006101000a81548160ff02191690831515021790555060008060003373ffffffffffffffffffffffffffffffffffffffff1673ffffffffffffffffffffffffffffffffffffffff1681526020019081526020016000208190555060018060003373ffffffffffffffffffffffffffffffffffffffff1673ffffffffffffffffffffffffffffffffffffffff16815260200190815260200160002060006101000a81548160ff02191690831515021790556105d757600080fd5b60008060003373ffffffffffffffffffffffffffffffffffffffff1673ffffffffffffffffffffffffffffffffffffffff168152602001908152602001600020541461062257600080fd5b7f3928eb6c73f8b27f8264006f092393f8ff2e5684ac2e649d0a932ae36df69088336000803373ffffffffffffffffffffffffffffffffffffffff1673ffffffffffffffffffffffffffffffffffffffff1681526020019081526020016000205460405161069192919061126a565b60405180910390a15b600034116106dd576040517f08c379a00000000000000000000000000000000000000000000000000000000081526004016106d490611318565b60405180910390fd5b3373ffffffffffffffffffffffffffffffffffffffff1631341115610737576040517f08c379a000000000000000000000000000000000000000000000000000000000815260040161072e906113d0565b60405180910390fd5b346000803373ffffffffffffffffffffffffffffffffffffffff1673ffffffffffffffffffffffffffffffffffffffff168152602001908152602001600020546107819190611089565b6000803373ffffffffffffffffffffffffffffffffffffffff1673ffffffffffffffffffffffffffffffffffffffff168152602001908152602001600020819055507f3928eb6c73f8b27f8264006f092393f8ff2e5684ac2e649d0a932ae36df69088336000803373ffffffffffffffffffffffffffffffffffffffff1673ffffffffffffffffffffffffffffffffffffffff16815260200190815260200160002054604051610832929190611462565b60405180910390a1565b600060011515600160003373ffffffffffffffffffffffffffffffffffffffff1673ffffffffffffffffffffffffffffffffffffffff16815260200190815260200160002060009054906101000a900460ff161515146108d1576040517f08c379a00000000000000000000000000000000000000000000000000000000081526004016108c890610f16565b60405180910390fd5b47905090565b600060011515600160003373ffffffffffffffffffffffffffffffffffffffff1673ffffffffffffffffffffffffffffffffffffffff16815260200190815260200160002060009054906101000a900460ff1615151461096c576040517f08c379a000000000000000000000000000000000000000000000000000000000815260040161096390610f16565b60405180910390fd5b60008060003373ffffffffffffffffffffffffffffffffffffffff1673ffffffffffffffffffffffffffffffffffffffff16815260200190815260200160002054905060008060008673ffffffffffffffffffffffffffffffffffffffff1673ffffffffffffffffffffffffffffffffffffffff16815260200190815260200160002054905060011515600160008773ffffffffffffffffffffffffffffffffffffffff1673ffffffffffffffffffffffffffffffffffffffff16815260200190815260200160002060009054906101000a900460ff16151514610a85576040517f08c379a0000000000000000000000000000000000000000000000000000000008152600401610a7c90611510565b60405180910390fd5b60008411610ac8576040517f08c379a0000000000000000000000000000000000000000000000000000000008152600401610abf906115a2565b60405180910390fd5b836000803373ffffffffffffffffffffffffffffffffffffffff1673ffffffffffffffffffffffffffffffffffffffff168152602001908152602001600020541015610b49576040517f08c379a0000000000000000000000000000000000000000000000000000000008152600401610b409061103a565b60405180910390fd5b8473ffffffffffffffffffffffffffffffffffffffff166108fc859081150290604051600060405180830381858888f19350505050158015610b8f573d6000803e3d6000fd5b508382610b9c91906115c2565b6000803373ffffffffffffffffffffffffffffffffffffffff1673ffffffffffffffffffffffffffffffffffffffff168152602001908152602001600020819055508381610bea9190611089565b6000808773ffffffffffffffffffffffffffffffffffffffff1673ffffffffffffffffffffffffffffffffffffffff168152602001908152602001600020819055507f3928eb6c73f8b27f8264006f092393f8ff2e5684ac2e649d0a932ae36df69088336000803373ffffffffffffffffffffffffffffffffffffffff1673ffffffffffffffffffffffffffffffffffffffff16815260200190815260200160002054604051610c9b929190611642565b60405180910390a17f3928eb6c73f8b27f8264006f092393f8ff2e5684ac2e649d0a932ae36df69088856000808873ffffffffffffffffffffffffffffffffffffffff1673ffffffffffffffffffffffffffffffffffffffff16815260200190815260200160002054604051610d12929190611729565b60405180910390a16000803373ffffffffffffffffffffffffffffffffffffffff1673ffffffffffffffffffffffffffffffffffffffff168152602001908152602001600020549250505092915050565b600080fd5b6000819050919050565b610d7b81610d68565b8114610d8657600080fd5b50565b600081359050610d9881610d72565b92915050565b600060208284031215610db457610db3610d63565b5b6000610dc284828501610d89565b91505092915050565b610dd481610d68565b82525050565b6000602082019050610def6000830184610dcb565b92915050565b600073ffffffffffffffffffffffffffffffffffffffff82169050919050565b6000610e2082610df5565b9050919050565b610e3081610e15565b8114610e3b57600080fd5b50565b600081359050610e4d81610e27565b92915050565b60008060408385031215610e6a57610e69610d63565b5b6000610e7885828601610e3e565b9250506020610e8985828601610d89565b9150509250929050565b600082825260208201905092915050565b7f4f4f502773202c20596f7520617265206e6f74204d42442042616e6b2063757360008201527f746f6d6572000000000000000000000000000000000000000000000000000000602082015250565b6000610f00602583610e93565b9150610f0b82610ea4565b604082019050919050565b60006020820190508181036000830152610f2f81610ef3565b9050919050565b7f696e76616c696420616d6f756e7421212120616d6f756e742073686f756c642060008201527f62652067726561746572207468616e207a65726f000000000000000000000000602082015250565b6000610f92603483610e93565b9150610f9d82610f36565b604082019050919050565b60006020820190508181036000830152610fc181610f85565b9050919050565b7f696e737566666963656e742062616c616e636520746f20706572666f726d207460008201527f686973207472616e73616374696f6e0000000000000000000000000000000000602082015250565b6000611024602f83610e93565b915061102f82610fc8565b604082019050919050565b6000602082019050818103600083015261105381611017565b9050919050565b7f4e487b7100000000000000000000000000000000000000000000000000000000600052601160045260246000fd5b600061109482610d68565b915061109f83610d68565b92508282019050808211156110b7576110b661105a565b5b92915050565b60006110c882610df5565b9050919050565b6110d8816110bd565b82525050565b7f416d6f756e742077697468647261776e207375636365737366756c6c7920746f60008201527f20796f7572206163636f756e7400000000000000000000000000000000000000602082015250565b600061113a602d83610e93565b9150611145826110de565b604082019050919050565b600060608201905061116560008301856110cf565b81810360208301526111768161112d565b90506111856040830184610dcb565b9392505050565b7f4f4f502773202c20596f7520617265206e6f742072656769737465726564207760008201527f697468204d424400000000000000000000000000000000000000000000000000602082015250565b60006111e8602783610e93565b91506111f38261118c565b604082019050919050565b60006020820190508181036000830152611217816111db565b9050919050565b7f4e65772055736572206d6170706564207375636365737366756c6c7900000000600082015250565b6000611254601c83610e93565b915061125f8261121e565b602082019050919050565b600060608201905061127f60008301856110cf565b818103602083015261129081611247565b905061129f6040830184610dcb565b9392505050565b7f496e76616c696420416d6f756e7421212120416d6f756e742073686f756c642060008201527f62652067726561746572207468616e207a65726f000000000000000000000000602082015250565b6000611302603483610e93565b915061130d826112a6565b604082019050919050565b60006020820190508181036000830152611331816112f5565b9050919050565b7f696e737566666963656e742062616c616e636521212120416d6f756e7420736860008201527f6f756c64206265206c657373206f7220657175616c20746f20796f757220637560208201527f7272656e742062616c616e636500000000000000000000000000000000000000604082015250565b60006113ba604d83610e93565b91506113c582611338565b606082019050919050565b600060208201905081810360008301526113e9816113ad565b9050919050565b7f4d6f6e6579206465706f7369746564207375636365737366756c6c7920746f2060008201527f4d42442042616e6b000000000000000000000000000000000000000000000000602082015250565b600061144c602883610e93565b9150611457826113f0565b604082019050919050565b600060608201905061147760008301856110cf565b81810360208301526114888161143f565b90506114976040830184610dcb565b9392505050565b7f4f4f502773202c20726563656970656e74206973206e6f74204d42442042616e60008201527f6b20637573746f6d657200000000000000000000000000000000000000000000602082015250565b60006114fa602a83610e93565b91506115058261149e565b604082019050919050565b60006020820190508181036000830152611529816114ed565b9050919050565b7f696e76616c696420416d6f756e7421212120616d6f756e742073686f756c642060008201527f62652067726561746572207468616e207a65726f000000000000000000000000602082015250565b600061158c603483610e93565b915061159782611530565b604082019050919050565b600060208201905081810360008301526115bb8161157f565b9050919050565b60006115cd82610d68565b91506115d883610d68565b92508282039050818111156115f0576115ef61105a565b5b92915050565b7f4d6f6e6579206465647563746564207375636365737366756c6c790000000000600082015250565b600061162c601b83610e93565b9150611637826115f6565b602082019050919050565b600060608201905061165760008301856110cf565b81810360208301526116688161161f565b90506116776040830184610dcb565b9392505050565b6000819050919050565b60006116a361169e61169984610df5565b61167e565b610df5565b9050919050565b60006116b582611688565b9050919050565b60006116c7826116aa565b9050919050565b6116d7816116bc565b82525050565b7f4d6f6e6579207472616e73666572656420207375636365737366756c6c790000600082015250565b6000611713601e83610e93565b915061171e826116dd565b602082019050919050565b600060608201905061173e60008301856116ce565b818103602083015261174f81611706565b905061175e6040830184610dcb565b939250505056fea26469706673582212205189cdcd0340958cf76723071c664811ffc8f7723c7d87243124245600a15bb764736f6c63430008120033",
					"opcodes": "PUSH1 0x80 PUSH1 0x40 MSTORE CALLVALUE DUP1 ISZERO PUSH2 0x10 JUMPI PUSH1 0x0 DUP1 REVERT JUMPDEST POP PUSH2 0x179B DUP1 PUSH2 0x20 PUSH1 0x0 CODECOPY PUSH1 0x0 RETURN INVALID PUSH1 0x80 PUSH1 0x40 MSTORE PUSH1 0x4 CALLDATASIZE LT PUSH2 0x4A JUMPI PUSH1 0x0 CALLDATALOAD PUSH1 0xE0 SHR DUP1 PUSH4 0x562B9F7 EQ PUSH2 0x4F JUMPI DUP1 PUSH4 0x12065FE0 EQ PUSH2 0x78 JUMPI DUP1 PUSH4 0x16C05AA2 EQ PUSH2 0xA3 JUMPI DUP1 PUSH4 0x20C2909D EQ PUSH2 0xAD JUMPI DUP1 PUSH4 0xD7081E03 EQ PUSH2 0xD8 JUMPI JUMPDEST PUSH1 0x0 DUP1 REVERT JUMPDEST CALLVALUE DUP1 ISZERO PUSH2 0x5B JUMPI PUSH1 0x0 DUP1 REVERT JUMPDEST POP PUSH2 0x76 PUSH1 0x4 DUP1 CALLDATASIZE SUB DUP2 ADD SWAP1 PUSH2 0x71 SWAP2 SWAP1 PUSH2 0xD9E JUMP JUMPDEST PUSH2 0x108 JUMP JUMPDEST STOP JUMPDEST CALLVALUE DUP1 ISZERO PUSH2 0x84 JUMPI PUSH1 0x0 DUP1 REVERT JUMPDEST POP PUSH2 0x8D PUSH2 0x3AC JUMP JUMPDEST PUSH1 0x40 MLOAD PUSH2 0x9A SWAP2 SWAP1 PUSH2 0xDDA JUMP JUMPDEST PUSH1 0x40 MLOAD DUP1 SWAP2 SUB SWAP1 RETURN JUMPDEST PUSH2 0xAB PUSH2 0x485 JUMP JUMPDEST STOP JUMPDEST CALLVALUE DUP1 ISZERO PUSH2 0xB9 JUMPI PUSH1 0x0 DUP1 REVERT JUMPDEST POP PUSH2 0xC2 PUSH2 0x83C JUMP JUMPDEST PUSH1 0x40 MLOAD PUSH2 0xCF SWAP2 SWAP1 PUSH2 0xDDA JUMP JUMPDEST PUSH1 0x40 MLOAD DUP1 SWAP2 SUB SWAP1 RETURN JUMPDEST PUSH2 0xF2 PUSH1 0x4 DUP1 CALLDATASIZE SUB DUP2 ADD SWAP1 PUSH2 0xED SWAP2 SWAP1 PUSH2 0xE53 JUMP JUMPDEST PUSH2 0x8D7 JUMP JUMPDEST PUSH1 0x40 MLOAD PUSH2 0xFF SWAP2 SWAP1 PUSH2 0xDDA JUMP JUMPDEST PUSH1 0x40 MLOAD DUP1 SWAP2 SUB SWAP1 RETURN JUMPDEST PUSH1 0x1 ISZERO ISZERO PUSH1 0x1 PUSH1 0x0 CALLER PUSH20 0xFFFFFFFFFFFFFFFFFFFFFFFFFFFFFFFFFFFFFFFF AND PUSH20 0xFFFFFFFFFFFFFFFFFFFFFFFFFFFFFFFFFFFFFFFF AND DUP2 MSTORE PUSH1 0x20 ADD SWAP1 DUP2 MSTORE PUSH1 0x20 ADD PUSH1 0x0 KECCAK256 PUSH1 0x0 SWAP1 SLOAD SWAP1 PUSH2 0x100 EXP SWAP1 DIV PUSH1 0xFF AND ISZERO ISZERO EQ PUSH2 0x19B JUMPI PUSH1 0x40 MLOAD PUSH32 0x8C379A000000000000000000000000000000000000000000000000000000000 DUP2 MSTORE PUSH1 0x4 ADD PUSH2 0x192 SWAP1 PUSH2 0xF16 JUMP JUMPDEST PUSH1 0x40 MLOAD DUP1 SWAP2 SUB SWAP1 REVERT JUMPDEST PUSH1 0x0 DUP2 GT PUSH2 0x1DE JUMPI PUSH1 0x40 MLOAD PUSH32 0x8C379A000000000000000000000000000000000000000000000000000000000 DUP2 MSTORE PUSH1 0x4 ADD PUSH2 0x1D5 SWAP1 PUSH2 0xFA8 JUMP JUMPDEST PUSH1 0x40 MLOAD DUP1 SWAP2 SUB SWAP1 REVERT JUMPDEST DUP1 PUSH1 0x0 DUP1 CALLER PUSH20 0xFFFFFFFFFFFFFFFFFFFFFFFFFFFFFFFFFFFFFFFF AND PUSH20 0xFFFFFFFFFFFFFFFFFFFFFFFFFFFFFFFFFFFFFFFF AND DUP2 MSTORE PUSH1 0x20 ADD SWAP1 DUP2 MSTORE PUSH1 0x20 ADD PUSH1 0x0 KECCAK256 SLOAD LT ISZERO PUSH2 0x25F JUMPI PUSH1 0x40 MLOAD PUSH32 0x8C379A000000000000000000000000000000000000000000000000000000000 DUP2 MSTORE PUSH1 0x4 ADD PUSH2 0x256 SWAP1 PUSH2 0x103A JUMP JUMPDEST PUSH1 0x40 MLOAD DUP1 SWAP2 SUB SWAP1 REVERT JUMPDEST CALLER PUSH20 0xFFFFFFFFFFFFFFFFFFFFFFFFFFFFFFFFFFFFFFFF AND PUSH2 0x8FC DUP3 SWAP1 DUP2 ISZERO MUL SWAP1 PUSH1 0x40 MLOAD PUSH1 0x0 PUSH1 0x40 MLOAD DUP1 DUP4 SUB DUP2 DUP6 DUP9 DUP9 CALL SWAP4 POP POP POP POP ISZERO DUP1 ISZERO PUSH2 0x2A5 JUMPI RETURNDATASIZE PUSH1 0x0 DUP1 RETURNDATACOPY RETURNDATASIZE PUSH1 0x0 REVERT JUMPDEST POP DUP1 PUSH1 0x0 DUP1 CALLER PUSH20 0xFFFFFFFFFFFFFFFFFFFFFFFFFFFFFFFFFFFFFFFF AND PUSH20 0xFFFFFFFFFFFFFFFFFFFFFFFFFFFFFFFFFFFFFFFF AND DUP2 MSTORE PUSH1 0x20 ADD SWAP1 DUP2 MSTORE PUSH1 0x20 ADD PUSH1 0x0 KECCAK256 SLOAD PUSH2 0x2F0 SWAP2 SWAP1 PUSH2 0x1089 JUMP JUMPDEST PUSH1 0x0 DUP1 CALLER PUSH20 0xFFFFFFFFFFFFFFFFFFFFFFFFFFFFFFFFFFFFFFFF AND PUSH20 0xFFFFFFFFFFFFFFFFFFFFFFFFFFFFFFFFFFFFFFFF AND DUP2 MSTORE PUSH1 0x20 ADD SWAP1 DUP2 MSTORE PUSH1 0x20 ADD PUSH1 0x0 KECCAK256 DUP2 SWAP1 SSTORE POP PUSH32 0x3928EB6C73F8B27F8264006F092393F8FF2E5684AC2E649D0A932AE36DF69088 CALLER PUSH1 0x0 DUP1 CALLER PUSH20 0xFFFFFFFFFFFFFFFFFFFFFFFFFFFFFFFFFFFFFFFF AND PUSH20 0xFFFFFFFFFFFFFFFFFFFFFFFFFFFFFFFFFFFFFFFF AND DUP2 MSTORE PUSH1 0x20 ADD SWAP1 DUP2 MSTORE PUSH1 0x20 ADD PUSH1 0x0 KECCAK256 SLOAD PUSH1 0x40 MLOAD PUSH2 0x3A1 SWAP3 SWAP2 SWAP1 PUSH2 0x1150 JUMP JUMPDEST PUSH1 0x40 MLOAD DUP1 SWAP2 SUB SWAP1 LOG1 POP JUMP JUMPDEST PUSH1 0x0 PUSH1 0x1 ISZERO ISZERO PUSH1 0x1 PUSH1 0x0 CALLER PUSH20 0xFFFFFFFFFFFFFFFFFFFFFFFFFFFFFFFFFFFFFFFF AND PUSH20 0xFFFFFFFFFFFFFFFFFFFFFFFFFFFFFFFFFFFFFFFF AND DUP2 MSTORE PUSH1 0x20 ADD SWAP1 DUP2 MSTORE PUSH1 0x20 ADD PUSH1 0x0 KECCAK256 PUSH1 0x0 SWAP1 SLOAD SWAP1 PUSH2 0x100 EXP SWAP1 DIV PUSH1 0xFF AND ISZERO ISZERO EQ PUSH2 0x441 JUMPI PUSH1 0x40 MLOAD PUSH32 0x8C379A000000000000000000000000000000000000000000000000000000000 DUP2 MSTORE PUSH1 0x4 ADD PUSH2 0x438 SWAP1 PUSH2 0x11FE JUMP JUMPDEST PUSH1 0x40 MLOAD DUP1 SWAP2 SUB SWAP1 REVERT JUMPDEST PUSH1 0x0 DUP1 CALLER PUSH20 0xFFFFFFFFFFFFFFFFFFFFFFFFFFFFFFFFFFFFFFFF AND PUSH20 0xFFFFFFFFFFFFFFFFFFFFFFFFFFFFFFFFFFFFFFFF AND DUP2 MSTORE PUSH1 0x20 ADD SWAP1 DUP2 MSTORE PUSH1 0x20 ADD PUSH1 0x0 KECCAK256 SLOAD SWAP1 POP SWAP1 JUMP JUMPDEST PUSH1 0x1 ISZERO ISZERO PUSH1 0x1 PUSH1 0x0 CALLER PUSH20 0xFFFFFFFFFFFFFFFFFFFFFFFFFFFFFFFFFFFFFFFF AND PUSH20 0xFFFFFFFFFFFFFFFFFFFFFFFFFFFFFFFFFFFFFFFF AND DUP2 MSTORE PUSH1 0x20 ADD SWAP1 DUP2 MSTORE PUSH1 0x20 ADD PUSH1 0x0 KECCAK256 PUSH1 0x0 SWAP1 SLOAD SWAP1 PUSH2 0x100 EXP SWAP1 DIV PUSH1 0xFF AND ISZERO ISZERO EQ PUSH2 0x69A JUMPI PUSH1 0x1 DUP1 PUSH1 0x0 CALLER PUSH20 0xFFFFFFFFFFFFFFFFFFFFFFFFFFFFFFFFFFFFFFFF AND PUSH20 0xFFFFFFFFFFFFFFFFFFFFFFFFFFFFFFFFFFFFFFFF AND DUP2 MSTORE PUSH1 0x20 ADD SWAP1 DUP2 MSTORE PUSH1 0x20 ADD PUSH1 0x0 KECCAK256 PUSH1 0x0 PUSH2 0x100 EXP DUP2 SLOAD DUP2 PUSH1 0xFF MUL NOT AND SWAP1 DUP4 ISZERO ISZERO MUL OR SWAP1 SSTORE POP PUSH1 0x0 DUP1 PUSH1 0x0 CALLER PUSH20 0xFFFFFFFFFFFFFFFFFFFFFFFFFFFFFFFFFFFFFFFF AND PUSH20 0xFFFFFFFFFFFFFFFFFFFFFFFFFFFFFFFFFFFFFFFF AND DUP2 MSTORE PUSH1 0x20 ADD SWAP1 DUP2 MSTORE PUSH1 0x20 ADD PUSH1 0x0 KECCAK256 DUP2 SWAP1 SSTORE POP PUSH1 0x1 DUP1 PUSH1 0x0 CALLER PUSH20 0xFFFFFFFFFFFFFFFFFFFFFFFFFFFFFFFFFFFFFFFF AND PUSH20 0xFFFFFFFFFFFFFFFFFFFFFFFFFFFFFFFFFFFFFFFF AND DUP2 MSTORE PUSH1 0x20 ADD SWAP1 DUP2 MSTORE PUSH1 0x20 ADD PUSH1 0x0 KECCAK256 PUSH1 0x0 PUSH2 0x100 EXP DUP2 SLOAD DUP2 PUSH1 0xFF MUL NOT AND SWAP1 DUP4 ISZERO ISZERO MUL OR SWAP1 SSTORE PUSH2 0x5D7 JUMPI PUSH1 0x0 DUP1 REVERT JUMPDEST PUSH1 0x0 DUP1 PUSH1 0x0 CALLER PUSH20 0xFFFFFFFFFFFFFFFFFFFFFFFFFFFFFFFFFFFFFFFF AND PUSH20 0xFFFFFFFFFFFFFFFFFFFFFFFFFFFFFFFFFFFFFFFF AND DUP2 MSTORE PUSH1 0x20 ADD SWAP1 DUP2 MSTORE PUSH1 0x20 ADD PUSH1 0x0 KECCAK256 SLOAD EQ PUSH2 0x622 JUMPI PUSH1 0x0 DUP1 REVERT JUMPDEST PUSH32 0x3928EB6C73F8B27F8264006F092393F8FF2E5684AC2E649D0A932AE36DF69088 CALLER PUSH1 0x0 DUP1 CALLER PUSH20 0xFFFFFFFFFFFFFFFFFFFFFFFFFFFFFFFFFFFFFFFF AND PUSH20 0xFFFFFFFFFFFFFFFFFFFFFFFFFFFFFFFFFFFFFFFF AND DUP2 MSTORE PUSH1 0x20 ADD SWAP1 DUP2 MSTORE PUSH1 0x20 ADD PUSH1 0x0 KECCAK256 SLOAD PUSH1 0x40 MLOAD PUSH2 0x691 SWAP3 SWAP2 SWAP1 PUSH2 0x126A JUMP JUMPDEST PUSH1 0x40 MLOAD DUP1 SWAP2 SUB SWAP1 LOG1 JUMPDEST PUSH1 0x0 CALLVALUE GT PUSH2 0x6DD JUMPI PUSH1 0x40 MLOAD PUSH32 0x8C379A000000000000000000000000000000000000000000000000000000000 DUP2 MSTORE PUSH1 0x4 ADD PUSH2 0x6D4 SWAP1 PUSH2 0x1318 JUMP JUMPDEST PUSH1 0x40 MLOAD DUP1 SWAP2 SUB SWAP1 REVERT JUMPDEST CALLER PUSH20 0xFFFFFFFFFFFFFFFFFFFFFFFFFFFFFFFFFFFFFFFF AND BALANCE CALLVALUE GT ISZERO PUSH2 0x737 JUMPI PUSH1 0x40 MLOAD PUSH32 0x8C379A000000000000000000000000000000000000000000000000000000000 DUP2 MSTORE PUSH1 0x4 ADD PUSH2 0x72E SWAP1 PUSH2 0x13D0 JUMP JUMPDEST PUSH1 0x40 MLOAD DUP1 SWAP2 SUB SWAP1 REVERT JUMPDEST CALLVALUE PUSH1 0x0 DUP1 CALLER PUSH20 0xFFFFFFFFFFFFFFFFFFFFFFFFFFFFFFFFFFFFFFFF AND PUSH20 0xFFFFFFFFFFFFFFFFFFFFFFFFFFFFFFFFFFFFFFFF AND DUP2 MSTORE PUSH1 0x20 ADD SWAP1 DUP2 MSTORE PUSH1 0x20 ADD PUSH1 0x0 KECCAK256 SLOAD PUSH2 0x781 SWAP2 SWAP1 PUSH2 0x1089 JUMP JUMPDEST PUSH1 0x0 DUP1 CALLER PUSH20 0xFFFFFFFFFFFFFFFFFFFFFFFFFFFFFFFFFFFFFFFF AND PUSH20 0xFFFFFFFFFFFFFFFFFFFFFFFFFFFFFFFFFFFFFFFF AND DUP2 MSTORE PUSH1 0x20 ADD SWAP1 DUP2 MSTORE PUSH1 0x20 ADD PUSH1 0x0 KECCAK256 DUP2 SWAP1 SSTORE POP PUSH32 0x3928EB6C73F8B27F8264006F092393F8FF2E5684AC2E649D0A932AE36DF69088 CALLER PUSH1 0x0 DUP1 CALLER PUSH20 0xFFFFFFFFFFFFFFFFFFFFFFFFFFFFFFFFFFFFFFFF AND PUSH20 0xFFFFFFFFFFFFFFFFFFFFFFFFFFFFFFFFFFFFFFFF AND DUP2 MSTORE PUSH1 0x20 ADD SWAP1 DUP2 MSTORE PUSH1 0x20 ADD PUSH1 0x0 KECCAK256 SLOAD PUSH1 0x40 MLOAD PUSH2 0x832 SWAP3 SWAP2 SWAP1 PUSH2 0x1462 JUMP JUMPDEST PUSH1 0x40 MLOAD DUP1 SWAP2 SUB SWAP1 LOG1 JUMP JUMPDEST PUSH1 0x0 PUSH1 0x1 ISZERO ISZERO PUSH1 0x1 PUSH1 0x0 CALLER PUSH20 0xFFFFFFFFFFFFFFFFFFFFFFFFFFFFFFFFFFFFFFFF AND PUSH20 0xFFFFFFFFFFFFFFFFFFFFFFFFFFFFFFFFFFFFFFFF AND DUP2 MSTORE PUSH1 0x20 ADD SWAP1 DUP2 MSTORE PUSH1 0x20 ADD PUSH1 0x0 KECCAK256 PUSH1 0x0 SWAP1 SLOAD SWAP1 PUSH2 0x100 EXP SWAP1 DIV PUSH1 0xFF AND ISZERO ISZERO EQ PUSH2 0x8D1 JUMPI PUSH1 0x40 MLOAD PUSH32 0x8C379A000000000000000000000000000000000000000000000000000000000 DUP2 MSTORE PUSH1 0x4 ADD PUSH2 0x8C8 SWAP1 PUSH2 0xF16 JUMP JUMPDEST PUSH1 0x40 MLOAD DUP1 SWAP2 SUB SWAP1 REVERT JUMPDEST SELFBALANCE SWAP1 POP SWAP1 JUMP JUMPDEST PUSH1 0x0 PUSH1 0x1 ISZERO ISZERO PUSH1 0x1 PUSH1 0x0 CALLER PUSH20 0xFFFFFFFFFFFFFFFFFFFFFFFFFFFFFFFFFFFFFFFF AND PUSH20 0xFFFFFFFFFFFFFFFFFFFFFFFFFFFFFFFFFFFFFFFF AND DUP2 MSTORE PUSH1 0x20 ADD SWAP1 DUP2 MSTORE PUSH1 0x20 ADD PUSH1 0x0 KECCAK256 PUSH1 0x0 SWAP1 SLOAD SWAP1 PUSH2 0x100 EXP SWAP1 DIV PUSH1 0xFF AND ISZERO ISZERO EQ PUSH2 0x96C JUMPI PUSH1 0x40 MLOAD PUSH32 0x8C379A000000000000000000000000000000000000000000000000000000000 DUP2 MSTORE PUSH1 0x4 ADD PUSH2 0x963 SWAP1 PUSH2 0xF16 JUMP JUMPDEST PUSH1 0x40 MLOAD DUP1 SWAP2 SUB SWAP1 REVERT JUMPDEST PUSH1 0x0 DUP1 PUSH1 0x0 CALLER PUSH20 0xFFFFFFFFFFFFFFFFFFFFFFFFFFFFFFFFFFFFFFFF AND PUSH20 0xFFFFFFFFFFFFFFFFFFFFFFFFFFFFFFFFFFFFFFFF AND DUP2 MSTORE PUSH1 0x20 ADD SWAP1 DUP2 MSTORE PUSH1 0x20 ADD PUSH1 0x0 KECCAK256 SLOAD SWAP1 POP PUSH1 0x0 DUP1 PUSH1 0x0 DUP7 PUSH20 0xFFFFFFFFFFFFFFFFFFFFFFFFFFFFFFFFFFFFFFFF AND PUSH20 0xFFFFFFFFFFFFFFFFFFFFFFFFFFFFFFFFFFFFFFFF AND DUP2 MSTORE PUSH1 0x20 ADD SWAP1 DUP2 MSTORE PUSH1 0x20 ADD PUSH1 0x0 KECCAK256 SLOAD SWAP1 POP PUSH1 0x1 ISZERO ISZERO PUSH1 0x1 PUSH1 0x0 DUP8 PUSH20 0xFFFFFFFFFFFFFFFFFFFFFFFFFFFFFFFFFFFFFFFF AND PUSH20 0xFFFFFFFFFFFFFFFFFFFFFFFFFFFFFFFFFFFFFFFF AND DUP2 MSTORE PUSH1 0x20 ADD SWAP1 DUP2 MSTORE PUSH1 0x20 ADD PUSH1 0x0 KECCAK256 PUSH1 0x0 SWAP1 SLOAD SWAP1 PUSH2 0x100 EXP SWAP1 DIV PUSH1 0xFF AND ISZERO ISZERO EQ PUSH2 0xA85 JUMPI PUSH1 0x40 MLOAD PUSH32 0x8C379A000000000000000000000000000000000000000000000000000000000 DUP2 MSTORE PUSH1 0x4 ADD PUSH2 0xA7C SWAP1 PUSH2 0x1510 JUMP JUMPDEST PUSH1 0x40 MLOAD DUP1 SWAP2 SUB SWAP1 REVERT JUMPDEST PUSH1 0x0 DUP5 GT PUSH2 0xAC8 JUMPI PUSH1 0x40 MLOAD PUSH32 0x8C379A000000000000000000000000000000000000000000000000000000000 DUP2 MSTORE PUSH1 0x4 ADD PUSH2 0xABF SWAP1 PUSH2 0x15A2 JUMP JUMPDEST PUSH1 0x40 MLOAD DUP1 SWAP2 SUB SWAP1 REVERT JUMPDEST DUP4 PUSH1 0x0 DUP1 CALLER PUSH20 0xFFFFFFFFFFFFFFFFFFFFFFFFFFFFFFFFFFFFFFFF AND PUSH20 0xFFFFFFFFFFFFFFFFFFFFFFFFFFFFFFFFFFFFFFFF AND DUP2 MSTORE PUSH1 0x20 ADD SWAP1 DUP2 MSTORE PUSH1 0x20 ADD PUSH1 0x0 KECCAK256 SLOAD LT ISZERO PUSH2 0xB49 JUMPI PUSH1 0x40 MLOAD PUSH32 0x8C379A000000000000000000000000000000000000000000000000000000000 DUP2 MSTORE PUSH1 0x4 ADD PUSH2 0xB40 SWAP1 PUSH2 0x103A JUMP JUMPDEST PUSH1 0x40 MLOAD DUP1 SWAP2 SUB SWAP1 REVERT JUMPDEST DUP5 PUSH20 0xFFFFFFFFFFFFFFFFFFFFFFFFFFFFFFFFFFFFFFFF AND PUSH2 0x8FC DUP6 SWAP1 DUP2 ISZERO MUL SWAP1 PUSH1 0x40 MLOAD PUSH1 0x0 PUSH1 0x40 MLOAD DUP1 DUP4 SUB DUP2 DUP6 DUP9 DUP9 CALL SWAP4 POP POP POP POP ISZERO DUP1 ISZERO PUSH2 0xB8F JUMPI RETURNDATASIZE PUSH1 0x0 DUP1 RETURNDATACOPY RETURNDATASIZE PUSH1 0x0 REVERT JUMPDEST POP DUP4 DUP3 PUSH2 0xB9C SWAP2 SWAP1 PUSH2 0x15C2 JUMP JUMPDEST PUSH1 0x0 DUP1 CALLER PUSH20 0xFFFFFFFFFFFFFFFFFFFFFFFFFFFFFFFFFFFFFFFF AND PUSH20 0xFFFFFFFFFFFFFFFFFFFFFFFFFFFFFFFFFFFFFFFF AND DUP2 MSTORE PUSH1 0x20 ADD SWAP1 DUP2 MSTORE PUSH1 0x20 ADD PUSH1 0x0 KECCAK256 DUP2 SWAP1 SSTORE POP DUP4 DUP2 PUSH2 0xBEA SWAP2 SWAP1 PUSH2 0x1089 JUMP JUMPDEST PUSH1 0x0 DUP1 DUP8 PUSH20 0xFFFFFFFFFFFFFFFFFFFFFFFFFFFFFFFFFFFFFFFF AND PUSH20 0xFFFFFFFFFFFFFFFFFFFFFFFFFFFFFFFFFFFFFFFF AND DUP2 MSTORE PUSH1 0x20 ADD SWAP1 DUP2 MSTORE PUSH1 0x20 ADD PUSH1 0x0 KECCAK256 DUP2 SWAP1 SSTORE POP PUSH32 0x3928EB6C73F8B27F8264006F092393F8FF2E5684AC2E649D0A932AE36DF69088 CALLER PUSH1 0x0 DUP1 CALLER PUSH20 0xFFFFFFFFFFFFFFFFFFFFFFFFFFFFFFFFFFFFFFFF AND PUSH20 0xFFFFFFFFFFFFFFFFFFFFFFFFFFFFFFFFFFFFFFFF AND DUP2 MSTORE PUSH1 0x20 ADD SWAP1 DUP2 MSTORE PUSH1 0x20 ADD PUSH1 0x0 KECCAK256 SLOAD PUSH1 0x40 MLOAD PUSH2 0xC9B SWAP3 SWAP2 SWAP1 PUSH2 0x1642 JUMP JUMPDEST PUSH1 0x40 MLOAD DUP1 SWAP2 SUB SWAP1 LOG1 PUSH32 0x3928EB6C73F8B27F8264006F092393F8FF2E5684AC2E649D0A932AE36DF69088 DUP6 PUSH1 0x0 DUP1 DUP9 PUSH20 0xFFFFFFFFFFFFFFFFFFFFFFFFFFFFFFFFFFFFFFFF AND PUSH20 0xFFFFFFFFFFFFFFFFFFFFFFFFFFFFFFFFFFFFFFFF AND DUP2 MSTORE PUSH1 0x20 ADD SWAP1 DUP2 MSTORE PUSH1 0x20 ADD PUSH1 0x0 KECCAK256 SLOAD PUSH1 0x40 MLOAD PUSH2 0xD12 SWAP3 SWAP2 SWAP1 PUSH2 0x1729 JUMP JUMPDEST PUSH1 0x40 MLOAD DUP1 SWAP2 SUB SWAP1 LOG1 PUSH1 0x0 DUP1 CALLER PUSH20 0xFFFFFFFFFFFFFFFFFFFFFFFFFFFFFFFFFFFFFFFF AND PUSH20 0xFFFFFFFFFFFFFFFFFFFFFFFFFFFFFFFFFFFFFFFF AND DUP2 MSTORE PUSH1 0x20 ADD SWAP1 DUP2 MSTORE PUSH1 0x20 ADD PUSH1 0x0 KECCAK256 SLOAD SWAP3 POP POP POP SWAP3 SWAP2 POP POP JUMP JUMPDEST PUSH1 0x0 DUP1 REVERT JUMPDEST PUSH1 0x0 DUP2 SWAP1 POP SWAP2 SWAP1 POP JUMP JUMPDEST PUSH2 0xD7B DUP2 PUSH2 0xD68 JUMP JUMPDEST DUP2 EQ PUSH2 0xD86 JUMPI PUSH1 0x0 DUP1 REVERT JUMPDEST POP JUMP JUMPDEST PUSH1 0x0 DUP2 CALLDATALOAD SWAP1 POP PUSH2 0xD98 DUP2 PUSH2 0xD72 JUMP JUMPDEST SWAP3 SWAP2 POP POP JUMP JUMPDEST PUSH1 0x0 PUSH1 0x20 DUP3 DUP5 SUB SLT ISZERO PUSH2 0xDB4 JUMPI PUSH2 0xDB3 PUSH2 0xD63 JUMP JUMPDEST JUMPDEST PUSH1 0x0 PUSH2 0xDC2 DUP5 DUP3 DUP6 ADD PUSH2 0xD89 JUMP JUMPDEST SWAP2 POP POP SWAP3 SWAP2 POP POP JUMP JUMPDEST PUSH2 0xDD4 DUP2 PUSH2 0xD68 JUMP JUMPDEST DUP3 MSTORE POP POP JUMP JUMPDEST PUSH1 0x0 PUSH1 0x20 DUP3 ADD SWAP1 POP PUSH2 0xDEF PUSH1 0x0 DUP4 ADD DUP5 PUSH2 0xDCB JUMP JUMPDEST SWAP3 SWAP2 POP POP JUMP JUMPDEST PUSH1 0x0 PUSH20 0xFFFFFFFFFFFFFFFFFFFFFFFFFFFFFFFFFFFFFFFF DUP3 AND SWAP1 POP SWAP2 SWAP1 POP JUMP JUMPDEST PUSH1 0x0 PUSH2 0xE20 DUP3 PUSH2 0xDF5 JUMP JUMPDEST SWAP1 POP SWAP2 SWAP1 POP JUMP JUMPDEST PUSH2 0xE30 DUP2 PUSH2 0xE15 JUMP JUMPDEST DUP2 EQ PUSH2 0xE3B JUMPI PUSH1 0x0 DUP1 REVERT JUMPDEST POP JUMP JUMPDEST PUSH1 0x0 DUP2 CALLDATALOAD SWAP1 POP PUSH2 0xE4D DUP2 PUSH2 0xE27 JUMP JUMPDEST SWAP3 SWAP2 POP POP JUMP JUMPDEST PUSH1 0x0 DUP1 PUSH1 0x40 DUP4 DUP6 SUB SLT ISZERO PUSH2 0xE6A JUMPI PUSH2 0xE69 PUSH2 0xD63 JUMP JUMPDEST JUMPDEST PUSH1 0x0 PUSH2 0xE78 DUP6 DUP3 DUP7 ADD PUSH2 0xE3E JUMP JUMPDEST SWAP3 POP POP PUSH1 0x20 PUSH2 0xE89 DUP6 DUP3 DUP7 ADD PUSH2 0xD89 JUMP JUMPDEST SWAP2 POP POP SWAP3 POP SWAP3 SWAP1 POP JUMP JUMPDEST PUSH1 0x0 DUP3 DUP3 MSTORE PUSH1 0x20 DUP3 ADD SWAP1 POP SWAP3 SWAP2 POP POP JUMP JUMPDEST PUSH32 0x4F4F502773202C20596F7520617265206E6F74204D42442042616E6B20637573 PUSH1 0x0 DUP3 ADD MSTORE PUSH32 0x746F6D6572000000000000000000000000000000000000000000000000000000 PUSH1 0x20 DUP3 ADD MSTORE POP JUMP JUMPDEST PUSH1 0x0 PUSH2 0xF00 PUSH1 0x25 DUP4 PUSH2 0xE93 JUMP JUMPDEST SWAP2 POP PUSH2 0xF0B DUP3 PUSH2 0xEA4 JUMP JUMPDEST PUSH1 0x40 DUP3 ADD SWAP1 POP SWAP2 SWAP1 POP JUMP JUMPDEST PUSH1 0x0 PUSH1 0x20 DUP3 ADD SWAP1 POP DUP2 DUP2 SUB PUSH1 0x0 DUP4 ADD MSTORE PUSH2 0xF2F DUP2 PUSH2 0xEF3 JUMP JUMPDEST SWAP1 POP SWAP2 SWAP1 POP JUMP JUMPDEST PUSH32 0x696E76616C696420616D6F756E7421212120616D6F756E742073686F756C6420 PUSH1 0x0 DUP3 ADD MSTORE PUSH32 0x62652067726561746572207468616E207A65726F000000000000000000000000 PUSH1 0x20 DUP3 ADD MSTORE POP JUMP JUMPDEST PUSH1 0x0 PUSH2 0xF92 PUSH1 0x34 DUP4 PUSH2 0xE93 JUMP JUMPDEST SWAP2 POP PUSH2 0xF9D DUP3 PUSH2 0xF36 JUMP JUMPDEST PUSH1 0x40 DUP3 ADD SWAP1 POP SWAP2 SWAP1 POP JUMP JUMPDEST PUSH1 0x0 PUSH1 0x20 DUP3 ADD SWAP1 POP DUP2 DUP2 SUB PUSH1 0x0 DUP4 ADD MSTORE PUSH2 0xFC1 DUP2 PUSH2 0xF85 JUMP JUMPDEST SWAP1 POP SWAP2 SWAP1 POP JUMP JUMPDEST PUSH32 0x696E737566666963656E742062616C616E636520746F20706572666F726D2074 PUSH1 0x0 DUP3 ADD MSTORE PUSH32 0x686973207472616E73616374696F6E0000000000000000000000000000000000 PUSH1 0x20 DUP3 ADD MSTORE POP JUMP JUMPDEST PUSH1 0x0 PUSH2 0x1024 PUSH1 0x2F DUP4 PUSH2 0xE93 JUMP JUMPDEST SWAP2 POP PUSH2 0x102F DUP3 PUSH2 0xFC8 JUMP JUMPDEST PUSH1 0x40 DUP3 ADD SWAP1 POP SWAP2 SWAP1 POP JUMP JUMPDEST PUSH1 0x0 PUSH1 0x20 DUP3 ADD SWAP1 POP DUP2 DUP2 SUB PUSH1 0x0 DUP4 ADD MSTORE PUSH2 0x1053 DUP2 PUSH2 0x1017 JUMP JUMPDEST SWAP1 POP SWAP2 SWAP1 POP JUMP JUMPDEST PUSH32 0x4E487B7100000000000000000000000000000000000000000000000000000000 PUSH1 0x0 MSTORE PUSH1 0x11 PUSH1 0x4 MSTORE PUSH1 0x24 PUSH1 0x0 REVERT JUMPDEST PUSH1 0x0 PUSH2 0x1094 DUP3 PUSH2 0xD68 JUMP JUMPDEST SWAP2 POP PUSH2 0x109F DUP4 PUSH2 0xD68 JUMP JUMPDEST SWAP3 POP DUP3 DUP3 ADD SWAP1 POP DUP1 DUP3 GT ISZERO PUSH2 0x10B7 JUMPI PUSH2 0x10B6 PUSH2 0x105A JUMP JUMPDEST JUMPDEST SWAP3 SWAP2 POP POP JUMP JUMPDEST PUSH1 0x0 PUSH2 0x10C8 DUP3 PUSH2 0xDF5 JUMP JUMPDEST SWAP1 POP SWAP2 SWAP1 POP JUMP JUMPDEST PUSH2 0x10D8 DUP2 PUSH2 0x10BD JUMP JUMPDEST DUP3 MSTORE POP POP JUMP JUMPDEST PUSH32 0x416D6F756E742077697468647261776E207375636365737366756C6C7920746F PUSH1 0x0 DUP3 ADD MSTORE PUSH32 0x20796F7572206163636F756E7400000000000000000000000000000000000000 PUSH1 0x20 DUP3 ADD MSTORE POP JUMP JUMPDEST PUSH1 0x0 PUSH2 0x113A PUSH1 0x2D DUP4 PUSH2 0xE93 JUMP JUMPDEST SWAP2 POP PUSH2 0x1145 DUP3 PUSH2 0x10DE JUMP JUMPDEST PUSH1 0x40 DUP3 ADD SWAP1 POP SWAP2 SWAP1 POP JUMP JUMPDEST PUSH1 0x0 PUSH1 0x60 DUP3 ADD SWAP1 POP PUSH2 0x1165 PUSH1 0x0 DUP4 ADD DUP6 PUSH2 0x10CF JUMP JUMPDEST DUP2 DUP2 SUB PUSH1 0x20 DUP4 ADD MSTORE PUSH2 0x1176 DUP2 PUSH2 0x112D JUMP JUMPDEST SWAP1 POP PUSH2 0x1185 PUSH1 0x40 DUP4 ADD DUP5 PUSH2 0xDCB JUMP JUMPDEST SWAP4 SWAP3 POP POP POP JUMP JUMPDEST PUSH32 0x4F4F502773202C20596F7520617265206E6F7420726567697374657265642077 PUSH1 0x0 DUP3 ADD MSTORE PUSH32 0x697468204D424400000000000000000000000000000000000000000000000000 PUSH1 0x20 DUP3 ADD MSTORE POP JUMP JUMPDEST PUSH1 0x0 PUSH2 0x11E8 PUSH1 0x27 DUP4 PUSH2 0xE93 JUMP JUMPDEST SWAP2 POP PUSH2 0x11F3 DUP3 PUSH2 0x118C JUMP JUMPDEST PUSH1 0x40 DUP3 ADD SWAP1 POP SWAP2 SWAP1 POP JUMP JUMPDEST PUSH1 0x0 PUSH1 0x20 DUP3 ADD SWAP1 POP DUP2 DUP2 SUB PUSH1 0x0 DUP4 ADD MSTORE PUSH2 0x1217 DUP2 PUSH2 0x11DB JUMP JUMPDEST SWAP1 POP SWAP2 SWAP1 POP JUMP JUMPDEST PUSH32 0x4E65772055736572206D6170706564207375636365737366756C6C7900000000 PUSH1 0x0 DUP3 ADD MSTORE POP JUMP JUMPDEST PUSH1 0x0 PUSH2 0x1254 PUSH1 0x1C DUP4 PUSH2 0xE93 JUMP JUMPDEST SWAP2 POP PUSH2 0x125F DUP3 PUSH2 0x121E JUMP JUMPDEST PUSH1 0x20 DUP3 ADD SWAP1 POP SWAP2 SWAP1 POP JUMP JUMPDEST PUSH1 0x0 PUSH1 0x60 DUP3 ADD SWAP1 POP PUSH2 0x127F PUSH1 0x0 DUP4 ADD DUP6 PUSH2 0x10CF JUMP JUMPDEST DUP2 DUP2 SUB PUSH1 0x20 DUP4 ADD MSTORE PUSH2 0x1290 DUP2 PUSH2 0x1247 JUMP JUMPDEST SWAP1 POP PUSH2 0x129F PUSH1 0x40 DUP4 ADD DUP5 PUSH2 0xDCB JUMP JUMPDEST SWAP4 SWAP3 POP POP POP JUMP JUMPDEST PUSH32 0x496E76616C696420416D6F756E7421212120416D6F756E742073686F756C6420 PUSH1 0x0 DUP3 ADD MSTORE PUSH32 0x62652067726561746572207468616E207A65726F000000000000000000000000 PUSH1 0x20 DUP3 ADD MSTORE POP JUMP JUMPDEST PUSH1 0x0 PUSH2 0x1302 PUSH1 0x34 DUP4 PUSH2 0xE93 JUMP JUMPDEST SWAP2 POP PUSH2 0x130D DUP3 PUSH2 0x12A6 JUMP JUMPDEST PUSH1 0x40 DUP3 ADD SWAP1 POP SWAP2 SWAP1 POP JUMP JUMPDEST PUSH1 0x0 PUSH1 0x20 DUP3 ADD SWAP1 POP DUP2 DUP2 SUB PUSH1 0x0 DUP4 ADD MSTORE PUSH2 0x1331 DUP2 PUSH2 0x12F5 JUMP JUMPDEST SWAP1 POP SWAP2 SWAP1 POP JUMP JUMPDEST PUSH32 0x696E737566666963656E742062616C616E636521212120416D6F756E74207368 PUSH1 0x0 DUP3 ADD MSTORE PUSH32 0x6F756C64206265206C657373206F7220657175616C20746F20796F7572206375 PUSH1 0x20 DUP3 ADD MSTORE PUSH32 0x7272656E742062616C616E636500000000000000000000000000000000000000 PUSH1 0x40 DUP3 ADD MSTORE POP JUMP JUMPDEST PUSH1 0x0 PUSH2 0x13BA PUSH1 0x4D DUP4 PUSH2 0xE93 JUMP JUMPDEST SWAP2 POP PUSH2 0x13C5 DUP3 PUSH2 0x1338 JUMP JUMPDEST PUSH1 0x60 DUP3 ADD SWAP1 POP SWAP2 SWAP1 POP JUMP JUMPDEST PUSH1 0x0 PUSH1 0x20 DUP3 ADD SWAP1 POP DUP2 DUP2 SUB PUSH1 0x0 DUP4 ADD MSTORE PUSH2 0x13E9 DUP2 PUSH2 0x13AD JUMP JUMPDEST SWAP1 POP SWAP2 SWAP1 POP JUMP JUMPDEST PUSH32 0x4D6F6E6579206465706F7369746564207375636365737366756C6C7920746F20 PUSH1 0x0 DUP3 ADD MSTORE PUSH32 0x4D42442042616E6B000000000000000000000000000000000000000000000000 PUSH1 0x20 DUP3 ADD MSTORE POP JUMP JUMPDEST PUSH1 0x0 PUSH2 0x144C PUSH1 0x28 DUP4 PUSH2 0xE93 JUMP JUMPDEST SWAP2 POP PUSH2 0x1457 DUP3 PUSH2 0x13F0 JUMP JUMPDEST PUSH1 0x40 DUP3 ADD SWAP1 POP SWAP2 SWAP1 POP JUMP JUMPDEST PUSH1 0x0 PUSH1 0x60 DUP3 ADD SWAP1 POP PUSH2 0x1477 PUSH1 0x0 DUP4 ADD DUP6 PUSH2 0x10CF JUMP JUMPDEST DUP2 DUP2 SUB PUSH1 0x20 DUP4 ADD MSTORE PUSH2 0x1488 DUP2 PUSH2 0x143F JUMP JUMPDEST SWAP1 POP PUSH2 0x1497 PUSH1 0x40 DUP4 ADD DUP5 PUSH2 0xDCB JUMP JUMPDEST SWAP4 SWAP3 POP POP POP JUMP JUMPDEST PUSH32 0x4F4F502773202C20726563656970656E74206973206E6F74204D42442042616E PUSH1 0x0 DUP3 ADD MSTORE PUSH32 0x6B20637573746F6D657200000000000000000000000000000000000000000000 PUSH1 0x20 DUP3 ADD MSTORE POP JUMP JUMPDEST PUSH1 0x0 PUSH2 0x14FA PUSH1 0x2A DUP4 PUSH2 0xE93 JUMP JUMPDEST SWAP2 POP PUSH2 0x1505 DUP3 PUSH2 0x149E JUMP JUMPDEST PUSH1 0x40 DUP3 ADD SWAP1 POP SWAP2 SWAP1 POP JUMP JUMPDEST PUSH1 0x0 PUSH1 0x20 DUP3 ADD SWAP1 POP DUP2 DUP2 SUB PUSH1 0x0 DUP4 ADD MSTORE PUSH2 0x1529 DUP2 PUSH2 0x14ED JUMP JUMPDEST SWAP1 POP SWAP2 SWAP1 POP JUMP JUMPDEST PUSH32 0x696E76616C696420416D6F756E7421212120616D6F756E742073686F756C6420 PUSH1 0x0 DUP3 ADD MSTORE PUSH32 0x62652067726561746572207468616E207A65726F000000000000000000000000 PUSH1 0x20 DUP3 ADD MSTORE POP JUMP JUMPDEST PUSH1 0x0 PUSH2 0x158C PUSH1 0x34 DUP4 PUSH2 0xE93 JUMP JUMPDEST SWAP2 POP PUSH2 0x1597 DUP3 PUSH2 0x1530 JUMP JUMPDEST PUSH1 0x40 DUP3 ADD SWAP1 POP SWAP2 SWAP1 POP JUMP JUMPDEST PUSH1 0x0 PUSH1 0x20 DUP3 ADD SWAP1 POP DUP2 DUP2 SUB PUSH1 0x0 DUP4 ADD MSTORE PUSH2 0x15BB DUP2 PUSH2 0x157F JUMP JUMPDEST SWAP1 POP SWAP2 SWAP1 POP JUMP JUMPDEST PUSH1 0x0 PUSH2 0x15CD DUP3 PUSH2 0xD68 JUMP JUMPDEST SWAP2 POP PUSH2 0x15D8 DUP4 PUSH2 0xD68 JUMP JUMPDEST SWAP3 POP DUP3 DUP3 SUB SWAP1 POP DUP2 DUP2 GT ISZERO PUSH2 0x15F0 JUMPI PUSH2 0x15EF PUSH2 0x105A JUMP JUMPDEST JUMPDEST SWAP3 SWAP2 POP POP JUMP JUMPDEST PUSH32 0x4D6F6E6579206465647563746564207375636365737366756C6C790000000000 PUSH1 0x0 DUP3 ADD MSTORE POP JUMP JUMPDEST PUSH1 0x0 PUSH2 0x162C PUSH1 0x1B DUP4 PUSH2 0xE93 JUMP JUMPDEST SWAP2 POP PUSH2 0x1637 DUP3 PUSH2 0x15F6 JUMP JUMPDEST PUSH1 0x20 DUP3 ADD SWAP1 POP SWAP2 SWAP1 POP JUMP JUMPDEST PUSH1 0x0 PUSH1 0x60 DUP3 ADD SWAP1 POP PUSH2 0x1657 PUSH1 0x0 DUP4 ADD DUP6 PUSH2 0x10CF JUMP JUMPDEST DUP2 DUP2 SUB PUSH1 0x20 DUP4 ADD MSTORE PUSH2 0x1668 DUP2 PUSH2 0x161F JUMP JUMPDEST SWAP1 POP PUSH2 0x1677 PUSH1 0x40 DUP4 ADD DUP5 PUSH2 0xDCB JUMP JUMPDEST SWAP4 SWAP3 POP POP POP JUMP JUMPDEST PUSH1 0x0 DUP2 SWAP1 POP SWAP2 SWAP1 POP JUMP JUMPDEST PUSH1 0x0 PUSH2 0x16A3 PUSH2 0x169E PUSH2 0x1699 DUP5 PUSH2 0xDF5 JUMP JUMPDEST PUSH2 0x167E JUMP JUMPDEST PUSH2 0xDF5 JUMP JUMPDEST SWAP1 POP SWAP2 SWAP1 POP JUMP JUMPDEST PUSH1 0x0 PUSH2 0x16B5 DUP3 PUSH2 0x1688 JUMP JUMPDEST SWAP1 POP SWAP2 SWAP1 POP JUMP JUMPDEST PUSH1 0x0 PUSH2 0x16C7 DUP3 PUSH2 0x16AA JUMP JUMPDEST SWAP1 POP SWAP2 SWAP1 POP JUMP JUMPDEST PUSH2 0x16D7 DUP2 PUSH2 0x16BC JUMP JUMPDEST DUP3 MSTORE POP POP JUMP JUMPDEST PUSH32 0x4D6F6E6579207472616E73666572656420207375636365737366756C6C790000 PUSH1 0x0 DUP3 ADD MSTORE POP JUMP JUMPDEST PUSH1 0x0 PUSH2 0x1713 PUSH1 0x1E DUP4 PUSH2 0xE93 JUMP JUMPDEST SWAP2 POP PUSH2 0x171E DUP3 PUSH2 0x16DD JUMP JUMPDEST PUSH1 0x20 DUP3 ADD SWAP1 POP SWAP2 SWAP1 POP JUMP JUMPDEST PUSH1 0x0 PUSH1 0x60 DUP3 ADD SWAP1 POP PUSH2 0x173E PUSH1 0x0 DUP4 ADD DUP6 PUSH2 0x16CE JUMP JUMPDEST DUP2 DUP2 SUB PUSH1 0x20 DUP4 ADD MSTORE PUSH2 0x174F DUP2 PUSH2 0x1706 JUMP JUMPDEST SWAP1 POP PUSH2 0x175E PUSH1 0x40 DUP4 ADD DUP5 PUSH2 0xDCB JUMP JUMPDEST SWAP4 SWAP3 POP POP POP JUMP INVALID LOG2 PUSH5 0x6970667358 0x22 SLT KECCAK256 MLOAD DUP10 0xCD 0xCD SUB BLOCKHASH SWAP6 DUP13 0xF7 PUSH8 0x23071C664811FFC8 0xF7 PUSH19 0x3C7D87243124245600A15BB764736F6C634300 ADDMOD SLT STOP CALLER "
				},
				"gasEstimates": {
					"creation": {
						"codeDepositCost": "1208600",
						"executionCost": "1254",
						"totalCost": "1209854"
					},
					"external": {
						"checkMBDBalance()": "2758",
						"depositMoney()": "infinite",
						"getBalance()": "4786",
						"transferAmount(address,uint256)": "infinite",
						"withdrawAmount(uint256)": "infinite"
					}
				},
				"methodIdentifiers": {
					"checkMBDBalance()": "20c2909d",
					"depositMoney()": "16c05aa2",
					"getBalance()": "12065fe0",
					"transferAmount(address,uint256)": "d7081e03",
					"withdrawAmount(uint256)": "0562b9f7"
				}
			},
			"storageLayout": {
				"storage": [
					{
						"astId": 5,
						"contract": "contracts/MBD_Bank.sol:MBD_BANK",
						"label": "balanceLedger",
						"offset": 0,
						"slot": "0",
						"type": "t_mapping(t_address,t_uint256)"
					},
					{
						"astId": 9,
						"contract": "contracts/MBD_Bank.sol:MBD_BANK",
						"label": "userExistOrNot",
						"offset": 0,
						"slot": "1",
						"type": "t_mapping(t_address,t_bool)"
					}
				],
				"types": {
					"t_address": {
						"encoding": "inplace",
						"label": "address",
						"numberOfBytes": "20"
					},
					"t_bool": {
						"encoding": "inplace",
						"label": "bool",
						"numberOfBytes": "1"
					},
					"t_mapping(t_address,t_bool)": {
						"encoding": "mapping",
						"key": "t_address",
						"label": "mapping(address => bool)",
						"numberOfBytes": "32",
						"value": "t_bool"
					},
					"t_mapping(t_address,t_uint256)": {
						"encoding": "mapping",
						"key": "t_address",
						"label": "mapping(address => uint256)",
						"numberOfBytes": "32",
						"value": "t_uint256"
					},
					"t_uint256": {
						"encoding": "inplace",
						"label": "uint256",
						"numberOfBytes": "32"
					}
				}
			},
			"userdoc": {
				"kind": "user",
				"methods": {},
				"version": 1
			}
		}
	}
}