{
	"contracts/LotteryProject.sol": {
		"Lottery": {
			"abi": [
				{
					"inputs": [],
					"name": "getBalance",
					"outputs": [
						{
							"internalType": "uint256",
							"name": "",
							"type": "uint256"
						}
					],
					"stateMutability": "view",
					"type": "function"
				},
				{
					"inputs": [],
					"name": "getRandomWinner",
					"outputs": [],
					"stateMutability": "payable",
					"type": "function"
				},
				{
					"inputs": [],
					"name": "getWinnerBalance",
					"outputs": [
						{
							"internalType": "uint256",
							"name": "",
							"type": "uint256"
						}
					],
					"stateMutability": "view",
					"type": "function"
				},
				{
					"inputs": [],
					"name": "lotteryManager",
					"outputs": [
						{
							"internalType": "address",
							"name": "",
							"type": "address"
						}
					],
					"stateMutability": "view",
					"type": "function"
				},
				{
					"inputs": [],
					"name": "participate",
					"outputs": [],
					"stateMutability": "payable",
					"type": "function"
				},
				{
					"inputs": [],
					"name": "winner",
					"outputs": [
						{
							"internalType": "address payable",
							"name": "",
							"type": "address"
						}
					],
					"stateMutability": "view",
					"type": "function"
				}
			],
			"devdoc": {
				"kind": "dev",
				"methods": {},
				"version": 1
			},
			"evm": {
				"assembly": "    /* \"contracts/LotteryProject.sol\":89:1257  contract Lottery {... */\n  mstore(0x40, 0x80)\n    /* \"contracts/LotteryProject.sol\":244:245  0 */\n  0x00\n    /* \"contracts/LotteryProject.sol\":217:245  uint256 collectedBalance = 0 */\n  0x03\n  sstore\n    /* \"contracts/LotteryProject.sol\":89:1257  contract Lottery {... */\n  callvalue\n  dup1\n  iszero\n  tag_1\n  jumpi\n  0x00\n  dup1\n  revert\ntag_1:\n  pop\n  dataSize(sub_0)\n  dup1\n  dataOffset(sub_0)\n  0x00\n  codecopy\n  0x00\n  return\nstop\n\nsub_0: assembly {\n        /* \"contracts/LotteryProject.sol\":89:1257  contract Lottery {... */\n      mstore(0x40, 0x80)\n      jumpi(tag_1, lt(calldatasize, 0x04))\n      shr(0xe0, calldataload(0x00))\n      dup1\n      0x12065fe0\n      eq\n      tag_2\n      jumpi\n      dup1\n      0x4f989520\n      eq\n      tag_3\n      jumpi\n      dup1\n      0x6694f1a5\n      eq\n      tag_4\n      jumpi\n      dup1\n      0xd11711a2\n      eq\n      tag_5\n      jumpi\n      dup1\n      0xd369e686\n      eq\n      tag_6\n      jumpi\n      dup1\n      0xdfbf53ae\n      eq\n      tag_7\n      jumpi\n    tag_1:\n      0x00\n      dup1\n      revert\n        /* \"contracts/LotteryProject.sol\":476:615  function getBalance() public view returns (uint256) {... */\n    tag_2:\n      callvalue\n      dup1\n      iszero\n      tag_8\n      jumpi\n      0x00\n      dup1\n      revert\n    tag_8:\n      pop\n      tag_9\n      tag_10\n      jump\t// in\n    tag_9:\n      mload(0x40)\n      tag_11\n      swap2\n      swap1\n      tag_12\n      jump\t// in\n    tag_11:\n      mload(0x40)\n      dup1\n      swap2\n      sub\n      swap1\n      return\n        /* \"contracts/LotteryProject.sol\":182:211  address public lotteryManager */\n    tag_3:\n      callvalue\n      dup1\n      iszero\n      tag_13\n      jumpi\n      0x00\n      dup1\n      revert\n    tag_13:\n      pop\n      tag_14\n      tag_15\n      jump\t// in\n    tag_14:\n      mload(0x40)\n      tag_16\n      swap2\n      swap1\n      tag_17\n      jump\t// in\n    tag_16:\n      mload(0x40)\n      dup1\n      swap2\n      sub\n      swap1\n      return\n        /* \"contracts/LotteryProject.sol\":621:1097  function getRandomWinner() public payable {... */\n    tag_4:\n      tag_18\n      tag_19\n      jump\t// in\n    tag_18:\n      stop\n        /* \"contracts/LotteryProject.sol\":288:470  function participate() public payable {... */\n    tag_5:\n      tag_20\n      tag_21\n      jump\t// in\n    tag_20:\n      stop\n        /* \"contracts/LotteryProject.sol\":1103:1255  function getWinnerBalance() public view returns (uint256) {... */\n    tag_6:\n      callvalue\n      dup1\n      iszero\n      tag_22\n      jumpi\n      0x00\n      dup1\n      revert\n    tag_22:\n      pop\n      tag_23\n      tag_24\n      jump\t// in\n    tag_23:\n      mload(0x40)\n      tag_25\n      swap2\n      swap1\n      tag_12\n      jump\t// in\n    tag_25:\n      mload(0x40)\n      dup1\n      swap2\n      sub\n      swap1\n      return\n        /* \"contracts/LotteryProject.sol\":147:176  address payable public winner */\n    tag_7:\n      callvalue\n      dup1\n      iszero\n      tag_26\n      jumpi\n      0x00\n      dup1\n      revert\n    tag_26:\n      pop\n      tag_27\n      tag_28\n      jump\t// in\n    tag_27:\n      mload(0x40)\n      tag_29\n      swap2\n      swap1\n      tag_30\n      jump\t// in\n    tag_29:\n      mload(0x40)\n      dup1\n      swap2\n      sub\n      swap1\n      return\n        /* \"contracts/LotteryProject.sol\":476:615  function getBalance() public view returns (uint256) {... */\n    tag_10:\n        /* \"contracts/LotteryProject.sol\":519:526  uint256 */\n      0x00\n        /* \"contracts/LotteryProject.sol\":560:574  lotteryManager */\n      0x02\n      0x00\n      swap1\n      sload\n      swap1\n      0x0100\n      exp\n      swap1\n      div\n      0xffffffffffffffffffffffffffffffffffffffff\n      and\n        /* \"contracts/LotteryProject.sol\":546:574  msg.sender == lotteryManager */\n      0xffffffffffffffffffffffffffffffffffffffff\n      and\n        /* \"contracts/LotteryProject.sol\":546:556  msg.sender */\n      caller\n        /* \"contracts/LotteryProject.sol\":546:574  msg.sender == lotteryManager */\n      0xffffffffffffffffffffffffffffffffffffffff\n      and\n      eq\n        /* \"contracts/LotteryProject.sol\":538:575  require(msg.sender == lotteryManager) */\n      tag_32\n      jumpi\n      0x00\n      dup1\n      revert\n    tag_32:\n        /* \"contracts/LotteryProject.sol\":592:608  collectedBalance */\n      sload(0x03)\n        /* \"contracts/LotteryProject.sol\":585:608  return collectedBalance */\n      swap1\n      pop\n        /* \"contracts/LotteryProject.sol\":476:615  function getBalance() public view returns (uint256) {... */\n      swap1\n      jump\t// out\n        /* \"contracts/LotteryProject.sol\":182:211  address public lotteryManager */\n    tag_15:\n      0x02\n      0x00\n      swap1\n      sload\n      swap1\n      0x0100\n      exp\n      swap1\n      div\n      0xffffffffffffffffffffffffffffffffffffffff\n      and\n      dup2\n      jump\t// out\n        /* \"contracts/LotteryProject.sol\":621:1097  function getRandomWinner() public payable {... */\n    tag_19:\n        /* \"contracts/LotteryProject.sol\":695:709  lotteryManager */\n      0x02\n      0x00\n      swap1\n      sload\n      swap1\n      0x0100\n      exp\n      swap1\n      div\n      0xffffffffffffffffffffffffffffffffffffffff\n      and\n        /* \"contracts/LotteryProject.sol\":681:709  msg.sender == lotteryManager */\n      0xffffffffffffffffffffffffffffffffffffffff\n      and\n        /* \"contracts/LotteryProject.sol\":681:691  msg.sender */\n      caller\n        /* \"contracts/LotteryProject.sol\":681:709  msg.sender == lotteryManager */\n      0xffffffffffffffffffffffffffffffffffffffff\n      and\n      eq\n        /* \"contracts/LotteryProject.sol\":673:710  require(msg.sender == lotteryManager) */\n      tag_34\n      jumpi\n      0x00\n      dup1\n      revert\n    tag_34:\n        /* \"contracts/LotteryProject.sol\":720:732  bytes32 rand */\n      0x00\n        /* \"contracts/LotteryProject.sol\":760:761  1 */\n      0x01\n        /* \"contracts/LotteryProject.sol\":745:757  block.number */\n      number\n        /* \"contracts/LotteryProject.sol\":745:761  block.number - 1 */\n      tag_35\n      swap2\n      swap1\n      tag_36\n      jump\t// in\n    tag_35:\n        /* \"contracts/LotteryProject.sol\":735:762  blockhash(block.number - 1) */\n      blockhash\n        /* \"contracts/LotteryProject.sol\":720:762  bytes32 rand = blockhash(block.number - 1) */\n      swap1\n      pop\n        /* \"contracts/LotteryProject.sol\":772:785  bytes32 rand2 */\n      0x00\n        /* \"contracts/LotteryProject.sol\":813:814  2 */\n      0x02\n        /* \"contracts/LotteryProject.sol\":798:810  block.number */\n      number\n        /* \"contracts/LotteryProject.sol\":798:814  block.number - 2 */\n      tag_37\n      swap2\n      swap1\n      tag_36\n      jump\t// in\n    tag_37:\n        /* \"contracts/LotteryProject.sol\":788:815  blockhash(block.number - 2) */\n      blockhash\n        /* \"contracts/LotteryProject.sol\":772:815  bytes32 rand2 = blockhash(block.number - 2) */\n      swap1\n      pop\n        /* \"contracts/LotteryProject.sol\":825:838  bytes32 rand3 */\n      0x00\n        /* \"contracts/LotteryProject.sol\":866:867  3 */\n      0x03\n        /* \"contracts/LotteryProject.sol\":851:863  block.number */\n      number\n        /* \"contracts/LotteryProject.sol\":851:867  block.number - 3 */\n      tag_38\n      swap2\n      swap1\n      tag_36\n      jump\t// in\n    tag_38:\n        /* \"contracts/LotteryProject.sol\":841:868  blockhash(block.number - 3) */\n      blockhash\n        /* \"contracts/LotteryProject.sol\":825:868  bytes32 rand3 = blockhash(block.number - 3) */\n      swap1\n      pop\n        /* \"contracts/LotteryProject.sol\":877:898  uint256  randomNumber */\n      0x00\n        /* \"contracts/LotteryProject.sol\":936:940  rand */\n      dup4\n        /* \"contracts/LotteryProject.sol\":942:947  rand2 */\n      dup4\n        /* \"contracts/LotteryProject.sol\":949:954  rand3 */\n      dup4\n        /* \"contracts/LotteryProject.sol\":919:955  abi.encodePacked(rand, rand2, rand3) */\n      add(0x20, mload(0x40))\n      tag_39\n      swap4\n      swap3\n      swap2\n      swap1\n      tag_40\n      jump\t// in\n    tag_39:\n      mload(0x40)\n      0x20\n      dup2\n      dup4\n      sub\n      sub\n      dup2\n      mstore\n      swap1\n      0x40\n      mstore\n        /* \"contracts/LotteryProject.sol\":909:956  keccak256(abi.encodePacked(rand, rand2, rand3)) */\n      dup1\n      mload\n      swap1\n      0x20\n      add\n      keccak256\n        /* \"contracts/LotteryProject.sol\":901:957  uint256(keccak256(abi.encodePacked(rand, rand2, rand3))) */\n      0x00\n      shr\n        /* \"contracts/LotteryProject.sol\":877:957  uint256  randomNumber = uint256(keccak256(abi.encodePacked(rand, rand2, rand3))) */\n      swap1\n      pop\n        /* \"contracts/LotteryProject.sol\":991:1002  participant */\n      0x00\n        /* \"contracts/LotteryProject.sol\":991:1009  participant.length */\n      dup1\n      sload\n      swap1\n      pop\n        /* \"contracts/LotteryProject.sol\":976:988  randomNumber */\n      dup2\n        /* \"contracts/LotteryProject.sol\":976:1009  randomNumber % participant.length */\n      tag_41\n      swap2\n      swap1\n      tag_42\n      jump\t// in\n    tag_41:\n        /* \"contracts/LotteryProject.sol\":967:973  number */\n      0x04\n        /* \"contracts/LotteryProject.sol\":967:1009  number = randomNumber % participant.length */\n      dup2\n      swap1\n      sstore\n      pop\n        /* \"contracts/LotteryProject.sol\":1028:1039  participant */\n      0x00\n        /* \"contracts/LotteryProject.sol\":1040:1046  number */\n      sload(0x04)\n        /* \"contracts/LotteryProject.sol\":1028:1047  participant[number] */\n      dup2\n      sload\n      dup2\n      lt\n      tag_43\n      jumpi\n      tag_44\n      tag_45\n      jump\t// in\n    tag_44:\n    tag_43:\n      swap1\n      0x00\n      mstore\n      keccak256(0x00, 0x20)\n      add\n      0x00\n      swap1\n      sload\n      swap1\n      0x0100\n      exp\n      swap1\n      div\n      0xffffffffffffffffffffffffffffffffffffffff\n      and\n        /* \"contracts/LotteryProject.sol\":1019:1025  winner */\n      0x01\n      0x00\n        /* \"contracts/LotteryProject.sol\":1019:1047  winner = participant[number] */\n      0x0100\n      exp\n      dup2\n      sload\n      dup2\n      0xffffffffffffffffffffffffffffffffffffffff\n      mul\n      not\n      and\n      swap1\n      dup4\n      0xffffffffffffffffffffffffffffffffffffffff\n      and\n      mul\n      or\n      swap1\n      sstore\n      pop\n        /* \"contracts/LotteryProject.sol\":1057:1063  winner */\n      0x01\n      0x00\n      swap1\n      sload\n      swap1\n      0x0100\n      exp\n      swap1\n      div\n      0xffffffffffffffffffffffffffffffffffffffff\n      and\n        /* \"contracts/LotteryProject.sol\":1057:1072  winner.transfer */\n      0xffffffffffffffffffffffffffffffffffffffff\n      and\n        /* \"contracts/LotteryProject.sol\":1057:1090  winner.transfer(collectedBalance) */\n      0x08fc\n        /* \"contracts/LotteryProject.sol\":1073:1089  collectedBalance */\n      sload(0x03)\n        /* \"contracts/LotteryProject.sol\":1057:1090  winner.transfer(collectedBalance) */\n      swap1\n      dup2\n      iszero\n      mul\n      swap1\n      mload(0x40)\n      0x00\n      mload(0x40)\n      dup1\n      dup4\n      sub\n      dup2\n      dup6\n      dup9\n      dup9\n      call\n      swap4\n      pop\n      pop\n      pop\n      pop\n      iszero\n      dup1\n      iszero\n      tag_48\n      jumpi\n      returndatasize\n      0x00\n      dup1\n      returndatacopy\n      revert(0x00, returndatasize)\n    tag_48:\n      pop\n        /* \"contracts/LotteryProject.sol\":663:1097  {... */\n      pop\n      pop\n      pop\n      pop\n        /* \"contracts/LotteryProject.sol\":621:1097  function getRandomWinner() public payable {... */\n      jump\t// out\n        /* \"contracts/LotteryProject.sol\":288:470  function participate() public payable {... */\n    tag_21:\n        /* \"contracts/LotteryProject.sol\":357:358  3 */\n      0x03\n        /* \"contracts/LotteryProject.sol\":344:353  msg.value */\n      callvalue\n        /* \"contracts/LotteryProject.sol\":344:358  msg.value == 3 */\n      eq\n        /* \"contracts/LotteryProject.sol\":336:359  require(msg.value == 3) */\n      tag_50\n      jumpi\n      0x00\n      dup1\n      revert\n    tag_50:\n        /* \"contracts/LotteryProject.sol\":369:380  participant */\n      0x00\n        /* \"contracts/LotteryProject.sol\":394:404  msg.sender */\n      caller\n        /* \"contracts/LotteryProject.sol\":369:406  participant.push(payable(msg.sender)) */\n      swap1\n      dup1\n      0x01\n      dup2\n      sload\n      add\n      dup1\n      dup3\n      sstore\n      dup1\n      swap2\n      pop\n      pop\n      0x01\n      swap1\n      sub\n      swap1\n      0x00\n      mstore\n      keccak256(0x00, 0x20)\n      add\n      0x00\n      swap1\n      swap2\n      swap1\n      swap2\n      swap1\n      swap2\n      0x0100\n      exp\n      dup2\n      sload\n      dup2\n      0xffffffffffffffffffffffffffffffffffffffff\n      mul\n      not\n      and\n      swap1\n      dup4\n      0xffffffffffffffffffffffffffffffffffffffff\n      and\n      mul\n      or\n      swap1\n      sstore\n      pop\n        /* \"contracts/LotteryProject.sol\":454:463  msg.value */\n      callvalue\n        /* \"contracts/LotteryProject.sol\":435:451  collectedBalance */\n      sload(0x03)\n        /* \"contracts/LotteryProject.sol\":435:463  collectedBalance + msg.value */\n      tag_52\n      swap2\n      swap1\n      tag_53\n      jump\t// in\n    tag_52:\n        /* \"contracts/LotteryProject.sol\":416:432  collectedBalance */\n      0x03\n        /* \"contracts/LotteryProject.sol\":416:463  collectedBalance = collectedBalance + msg.value */\n      dup2\n      swap1\n      sstore\n      pop\n        /* \"contracts/LotteryProject.sol\":288:470  function participate() public payable {... */\n      jump\t// out\n        /* \"contracts/LotteryProject.sol\":1103:1255  function getWinnerBalance() public view returns (uint256) {... */\n    tag_24:\n        /* \"contracts/LotteryProject.sol\":1152:1159  uint256 */\n      0x00\n        /* \"contracts/LotteryProject.sol\":1193:1204  participant */\n      dup1\n        /* \"contracts/LotteryProject.sol\":1205:1211  number */\n      sload(0x04)\n        /* \"contracts/LotteryProject.sol\":1193:1212  participant[number] */\n      dup2\n      sload\n      dup2\n      lt\n      tag_55\n      jumpi\n      tag_56\n      tag_45\n      jump\t// in\n    tag_56:\n    tag_55:\n      swap1\n      0x00\n      mstore\n      keccak256(0x00, 0x20)\n      add\n      0x00\n      swap1\n      sload\n      swap1\n      0x0100\n      exp\n      swap1\n      div\n      0xffffffffffffffffffffffffffffffffffffffff\n      and\n        /* \"contracts/LotteryProject.sol\":1179:1212  msg.sender == participant[number] */\n      0xffffffffffffffffffffffffffffffffffffffff\n      and\n        /* \"contracts/LotteryProject.sol\":1179:1189  msg.sender */\n      caller\n        /* \"contracts/LotteryProject.sol\":1179:1212  msg.sender == participant[number] */\n      0xffffffffffffffffffffffffffffffffffffffff\n      and\n      eq\n        /* \"contracts/LotteryProject.sol\":1171:1213  require(msg.sender == participant[number]) */\n      tag_58\n      jumpi\n      0x00\n      dup1\n      revert\n    tag_58:\n        /* \"contracts/LotteryProject.sol\":1230:1240  msg.sender */\n      caller\n        /* \"contracts/LotteryProject.sol\":1230:1248  msg.sender.balance */\n      0xffffffffffffffffffffffffffffffffffffffff\n      and\n      balance\n        /* \"contracts/LotteryProject.sol\":1223:1248  return msg.sender.balance */\n      swap1\n      pop\n        /* \"contracts/LotteryProject.sol\":1103:1255  function getWinnerBalance() public view returns (uint256) {... */\n      swap1\n      jump\t// out\n        /* \"contracts/LotteryProject.sol\":147:176  address payable public winner */\n    tag_28:\n      0x01\n      0x00\n      swap1\n      sload\n      swap1\n      0x0100\n      exp\n      swap1\n      div\n      0xffffffffffffffffffffffffffffffffffffffff\n      and\n      dup2\n      jump\t// out\n        /* \"#utility.yul\":7:84   */\n    tag_59:\n        /* \"#utility.yul\":44:51   */\n      0x00\n        /* \"#utility.yul\":73:78   */\n      dup2\n        /* \"#utility.yul\":62:78   */\n      swap1\n      pop\n        /* \"#utility.yul\":7:84   */\n      swap2\n      swap1\n      pop\n      jump\t// out\n        /* \"#utility.yul\":90:208   */\n    tag_60:\n        /* \"#utility.yul\":177:201   */\n      tag_74\n        /* \"#utility.yul\":195:200   */\n      dup2\n        /* \"#utility.yul\":177:201   */\n      tag_59\n      jump\t// in\n    tag_74:\n        /* \"#utility.yul\":172:175   */\n      dup3\n        /* \"#utility.yul\":165:202   */\n      mstore\n        /* \"#utility.yul\":90:208   */\n      pop\n      pop\n      jump\t// out\n        /* \"#utility.yul\":214:436   */\n    tag_12:\n        /* \"#utility.yul\":307:311   */\n      0x00\n        /* \"#utility.yul\":345:347   */\n      0x20\n        /* \"#utility.yul\":334:343   */\n      dup3\n        /* \"#utility.yul\":330:348   */\n      add\n        /* \"#utility.yul\":322:348   */\n      swap1\n      pop\n        /* \"#utility.yul\":358:429   */\n      tag_76\n        /* \"#utility.yul\":426:427   */\n      0x00\n        /* \"#utility.yul\":415:424   */\n      dup4\n        /* \"#utility.yul\":411:428   */\n      add\n        /* \"#utility.yul\":402:408   */\n      dup5\n        /* \"#utility.yul\":358:429   */\n      tag_60\n      jump\t// in\n    tag_76:\n        /* \"#utility.yul\":214:436   */\n      swap3\n      swap2\n      pop\n      pop\n      jump\t// out\n        /* \"#utility.yul\":442:568   */\n    tag_61:\n        /* \"#utility.yul\":479:486   */\n      0x00\n        /* \"#utility.yul\":519:561   */\n      0xffffffffffffffffffffffffffffffffffffffff\n        /* \"#utility.yul\":512:517   */\n      dup3\n        /* \"#utility.yul\":508:562   */\n      and\n        /* \"#utility.yul\":497:562   */\n      swap1\n      pop\n        /* \"#utility.yul\":442:568   */\n      swap2\n      swap1\n      pop\n      jump\t// out\n        /* \"#utility.yul\":574:670   */\n    tag_62:\n        /* \"#utility.yul\":611:618   */\n      0x00\n        /* \"#utility.yul\":640:664   */\n      tag_79\n        /* \"#utility.yul\":658:663   */\n      dup3\n        /* \"#utility.yul\":640:664   */\n      tag_61\n      jump\t// in\n    tag_79:\n        /* \"#utility.yul\":629:664   */\n      swap1\n      pop\n        /* \"#utility.yul\":574:670   */\n      swap2\n      swap1\n      pop\n      jump\t// out\n        /* \"#utility.yul\":676:794   */\n    tag_63:\n        /* \"#utility.yul\":763:787   */\n      tag_81\n        /* \"#utility.yul\":781:786   */\n      dup2\n        /* \"#utility.yul\":763:787   */\n      tag_62\n      jump\t// in\n    tag_81:\n        /* \"#utility.yul\":758:761   */\n      dup3\n        /* \"#utility.yul\":751:788   */\n      mstore\n        /* \"#utility.yul\":676:794   */\n      pop\n      pop\n      jump\t// out\n        /* \"#utility.yul\":800:1022   */\n    tag_17:\n        /* \"#utility.yul\":893:897   */\n      0x00\n        /* \"#utility.yul\":931:933   */\n      0x20\n        /* \"#utility.yul\":920:929   */\n      dup3\n        /* \"#utility.yul\":916:934   */\n      add\n        /* \"#utility.yul\":908:934   */\n      swap1\n      pop\n        /* \"#utility.yul\":944:1015   */\n      tag_83\n        /* \"#utility.yul\":1012:1013   */\n      0x00\n        /* \"#utility.yul\":1001:1010   */\n      dup4\n        /* \"#utility.yul\":997:1014   */\n      add\n        /* \"#utility.yul\":988:994   */\n      dup5\n        /* \"#utility.yul\":944:1015   */\n      tag_63\n      jump\t// in\n    tag_83:\n        /* \"#utility.yul\":800:1022   */\n      swap3\n      swap2\n      pop\n      pop\n      jump\t// out\n        /* \"#utility.yul\":1028:1132   */\n    tag_64:\n        /* \"#utility.yul\":1073:1080   */\n      0x00\n        /* \"#utility.yul\":1102:1126   */\n      tag_85\n        /* \"#utility.yul\":1120:1125   */\n      dup3\n        /* \"#utility.yul\":1102:1126   */\n      tag_61\n      jump\t// in\n    tag_85:\n        /* \"#utility.yul\":1091:1126   */\n      swap1\n      pop\n        /* \"#utility.yul\":1028:1132   */\n      swap2\n      swap1\n      pop\n      jump\t// out\n        /* \"#utility.yul\":1138:1280   */\n    tag_65:\n        /* \"#utility.yul\":1241:1273   */\n      tag_87\n        /* \"#utility.yul\":1267:1272   */\n      dup2\n        /* \"#utility.yul\":1241:1273   */\n      tag_64\n      jump\t// in\n    tag_87:\n        /* \"#utility.yul\":1236:1239   */\n      dup3\n        /* \"#utility.yul\":1229:1274   */\n      mstore\n        /* \"#utility.yul\":1138:1280   */\n      pop\n      pop\n      jump\t// out\n        /* \"#utility.yul\":1286:1540   */\n    tag_30:\n        /* \"#utility.yul\":1395:1399   */\n      0x00\n        /* \"#utility.yul\":1433:1435   */\n      0x20\n        /* \"#utility.yul\":1422:1431   */\n      dup3\n        /* \"#utility.yul\":1418:1436   */\n      add\n        /* \"#utility.yul\":1410:1436   */\n      swap1\n      pop\n        /* \"#utility.yul\":1446:1533   */\n      tag_89\n        /* \"#utility.yul\":1530:1531   */\n      0x00\n        /* \"#utility.yul\":1519:1528   */\n      dup4\n        /* \"#utility.yul\":1515:1532   */\n      add\n        /* \"#utility.yul\":1506:1512   */\n      dup5\n        /* \"#utility.yul\":1446:1533   */\n      tag_65\n      jump\t// in\n    tag_89:\n        /* \"#utility.yul\":1286:1540   */\n      swap3\n      swap2\n      pop\n      pop\n      jump\t// out\n        /* \"#utility.yul\":1546:1726   */\n    tag_66:\n        /* \"#utility.yul\":1594:1671   */\n      0x4e487b7100000000000000000000000000000000000000000000000000000000\n        /* \"#utility.yul\":1591:1592   */\n      0x00\n        /* \"#utility.yul\":1584:1672   */\n      mstore\n        /* \"#utility.yul\":1691:1695   */\n      0x11\n        /* \"#utility.yul\":1688:1689   */\n      0x04\n        /* \"#utility.yul\":1681:1696   */\n      mstore\n        /* \"#utility.yul\":1715:1719   */\n      0x24\n        /* \"#utility.yul\":1712:1713   */\n      0x00\n        /* \"#utility.yul\":1705:1720   */\n      revert\n        /* \"#utility.yul\":1732:1926   */\n    tag_36:\n        /* \"#utility.yul\":1772:1776   */\n      0x00\n        /* \"#utility.yul\":1792:1812   */\n      tag_92\n        /* \"#utility.yul\":1810:1811   */\n      dup3\n        /* \"#utility.yul\":1792:1812   */\n      tag_59\n      jump\t// in\n    tag_92:\n        /* \"#utility.yul\":1787:1812   */\n      swap2\n      pop\n        /* \"#utility.yul\":1826:1846   */\n      tag_93\n        /* \"#utility.yul\":1844:1845   */\n      dup4\n        /* \"#utility.yul\":1826:1846   */\n      tag_59\n      jump\t// in\n    tag_93:\n        /* \"#utility.yul\":1821:1846   */\n      swap3\n      pop\n        /* \"#utility.yul\":1870:1871   */\n      dup3\n        /* \"#utility.yul\":1867:1868   */\n      dup3\n        /* \"#utility.yul\":1863:1872   */\n      sub\n        /* \"#utility.yul\":1855:1872   */\n      swap1\n      pop\n        /* \"#utility.yul\":1894:1895   */\n      dup2\n        /* \"#utility.yul\":1888:1892   */\n      dup2\n        /* \"#utility.yul\":1885:1896   */\n      gt\n        /* \"#utility.yul\":1882:1919   */\n      iszero\n      tag_94\n      jumpi\n        /* \"#utility.yul\":1899:1917   */\n      tag_95\n      tag_66\n      jump\t// in\n    tag_95:\n        /* \"#utility.yul\":1882:1919   */\n    tag_94:\n        /* \"#utility.yul\":1732:1926   */\n      swap3\n      swap2\n      pop\n      pop\n      jump\t// out\n        /* \"#utility.yul\":1932:2009   */\n    tag_67:\n        /* \"#utility.yul\":1969:1976   */\n      0x00\n        /* \"#utility.yul\":1998:2003   */\n      dup2\n        /* \"#utility.yul\":1987:2003   */\n      swap1\n      pop\n        /* \"#utility.yul\":1932:2009   */\n      swap2\n      swap1\n      pop\n      jump\t// out\n        /* \"#utility.yul\":2015:2094   */\n    tag_68:\n        /* \"#utility.yul\":2054:2061   */\n      0x00\n        /* \"#utility.yul\":2083:2088   */\n      dup2\n        /* \"#utility.yul\":2072:2088   */\n      swap1\n      pop\n        /* \"#utility.yul\":2015:2094   */\n      swap2\n      swap1\n      pop\n      jump\t// out\n        /* \"#utility.yul\":2100:2257   */\n    tag_69:\n        /* \"#utility.yul\":2205:2250   */\n      tag_99\n        /* \"#utility.yul\":2225:2249   */\n      tag_100\n        /* \"#utility.yul\":2243:2248   */\n      dup3\n        /* \"#utility.yul\":2225:2249   */\n      tag_67\n      jump\t// in\n    tag_100:\n        /* \"#utility.yul\":2205:2250   */\n      tag_68\n      jump\t// in\n    tag_99:\n        /* \"#utility.yul\":2200:2203   */\n      dup3\n        /* \"#utility.yul\":2193:2251   */\n      mstore\n        /* \"#utility.yul\":2100:2257   */\n      pop\n      pop\n      jump\t// out\n        /* \"#utility.yul\":2263:2801   */\n    tag_40:\n        /* \"#utility.yul\":2431:2434   */\n      0x00\n        /* \"#utility.yul\":2446:2521   */\n      tag_102\n        /* \"#utility.yul\":2517:2520   */\n      dup3\n        /* \"#utility.yul\":2508:2514   */\n      dup7\n        /* \"#utility.yul\":2446:2521   */\n      tag_69\n      jump\t// in\n    tag_102:\n        /* \"#utility.yul\":2546:2548   */\n      0x20\n        /* \"#utility.yul\":2541:2544   */\n      dup3\n        /* \"#utility.yul\":2537:2549   */\n      add\n        /* \"#utility.yul\":2530:2549   */\n      swap2\n      pop\n        /* \"#utility.yul\":2559:2634   */\n      tag_103\n        /* \"#utility.yul\":2630:2633   */\n      dup3\n        /* \"#utility.yul\":2621:2627   */\n      dup6\n        /* \"#utility.yul\":2559:2634   */\n      tag_69\n      jump\t// in\n    tag_103:\n        /* \"#utility.yul\":2659:2661   */\n      0x20\n        /* \"#utility.yul\":2654:2657   */\n      dup3\n        /* \"#utility.yul\":2650:2662   */\n      add\n        /* \"#utility.yul\":2643:2662   */\n      swap2\n      pop\n        /* \"#utility.yul\":2672:2747   */\n      tag_104\n        /* \"#utility.yul\":2743:2746   */\n      dup3\n        /* \"#utility.yul\":2734:2740   */\n      dup5\n        /* \"#utility.yul\":2672:2747   */\n      tag_69\n      jump\t// in\n    tag_104:\n        /* \"#utility.yul\":2772:2774   */\n      0x20\n        /* \"#utility.yul\":2767:2770   */\n      dup3\n        /* \"#utility.yul\":2763:2775   */\n      add\n        /* \"#utility.yul\":2756:2775   */\n      swap2\n      pop\n        /* \"#utility.yul\":2792:2795   */\n      dup2\n        /* \"#utility.yul\":2785:2795   */\n      swap1\n      pop\n        /* \"#utility.yul\":2263:2801   */\n      swap5\n      swap4\n      pop\n      pop\n      pop\n      pop\n      jump\t// out\n        /* \"#utility.yul\":2807:2987   */\n    tag_70:\n        /* \"#utility.yul\":2855:2932   */\n      0x4e487b7100000000000000000000000000000000000000000000000000000000\n        /* \"#utility.yul\":2852:2853   */\n      0x00\n        /* \"#utility.yul\":2845:2933   */\n      mstore\n        /* \"#utility.yul\":2952:2956   */\n      0x12\n        /* \"#utility.yul\":2949:2950   */\n      0x04\n        /* \"#utility.yul\":2942:2957   */\n      mstore\n        /* \"#utility.yul\":2976:2980   */\n      0x24\n        /* \"#utility.yul\":2973:2974   */\n      0x00\n        /* \"#utility.yul\":2966:2981   */\n      revert\n        /* \"#utility.yul\":2993:3169   */\n    tag_42:\n        /* \"#utility.yul\":3025:3026   */\n      0x00\n        /* \"#utility.yul\":3042:3062   */\n      tag_107\n        /* \"#utility.yul\":3060:3061   */\n      dup3\n        /* \"#utility.yul\":3042:3062   */\n      tag_59\n      jump\t// in\n    tag_107:\n        /* \"#utility.yul\":3037:3062   */\n      swap2\n      pop\n        /* \"#utility.yul\":3076:3096   */\n      tag_108\n        /* \"#utility.yul\":3094:3095   */\n      dup4\n        /* \"#utility.yul\":3076:3096   */\n      tag_59\n      jump\t// in\n    tag_108:\n        /* \"#utility.yul\":3071:3096   */\n      swap3\n      pop\n        /* \"#utility.yul\":3115:3116   */\n      dup3\n        /* \"#utility.yul\":3105:3140   */\n      tag_109\n      jumpi\n        /* \"#utility.yul\":3120:3138   */\n      tag_110\n      tag_70\n      jump\t// in\n    tag_110:\n        /* \"#utility.yul\":3105:3140   */\n    tag_109:\n        /* \"#utility.yul\":3161:3162   */\n      dup3\n        /* \"#utility.yul\":3158:3159   */\n      dup3\n        /* \"#utility.yul\":3154:3163   */\n      mod\n        /* \"#utility.yul\":3149:3163   */\n      swap1\n      pop\n        /* \"#utility.yul\":2993:3169   */\n      swap3\n      swap2\n      pop\n      pop\n      jump\t// out\n        /* \"#utility.yul\":3175:3355   */\n    tag_45:\n        /* \"#utility.yul\":3223:3300   */\n      0x4e487b7100000000000000000000000000000000000000000000000000000000\n        /* \"#utility.yul\":3220:3221   */\n      0x00\n        /* \"#utility.yul\":3213:3301   */\n      mstore\n        /* \"#utility.yul\":3320:3324   */\n      0x32\n        /* \"#utility.yul\":3317:3318   */\n      0x04\n        /* \"#utility.yul\":3310:3325   */\n      mstore\n        /* \"#utility.yul\":3344:3348   */\n      0x24\n        /* \"#utility.yul\":3341:3342   */\n      0x00\n        /* \"#utility.yul\":3334:3349   */\n      revert\n        /* \"#utility.yul\":3361:3552   */\n    tag_53:\n        /* \"#utility.yul\":3401:3404   */\n      0x00\n        /* \"#utility.yul\":3420:3440   */\n      tag_113\n        /* \"#utility.yul\":3438:3439   */\n      dup3\n        /* \"#utility.yul\":3420:3440   */\n      tag_59\n      jump\t// in\n    tag_113:\n        /* \"#utility.yul\":3415:3440   */\n      swap2\n      pop\n        /* \"#utility.yul\":3454:3474   */\n      tag_114\n        /* \"#utility.yul\":3472:3473   */\n      dup4\n        /* \"#utility.yul\":3454:3474   */\n      tag_59\n      jump\t// in\n    tag_114:\n        /* \"#utility.yul\":3449:3474   */\n      swap3\n      pop\n        /* \"#utility.yul\":3497:3498   */\n      dup3\n        /* \"#utility.yul\":3494:3495   */\n      dup3\n        /* \"#utility.yul\":3490:3499   */\n      add\n        /* \"#utility.yul\":3483:3499   */\n      swap1\n      pop\n        /* \"#utility.yul\":3518:3521   */\n      dup1\n        /* \"#utility.yul\":3515:3516   */\n      dup3\n        /* \"#utility.yul\":3512:3522   */\n      gt\n        /* \"#utility.yul\":3509:3545   */\n      iszero\n      tag_115\n      jumpi\n        /* \"#utility.yul\":3525:3543   */\n      tag_116\n      tag_66\n      jump\t// in\n    tag_116:\n        /* \"#utility.yul\":3509:3545   */\n    tag_115:\n        /* \"#utility.yul\":3361:3552   */\n      swap3\n      swap2\n      pop\n      pop\n      jump\t// out\n\n    auxdata: 0xa264697066735822122040481514c4e3df7a3444611cebc0be76134b617696a0c639c5bb8fcc7cb1a03764736f6c63430008120033\n}\n",
				"bytecode": {
					"linkReferences": {},
					"object": "6080604052600060035534801561001557600080fd5b50610741806100256000396000f3fe6080604052600436106100555760003560e01c806312065fe01461005a5780634f989520146100855780636694f1a5146100b0578063d11711a2146100ba578063d369e686146100c4578063dfbf53ae146100ef575b600080fd5b34801561006657600080fd5b5061006f61011a565b60405161007c91906104ca565b60405180910390f35b34801561009157600080fd5b5061009a61017e565b6040516100a79190610526565b60405180910390f35b6100b86101a4565b005b6100c261036f565b005b3480156100d057600080fd5b506100d96103f5565b6040516100e691906104ca565b60405180910390f35b3480156100fb57600080fd5b5061010461048b565b6040516101119190610562565b60405180910390f35b6000600260009054906101000a900473ffffffffffffffffffffffffffffffffffffffff1673ffffffffffffffffffffffffffffffffffffffff163373ffffffffffffffffffffffffffffffffffffffff161461017657600080fd5b600354905090565b600260009054906101000a900473ffffffffffffffffffffffffffffffffffffffff1681565b600260009054906101000a900473ffffffffffffffffffffffffffffffffffffffff1673ffffffffffffffffffffffffffffffffffffffff163373ffffffffffffffffffffffffffffffffffffffff16146101fe57600080fd5b600060014361020d91906105ac565b409050600060024361021f91906105ac565b409050600060034361023191906105ac565b409050600083838360405160200161024b9392919061060b565b6040516020818303038152906040528051906020012060001c9050600080549050816102779190610677565b600481905550600060045481548110610293576102926106a8565b5b9060005260206000200160009054906101000a900473ffffffffffffffffffffffffffffffffffffffff16600160006101000a81548173ffffffffffffffffffffffffffffffffffffffff021916908373ffffffffffffffffffffffffffffffffffffffff160217905550600160009054906101000a900473ffffffffffffffffffffffffffffffffffffffff1673ffffffffffffffffffffffffffffffffffffffff166108fc6003549081150290604051600060405180830381858888f19350505050158015610368573d6000803e3d6000fd5b5050505050565b6003341461037c57600080fd5b6000339080600181540180825580915050600190039060005260206000200160009091909190916101000a81548173ffffffffffffffffffffffffffffffffffffffff021916908373ffffffffffffffffffffffffffffffffffffffff160217905550346003546103ed91906106d7565b600381905550565b6000806004548154811061040c5761040b6106a8565b5b9060005260206000200160009054906101000a900473ffffffffffffffffffffffffffffffffffffffff1673ffffffffffffffffffffffffffffffffffffffff163373ffffffffffffffffffffffffffffffffffffffff161461046e57600080fd5b3373ffffffffffffffffffffffffffffffffffffffff1631905090565b600160009054906101000a900473ffffffffffffffffffffffffffffffffffffffff1681565b6000819050919050565b6104c4816104b1565b82525050565b60006020820190506104df60008301846104bb565b92915050565b600073ffffffffffffffffffffffffffffffffffffffff82169050919050565b6000610510826104e5565b9050919050565b61052081610505565b82525050565b600060208201905061053b6000830184610517565b92915050565b600061054c826104e5565b9050919050565b61055c81610541565b82525050565b60006020820190506105776000830184610553565b92915050565b7f4e487b7100000000000000000000000000000000000000000000000000000000600052601160045260246000fd5b60006105b7826104b1565b91506105c2836104b1565b92508282039050818111156105da576105d961057d565b5b92915050565b6000819050919050565b6000819050919050565b610605610600826105e0565b6105ea565b82525050565b600061061782866105f4565b60208201915061062782856105f4565b60208201915061063782846105f4565b602082019150819050949350505050565b7f4e487b7100000000000000000000000000000000000000000000000000000000600052601260045260246000fd5b6000610682826104b1565b915061068d836104b1565b92508261069d5761069c610648565b5b828206905092915050565b7f4e487b7100000000000000000000000000000000000000000000000000000000600052603260045260246000fd5b60006106e2826104b1565b91506106ed836104b1565b92508282019050808211156107055761070461057d565b5b9291505056fea264697066735822122040481514c4e3df7a3444611cebc0be76134b617696a0c639c5bb8fcc7cb1a03764736f6c63430008120033",
					"opcodes": "PUSH1 0x80 PUSH1 0x40 MSTORE PUSH1 0x0 PUSH1 0x3 SSTORE CALLVALUE DUP1 ISZERO PUSH2 0x15 JUMPI PUSH1 0x0 DUP1 REVERT JUMPDEST POP PUSH2 0x741 DUP1 PUSH2 0x25 PUSH1 0x0 CODECOPY PUSH1 0x0 RETURN INVALID PUSH1 0x80 PUSH1 0x40 MSTORE PUSH1 0x4 CALLDATASIZE LT PUSH2 0x55 JUMPI PUSH1 0x0 CALLDATALOAD PUSH1 0xE0 SHR DUP1 PUSH4 0x12065FE0 EQ PUSH2 0x5A JUMPI DUP1 PUSH4 0x4F989520 EQ PUSH2 0x85 JUMPI DUP1 PUSH4 0x6694F1A5 EQ PUSH2 0xB0 JUMPI DUP1 PUSH4 0xD11711A2 EQ PUSH2 0xBA JUMPI DUP1 PUSH4 0xD369E686 EQ PUSH2 0xC4 JUMPI DUP1 PUSH4 0xDFBF53AE EQ PUSH2 0xEF JUMPI JUMPDEST PUSH1 0x0 DUP1 REVERT JUMPDEST CALLVALUE DUP1 ISZERO PUSH2 0x66 JUMPI PUSH1 0x0 DUP1 REVERT JUMPDEST POP PUSH2 0x6F PUSH2 0x11A JUMP JUMPDEST PUSH1 0x40 MLOAD PUSH2 0x7C SWAP2 SWAP1 PUSH2 0x4CA JUMP JUMPDEST PUSH1 0x40 MLOAD DUP1 SWAP2 SUB SWAP1 RETURN JUMPDEST CALLVALUE DUP1 ISZERO PUSH2 0x91 JUMPI PUSH1 0x0 DUP1 REVERT JUMPDEST POP PUSH2 0x9A PUSH2 0x17E JUMP JUMPDEST PUSH1 0x40 MLOAD PUSH2 0xA7 SWAP2 SWAP1 PUSH2 0x526 JUMP JUMPDEST PUSH1 0x40 MLOAD DUP1 SWAP2 SUB SWAP1 RETURN JUMPDEST PUSH2 0xB8 PUSH2 0x1A4 JUMP JUMPDEST STOP JUMPDEST PUSH2 0xC2 PUSH2 0x36F JUMP JUMPDEST STOP JUMPDEST CALLVALUE DUP1 ISZERO PUSH2 0xD0 JUMPI PUSH1 0x0 DUP1 REVERT JUMPDEST POP PUSH2 0xD9 PUSH2 0x3F5 JUMP JUMPDEST PUSH1 0x40 MLOAD PUSH2 0xE6 SWAP2 SWAP1 PUSH2 0x4CA JUMP JUMPDEST PUSH1 0x40 MLOAD DUP1 SWAP2 SUB SWAP1 RETURN JUMPDEST CALLVALUE DUP1 ISZERO PUSH2 0xFB JUMPI PUSH1 0x0 DUP1 REVERT JUMPDEST POP PUSH2 0x104 PUSH2 0x48B JUMP JUMPDEST PUSH1 0x40 MLOAD PUSH2 0x111 SWAP2 SWAP1 PUSH2 0x562 JUMP JUMPDEST PUSH1 0x40 MLOAD DUP1 SWAP2 SUB SWAP1 RETURN JUMPDEST PUSH1 0x0 PUSH1 0x2 PUSH1 0x0 SWAP1 SLOAD SWAP1 PUSH2 0x100 EXP SWAP1 DIV PUSH20 0xFFFFFFFFFFFFFFFFFFFFFFFFFFFFFFFFFFFFFFFF AND PUSH20 0xFFFFFFFFFFFFFFFFFFFFFFFFFFFFFFFFFFFFFFFF AND CALLER PUSH20 0xFFFFFFFFFFFFFFFFFFFFFFFFFFFFFFFFFFFFFFFF AND EQ PUSH2 0x176 JUMPI PUSH1 0x0 DUP1 REVERT JUMPDEST PUSH1 0x3 SLOAD SWAP1 POP SWAP1 JUMP JUMPDEST PUSH1 0x2 PUSH1 0x0 SWAP1 SLOAD SWAP1 PUSH2 0x100 EXP SWAP1 DIV PUSH20 0xFFFFFFFFFFFFFFFFFFFFFFFFFFFFFFFFFFFFFFFF AND DUP2 JUMP JUMPDEST PUSH1 0x2 PUSH1 0x0 SWAP1 SLOAD SWAP1 PUSH2 0x100 EXP SWAP1 DIV PUSH20 0xFFFFFFFFFFFFFFFFFFFFFFFFFFFFFFFFFFFFFFFF AND PUSH20 0xFFFFFFFFFFFFFFFFFFFFFFFFFFFFFFFFFFFFFFFF AND CALLER PUSH20 0xFFFFFFFFFFFFFFFFFFFFFFFFFFFFFFFFFFFFFFFF AND EQ PUSH2 0x1FE JUMPI PUSH1 0x0 DUP1 REVERT JUMPDEST PUSH1 0x0 PUSH1 0x1 NUMBER PUSH2 0x20D SWAP2 SWAP1 PUSH2 0x5AC JUMP JUMPDEST BLOCKHASH SWAP1 POP PUSH1 0x0 PUSH1 0x2 NUMBER PUSH2 0x21F SWAP2 SWAP1 PUSH2 0x5AC JUMP JUMPDEST BLOCKHASH SWAP1 POP PUSH1 0x0 PUSH1 0x3 NUMBER PUSH2 0x231 SWAP2 SWAP1 PUSH2 0x5AC JUMP JUMPDEST BLOCKHASH SWAP1 POP PUSH1 0x0 DUP4 DUP4 DUP4 PUSH1 0x40 MLOAD PUSH1 0x20 ADD PUSH2 0x24B SWAP4 SWAP3 SWAP2 SWAP1 PUSH2 0x60B JUMP JUMPDEST PUSH1 0x40 MLOAD PUSH1 0x20 DUP2 DUP4 SUB SUB DUP2 MSTORE SWAP1 PUSH1 0x40 MSTORE DUP1 MLOAD SWAP1 PUSH1 0x20 ADD KECCAK256 PUSH1 0x0 SHR SWAP1 POP PUSH1 0x0 DUP1 SLOAD SWAP1 POP DUP2 PUSH2 0x277 SWAP2 SWAP1 PUSH2 0x677 JUMP JUMPDEST PUSH1 0x4 DUP2 SWAP1 SSTORE POP PUSH1 0x0 PUSH1 0x4 SLOAD DUP2 SLOAD DUP2 LT PUSH2 0x293 JUMPI PUSH2 0x292 PUSH2 0x6A8 JUMP JUMPDEST JUMPDEST SWAP1 PUSH1 0x0 MSTORE PUSH1 0x20 PUSH1 0x0 KECCAK256 ADD PUSH1 0x0 SWAP1 SLOAD SWAP1 PUSH2 0x100 EXP SWAP1 DIV PUSH20 0xFFFFFFFFFFFFFFFFFFFFFFFFFFFFFFFFFFFFFFFF AND PUSH1 0x1 PUSH1 0x0 PUSH2 0x100 EXP DUP2 SLOAD DUP2 PUSH20 0xFFFFFFFFFFFFFFFFFFFFFFFFFFFFFFFFFFFFFFFF MUL NOT AND SWAP1 DUP4 PUSH20 0xFFFFFFFFFFFFFFFFFFFFFFFFFFFFFFFFFFFFFFFF AND MUL OR SWAP1 SSTORE POP PUSH1 0x1 PUSH1 0x0 SWAP1 SLOAD SWAP1 PUSH2 0x100 EXP SWAP1 DIV PUSH20 0xFFFFFFFFFFFFFFFFFFFFFFFFFFFFFFFFFFFFFFFF AND PUSH20 0xFFFFFFFFFFFFFFFFFFFFFFFFFFFFFFFFFFFFFFFF AND PUSH2 0x8FC PUSH1 0x3 SLOAD SWAP1 DUP2 ISZERO MUL SWAP1 PUSH1 0x40 MLOAD PUSH1 0x0 PUSH1 0x40 MLOAD DUP1 DUP4 SUB DUP2 DUP6 DUP9 DUP9 CALL SWAP4 POP POP POP POP ISZERO DUP1 ISZERO PUSH2 0x368 JUMPI RETURNDATASIZE PUSH1 0x0 DUP1 RETURNDATACOPY RETURNDATASIZE PUSH1 0x0 REVERT JUMPDEST POP POP POP POP POP JUMP JUMPDEST PUSH1 0x3 CALLVALUE EQ PUSH2 0x37C JUMPI PUSH1 0x0 DUP1 REVERT JUMPDEST PUSH1 0x0 CALLER SWAP1 DUP1 PUSH1 0x1 DUP2 SLOAD ADD DUP1 DUP3 SSTORE DUP1 SWAP2 POP POP PUSH1 0x1 SWAP1 SUB SWAP1 PUSH1 0x0 MSTORE PUSH1 0x20 PUSH1 0x0 KECCAK256 ADD PUSH1 0x0 SWAP1 SWAP2 SWAP1 SWAP2 SWAP1 SWAP2 PUSH2 0x100 EXP DUP2 SLOAD DUP2 PUSH20 0xFFFFFFFFFFFFFFFFFFFFFFFFFFFFFFFFFFFFFFFF MUL NOT AND SWAP1 DUP4 PUSH20 0xFFFFFFFFFFFFFFFFFFFFFFFFFFFFFFFFFFFFFFFF AND MUL OR SWAP1 SSTORE POP CALLVALUE PUSH1 0x3 SLOAD PUSH2 0x3ED SWAP2 SWAP1 PUSH2 0x6D7 JUMP JUMPDEST PUSH1 0x3 DUP2 SWAP1 SSTORE POP JUMP JUMPDEST PUSH1 0x0 DUP1 PUSH1 0x4 SLOAD DUP2 SLOAD DUP2 LT PUSH2 0x40C JUMPI PUSH2 0x40B PUSH2 0x6A8 JUMP JUMPDEST JUMPDEST SWAP1 PUSH1 0x0 MSTORE PUSH1 0x20 PUSH1 0x0 KECCAK256 ADD PUSH1 0x0 SWAP1 SLOAD SWAP1 PUSH2 0x100 EXP SWAP1 DIV PUSH20 0xFFFFFFFFFFFFFFFFFFFFFFFFFFFFFFFFFFFFFFFF AND PUSH20 0xFFFFFFFFFFFFFFFFFFFFFFFFFFFFFFFFFFFFFFFF AND CALLER PUSH20 0xFFFFFFFFFFFFFFFFFFFFFFFFFFFFFFFFFFFFFFFF AND EQ PUSH2 0x46E JUMPI PUSH1 0x0 DUP1 REVERT JUMPDEST CALLER PUSH20 0xFFFFFFFFFFFFFFFFFFFFFFFFFFFFFFFFFFFFFFFF AND BALANCE SWAP1 POP SWAP1 JUMP JUMPDEST PUSH1 0x1 PUSH1 0x0 SWAP1 SLOAD SWAP1 PUSH2 0x100 EXP SWAP1 DIV PUSH20 0xFFFFFFFFFFFFFFFFFFFFFFFFFFFFFFFFFFFFFFFF AND DUP2 JUMP JUMPDEST PUSH1 0x0 DUP2 SWAP1 POP SWAP2 SWAP1 POP JUMP JUMPDEST PUSH2 0x4C4 DUP2 PUSH2 0x4B1 JUMP JUMPDEST DUP3 MSTORE POP POP JUMP JUMPDEST PUSH1 0x0 PUSH1 0x20 DUP3 ADD SWAP1 POP PUSH2 0x4DF PUSH1 0x0 DUP4 ADD DUP5 PUSH2 0x4BB JUMP JUMPDEST SWAP3 SWAP2 POP POP JUMP JUMPDEST PUSH1 0x0 PUSH20 0xFFFFFFFFFFFFFFFFFFFFFFFFFFFFFFFFFFFFFFFF DUP3 AND SWAP1 POP SWAP2 SWAP1 POP JUMP JUMPDEST PUSH1 0x0 PUSH2 0x510 DUP3 PUSH2 0x4E5 JUMP JUMPDEST SWAP1 POP SWAP2 SWAP1 POP JUMP JUMPDEST PUSH2 0x520 DUP2 PUSH2 0x505 JUMP JUMPDEST DUP3 MSTORE POP POP JUMP JUMPDEST PUSH1 0x0 PUSH1 0x20 DUP3 ADD SWAP1 POP PUSH2 0x53B PUSH1 0x0 DUP4 ADD DUP5 PUSH2 0x517 JUMP JUMPDEST SWAP3 SWAP2 POP POP JUMP JUMPDEST PUSH1 0x0 PUSH2 0x54C DUP3 PUSH2 0x4E5 JUMP JUMPDEST SWAP1 POP SWAP2 SWAP1 POP JUMP JUMPDEST PUSH2 0x55C DUP2 PUSH2 0x541 JUMP JUMPDEST DUP3 MSTORE POP POP JUMP JUMPDEST PUSH1 0x0 PUSH1 0x20 DUP3 ADD SWAP1 POP PUSH2 0x577 PUSH1 0x0 DUP4 ADD DUP5 PUSH2 0x553 JUMP JUMPDEST SWAP3 SWAP2 POP POP JUMP JUMPDEST PUSH32 0x4E487B7100000000000000000000000000000000000000000000000000000000 PUSH1 0x0 MSTORE PUSH1 0x11 PUSH1 0x4 MSTORE PUSH1 0x24 PUSH1 0x0 REVERT JUMPDEST PUSH1 0x0 PUSH2 0x5B7 DUP3 PUSH2 0x4B1 JUMP JUMPDEST SWAP2 POP PUSH2 0x5C2 DUP4 PUSH2 0x4B1 JUMP JUMPDEST SWAP3 POP DUP3 DUP3 SUB SWAP1 POP DUP2 DUP2 GT ISZERO PUSH2 0x5DA JUMPI PUSH2 0x5D9 PUSH2 0x57D JUMP JUMPDEST JUMPDEST SWAP3 SWAP2 POP POP JUMP JUMPDEST PUSH1 0x0 DUP2 SWAP1 POP SWAP2 SWAP1 POP JUMP JUMPDEST PUSH1 0x0 DUP2 SWAP1 POP SWAP2 SWAP1 POP JUMP JUMPDEST PUSH2 0x605 PUSH2 0x600 DUP3 PUSH2 0x5E0 JUMP JUMPDEST PUSH2 0x5EA JUMP JUMPDEST DUP3 MSTORE POP POP JUMP JUMPDEST PUSH1 0x0 PUSH2 0x617 DUP3 DUP7 PUSH2 0x5F4 JUMP JUMPDEST PUSH1 0x20 DUP3 ADD SWAP2 POP PUSH2 0x627 DUP3 DUP6 PUSH2 0x5F4 JUMP JUMPDEST PUSH1 0x20 DUP3 ADD SWAP2 POP PUSH2 0x637 DUP3 DUP5 PUSH2 0x5F4 JUMP JUMPDEST PUSH1 0x20 DUP3 ADD SWAP2 POP DUP2 SWAP1 POP SWAP5 SWAP4 POP POP POP POP JUMP JUMPDEST PUSH32 0x4E487B7100000000000000000000000000000000000000000000000000000000 PUSH1 0x0 MSTORE PUSH1 0x12 PUSH1 0x4 MSTORE PUSH1 0x24 PUSH1 0x0 REVERT JUMPDEST PUSH1 0x0 PUSH2 0x682 DUP3 PUSH2 0x4B1 JUMP JUMPDEST SWAP2 POP PUSH2 0x68D DUP4 PUSH2 0x4B1 JUMP JUMPDEST SWAP3 POP DUP3 PUSH2 0x69D JUMPI PUSH2 0x69C PUSH2 0x648 JUMP JUMPDEST JUMPDEST DUP3 DUP3 MOD SWAP1 POP SWAP3 SWAP2 POP POP JUMP JUMPDEST PUSH32 0x4E487B7100000000000000000000000000000000000000000000000000000000 PUSH1 0x0 MSTORE PUSH1 0x32 PUSH1 0x4 MSTORE PUSH1 0x24 PUSH1 0x0 REVERT JUMPDEST PUSH1 0x0 PUSH2 0x6E2 DUP3 PUSH2 0x4B1 JUMP JUMPDEST SWAP2 POP PUSH2 0x6ED DUP4 PUSH2 0x4B1 JUMP JUMPDEST SWAP3 POP DUP3 DUP3 ADD SWAP1 POP DUP1 DUP3 GT ISZERO PUSH2 0x705 JUMPI PUSH2 0x704 PUSH2 0x57D JUMP JUMPDEST JUMPDEST SWAP3 SWAP2 POP POP JUMP INVALID LOG2 PUSH5 0x6970667358 0x22 SLT KECCAK256 BLOCKHASH BASEFEE ISZERO EQ 0xC4 0xE3 0xDF PUSH27 0x3444611CEBC0BE76134B617696A0C639C5BB8FCC7CB1A03764736F PUSH13 0x63430008120033000000000000 "
				},
				"gasEstimates": {
					"creation": {
						"codeDepositCost": "371400",
						"executionCost": "5417",
						"totalCost": "376817"
					},
					"external": {
						"getBalance()": "4585",
						"getRandomWinner()": "infinite",
						"getWinnerBalance()": "9458",
						"lotteryManager()": "2514",
						"participate()": "infinite",
						"winner()": "2602"
					}
				},
				"methodIdentifiers": {
					"getBalance()": "12065fe0",
					"getRandomWinner()": "6694f1a5",
					"getWinnerBalance()": "d369e686",
					"lotteryManager()": "4f989520",
					"participate()": "d11711a2",
					"winner()": "dfbf53ae"
				}
			},
			"storageLayout": {
				"storage": [
					{
						"astId": 4,
						"contract": "contracts/LotteryProject.sol:Lottery",
						"label": "participant",
						"offset": 0,
						"slot": "0",
						"type": "t_array(t_address_payable)dyn_storage"
					},
					{
						"astId": 6,
						"contract": "contracts/LotteryProject.sol:Lottery",
						"label": "winner",
						"offset": 0,
						"slot": "1",
						"type": "t_address_payable"
					},
					{
						"astId": 8,
						"contract": "contracts/LotteryProject.sol:Lottery",
						"label": "lotteryManager",
						"offset": 0,
						"slot": "2",
						"type": "t_address"
					},
					{
						"astId": 11,
						"contract": "contracts/LotteryProject.sol:Lottery",
						"label": "collectedBalance",
						"offset": 0,
						"slot": "3",
						"type": "t_uint256"
					},
					{
						"astId": 13,
						"contract": "contracts/LotteryProject.sol:Lottery",
						"label": "number",
						"offset": 0,
						"slot": "4",
						"type": "t_uint256"
					}
				],
				"types": {
					"t_address": {
						"encoding": "inplace",
						"label": "address",
						"numberOfBytes": "20"
					},
					"t_address_payable": {
						"encoding": "inplace",
						"label": "address payable",
						"numberOfBytes": "20"
					},
					"t_array(t_address_payable)dyn_storage": {
						"base": "t_address_payable",
						"encoding": "dynamic_array",
						"label": "address payable[]",
						"numberOfBytes": "32"
					},
					"t_uint256": {
						"encoding": "inplace",
						"label": "uint256",
						"numberOfBytes": "32"
					}
				}
			},
			"userdoc": {
				"kind": "user",
				"methods": {},
				"version": 1
			}
		}
	}
}