{
	"contracts/Lottery_Winner.sol": {
		"Lotter_Winner": {
			"abi": [
				{
					"inputs": [],
					"stateMutability": "nonpayable",
					"type": "constructor"
				},
				{
					"anonymous": false,
					"inputs": [
						{
							"indexed": false,
							"internalType": "address",
							"name": "",
							"type": "address"
						},
						{
							"indexed": false,
							"internalType": "string",
							"name": "",
							"type": "string"
						},
						{
							"indexed": false,
							"internalType": "uint256",
							"name": "",
							"type": "uint256"
						}
					],
					"name": "logAnnouceWinner",
					"type": "event"
				},
				{
					"inputs": [],
					"name": "makePayment",
					"outputs": [],
					"stateMutability": "payable",
					"type": "function"
				},
				{
					"inputs": [],
					"name": "participate",
					"outputs": [],
					"stateMutability": "payable",
					"type": "function"
				}
			],
			"devdoc": {
				"kind": "dev",
				"methods": {},
				"version": 1
			},
			"evm": {
				"assembly": "    /* \"contracts/Lottery_Winner.sol\":59:2083  contract Lotter_Winner {... */\n  mstore(0x40, 0x80)\n    /* \"contracts/Lottery_Winner.sol\":314:365  constructor() {... */\n  callvalue\n  dup1\n  iszero\n  tag_1\n  jumpi\n  0x00\n  dup1\n  revert\ntag_1:\n  pop\n    /* \"contracts/Lottery_Winner.sol\":348:358  msg.sender */\n  caller\n    /* \"contracts/Lottery_Winner.sol\":338:345  manager */\n  0x00\n  dup1\n    /* \"contracts/Lottery_Winner.sol\":338:358  manager = msg.sender */\n  0x0100\n  exp\n  dup2\n  sload\n  dup2\n  0xffffffffffffffffffffffffffffffffffffffff\n  mul\n  not\n  and\n  swap1\n  dup4\n  0xffffffffffffffffffffffffffffffffffffffff\n  and\n  mul\n  or\n  swap1\n  sstore\n  pop\n    /* \"contracts/Lottery_Winner.sol\":59:2083  contract Lotter_Winner {... */\n  dataSize(sub_0)\n  dup1\n  dataOffset(sub_0)\n  0x00\n  codecopy\n  0x00\n  return\nstop\n\nsub_0: assembly {\n        /* \"contracts/Lottery_Winner.sol\":59:2083  contract Lotter_Winner {... */\n      mstore(0x40, 0x80)\n      jumpi(tag_1, lt(calldatasize, 0x04))\n      shr(0xe0, calldataload(0x00))\n      dup1\n      0xd11711a2\n      eq\n      tag_2\n      jumpi\n      dup1\n      0xd8d79700\n      eq\n      tag_3\n      jumpi\n    tag_1:\n      0x00\n      dup1\n      revert\n        /* \"contracts/Lottery_Winner.sol\":457:817  function participate() public payable  {... */\n    tag_2:\n      tag_4\n      tag_5\n      jump\t// in\n    tag_4:\n      stop\n        /* \"contracts/Lottery_Winner.sol\":1331:2069  function makePayment() public  payable {... */\n    tag_3:\n      tag_6\n      tag_7\n      jump\t// in\n    tag_6:\n      stop\n        /* \"contracts/Lottery_Winner.sol\":457:817  function participate() public payable  {... */\n    tag_5:\n        /* \"contracts/Lottery_Winner.sol\":541:548  manager */\n      0x00\n      dup1\n      sload\n      swap1\n      0x0100\n      exp\n      swap1\n      div\n      0xffffffffffffffffffffffffffffffffffffffff\n      and\n        /* \"contracts/Lottery_Winner.sol\":527:548  msg.sender != manager */\n      0xffffffffffffffffffffffffffffffffffffffff\n      and\n        /* \"contracts/Lottery_Winner.sol\":527:537  msg.sender */\n      caller\n        /* \"contracts/Lottery_Winner.sol\":527:548  msg.sender != manager */\n      0xffffffffffffffffffffffffffffffffffffffff\n      and\n      sub\n        /* \"contracts/Lottery_Winner.sol\":506:615  require(... */\n      tag_9\n      jumpi\n      mload(0x40)\n      0x08c379a000000000000000000000000000000000000000000000000000000000\n      dup2\n      mstore\n      0x04\n      add\n      tag_10\n      swap1\n      tag_11\n      jump\t// in\n    tag_10:\n      mload(0x40)\n      dup1\n      swap2\n      sub\n      swap1\n      revert\n    tag_9:\n        /* \"contracts/Lottery_Winner.sol\":666:673  1 ether */\n      0x0de0b6b3a7640000\n        /* \"contracts/Lottery_Winner.sol\":653:662  msg.value */\n      callvalue\n        /* \"contracts/Lottery_Winner.sol\":653:673  msg.value == 1 ether */\n      eq\n        /* \"contracts/Lottery_Winner.sol\":632:749  require(... */\n      tag_12\n      jumpi\n      mload(0x40)\n      0x08c379a000000000000000000000000000000000000000000000000000000000\n      dup2\n      mstore\n      0x04\n      add\n      tag_13\n      swap1\n      tag_14\n      jump\t// in\n    tag_13:\n      mload(0x40)\n      dup1\n      swap2\n      sub\n      swap1\n      revert\n    tag_12:\n        /* \"contracts/Lottery_Winner.sol\":766:784  participantsLedger */\n      0x01\n        /* \"contracts/Lottery_Winner.sol\":798:808  msg.sender */\n      caller\n        /* \"contracts/Lottery_Winner.sol\":766:810  participantsLedger.push(payable(msg.sender)) */\n      swap1\n      dup1\n      0x01\n      dup2\n      sload\n      add\n      dup1\n      dup3\n      sstore\n      dup1\n      swap2\n      pop\n      pop\n      0x01\n      swap1\n      sub\n      swap1\n      0x00\n      mstore\n      keccak256(0x00, 0x20)\n      add\n      0x00\n      swap1\n      swap2\n      swap1\n      swap2\n      swap1\n      swap2\n      0x0100\n      exp\n      dup2\n      sload\n      dup2\n      0xffffffffffffffffffffffffffffffffffffffff\n      mul\n      not\n      and\n      swap1\n      dup4\n      0xffffffffffffffffffffffffffffffffffffffff\n      and\n      mul\n      or\n      swap1\n      sstore\n      pop\n        /* \"contracts/Lottery_Winner.sol\":457:817  function participate() public payable  {... */\n      jump\t// out\n        /* \"contracts/Lottery_Winner.sol\":1331:2069  function makePayment() public  payable {... */\n    tag_7:\n        /* \"contracts/Lottery_Winner.sol\":1415:1422  manager */\n      0x00\n      dup1\n      sload\n      swap1\n      0x0100\n      exp\n      swap1\n      div\n      0xffffffffffffffffffffffffffffffffffffffff\n      and\n        /* \"contracts/Lottery_Winner.sol\":1401:1422  msg.sender == manager */\n      0xffffffffffffffffffffffffffffffffffffffff\n      and\n        /* \"contracts/Lottery_Winner.sol\":1401:1411  msg.sender */\n      caller\n        /* \"contracts/Lottery_Winner.sol\":1401:1422  msg.sender == manager */\n      0xffffffffffffffffffffffffffffffffffffffff\n      and\n      eq\n        /* \"contracts/Lottery_Winner.sol\":1380:1489  require(... */\n      tag_17\n      jumpi\n      mload(0x40)\n      0x08c379a000000000000000000000000000000000000000000000000000000000\n      dup2\n      mstore\n      0x04\n      add\n      tag_18\n      swap1\n      tag_19\n      jump\t// in\n    tag_18:\n      mload(0x40)\n      dup1\n      swap2\n      sub\n      swap1\n      revert\n    tag_17:\n        /* \"contracts/Lottery_Winner.sol\":1549:1550  5 */\n      0x05\n        /* \"contracts/Lottery_Winner.sol\":1520:1538  participantsLedger */\n      0x01\n        /* \"contracts/Lottery_Winner.sol\":1520:1545  participantsLedger.length */\n      dup1\n      sload\n      swap1\n      pop\n        /* \"contracts/Lottery_Winner.sol\":1520:1550  participantsLedger.length == 5 */\n      eq\n        /* \"contracts/Lottery_Winner.sol\":1499:1612  require(... */\n      tag_20\n      jumpi\n      mload(0x40)\n      0x08c379a000000000000000000000000000000000000000000000000000000000\n      dup2\n      mstore\n      0x04\n      add\n      tag_21\n      swap1\n      tag_22\n      jump\t// in\n    tag_21:\n      mload(0x40)\n      dup1\n      swap2\n      sub\n      swap1\n      revert\n    tag_20:\n        /* \"contracts/Lottery_Winner.sol\":1622:1644  address payable winner */\n      0x00\n        /* \"contracts/Lottery_Winner.sol\":1654:1674  uint256 randomWinner */\n      dup1\n        /* \"contracts/Lottery_Winner.sol\":1677:1699  generateRandomWinner() */\n      tag_23\n        /* \"contracts/Lottery_Winner.sol\":1677:1697  generateRandomWinner */\n      tag_24\n        /* \"contracts/Lottery_Winner.sol\":1677:1699  generateRandomWinner() */\n      jump\t// in\n    tag_23:\n        /* \"contracts/Lottery_Winner.sol\":1654:1699  uint256 randomWinner = generateRandomWinner() */\n      swap1\n      pop\n        /* \"contracts/Lottery_Winner.sol\":1709:1728  uint256 randomIndex */\n      0x00\n        /* \"contracts/Lottery_Winner.sol\":1746:1764  participantsLedger */\n      0x01\n        /* \"contracts/Lottery_Winner.sol\":1746:1771  participantsLedger.length */\n      dup1\n      sload\n      swap1\n      pop\n        /* \"contracts/Lottery_Winner.sol\":1731:1743  randomWinner */\n      dup3\n        /* \"contracts/Lottery_Winner.sol\":1731:1771  randomWinner % participantsLedger.length */\n      tag_25\n      swap2\n      swap1\n      tag_26\n      jump\t// in\n    tag_25:\n        /* \"contracts/Lottery_Winner.sol\":1709:1771  uint256 randomIndex = randomWinner % participantsLedger.length */\n      swap1\n      pop\n        /* \"contracts/Lottery_Winner.sol\":1790:1808  participantsLedger */\n      0x01\n        /* \"contracts/Lottery_Winner.sol\":1809:1820  randomIndex */\n      dup2\n        /* \"contracts/Lottery_Winner.sol\":1790:1821  participantsLedger[randomIndex] */\n      dup2\n      sload\n      dup2\n      lt\n      tag_27\n      jumpi\n      tag_28\n      tag_29\n      jump\t// in\n    tag_28:\n    tag_27:\n      swap1\n      0x00\n      mstore\n      keccak256(0x00, 0x20)\n      add\n      0x00\n      swap1\n      sload\n      swap1\n      0x0100\n      exp\n      swap1\n      div\n      0xffffffffffffffffffffffffffffffffffffffff\n      and\n        /* \"contracts/Lottery_Winner.sol\":1781:1821  winner = participantsLedger[randomIndex] */\n      swap3\n      pop\n        /* \"contracts/Lottery_Winner.sol\":1831:1837  winner */\n      dup3\n        /* \"contracts/Lottery_Winner.sol\":1831:1846  winner.transfer */\n      0xffffffffffffffffffffffffffffffffffffffff\n      and\n        /* \"contracts/Lottery_Winner.sol\":1831:1869  winner.transfer(address(this).balance) */\n      0x08fc\n        /* \"contracts/Lottery_Winner.sol\":1847:1868  address(this).balance */\n      selfbalance\n        /* \"contracts/Lottery_Winner.sol\":1831:1869  winner.transfer(address(this).balance) */\n      swap1\n      dup2\n      iszero\n      mul\n      swap1\n      mload(0x40)\n      0x00\n      mload(0x40)\n      dup1\n      dup4\n      sub\n      dup2\n      dup6\n      dup9\n      dup9\n      call\n      swap4\n      pop\n      pop\n      pop\n      pop\n      iszero\n      dup1\n      iszero\n      tag_32\n      jumpi\n      returndatasize\n      0x00\n      dup1\n      returndatacopy\n      revert(0x00, returndatasize)\n    tag_32:\n      pop\n        /* \"contracts/Lottery_Winner.sol\":1883:2007  logAnnouceWinner(winner,\"Congrats !!! you have won lottery . amount credited successfully to your account\" ,winner.balance ) */\n      0x05fd56d59403eb256663d98a2be033e56116ec6cfc9b44f45d5c88df717b0982\n        /* \"contracts/Lottery_Winner.sol\":1900:1906  winner */\n      dup4\n        /* \"contracts/Lottery_Winner.sol\":1991:1997  winner */\n      dup5\n        /* \"contracts/Lottery_Winner.sol\":1991:2005  winner.balance */\n      0xffffffffffffffffffffffffffffffffffffffff\n      and\n      balance\n        /* \"contracts/Lottery_Winner.sol\":1883:2007  logAnnouceWinner(winner,\"Congrats !!! you have won lottery . amount credited successfully to your account\" ,winner.balance ) */\n      mload(0x40)\n      tag_33\n      swap3\n      swap2\n      swap1\n      tag_34\n      jump\t// in\n    tag_33:\n      mload(0x40)\n      dup1\n      swap2\n      sub\n      swap1\n      log1\n        /* \"contracts/Lottery_Winner.sol\":2060:2061  0 */\n      0x00\n        /* \"contracts/Lottery_Winner.sol\":2038:2062  new address payable[](0) */\n      0xffffffffffffffff\n      dup2\n      gt\n      iszero\n      tag_35\n      jumpi\n      tag_36\n      tag_37\n      jump\t// in\n    tag_36:\n    tag_35:\n      mload(0x40)\n      swap1\n      dup1\n      dup3\n      mstore\n      dup1\n      0x20\n      mul\n      0x20\n      add\n      dup3\n      add\n      0x40\n      mstore\n      dup1\n      iszero\n      tag_38\n      jumpi\n      dup2\n      0x20\n      add\n      0x20\n      dup3\n      mul\n      dup1\n      calldatasize\n      dup4\n      calldatacopy\n      dup1\n      dup3\n      add\n      swap2\n      pop\n      pop\n      swap1\n      pop\n    tag_38:\n      pop\n        /* \"contracts/Lottery_Winner.sol\":2017:2035  participantsLedger */\n      0x01\n        /* \"contracts/Lottery_Winner.sol\":2017:2062  participantsLedger = new address payable[](0) */\n      swap1\n      dup1\n      mload\n      swap1\n      0x20\n      add\n      swap1\n      tag_39\n      swap3\n      swap2\n      swap1\n      tag_40\n      jump\t// in\n    tag_39:\n      pop\n        /* \"contracts/Lottery_Winner.sol\":1370:2069  {... */\n      pop\n      pop\n      pop\n        /* \"contracts/Lottery_Winner.sol\":1331:2069  function makePayment() public  payable {... */\n      jump\t// out\n        /* \"contracts/Lottery_Winner.sol\":852:1171  function generateRandomWinner() internal  view returns (uint256) {... */\n    tag_24:\n        /* \"contracts/Lottery_Winner.sol\":908:915  uint256 */\n      0x00\n        /* \"contracts/Lottery_Winner.sol\":1044:1059  block.timestamp */\n      timestamp\n        /* \"contracts/Lottery_Winner.sol\":1085:1103  participantsLedger */\n      0x01\n        /* \"contracts/Lottery_Winner.sol\":1085:1110  participantsLedger.length */\n      dup1\n      sload\n      swap1\n      pop\n        /* \"contracts/Lottery_Winner.sol\":1002:1132  abi.encodePacked(... */\n      add(0x20, mload(0x40))\n      tag_42\n      swap3\n      swap2\n      swap1\n      tag_43\n      jump\t// in\n    tag_42:\n      mload(0x40)\n      0x20\n      dup2\n      dup4\n      sub\n      sub\n      dup2\n      mstore\n      swap1\n      0x40\n      mstore\n        /* \"contracts/Lottery_Winner.sol\":971:1150  keccak256(... */\n      dup1\n      mload\n      swap1\n      0x20\n      add\n      keccak256\n        /* \"contracts/Lottery_Winner.sol\":946:1164  uint256(... */\n      0x00\n      shr\n        /* \"contracts/Lottery_Winner.sol\":927:1164  return... */\n      swap1\n      pop\n        /* \"contracts/Lottery_Winner.sol\":852:1171  function generateRandomWinner() internal  view returns (uint256) {... */\n      swap1\n      jump\t// out\n    tag_40:\n      dup3\n      dup1\n      sload\n      dup3\n      dup3\n      sstore\n      swap1\n      0x00\n      mstore\n      keccak256(0x00, 0x20)\n      swap1\n      dup2\n      add\n      swap3\n      dup3\n      iszero\n      tag_44\n      jumpi\n      swap2\n      0x20\n      mul\n      dup3\n      add\n    tag_45:\n      dup3\n      dup2\n      gt\n      iszero\n      tag_46\n      jumpi\n      dup3\n      mload\n      dup3\n      exp(0x0100, 0x00)\n      dup2\n      sload\n      dup2\n      0xffffffffffffffffffffffffffffffffffffffff\n      mul\n      not\n      and\n      swap1\n      dup4\n      0xffffffffffffffffffffffffffffffffffffffff\n      and\n      mul\n      or\n      swap1\n      sstore\n      pop\n      swap2\n      0x20\n      add\n      swap2\n      swap1\n      0x01\n      add\n      swap1\n      jump(tag_45)\n    tag_46:\n    tag_44:\n      pop\n      swap1\n      pop\n      tag_47\n      swap2\n      swap1\n      tag_48\n      jump\t// in\n    tag_47:\n      pop\n      swap1\n      jump\t// out\n    tag_48:\n    tag_49:\n      dup1\n      dup3\n      gt\n      iszero\n      tag_50\n      jumpi\n      0x00\n      dup2\n      0x00\n      swap1\n      sstore\n      pop\n      0x01\n      add\n      jump(tag_49)\n    tag_50:\n      pop\n      swap1\n      jump\t// out\n        /* \"#utility.yul\":7:176   */\n    tag_51:\n        /* \"#utility.yul\":91:102   */\n      0x00\n        /* \"#utility.yul\":125:131   */\n      dup3\n        /* \"#utility.yul\":120:123   */\n      dup3\n        /* \"#utility.yul\":113:132   */\n      mstore\n        /* \"#utility.yul\":165:169   */\n      0x20\n        /* \"#utility.yul\":160:163   */\n      dup3\n        /* \"#utility.yul\":156:170   */\n      add\n        /* \"#utility.yul\":141:170   */\n      swap1\n      pop\n        /* \"#utility.yul\":7:176   */\n      swap3\n      swap2\n      pop\n      pop\n      jump\t// out\n        /* \"#utility.yul\":182:410   */\n    tag_52:\n        /* \"#utility.yul\":322:356   */\n      0x736f72727920212121206d616e616765722063616e7420636f6e747269627574\n        /* \"#utility.yul\":318:319   */\n      0x00\n        /* \"#utility.yul\":310:316   */\n      dup3\n        /* \"#utility.yul\":306:320   */\n      add\n        /* \"#utility.yul\":299:357   */\n      mstore\n        /* \"#utility.yul\":391:402   */\n      0x6520696e20746869730000000000000000000000000000000000000000000000\n        /* \"#utility.yul\":386:388   */\n      0x20\n        /* \"#utility.yul\":378:384   */\n      dup3\n        /* \"#utility.yul\":374:389   */\n      add\n        /* \"#utility.yul\":367:403   */\n      mstore\n        /* \"#utility.yul\":182:410   */\n      pop\n      jump\t// out\n        /* \"#utility.yul\":416:782   */\n    tag_53:\n        /* \"#utility.yul\":558:561   */\n      0x00\n        /* \"#utility.yul\":579:646   */\n      tag_77\n        /* \"#utility.yul\":643:645   */\n      0x29\n        /* \"#utility.yul\":638:641   */\n      dup4\n        /* \"#utility.yul\":579:646   */\n      tag_51\n      jump\t// in\n    tag_77:\n        /* \"#utility.yul\":572:646   */\n      swap2\n      pop\n        /* \"#utility.yul\":655:748   */\n      tag_78\n        /* \"#utility.yul\":744:747   */\n      dup3\n        /* \"#utility.yul\":655:748   */\n      tag_52\n      jump\t// in\n    tag_78:\n        /* \"#utility.yul\":773:775   */\n      0x40\n        /* \"#utility.yul\":768:771   */\n      dup3\n        /* \"#utility.yul\":764:776   */\n      add\n        /* \"#utility.yul\":757:776   */\n      swap1\n      pop\n        /* \"#utility.yul\":416:782   */\n      swap2\n      swap1\n      pop\n      jump\t// out\n        /* \"#utility.yul\":788:1207   */\n    tag_11:\n        /* \"#utility.yul\":954:958   */\n      0x00\n        /* \"#utility.yul\":992:994   */\n      0x20\n        /* \"#utility.yul\":981:990   */\n      dup3\n        /* \"#utility.yul\":977:995   */\n      add\n        /* \"#utility.yul\":969:995   */\n      swap1\n      pop\n        /* \"#utility.yul\":1041:1050   */\n      dup2\n        /* \"#utility.yul\":1035:1039   */\n      dup2\n        /* \"#utility.yul\":1031:1051   */\n      sub\n        /* \"#utility.yul\":1027:1028   */\n      0x00\n        /* \"#utility.yul\":1016:1025   */\n      dup4\n        /* \"#utility.yul\":1012:1029   */\n      add\n        /* \"#utility.yul\":1005:1052   */\n      mstore\n        /* \"#utility.yul\":1069:1200   */\n      tag_80\n        /* \"#utility.yul\":1195:1199   */\n      dup2\n        /* \"#utility.yul\":1069:1200   */\n      tag_53\n      jump\t// in\n    tag_80:\n        /* \"#utility.yul\":1061:1200   */\n      swap1\n      pop\n        /* \"#utility.yul\":788:1207   */\n      swap2\n      swap1\n      pop\n      jump\t// out\n        /* \"#utility.yul\":1213:1450   */\n    tag_54:\n        /* \"#utility.yul\":1353:1387   */\n      0x57726f6e6720416d6f756e742021212120616d6f756e742073686f756c642062\n        /* \"#utility.yul\":1349:1350   */\n      0x00\n        /* \"#utility.yul\":1341:1347   */\n      dup3\n        /* \"#utility.yul\":1337:1351   */\n      add\n        /* \"#utility.yul\":1330:1388   */\n      mstore\n        /* \"#utility.yul\":1422:1442   */\n      0x6520657175616c20746f20312045544845520000000000000000000000000000\n        /* \"#utility.yul\":1417:1419   */\n      0x20\n        /* \"#utility.yul\":1409:1415   */\n      dup3\n        /* \"#utility.yul\":1405:1420   */\n      add\n        /* \"#utility.yul\":1398:1443   */\n      mstore\n        /* \"#utility.yul\":1213:1450   */\n      pop\n      jump\t// out\n        /* \"#utility.yul\":1456:1822   */\n    tag_55:\n        /* \"#utility.yul\":1598:1601   */\n      0x00\n        /* \"#utility.yul\":1619:1686   */\n      tag_83\n        /* \"#utility.yul\":1683:1685   */\n      0x32\n        /* \"#utility.yul\":1678:1681   */\n      dup4\n        /* \"#utility.yul\":1619:1686   */\n      tag_51\n      jump\t// in\n    tag_83:\n        /* \"#utility.yul\":1612:1686   */\n      swap2\n      pop\n        /* \"#utility.yul\":1695:1788   */\n      tag_84\n        /* \"#utility.yul\":1784:1787   */\n      dup3\n        /* \"#utility.yul\":1695:1788   */\n      tag_54\n      jump\t// in\n    tag_84:\n        /* \"#utility.yul\":1813:1815   */\n      0x40\n        /* \"#utility.yul\":1808:1811   */\n      dup3\n        /* \"#utility.yul\":1804:1816   */\n      add\n        /* \"#utility.yul\":1797:1816   */\n      swap1\n      pop\n        /* \"#utility.yul\":1456:1822   */\n      swap2\n      swap1\n      pop\n      jump\t// out\n        /* \"#utility.yul\":1828:2247   */\n    tag_14:\n        /* \"#utility.yul\":1994:1998   */\n      0x00\n        /* \"#utility.yul\":2032:2034   */\n      0x20\n        /* \"#utility.yul\":2021:2030   */\n      dup3\n        /* \"#utility.yul\":2017:2035   */\n      add\n        /* \"#utility.yul\":2009:2035   */\n      swap1\n      pop\n        /* \"#utility.yul\":2081:2090   */\n      dup2\n        /* \"#utility.yul\":2075:2079   */\n      dup2\n        /* \"#utility.yul\":2071:2091   */\n      sub\n        /* \"#utility.yul\":2067:2068   */\n      0x00\n        /* \"#utility.yul\":2056:2065   */\n      dup4\n        /* \"#utility.yul\":2052:2069   */\n      add\n        /* \"#utility.yul\":2045:2092   */\n      mstore\n        /* \"#utility.yul\":2109:2240   */\n      tag_86\n        /* \"#utility.yul\":2235:2239   */\n      dup2\n        /* \"#utility.yul\":2109:2240   */\n      tag_55\n      jump\t// in\n    tag_86:\n        /* \"#utility.yul\":2101:2240   */\n      swap1\n      pop\n        /* \"#utility.yul\":1828:2247   */\n      swap2\n      swap1\n      pop\n      jump\t// out\n        /* \"#utility.yul\":2253:2481   */\n    tag_56:\n        /* \"#utility.yul\":2393:2427   */\n      0x4f4f5053212c20446f6e742063686561742021212e20796f7520617265206e6f\n        /* \"#utility.yul\":2389:2390   */\n      0x00\n        /* \"#utility.yul\":2381:2387   */\n      dup3\n        /* \"#utility.yul\":2377:2391   */\n      add\n        /* \"#utility.yul\":2370:2428   */\n      mstore\n        /* \"#utility.yul\":2462:2473   */\n      0x74206d616e616765720000000000000000000000000000000000000000000000\n        /* \"#utility.yul\":2457:2459   */\n      0x20\n        /* \"#utility.yul\":2449:2455   */\n      dup3\n        /* \"#utility.yul\":2445:2460   */\n      add\n        /* \"#utility.yul\":2438:2474   */\n      mstore\n        /* \"#utility.yul\":2253:2481   */\n      pop\n      jump\t// out\n        /* \"#utility.yul\":2487:2853   */\n    tag_57:\n        /* \"#utility.yul\":2629:2632   */\n      0x00\n        /* \"#utility.yul\":2650:2717   */\n      tag_89\n        /* \"#utility.yul\":2714:2716   */\n      0x29\n        /* \"#utility.yul\":2709:2712   */\n      dup4\n        /* \"#utility.yul\":2650:2717   */\n      tag_51\n      jump\t// in\n    tag_89:\n        /* \"#utility.yul\":2643:2717   */\n      swap2\n      pop\n        /* \"#utility.yul\":2726:2819   */\n      tag_90\n        /* \"#utility.yul\":2815:2818   */\n      dup3\n        /* \"#utility.yul\":2726:2819   */\n      tag_56\n      jump\t// in\n    tag_90:\n        /* \"#utility.yul\":2844:2846   */\n      0x40\n        /* \"#utility.yul\":2839:2842   */\n      dup3\n        /* \"#utility.yul\":2835:2847   */\n      add\n        /* \"#utility.yul\":2828:2847   */\n      swap1\n      pop\n        /* \"#utility.yul\":2487:2853   */\n      swap2\n      swap1\n      pop\n      jump\t// out\n        /* \"#utility.yul\":2859:3278   */\n    tag_19:\n        /* \"#utility.yul\":3025:3029   */\n      0x00\n        /* \"#utility.yul\":3063:3065   */\n      0x20\n        /* \"#utility.yul\":3052:3061   */\n      dup3\n        /* \"#utility.yul\":3048:3066   */\n      add\n        /* \"#utility.yul\":3040:3066   */\n      swap1\n      pop\n        /* \"#utility.yul\":3112:3121   */\n      dup2\n        /* \"#utility.yul\":3106:3110   */\n      dup2\n        /* \"#utility.yul\":3102:3122   */\n      sub\n        /* \"#utility.yul\":3098:3099   */\n      0x00\n        /* \"#utility.yul\":3087:3096   */\n      dup4\n        /* \"#utility.yul\":3083:3100   */\n      add\n        /* \"#utility.yul\":3076:3123   */\n      mstore\n        /* \"#utility.yul\":3140:3271   */\n      tag_92\n        /* \"#utility.yul\":3266:3270   */\n      dup2\n        /* \"#utility.yul\":3140:3271   */\n      tag_57\n      jump\t// in\n    tag_92:\n        /* \"#utility.yul\":3132:3271   */\n      swap1\n      pop\n        /* \"#utility.yul\":2859:3278   */\n      swap2\n      swap1\n      pop\n      jump\t// out\n        /* \"#utility.yul\":3284:3507   */\n    tag_58:\n        /* \"#utility.yul\":3424:3458   */\n      0x7061727469636970616e74206c696d697420686173206e6f74206d6574207965\n        /* \"#utility.yul\":3420:3421   */\n      0x00\n        /* \"#utility.yul\":3412:3418   */\n      dup3\n        /* \"#utility.yul\":3408:3422   */\n      add\n        /* \"#utility.yul\":3401:3459   */\n      mstore\n        /* \"#utility.yul\":3493:3499   */\n      0x7421212100000000000000000000000000000000000000000000000000000000\n        /* \"#utility.yul\":3488:3490   */\n      0x20\n        /* \"#utility.yul\":3480:3486   */\n      dup3\n        /* \"#utility.yul\":3476:3491   */\n      add\n        /* \"#utility.yul\":3469:3500   */\n      mstore\n        /* \"#utility.yul\":3284:3507   */\n      pop\n      jump\t// out\n        /* \"#utility.yul\":3513:3879   */\n    tag_59:\n        /* \"#utility.yul\":3655:3658   */\n      0x00\n        /* \"#utility.yul\":3676:3743   */\n      tag_95\n        /* \"#utility.yul\":3740:3742   */\n      0x24\n        /* \"#utility.yul\":3735:3738   */\n      dup4\n        /* \"#utility.yul\":3676:3743   */\n      tag_51\n      jump\t// in\n    tag_95:\n        /* \"#utility.yul\":3669:3743   */\n      swap2\n      pop\n        /* \"#utility.yul\":3752:3845   */\n      tag_96\n        /* \"#utility.yul\":3841:3844   */\n      dup3\n        /* \"#utility.yul\":3752:3845   */\n      tag_58\n      jump\t// in\n    tag_96:\n        /* \"#utility.yul\":3870:3872   */\n      0x40\n        /* \"#utility.yul\":3865:3868   */\n      dup3\n        /* \"#utility.yul\":3861:3873   */\n      add\n        /* \"#utility.yul\":3854:3873   */\n      swap1\n      pop\n        /* \"#utility.yul\":3513:3879   */\n      swap2\n      swap1\n      pop\n      jump\t// out\n        /* \"#utility.yul\":3885:4304   */\n    tag_22:\n        /* \"#utility.yul\":4051:4055   */\n      0x00\n        /* \"#utility.yul\":4089:4091   */\n      0x20\n        /* \"#utility.yul\":4078:4087   */\n      dup3\n        /* \"#utility.yul\":4074:4092   */\n      add\n        /* \"#utility.yul\":4066:4092   */\n      swap1\n      pop\n        /* \"#utility.yul\":4138:4147   */\n      dup2\n        /* \"#utility.yul\":4132:4136   */\n      dup2\n        /* \"#utility.yul\":4128:4148   */\n      sub\n        /* \"#utility.yul\":4124:4125   */\n      0x00\n        /* \"#utility.yul\":4113:4122   */\n      dup4\n        /* \"#utility.yul\":4109:4126   */\n      add\n        /* \"#utility.yul\":4102:4149   */\n      mstore\n        /* \"#utility.yul\":4166:4297   */\n      tag_98\n        /* \"#utility.yul\":4292:4296   */\n      dup2\n        /* \"#utility.yul\":4166:4297   */\n      tag_59\n      jump\t// in\n    tag_98:\n        /* \"#utility.yul\":4158:4297   */\n      swap1\n      pop\n        /* \"#utility.yul\":3885:4304   */\n      swap2\n      swap1\n      pop\n      jump\t// out\n        /* \"#utility.yul\":4310:4387   */\n    tag_60:\n        /* \"#utility.yul\":4347:4354   */\n      0x00\n        /* \"#utility.yul\":4376:4381   */\n      dup2\n        /* \"#utility.yul\":4365:4381   */\n      swap1\n      pop\n        /* \"#utility.yul\":4310:4387   */\n      swap2\n      swap1\n      pop\n      jump\t// out\n        /* \"#utility.yul\":4393:4573   */\n    tag_61:\n        /* \"#utility.yul\":4441:4518   */\n      0x4e487b7100000000000000000000000000000000000000000000000000000000\n        /* \"#utility.yul\":4438:4439   */\n      0x00\n        /* \"#utility.yul\":4431:4519   */\n      mstore\n        /* \"#utility.yul\":4538:4542   */\n      0x12\n        /* \"#utility.yul\":4535:4536   */\n      0x04\n        /* \"#utility.yul\":4528:4543   */\n      mstore\n        /* \"#utility.yul\":4562:4566   */\n      0x24\n        /* \"#utility.yul\":4559:4560   */\n      0x00\n        /* \"#utility.yul\":4552:4567   */\n      revert\n        /* \"#utility.yul\":4579:4755   */\n    tag_26:\n        /* \"#utility.yul\":4611:4612   */\n      0x00\n        /* \"#utility.yul\":4628:4648   */\n      tag_102\n        /* \"#utility.yul\":4646:4647   */\n      dup3\n        /* \"#utility.yul\":4628:4648   */\n      tag_60\n      jump\t// in\n    tag_102:\n        /* \"#utility.yul\":4623:4648   */\n      swap2\n      pop\n        /* \"#utility.yul\":4662:4682   */\n      tag_103\n        /* \"#utility.yul\":4680:4681   */\n      dup4\n        /* \"#utility.yul\":4662:4682   */\n      tag_60\n      jump\t// in\n    tag_103:\n        /* \"#utility.yul\":4657:4682   */\n      swap3\n      pop\n        /* \"#utility.yul\":4701:4702   */\n      dup3\n        /* \"#utility.yul\":4691:4726   */\n      tag_104\n      jumpi\n        /* \"#utility.yul\":4706:4724   */\n      tag_105\n      tag_61\n      jump\t// in\n    tag_105:\n        /* \"#utility.yul\":4691:4726   */\n    tag_104:\n        /* \"#utility.yul\":4747:4748   */\n      dup3\n        /* \"#utility.yul\":4744:4745   */\n      dup3\n        /* \"#utility.yul\":4740:4749   */\n      mod\n        /* \"#utility.yul\":4735:4749   */\n      swap1\n      pop\n        /* \"#utility.yul\":4579:4755   */\n      swap3\n      swap2\n      pop\n      pop\n      jump\t// out\n        /* \"#utility.yul\":4761:4941   */\n    tag_29:\n        /* \"#utility.yul\":4809:4886   */\n      0x4e487b7100000000000000000000000000000000000000000000000000000000\n        /* \"#utility.yul\":4806:4807   */\n      0x00\n        /* \"#utility.yul\":4799:4887   */\n      mstore\n        /* \"#utility.yul\":4906:4910   */\n      0x32\n        /* \"#utility.yul\":4903:4904   */\n      0x04\n        /* \"#utility.yul\":4896:4911   */\n      mstore\n        /* \"#utility.yul\":4930:4934   */\n      0x24\n        /* \"#utility.yul\":4927:4928   */\n      0x00\n        /* \"#utility.yul\":4920:4935   */\n      revert\n        /* \"#utility.yul\":4947:5073   */\n    tag_62:\n        /* \"#utility.yul\":4984:4991   */\n      0x00\n        /* \"#utility.yul\":5024:5066   */\n      0xffffffffffffffffffffffffffffffffffffffff\n        /* \"#utility.yul\":5017:5022   */\n      dup3\n        /* \"#utility.yul\":5013:5067   */\n      and\n        /* \"#utility.yul\":5002:5067   */\n      swap1\n      pop\n        /* \"#utility.yul\":4947:5073   */\n      swap2\n      swap1\n      pop\n      jump\t// out\n        /* \"#utility.yul\":5079:5139   */\n    tag_63:\n        /* \"#utility.yul\":5107:5110   */\n      0x00\n        /* \"#utility.yul\":5128:5133   */\n      dup2\n        /* \"#utility.yul\":5121:5133   */\n      swap1\n      pop\n        /* \"#utility.yul\":5079:5139   */\n      swap2\n      swap1\n      pop\n      jump\t// out\n        /* \"#utility.yul\":5145:5287   */\n    tag_64:\n        /* \"#utility.yul\":5195:5204   */\n      0x00\n        /* \"#utility.yul\":5228:5281   */\n      tag_110\n        /* \"#utility.yul\":5246:5280   */\n      tag_111\n        /* \"#utility.yul\":5255:5279   */\n      tag_112\n        /* \"#utility.yul\":5273:5278   */\n      dup5\n        /* \"#utility.yul\":5255:5279   */\n      tag_62\n      jump\t// in\n    tag_112:\n        /* \"#utility.yul\":5246:5280   */\n      tag_63\n      jump\t// in\n    tag_111:\n        /* \"#utility.yul\":5228:5281   */\n      tag_62\n      jump\t// in\n    tag_110:\n        /* \"#utility.yul\":5215:5281   */\n      swap1\n      pop\n        /* \"#utility.yul\":5145:5287   */\n      swap2\n      swap1\n      pop\n      jump\t// out\n        /* \"#utility.yul\":5293:5419   */\n    tag_65:\n        /* \"#utility.yul\":5343:5352   */\n      0x00\n        /* \"#utility.yul\":5376:5413   */\n      tag_114\n        /* \"#utility.yul\":5407:5412   */\n      dup3\n        /* \"#utility.yul\":5376:5413   */\n      tag_64\n      jump\t// in\n    tag_114:\n        /* \"#utility.yul\":5363:5413   */\n      swap1\n      pop\n        /* \"#utility.yul\":5293:5419   */\n      swap2\n      swap1\n      pop\n      jump\t// out\n        /* \"#utility.yul\":5425:5559   */\n    tag_66:\n        /* \"#utility.yul\":5483:5492   */\n      0x00\n        /* \"#utility.yul\":5516:5553   */\n      tag_116\n        /* \"#utility.yul\":5547:5552   */\n      dup3\n        /* \"#utility.yul\":5516:5553   */\n      tag_65\n      jump\t// in\n    tag_116:\n        /* \"#utility.yul\":5503:5553   */\n      swap1\n      pop\n        /* \"#utility.yul\":5425:5559   */\n      swap2\n      swap1\n      pop\n      jump\t// out\n        /* \"#utility.yul\":5565:5712   */\n    tag_67:\n        /* \"#utility.yul\":5660:5705   */\n      tag_118\n        /* \"#utility.yul\":5699:5704   */\n      dup2\n        /* \"#utility.yul\":5660:5705   */\n      tag_66\n      jump\t// in\n    tag_118:\n        /* \"#utility.yul\":5655:5658   */\n      dup3\n        /* \"#utility.yul\":5648:5706   */\n      mstore\n        /* \"#utility.yul\":5565:5712   */\n      pop\n      pop\n      jump\t// out\n        /* \"#utility.yul\":5718:6022   */\n    tag_68:\n        /* \"#utility.yul\":5858:5892   */\n      0x436f6e67726174732021212120796f75206861766520776f6e206c6f74746572\n        /* \"#utility.yul\":5854:5855   */\n      0x00\n        /* \"#utility.yul\":5846:5852   */\n      dup3\n        /* \"#utility.yul\":5842:5856   */\n      add\n        /* \"#utility.yul\":5835:5893   */\n      mstore\n        /* \"#utility.yul\":5927:5961   */\n      0x79202e20616d6f756e74206372656469746564207375636365737366756c6c79\n        /* \"#utility.yul\":5922:5924   */\n      0x20\n        /* \"#utility.yul\":5914:5920   */\n      dup3\n        /* \"#utility.yul\":5910:5925   */\n      add\n        /* \"#utility.yul\":5903:5962   */\n      mstore\n        /* \"#utility.yul\":5996:6014   */\n      0x20746f20796f7572206163636f756e7400000000000000000000000000000000\n        /* \"#utility.yul\":5991:5993   */\n      0x40\n        /* \"#utility.yul\":5983:5989   */\n      dup3\n        /* \"#utility.yul\":5979:5994   */\n      add\n        /* \"#utility.yul\":5972:6015   */\n      mstore\n        /* \"#utility.yul\":5718:6022   */\n      pop\n      jump\t// out\n        /* \"#utility.yul\":6028:6394   */\n    tag_69:\n        /* \"#utility.yul\":6170:6173   */\n      0x00\n        /* \"#utility.yul\":6191:6258   */\n      tag_121\n        /* \"#utility.yul\":6255:6257   */\n      0x50\n        /* \"#utility.yul\":6250:6253   */\n      dup4\n        /* \"#utility.yul\":6191:6258   */\n      tag_51\n      jump\t// in\n    tag_121:\n        /* \"#utility.yul\":6184:6258   */\n      swap2\n      pop\n        /* \"#utility.yul\":6267:6360   */\n      tag_122\n        /* \"#utility.yul\":6356:6359   */\n      dup3\n        /* \"#utility.yul\":6267:6360   */\n      tag_68\n      jump\t// in\n    tag_122:\n        /* \"#utility.yul\":6385:6387   */\n      0x60\n        /* \"#utility.yul\":6380:6383   */\n      dup3\n        /* \"#utility.yul\":6376:6388   */\n      add\n        /* \"#utility.yul\":6369:6388   */\n      swap1\n      pop\n        /* \"#utility.yul\":6028:6394   */\n      swap2\n      swap1\n      pop\n      jump\t// out\n        /* \"#utility.yul\":6400:6518   */\n    tag_70:\n        /* \"#utility.yul\":6487:6511   */\n      tag_124\n        /* \"#utility.yul\":6505:6510   */\n      dup2\n        /* \"#utility.yul\":6487:6511   */\n      tag_60\n      jump\t// in\n    tag_124:\n        /* \"#utility.yul\":6482:6485   */\n      dup3\n        /* \"#utility.yul\":6475:6512   */\n      mstore\n        /* \"#utility.yul\":6400:6518   */\n      pop\n      pop\n      jump\t// out\n        /* \"#utility.yul\":6524:7179   */\n    tag_34:\n        /* \"#utility.yul\":6754:6758   */\n      0x00\n        /* \"#utility.yul\":6792:6794   */\n      0x60\n        /* \"#utility.yul\":6781:6790   */\n      dup3\n        /* \"#utility.yul\":6777:6795   */\n      add\n        /* \"#utility.yul\":6769:6795   */\n      swap1\n      pop\n        /* \"#utility.yul\":6805:6884   */\n      tag_126\n        /* \"#utility.yul\":6881:6882   */\n      0x00\n        /* \"#utility.yul\":6870:6879   */\n      dup4\n        /* \"#utility.yul\":6866:6883   */\n      add\n        /* \"#utility.yul\":6857:6863   */\n      dup6\n        /* \"#utility.yul\":6805:6884   */\n      tag_67\n      jump\t// in\n    tag_126:\n        /* \"#utility.yul\":6931:6940   */\n      dup2\n        /* \"#utility.yul\":6925:6929   */\n      dup2\n        /* \"#utility.yul\":6921:6941   */\n      sub\n        /* \"#utility.yul\":6916:6918   */\n      0x20\n        /* \"#utility.yul\":6905:6914   */\n      dup4\n        /* \"#utility.yul\":6901:6919   */\n      add\n        /* \"#utility.yul\":6894:6942   */\n      mstore\n        /* \"#utility.yul\":6959:7090   */\n      tag_127\n        /* \"#utility.yul\":7085:7089   */\n      dup2\n        /* \"#utility.yul\":6959:7090   */\n      tag_69\n      jump\t// in\n    tag_127:\n        /* \"#utility.yul\":6951:7090   */\n      swap1\n      pop\n        /* \"#utility.yul\":7100:7172   */\n      tag_128\n        /* \"#utility.yul\":7168:7170   */\n      0x40\n        /* \"#utility.yul\":7157:7166   */\n      dup4\n        /* \"#utility.yul\":7153:7171   */\n      add\n        /* \"#utility.yul\":7144:7150   */\n      dup5\n        /* \"#utility.yul\":7100:7172   */\n      tag_70\n      jump\t// in\n    tag_128:\n        /* \"#utility.yul\":6524:7179   */\n      swap4\n      swap3\n      pop\n      pop\n      pop\n      jump\t// out\n        /* \"#utility.yul\":7185:7365   */\n    tag_37:\n        /* \"#utility.yul\":7233:7310   */\n      0x4e487b7100000000000000000000000000000000000000000000000000000000\n        /* \"#utility.yul\":7230:7231   */\n      0x00\n        /* \"#utility.yul\":7223:7311   */\n      mstore\n        /* \"#utility.yul\":7330:7334   */\n      0x41\n        /* \"#utility.yul\":7327:7328   */\n      0x04\n        /* \"#utility.yul\":7320:7335   */\n      mstore\n        /* \"#utility.yul\":7354:7358   */\n      0x24\n        /* \"#utility.yul\":7351:7352   */\n      0x00\n        /* \"#utility.yul\":7344:7359   */\n      revert\n        /* \"#utility.yul\":7371:7450   */\n    tag_71:\n        /* \"#utility.yul\":7410:7417   */\n      0x00\n        /* \"#utility.yul\":7439:7444   */\n      dup2\n        /* \"#utility.yul\":7428:7444   */\n      swap1\n      pop\n        /* \"#utility.yul\":7371:7450   */\n      swap2\n      swap1\n      pop\n      jump\t// out\n        /* \"#utility.yul\":7456:7613   */\n    tag_72:\n        /* \"#utility.yul\":7561:7606   */\n      tag_132\n        /* \"#utility.yul\":7581:7605   */\n      tag_133\n        /* \"#utility.yul\":7599:7604   */\n      dup3\n        /* \"#utility.yul\":7581:7605   */\n      tag_60\n      jump\t// in\n    tag_133:\n        /* \"#utility.yul\":7561:7606   */\n      tag_71\n      jump\t// in\n    tag_132:\n        /* \"#utility.yul\":7556:7559   */\n      dup3\n        /* \"#utility.yul\":7549:7607   */\n      mstore\n        /* \"#utility.yul\":7456:7613   */\n      pop\n      pop\n      jump\t// out\n        /* \"#utility.yul\":7619:8016   */\n    tag_43:\n        /* \"#utility.yul\":7759:7762   */\n      0x00\n        /* \"#utility.yul\":7774:7849   */\n      tag_135\n        /* \"#utility.yul\":7845:7848   */\n      dup3\n        /* \"#utility.yul\":7836:7842   */\n      dup6\n        /* \"#utility.yul\":7774:7849   */\n      tag_72\n      jump\t// in\n    tag_135:\n        /* \"#utility.yul\":7874:7876   */\n      0x20\n        /* \"#utility.yul\":7869:7872   */\n      dup3\n        /* \"#utility.yul\":7865:7877   */\n      add\n        /* \"#utility.yul\":7858:7877   */\n      swap2\n      pop\n        /* \"#utility.yul\":7887:7962   */\n      tag_136\n        /* \"#utility.yul\":7958:7961   */\n      dup3\n        /* \"#utility.yul\":7949:7955   */\n      dup5\n        /* \"#utility.yul\":7887:7962   */\n      tag_72\n      jump\t// in\n    tag_136:\n        /* \"#utility.yul\":7987:7989   */\n      0x20\n        /* \"#utility.yul\":7982:7985   */\n      dup3\n        /* \"#utility.yul\":7978:7990   */\n      add\n        /* \"#utility.yul\":7971:7990   */\n      swap2\n      pop\n        /* \"#utility.yul\":8007:8010   */\n      dup2\n        /* \"#utility.yul\":8000:8010   */\n      swap1\n      pop\n        /* \"#utility.yul\":7619:8016   */\n      swap4\n      swap3\n      pop\n      pop\n      pop\n      jump\t// out\n\n    auxdata: 0xa2646970667358221220cf70c80c76868cc1175ce3c6fd4f663d1725c01c396410c88977ab70ab12351964736f6c63430008120033\n}\n",
				"bytecode": {
					"linkReferences": {},
					"object": "608060405234801561001057600080fd5b50336000806101000a81548173ffffffffffffffffffffffffffffffffffffffff021916908373ffffffffffffffffffffffffffffffffffffffff160217905550610999806100606000396000f3fe6080604052600436106100295760003560e01c8063d11711a21461002e578063d8d7970014610038575b600080fd5b610036610042565b005b61004061017f565b005b60008054906101000a900473ffffffffffffffffffffffffffffffffffffffff1673ffffffffffffffffffffffffffffffffffffffff163373ffffffffffffffffffffffffffffffffffffffff16036100d0576040517f08c379a00000000000000000000000000000000000000000000000000000000081526004016100c790610516565b60405180910390fd5b670de0b6b3a7640000341461011a576040517f08c379a0000000000000000000000000000000000000000000000000000000008152600401610111906105a8565b60405180910390fd5b6001339080600181540180825580915050600190039060005260206000200160009091909190916101000a81548173ffffffffffffffffffffffffffffffffffffffff021916908373ffffffffffffffffffffffffffffffffffffffff160217905550565b60008054906101000a900473ffffffffffffffffffffffffffffffffffffffff1673ffffffffffffffffffffffffffffffffffffffff163373ffffffffffffffffffffffffffffffffffffffff161461020d576040517f08c379a00000000000000000000000000000000000000000000000000000000081526004016102049061063a565b60405180910390fd5b600560018054905014610255576040517f08c379a000000000000000000000000000000000000000000000000000000000815260040161024c906106cc565b60405180910390fd5b6000806102606103b4565b90506000600180549050826102759190610725565b90506001818154811061028b5761028a610756565b5b9060005260206000200160009054906101000a900473ffffffffffffffffffffffffffffffffffffffff1692508273ffffffffffffffffffffffffffffffffffffffff166108fc479081150290604051600060405180830381858888f193505050501580156102fe573d6000803e3d6000fd5b507f05fd56d59403eb256663d98a2be033e56116ec6cfc9b44f45d5c88df717b0982838473ffffffffffffffffffffffffffffffffffffffff16316040516103479291906108ab565b60405180910390a1600067ffffffffffffffff81111561036a576103696108e7565b5b6040519080825280602002602001820160405280156103985781602001602082028036833780820191505090505b50600190805190602001906103ae9291906103ec565b50505050565b6000426001805490506040516020016103ce929190610937565b6040516020818303038152906040528051906020012060001c905090565b828054828255906000526020600020908101928215610465579160200282015b828111156104645782518260006101000a81548173ffffffffffffffffffffffffffffffffffffffff021916908373ffffffffffffffffffffffffffffffffffffffff1602179055509160200191906001019061040c565b5b5090506104729190610476565b5090565b5b8082111561048f576000816000905550600101610477565b5090565b600082825260208201905092915050565b7f736f72727920212121206d616e616765722063616e7420636f6e74726962757460008201527f6520696e20746869730000000000000000000000000000000000000000000000602082015250565b6000610500602983610493565b915061050b826104a4565b604082019050919050565b6000602082019050818103600083015261052f816104f3565b9050919050565b7f57726f6e6720416d6f756e742021212120616d6f756e742073686f756c64206260008201527f6520657175616c20746f20312045544845520000000000000000000000000000602082015250565b6000610592603283610493565b915061059d82610536565b604082019050919050565b600060208201905081810360008301526105c181610585565b9050919050565b7f4f4f5053212c20446f6e742063686561742021212e20796f7520617265206e6f60008201527f74206d616e616765720000000000000000000000000000000000000000000000602082015250565b6000610624602983610493565b915061062f826105c8565b604082019050919050565b6000602082019050818103600083015261065381610617565b9050919050565b7f7061727469636970616e74206c696d697420686173206e6f74206d657420796560008201527f7421212100000000000000000000000000000000000000000000000000000000602082015250565b60006106b6602483610493565b91506106c18261065a565b604082019050919050565b600060208201905081810360008301526106e5816106a9565b9050919050565b6000819050919050565b7f4e487b7100000000000000000000000000000000000000000000000000000000600052601260045260246000fd5b6000610730826106ec565b915061073b836106ec565b92508261074b5761074a6106f6565b5b828206905092915050565b7f4e487b7100000000000000000000000000000000000000000000000000000000600052603260045260246000fd5b600073ffffffffffffffffffffffffffffffffffffffff82169050919050565b6000819050919050565b60006107ca6107c56107c084610785565b6107a5565b610785565b9050919050565b60006107dc826107af565b9050919050565b60006107ee826107d1565b9050919050565b6107fe816107e3565b82525050565b7f436f6e67726174732021212120796f75206861766520776f6e206c6f7474657260008201527f79202e20616d6f756e74206372656469746564207375636365737366756c6c7960208201527f20746f20796f7572206163636f756e7400000000000000000000000000000000604082015250565b6000610886605083610493565b915061089182610804565b606082019050919050565b6108a5816106ec565b82525050565b60006060820190506108c060008301856107f5565b81810360208301526108d181610879565b90506108e0604083018461089c565b9392505050565b7f4e487b7100000000000000000000000000000000000000000000000000000000600052604160045260246000fd5b6000819050919050565b61093161092c826106ec565b610916565b82525050565b60006109438285610920565b6020820191506109538284610920565b602082019150819050939250505056fea2646970667358221220cf70c80c76868cc1175ce3c6fd4f663d1725c01c396410c88977ab70ab12351964736f6c63430008120033",
					"opcodes": "PUSH1 0x80 PUSH1 0x40 MSTORE CALLVALUE DUP1 ISZERO PUSH2 0x10 JUMPI PUSH1 0x0 DUP1 REVERT JUMPDEST POP CALLER PUSH1 0x0 DUP1 PUSH2 0x100 EXP DUP2 SLOAD DUP2 PUSH20 0xFFFFFFFFFFFFFFFFFFFFFFFFFFFFFFFFFFFFFFFF MUL NOT AND SWAP1 DUP4 PUSH20 0xFFFFFFFFFFFFFFFFFFFFFFFFFFFFFFFFFFFFFFFF AND MUL OR SWAP1 SSTORE POP PUSH2 0x999 DUP1 PUSH2 0x60 PUSH1 0x0 CODECOPY PUSH1 0x0 RETURN INVALID PUSH1 0x80 PUSH1 0x40 MSTORE PUSH1 0x4 CALLDATASIZE LT PUSH2 0x29 JUMPI PUSH1 0x0 CALLDATALOAD PUSH1 0xE0 SHR DUP1 PUSH4 0xD11711A2 EQ PUSH2 0x2E JUMPI DUP1 PUSH4 0xD8D79700 EQ PUSH2 0x38 JUMPI JUMPDEST PUSH1 0x0 DUP1 REVERT JUMPDEST PUSH2 0x36 PUSH2 0x42 JUMP JUMPDEST STOP JUMPDEST PUSH2 0x40 PUSH2 0x17F JUMP JUMPDEST STOP JUMPDEST PUSH1 0x0 DUP1 SLOAD SWAP1 PUSH2 0x100 EXP SWAP1 DIV PUSH20 0xFFFFFFFFFFFFFFFFFFFFFFFFFFFFFFFFFFFFFFFF AND PUSH20 0xFFFFFFFFFFFFFFFFFFFFFFFFFFFFFFFFFFFFFFFF AND CALLER PUSH20 0xFFFFFFFFFFFFFFFFFFFFFFFFFFFFFFFFFFFFFFFF AND SUB PUSH2 0xD0 JUMPI PUSH1 0x40 MLOAD PUSH32 0x8C379A000000000000000000000000000000000000000000000000000000000 DUP2 MSTORE PUSH1 0x4 ADD PUSH2 0xC7 SWAP1 PUSH2 0x516 JUMP JUMPDEST PUSH1 0x40 MLOAD DUP1 SWAP2 SUB SWAP1 REVERT JUMPDEST PUSH8 0xDE0B6B3A7640000 CALLVALUE EQ PUSH2 0x11A JUMPI PUSH1 0x40 MLOAD PUSH32 0x8C379A000000000000000000000000000000000000000000000000000000000 DUP2 MSTORE PUSH1 0x4 ADD PUSH2 0x111 SWAP1 PUSH2 0x5A8 JUMP JUMPDEST PUSH1 0x40 MLOAD DUP1 SWAP2 SUB SWAP1 REVERT JUMPDEST PUSH1 0x1 CALLER SWAP1 DUP1 PUSH1 0x1 DUP2 SLOAD ADD DUP1 DUP3 SSTORE DUP1 SWAP2 POP POP PUSH1 0x1 SWAP1 SUB SWAP1 PUSH1 0x0 MSTORE PUSH1 0x20 PUSH1 0x0 KECCAK256 ADD PUSH1 0x0 SWAP1 SWAP2 SWAP1 SWAP2 SWAP1 SWAP2 PUSH2 0x100 EXP DUP2 SLOAD DUP2 PUSH20 0xFFFFFFFFFFFFFFFFFFFFFFFFFFFFFFFFFFFFFFFF MUL NOT AND SWAP1 DUP4 PUSH20 0xFFFFFFFFFFFFFFFFFFFFFFFFFFFFFFFFFFFFFFFF AND MUL OR SWAP1 SSTORE POP JUMP JUMPDEST PUSH1 0x0 DUP1 SLOAD SWAP1 PUSH2 0x100 EXP SWAP1 DIV PUSH20 0xFFFFFFFFFFFFFFFFFFFFFFFFFFFFFFFFFFFFFFFF AND PUSH20 0xFFFFFFFFFFFFFFFFFFFFFFFFFFFFFFFFFFFFFFFF AND CALLER PUSH20 0xFFFFFFFFFFFFFFFFFFFFFFFFFFFFFFFFFFFFFFFF AND EQ PUSH2 0x20D JUMPI PUSH1 0x40 MLOAD PUSH32 0x8C379A000000000000000000000000000000000000000000000000000000000 DUP2 MSTORE PUSH1 0x4 ADD PUSH2 0x204 SWAP1 PUSH2 0x63A JUMP JUMPDEST PUSH1 0x40 MLOAD DUP1 SWAP2 SUB SWAP1 REVERT JUMPDEST PUSH1 0x5 PUSH1 0x1 DUP1 SLOAD SWAP1 POP EQ PUSH2 0x255 JUMPI PUSH1 0x40 MLOAD PUSH32 0x8C379A000000000000000000000000000000000000000000000000000000000 DUP2 MSTORE PUSH1 0x4 ADD PUSH2 0x24C SWAP1 PUSH2 0x6CC JUMP JUMPDEST PUSH1 0x40 MLOAD DUP1 SWAP2 SUB SWAP1 REVERT JUMPDEST PUSH1 0x0 DUP1 PUSH2 0x260 PUSH2 0x3B4 JUMP JUMPDEST SWAP1 POP PUSH1 0x0 PUSH1 0x1 DUP1 SLOAD SWAP1 POP DUP3 PUSH2 0x275 SWAP2 SWAP1 PUSH2 0x725 JUMP JUMPDEST SWAP1 POP PUSH1 0x1 DUP2 DUP2 SLOAD DUP2 LT PUSH2 0x28B JUMPI PUSH2 0x28A PUSH2 0x756 JUMP JUMPDEST JUMPDEST SWAP1 PUSH1 0x0 MSTORE PUSH1 0x20 PUSH1 0x0 KECCAK256 ADD PUSH1 0x0 SWAP1 SLOAD SWAP1 PUSH2 0x100 EXP SWAP1 DIV PUSH20 0xFFFFFFFFFFFFFFFFFFFFFFFFFFFFFFFFFFFFFFFF AND SWAP3 POP DUP3 PUSH20 0xFFFFFFFFFFFFFFFFFFFFFFFFFFFFFFFFFFFFFFFF AND PUSH2 0x8FC SELFBALANCE SWAP1 DUP2 ISZERO MUL SWAP1 PUSH1 0x40 MLOAD PUSH1 0x0 PUSH1 0x40 MLOAD DUP1 DUP4 SUB DUP2 DUP6 DUP9 DUP9 CALL SWAP4 POP POP POP POP ISZERO DUP1 ISZERO PUSH2 0x2FE JUMPI RETURNDATASIZE PUSH1 0x0 DUP1 RETURNDATACOPY RETURNDATASIZE PUSH1 0x0 REVERT JUMPDEST POP PUSH32 0x5FD56D59403EB256663D98A2BE033E56116EC6CFC9B44F45D5C88DF717B0982 DUP4 DUP5 PUSH20 0xFFFFFFFFFFFFFFFFFFFFFFFFFFFFFFFFFFFFFFFF AND BALANCE PUSH1 0x40 MLOAD PUSH2 0x347 SWAP3 SWAP2 SWAP1 PUSH2 0x8AB JUMP JUMPDEST PUSH1 0x40 MLOAD DUP1 SWAP2 SUB SWAP1 LOG1 PUSH1 0x0 PUSH8 0xFFFFFFFFFFFFFFFF DUP2 GT ISZERO PUSH2 0x36A JUMPI PUSH2 0x369 PUSH2 0x8E7 JUMP JUMPDEST JUMPDEST PUSH1 0x40 MLOAD SWAP1 DUP1 DUP3 MSTORE DUP1 PUSH1 0x20 MUL PUSH1 0x20 ADD DUP3 ADD PUSH1 0x40 MSTORE DUP1 ISZERO PUSH2 0x398 JUMPI DUP2 PUSH1 0x20 ADD PUSH1 0x20 DUP3 MUL DUP1 CALLDATASIZE DUP4 CALLDATACOPY DUP1 DUP3 ADD SWAP2 POP POP SWAP1 POP JUMPDEST POP PUSH1 0x1 SWAP1 DUP1 MLOAD SWAP1 PUSH1 0x20 ADD SWAP1 PUSH2 0x3AE SWAP3 SWAP2 SWAP1 PUSH2 0x3EC JUMP JUMPDEST POP POP POP POP JUMP JUMPDEST PUSH1 0x0 TIMESTAMP PUSH1 0x1 DUP1 SLOAD SWAP1 POP PUSH1 0x40 MLOAD PUSH1 0x20 ADD PUSH2 0x3CE SWAP3 SWAP2 SWAP1 PUSH2 0x937 JUMP JUMPDEST PUSH1 0x40 MLOAD PUSH1 0x20 DUP2 DUP4 SUB SUB DUP2 MSTORE SWAP1 PUSH1 0x40 MSTORE DUP1 MLOAD SWAP1 PUSH1 0x20 ADD KECCAK256 PUSH1 0x0 SHR SWAP1 POP SWAP1 JUMP JUMPDEST DUP3 DUP1 SLOAD DUP3 DUP3 SSTORE SWAP1 PUSH1 0x0 MSTORE PUSH1 0x20 PUSH1 0x0 KECCAK256 SWAP1 DUP2 ADD SWAP3 DUP3 ISZERO PUSH2 0x465 JUMPI SWAP2 PUSH1 0x20 MUL DUP3 ADD JUMPDEST DUP3 DUP2 GT ISZERO PUSH2 0x464 JUMPI DUP3 MLOAD DUP3 PUSH1 0x0 PUSH2 0x100 EXP DUP2 SLOAD DUP2 PUSH20 0xFFFFFFFFFFFFFFFFFFFFFFFFFFFFFFFFFFFFFFFF MUL NOT AND SWAP1 DUP4 PUSH20 0xFFFFFFFFFFFFFFFFFFFFFFFFFFFFFFFFFFFFFFFF AND MUL OR SWAP1 SSTORE POP SWAP2 PUSH1 0x20 ADD SWAP2 SWAP1 PUSH1 0x1 ADD SWAP1 PUSH2 0x40C JUMP JUMPDEST JUMPDEST POP SWAP1 POP PUSH2 0x472 SWAP2 SWAP1 PUSH2 0x476 JUMP JUMPDEST POP SWAP1 JUMP JUMPDEST JUMPDEST DUP1 DUP3 GT ISZERO PUSH2 0x48F JUMPI PUSH1 0x0 DUP2 PUSH1 0x0 SWAP1 SSTORE POP PUSH1 0x1 ADD PUSH2 0x477 JUMP JUMPDEST POP SWAP1 JUMP JUMPDEST PUSH1 0x0 DUP3 DUP3 MSTORE PUSH1 0x20 DUP3 ADD SWAP1 POP SWAP3 SWAP2 POP POP JUMP JUMPDEST PUSH32 0x736F72727920212121206D616E616765722063616E7420636F6E747269627574 PUSH1 0x0 DUP3 ADD MSTORE PUSH32 0x6520696E20746869730000000000000000000000000000000000000000000000 PUSH1 0x20 DUP3 ADD MSTORE POP JUMP JUMPDEST PUSH1 0x0 PUSH2 0x500 PUSH1 0x29 DUP4 PUSH2 0x493 JUMP JUMPDEST SWAP2 POP PUSH2 0x50B DUP3 PUSH2 0x4A4 JUMP JUMPDEST PUSH1 0x40 DUP3 ADD SWAP1 POP SWAP2 SWAP1 POP JUMP JUMPDEST PUSH1 0x0 PUSH1 0x20 DUP3 ADD SWAP1 POP DUP2 DUP2 SUB PUSH1 0x0 DUP4 ADD MSTORE PUSH2 0x52F DUP2 PUSH2 0x4F3 JUMP JUMPDEST SWAP1 POP SWAP2 SWAP1 POP JUMP JUMPDEST PUSH32 0x57726F6E6720416D6F756E742021212120616D6F756E742073686F756C642062 PUSH1 0x0 DUP3 ADD MSTORE PUSH32 0x6520657175616C20746F20312045544845520000000000000000000000000000 PUSH1 0x20 DUP3 ADD MSTORE POP JUMP JUMPDEST PUSH1 0x0 PUSH2 0x592 PUSH1 0x32 DUP4 PUSH2 0x493 JUMP JUMPDEST SWAP2 POP PUSH2 0x59D DUP3 PUSH2 0x536 JUMP JUMPDEST PUSH1 0x40 DUP3 ADD SWAP1 POP SWAP2 SWAP1 POP JUMP JUMPDEST PUSH1 0x0 PUSH1 0x20 DUP3 ADD SWAP1 POP DUP2 DUP2 SUB PUSH1 0x0 DUP4 ADD MSTORE PUSH2 0x5C1 DUP2 PUSH2 0x585 JUMP JUMPDEST SWAP1 POP SWAP2 SWAP1 POP JUMP JUMPDEST PUSH32 0x4F4F5053212C20446F6E742063686561742021212E20796F7520617265206E6F PUSH1 0x0 DUP3 ADD MSTORE PUSH32 0x74206D616E616765720000000000000000000000000000000000000000000000 PUSH1 0x20 DUP3 ADD MSTORE POP JUMP JUMPDEST PUSH1 0x0 PUSH2 0x624 PUSH1 0x29 DUP4 PUSH2 0x493 JUMP JUMPDEST SWAP2 POP PUSH2 0x62F DUP3 PUSH2 0x5C8 JUMP JUMPDEST PUSH1 0x40 DUP3 ADD SWAP1 POP SWAP2 SWAP1 POP JUMP JUMPDEST PUSH1 0x0 PUSH1 0x20 DUP3 ADD SWAP1 POP DUP2 DUP2 SUB PUSH1 0x0 DUP4 ADD MSTORE PUSH2 0x653 DUP2 PUSH2 0x617 JUMP JUMPDEST SWAP1 POP SWAP2 SWAP1 POP JUMP JUMPDEST PUSH32 0x7061727469636970616E74206C696D697420686173206E6F74206D6574207965 PUSH1 0x0 DUP3 ADD MSTORE PUSH32 0x7421212100000000000000000000000000000000000000000000000000000000 PUSH1 0x20 DUP3 ADD MSTORE POP JUMP JUMPDEST PUSH1 0x0 PUSH2 0x6B6 PUSH1 0x24 DUP4 PUSH2 0x493 JUMP JUMPDEST SWAP2 POP PUSH2 0x6C1 DUP3 PUSH2 0x65A JUMP JUMPDEST PUSH1 0x40 DUP3 ADD SWAP1 POP SWAP2 SWAP1 POP JUMP JUMPDEST PUSH1 0x0 PUSH1 0x20 DUP3 ADD SWAP1 POP DUP2 DUP2 SUB PUSH1 0x0 DUP4 ADD MSTORE PUSH2 0x6E5 DUP2 PUSH2 0x6A9 JUMP JUMPDEST SWAP1 POP SWAP2 SWAP1 POP JUMP JUMPDEST PUSH1 0x0 DUP2 SWAP1 POP SWAP2 SWAP1 POP JUMP JUMPDEST PUSH32 0x4E487B7100000000000000000000000000000000000000000000000000000000 PUSH1 0x0 MSTORE PUSH1 0x12 PUSH1 0x4 MSTORE PUSH1 0x24 PUSH1 0x0 REVERT JUMPDEST PUSH1 0x0 PUSH2 0x730 DUP3 PUSH2 0x6EC JUMP JUMPDEST SWAP2 POP PUSH2 0x73B DUP4 PUSH2 0x6EC JUMP JUMPDEST SWAP3 POP DUP3 PUSH2 0x74B JUMPI PUSH2 0x74A PUSH2 0x6F6 JUMP JUMPDEST JUMPDEST DUP3 DUP3 MOD SWAP1 POP SWAP3 SWAP2 POP POP JUMP JUMPDEST PUSH32 0x4E487B7100000000000000000000000000000000000000000000000000000000 PUSH1 0x0 MSTORE PUSH1 0x32 PUSH1 0x4 MSTORE PUSH1 0x24 PUSH1 0x0 REVERT JUMPDEST PUSH1 0x0 PUSH20 0xFFFFFFFFFFFFFFFFFFFFFFFFFFFFFFFFFFFFFFFF DUP3 AND SWAP1 POP SWAP2 SWAP1 POP JUMP JUMPDEST PUSH1 0x0 DUP2 SWAP1 POP SWAP2 SWAP1 POP JUMP JUMPDEST PUSH1 0x0 PUSH2 0x7CA PUSH2 0x7C5 PUSH2 0x7C0 DUP5 PUSH2 0x785 JUMP JUMPDEST PUSH2 0x7A5 JUMP JUMPDEST PUSH2 0x785 JUMP JUMPDEST SWAP1 POP SWAP2 SWAP1 POP JUMP JUMPDEST PUSH1 0x0 PUSH2 0x7DC DUP3 PUSH2 0x7AF JUMP JUMPDEST SWAP1 POP SWAP2 SWAP1 POP JUMP JUMPDEST PUSH1 0x0 PUSH2 0x7EE DUP3 PUSH2 0x7D1 JUMP JUMPDEST SWAP1 POP SWAP2 SWAP1 POP JUMP JUMPDEST PUSH2 0x7FE DUP2 PUSH2 0x7E3 JUMP JUMPDEST DUP3 MSTORE POP POP JUMP JUMPDEST PUSH32 0x436F6E67726174732021212120796F75206861766520776F6E206C6F74746572 PUSH1 0x0 DUP3 ADD MSTORE PUSH32 0x79202E20616D6F756E74206372656469746564207375636365737366756C6C79 PUSH1 0x20 DUP3 ADD MSTORE PUSH32 0x20746F20796F7572206163636F756E7400000000000000000000000000000000 PUSH1 0x40 DUP3 ADD MSTORE POP JUMP JUMPDEST PUSH1 0x0 PUSH2 0x886 PUSH1 0x50 DUP4 PUSH2 0x493 JUMP JUMPDEST SWAP2 POP PUSH2 0x891 DUP3 PUSH2 0x804 JUMP JUMPDEST PUSH1 0x60 DUP3 ADD SWAP1 POP SWAP2 SWAP1 POP JUMP JUMPDEST PUSH2 0x8A5 DUP2 PUSH2 0x6EC JUMP JUMPDEST DUP3 MSTORE POP POP JUMP JUMPDEST PUSH1 0x0 PUSH1 0x60 DUP3 ADD SWAP1 POP PUSH2 0x8C0 PUSH1 0x0 DUP4 ADD DUP6 PUSH2 0x7F5 JUMP JUMPDEST DUP2 DUP2 SUB PUSH1 0x20 DUP4 ADD MSTORE PUSH2 0x8D1 DUP2 PUSH2 0x879 JUMP JUMPDEST SWAP1 POP PUSH2 0x8E0 PUSH1 0x40 DUP4 ADD DUP5 PUSH2 0x89C JUMP JUMPDEST SWAP4 SWAP3 POP POP POP JUMP JUMPDEST PUSH32 0x4E487B7100000000000000000000000000000000000000000000000000000000 PUSH1 0x0 MSTORE PUSH1 0x41 PUSH1 0x4 MSTORE PUSH1 0x24 PUSH1 0x0 REVERT JUMPDEST PUSH1 0x0 DUP2 SWAP1 POP SWAP2 SWAP1 POP JUMP JUMPDEST PUSH2 0x931 PUSH2 0x92C DUP3 PUSH2 0x6EC JUMP JUMPDEST PUSH2 0x916 JUMP JUMPDEST DUP3 MSTORE POP POP JUMP JUMPDEST PUSH1 0x0 PUSH2 0x943 DUP3 DUP6 PUSH2 0x920 JUMP JUMPDEST PUSH1 0x20 DUP3 ADD SWAP2 POP PUSH2 0x953 DUP3 DUP5 PUSH2 0x920 JUMP JUMPDEST PUSH1 0x20 DUP3 ADD SWAP2 POP DUP2 SWAP1 POP SWAP4 SWAP3 POP POP POP JUMP INVALID LOG2 PUSH5 0x6970667358 0x22 SLT KECCAK256 0xCF PUSH17 0xC80C76868CC1175CE3C6FD4F663D1725C0 SHR CODECOPY PUSH5 0x10C88977AB PUSH17 0xAB12351964736F6C634300081200330000 "
				},
				"gasEstimates": {
					"creation": {
						"codeDepositCost": "491400",
						"executionCost": "24790",
						"totalCost": "516190"
					},
					"external": {
						"makePayment()": "infinite",
						"participate()": "50865"
					},
					"internal": {
						"generateRandomWinner()": "infinite"
					}
				},
				"methodIdentifiers": {
					"makePayment()": "d8d79700",
					"participate()": "d11711a2"
				}
			},
			"storageLayout": {
				"storage": [
					{
						"astId": 3,
						"contract": "contracts/Lottery_Winner.sol:Lotter_Winner",
						"label": "manager",
						"offset": 0,
						"slot": "0",
						"type": "t_address"
					},
					{
						"astId": 6,
						"contract": "contracts/Lottery_Winner.sol:Lotter_Winner",
						"label": "participantsLedger",
						"offset": 0,
						"slot": "1",
						"type": "t_array(t_address_payable)dyn_storage"
					}
				],
				"types": {
					"t_address": {
						"encoding": "inplace",
						"label": "address",
						"numberOfBytes": "20"
					},
					"t_address_payable": {
						"encoding": "inplace",
						"label": "address payable",
						"numberOfBytes": "20"
					},
					"t_array(t_address_payable)dyn_storage": {
						"base": "t_address_payable",
						"encoding": "dynamic_array",
						"label": "address payable[]",
						"numberOfBytes": "32"
					}
				}
			},
			"userdoc": {
				"kind": "user",
				"methods": {},
				"version": 1
			}
		}
	}
}