{
	"contracts/LotteryWinner.sol": {
		"Lottery": {
			"abi": [
				{
					"inputs": [],
					"name": "getBalance",
					"outputs": [
						{
							"internalType": "uint256",
							"name": "",
							"type": "uint256"
						}
					],
					"stateMutability": "view",
					"type": "function"
				},
				{
					"inputs": [],
					"name": "getRandomWinner",
					"outputs": [],
					"stateMutability": "payable",
					"type": "function"
				},
				{
					"inputs": [],
					"name": "getWinnerBalance",
					"outputs": [
						{
							"internalType": "uint256",
							"name": "",
							"type": "uint256"
						}
					],
					"stateMutability": "view",
					"type": "function"
				},
				{
					"inputs": [],
					"name": "lotteryManager",
					"outputs": [
						{
							"internalType": "address",
							"name": "",
							"type": "address"
						}
					],
					"stateMutability": "view",
					"type": "function"
				},
				{
					"inputs": [],
					"name": "participate",
					"outputs": [],
					"stateMutability": "payable",
					"type": "function"
				},
				{
					"inputs": [],
					"name": "winner",
					"outputs": [
						{
							"internalType": "address payable",
							"name": "",
							"type": "address"
						}
					],
					"stateMutability": "view",
					"type": "function"
				}
			],
			"devdoc": {
				"kind": "dev",
				"methods": {},
				"version": 1
			},
			"evm": {
				"assembly": "    /* \"contracts/LotteryWinner.sol\":94:1265  contract Lottery {... */\n  mstore(0x40, 0x80)\n  callvalue\n  dup1\n  iszero\n  tag_1\n  jumpi\n  0x00\n  dup1\n  revert\ntag_1:\n  pop\n  dataSize(sub_0)\n  dup1\n  dataOffset(sub_0)\n  0x00\n  codecopy\n  0x00\n  return\nstop\n\nsub_0: assembly {\n        /* \"contracts/LotteryWinner.sol\":94:1265  contract Lottery {... */\n      mstore(0x40, 0x80)\n      jumpi(tag_1, lt(calldatasize, 0x04))\n      shr(0xe0, calldataload(0x00))\n      dup1\n      0x12065fe0\n      eq\n      tag_2\n      jumpi\n      dup1\n      0x4f989520\n      eq\n      tag_3\n      jumpi\n      dup1\n      0x6694f1a5\n      eq\n      tag_4\n      jumpi\n      dup1\n      0xd11711a2\n      eq\n      tag_5\n      jumpi\n      dup1\n      0xd369e686\n      eq\n      tag_6\n      jumpi\n      dup1\n      0xdfbf53ae\n      eq\n      tag_7\n      jumpi\n    tag_1:\n      0x00\n      dup1\n      revert\n        /* \"contracts/LotteryWinner.sol\":421:565  function getBalance() public view returns (uint) {... */\n    tag_2:\n      callvalue\n      dup1\n      iszero\n      tag_8\n      jumpi\n      0x00\n      dup1\n      revert\n    tag_8:\n      pop\n      tag_9\n      tag_10\n      jump\t// in\n    tag_9:\n      mload(0x40)\n      tag_11\n      swap2\n      swap1\n      tag_12\n      jump\t// in\n    tag_11:\n      mload(0x40)\n      dup1\n      swap2\n      sub\n      swap1\n      return\n        /* \"contracts/LotteryWinner.sol\":190:219  address public lotteryManager */\n    tag_3:\n      callvalue\n      dup1\n      iszero\n      tag_13\n      jumpi\n      0x00\n      dup1\n      revert\n    tag_13:\n      pop\n      tag_14\n      tag_15\n      jump\t// in\n    tag_14:\n      mload(0x40)\n      tag_16\n      swap2\n      swap1\n      tag_17\n      jump\t// in\n    tag_16:\n      mload(0x40)\n      dup1\n      swap2\n      sub\n      swap1\n      return\n        /* \"contracts/LotteryWinner.sol\":573:1102  function getRandomWinner() public payable {... */\n    tag_4:\n      tag_18\n      tag_19\n      jump\t// in\n    tag_18:\n      stop\n        /* \"contracts/LotteryWinner.sol\":269:413  function participate() public payable {... */\n    tag_5:\n      tag_20\n      tag_21\n      jump\t// in\n    tag_20:\n      stop\n        /* \"contracts/LotteryWinner.sol\":1110:1262  function getWinnerBalance() public view returns (uint) {... */\n    tag_6:\n      callvalue\n      dup1\n      iszero\n      tag_22\n      jumpi\n      0x00\n      dup1\n      revert\n    tag_22:\n      pop\n      tag_23\n      tag_24\n      jump\t// in\n    tag_23:\n      mload(0x40)\n      tag_25\n      swap2\n      swap1\n      tag_12\n      jump\t// in\n    tag_25:\n      mload(0x40)\n      dup1\n      swap2\n      sub\n      swap1\n      return\n        /* \"contracts/LotteryWinner.sol\":154:183  address payable public winner */\n    tag_7:\n      callvalue\n      dup1\n      iszero\n      tag_26\n      jumpi\n      0x00\n      dup1\n      revert\n    tag_26:\n      pop\n      tag_27\n      tag_28\n      jump\t// in\n    tag_27:\n      mload(0x40)\n      tag_29\n      swap2\n      swap1\n      tag_30\n      jump\t// in\n    tag_29:\n      mload(0x40)\n      dup1\n      swap2\n      sub\n      swap1\n      return\n        /* \"contracts/LotteryWinner.sol\":421:565  function getBalance() public view returns (uint) {... */\n    tag_10:\n        /* \"contracts/LotteryWinner.sol\":464:468  uint */\n      0x00\n        /* \"contracts/LotteryWinner.sol\":503:517  lotteryManager */\n      0x02\n      0x00\n      swap1\n      sload\n      swap1\n      0x0100\n      exp\n      swap1\n      div\n      0xffffffffffffffffffffffffffffffffffffffff\n      and\n        /* \"contracts/LotteryWinner.sol\":489:517  msg.sender == lotteryManager */\n      0xffffffffffffffffffffffffffffffffffffffff\n      and\n        /* \"contracts/LotteryWinner.sol\":489:499  msg.sender */\n      caller\n        /* \"contracts/LotteryWinner.sol\":489:517  msg.sender == lotteryManager */\n      0xffffffffffffffffffffffffffffffffffffffff\n      and\n      eq\n        /* \"contracts/LotteryWinner.sol\":481:518  require(msg.sender == lotteryManager) */\n      tag_32\n      jumpi\n      0x00\n      dup1\n      revert\n    tag_32:\n        /* \"contracts/LotteryWinner.sol\":536:557  address(this).balance */\n      selfbalance\n        /* \"contracts/LotteryWinner.sol\":529:557  return address(this).balance */\n      swap1\n      pop\n        /* \"contracts/LotteryWinner.sol\":421:565  function getBalance() public view returns (uint) {... */\n      swap1\n      jump\t// out\n        /* \"contracts/LotteryWinner.sol\":190:219  address public lotteryManager */\n    tag_15:\n      0x02\n      0x00\n      swap1\n      sload\n      swap1\n      0x0100\n      exp\n      swap1\n      div\n      0xffffffffffffffffffffffffffffffffffffffff\n      and\n      dup2\n      jump\t// out\n        /* \"contracts/LotteryWinner.sol\":573:1102  function getRandomWinner() public payable {... */\n    tag_19:\n        /* \"contracts/LotteryWinner.sol\":648:662  lotteryManager */\n      0x02\n      0x00\n      swap1\n      sload\n      swap1\n      0x0100\n      exp\n      swap1\n      div\n      0xffffffffffffffffffffffffffffffffffffffff\n      and\n        /* \"contracts/LotteryWinner.sol\":634:662  msg.sender == lotteryManager */\n      0xffffffffffffffffffffffffffffffffffffffff\n      and\n        /* \"contracts/LotteryWinner.sol\":634:644  msg.sender */\n      caller\n        /* \"contracts/LotteryWinner.sol\":634:662  msg.sender == lotteryManager */\n      0xffffffffffffffffffffffffffffffffffffffff\n      and\n      eq\n        /* \"contracts/LotteryWinner.sol\":626:663  require(msg.sender == lotteryManager) */\n      tag_34\n      jumpi\n      0x00\n      dup1\n      revert\n    tag_34:\n        /* \"contracts/LotteryWinner.sol\":674:686  bytes32 rand */\n      0x00\n        /* \"contracts/LotteryWinner.sol\":714:715  1 */\n      0x01\n        /* \"contracts/LotteryWinner.sol\":699:711  block.number */\n      number\n        /* \"contracts/LotteryWinner.sol\":699:715  block.number - 1 */\n      tag_35\n      swap2\n      swap1\n      tag_36\n      jump\t// in\n    tag_35:\n        /* \"contracts/LotteryWinner.sol\":689:716  blockhash(block.number - 1) */\n      blockhash\n        /* \"contracts/LotteryWinner.sol\":674:716  bytes32 rand = blockhash(block.number - 1) */\n      swap1\n      pop\n        /* \"contracts/LotteryWinner.sol\":727:740  bytes32 rand2 */\n      0x00\n        /* \"contracts/LotteryWinner.sol\":768:769  2 */\n      0x02\n        /* \"contracts/LotteryWinner.sol\":753:765  block.number */\n      number\n        /* \"contracts/LotteryWinner.sol\":753:769  block.number - 2 */\n      tag_37\n      swap2\n      swap1\n      tag_36\n      jump\t// in\n    tag_37:\n        /* \"contracts/LotteryWinner.sol\":743:770  blockhash(block.number - 2) */\n      blockhash\n        /* \"contracts/LotteryWinner.sol\":727:770  bytes32 rand2 = blockhash(block.number - 2) */\n      swap1\n      pop\n        /* \"contracts/LotteryWinner.sol\":781:794  bytes32 rand3 */\n      0x00\n        /* \"contracts/LotteryWinner.sol\":822:823  3 */\n      0x03\n        /* \"contracts/LotteryWinner.sol\":807:819  block.number */\n      number\n        /* \"contracts/LotteryWinner.sol\":807:823  block.number - 3 */\n      tag_38\n      swap2\n      swap1\n      tag_36\n      jump\t// in\n    tag_38:\n        /* \"contracts/LotteryWinner.sol\":797:824  blockhash(block.number - 3) */\n      blockhash\n        /* \"contracts/LotteryWinner.sol\":781:824  bytes32 rand3 = blockhash(block.number - 3) */\n      swap1\n      pop\n        /* \"contracts/LotteryWinner.sol\":835:856  uint256  randomNumber */\n      0x00\n        /* \"contracts/LotteryWinner.sol\":894:898  rand */\n      dup4\n        /* \"contracts/LotteryWinner.sol\":900:905  rand2 */\n      dup4\n        /* \"contracts/LotteryWinner.sol\":907:912  rand3 */\n      dup4\n        /* \"contracts/LotteryWinner.sol\":877:913  abi.encodePacked(rand, rand2, rand3) */\n      add(0x20, mload(0x40))\n      tag_39\n      swap4\n      swap3\n      swap2\n      swap1\n      tag_40\n      jump\t// in\n    tag_39:\n      mload(0x40)\n      0x20\n      dup2\n      dup4\n      sub\n      sub\n      dup2\n      mstore\n      swap1\n      0x40\n      mstore\n        /* \"contracts/LotteryWinner.sol\":867:914  keccak256(abi.encodePacked(rand, rand2, rand3)) */\n      dup1\n      mload\n      swap1\n      0x20\n      add\n      keccak256\n        /* \"contracts/LotteryWinner.sol\":859:915  uint256(keccak256(abi.encodePacked(rand, rand2, rand3))) */\n      0x00\n      shr\n        /* \"contracts/LotteryWinner.sol\":835:915  uint256  randomNumber = uint256(keccak256(abi.encodePacked(rand, rand2, rand3))) */\n      swap1\n      pop\n        /* \"contracts/LotteryWinner.sol\":950:961  participant */\n      0x00\n        /* \"contracts/LotteryWinner.sol\":950:968  participant.length */\n      dup1\n      sload\n      swap1\n      pop\n        /* \"contracts/LotteryWinner.sol\":935:947  randomNumber */\n      dup2\n        /* \"contracts/LotteryWinner.sol\":935:968  randomNumber % participant.length */\n      tag_41\n      swap2\n      swap1\n      tag_42\n      jump\t// in\n    tag_41:\n        /* \"contracts/LotteryWinner.sol\":926:932  number */\n      0x03\n        /* \"contracts/LotteryWinner.sol\":926:968  number = randomNumber % participant.length */\n      dup2\n      swap1\n      sstore\n      pop\n        /* \"contracts/LotteryWinner.sol\":988:999  participant */\n      0x00\n        /* \"contracts/LotteryWinner.sol\":1000:1006  number */\n      sload(0x03)\n        /* \"contracts/LotteryWinner.sol\":988:1007  participant[number] */\n      dup2\n      sload\n      dup2\n      lt\n      tag_43\n      jumpi\n      tag_44\n      tag_45\n      jump\t// in\n    tag_44:\n    tag_43:\n      swap1\n      0x00\n      mstore\n      keccak256(0x00, 0x20)\n      add\n      0x00\n      swap1\n      sload\n      swap1\n      0x0100\n      exp\n      swap1\n      div\n      0xffffffffffffffffffffffffffffffffffffffff\n      and\n        /* \"contracts/LotteryWinner.sol\":979:985  winner */\n      0x01\n      0x00\n        /* \"contracts/LotteryWinner.sol\":979:1007  winner = participant[number] */\n      0x0100\n      exp\n      dup2\n      sload\n      dup2\n      0xffffffffffffffffffffffffffffffffffffffff\n      mul\n      not\n      and\n      swap1\n      dup4\n      0xffffffffffffffffffffffffffffffffffffffff\n      and\n      mul\n      or\n      swap1\n      sstore\n      pop\n        /* \"contracts/LotteryWinner.sol\":1018:1024  winner */\n      0x01\n      0x00\n      swap1\n      sload\n      swap1\n      0x0100\n      exp\n      swap1\n      div\n      0xffffffffffffffffffffffffffffffffffffffff\n      and\n        /* \"contracts/LotteryWinner.sol\":1018:1033  winner.transfer */\n      0xffffffffffffffffffffffffffffffffffffffff\n      and\n        /* \"contracts/LotteryWinner.sol\":1018:1047  winner.transfer(getBalance()) */\n      0x08fc\n        /* \"contracts/LotteryWinner.sol\":1034:1046  getBalance() */\n      tag_47\n        /* \"contracts/LotteryWinner.sol\":1034:1044  getBalance */\n      tag_10\n        /* \"contracts/LotteryWinner.sol\":1034:1046  getBalance() */\n      jump\t// in\n    tag_47:\n        /* \"contracts/LotteryWinner.sol\":1018:1047  winner.transfer(getBalance()) */\n      swap1\n      dup2\n      iszero\n      mul\n      swap1\n      mload(0x40)\n      0x00\n      mload(0x40)\n      dup1\n      dup4\n      sub\n      dup2\n      dup6\n      dup9\n      dup9\n      call\n      swap4\n      pop\n      pop\n      pop\n      pop\n      iszero\n      dup1\n      iszero\n      tag_49\n      jumpi\n      returndatasize\n      0x00\n      dup1\n      returndatacopy\n      revert(0x00, returndatasize)\n    tag_49:\n      pop\n        /* \"contracts/LotteryWinner.sol\":1092:1093  0 */\n      0x00\n        /* \"contracts/LotteryWinner.sol\":1070:1094  new address payable[](0) */\n      0xffffffffffffffff\n      dup2\n      gt\n      iszero\n      tag_50\n      jumpi\n      tag_51\n      tag_52\n      jump\t// in\n    tag_51:\n    tag_50:\n      mload(0x40)\n      swap1\n      dup1\n      dup3\n      mstore\n      dup1\n      0x20\n      mul\n      0x20\n      add\n      dup3\n      add\n      0x40\n      mstore\n      dup1\n      iszero\n      tag_53\n      jumpi\n      dup2\n      0x20\n      add\n      0x20\n      dup3\n      mul\n      dup1\n      calldatasize\n      dup4\n      calldatacopy\n      dup1\n      dup3\n      add\n      swap2\n      pop\n      pop\n      swap1\n      pop\n    tag_53:\n      pop\n        /* \"contracts/LotteryWinner.sol\":1058:1069  participant */\n      0x00\n        /* \"contracts/LotteryWinner.sol\":1058:1094  participant=new address payable[](0) */\n      swap1\n      dup1\n      mload\n      swap1\n      0x20\n      add\n      swap1\n      tag_54\n      swap3\n      swap2\n      swap1\n      tag_55\n      jump\t// in\n    tag_54:\n      pop\n        /* \"contracts/LotteryWinner.sol\":615:1102  {... */\n      pop\n      pop\n      pop\n      pop\n        /* \"contracts/LotteryWinner.sol\":573:1102  function getRandomWinner() public payable {... */\n      jump\t// out\n        /* \"contracts/LotteryWinner.sol\":269:413  function participate() public payable {... */\n    tag_21:\n        /* \"contracts/LotteryWinner.sol\":339:346  3 ether */\n      0x29a2241af62c0000\n        /* \"contracts/LotteryWinner.sol\":326:335  msg.value */\n      callvalue\n        /* \"contracts/LotteryWinner.sol\":326:346  msg.value == 3 ether */\n      eq\n        /* \"contracts/LotteryWinner.sol\":318:347  require(msg.value == 3 ether) */\n      tag_57\n      jumpi\n      0x00\n      dup1\n      revert\n    tag_57:\n        /* \"contracts/LotteryWinner.sol\":358:369  participant */\n      0x00\n        /* \"contracts/LotteryWinner.sol\":383:393  msg.sender */\n      caller\n        /* \"contracts/LotteryWinner.sol\":358:395  participant.push(payable(msg.sender)) */\n      swap1\n      dup1\n      0x01\n      dup2\n      sload\n      add\n      dup1\n      dup3\n      sstore\n      dup1\n      swap2\n      pop\n      pop\n      0x01\n      swap1\n      sub\n      swap1\n      0x00\n      mstore\n      keccak256(0x00, 0x20)\n      add\n      0x00\n      swap1\n      swap2\n      swap1\n      swap2\n      swap1\n      swap2\n      0x0100\n      exp\n      dup2\n      sload\n      dup2\n      0xffffffffffffffffffffffffffffffffffffffff\n      mul\n      not\n      and\n      swap1\n      dup4\n      0xffffffffffffffffffffffffffffffffffffffff\n      and\n      mul\n      or\n      swap1\n      sstore\n      pop\n        /* \"contracts/LotteryWinner.sol\":269:413  function participate() public payable {... */\n      jump\t// out\n        /* \"contracts/LotteryWinner.sol\":1110:1262  function getWinnerBalance() public view returns (uint) {... */\n    tag_24:\n        /* \"contracts/LotteryWinner.sol\":1159:1163  uint */\n      0x00\n        /* \"contracts/LotteryWinner.sol\":1198:1209  participant */\n      dup1\n        /* \"contracts/LotteryWinner.sol\":1210:1216  number */\n      sload(0x03)\n        /* \"contracts/LotteryWinner.sol\":1198:1217  participant[number] */\n      dup2\n      sload\n      dup2\n      lt\n      tag_60\n      jumpi\n      tag_61\n      tag_45\n      jump\t// in\n    tag_61:\n    tag_60:\n      swap1\n      0x00\n      mstore\n      keccak256(0x00, 0x20)\n      add\n      0x00\n      swap1\n      sload\n      swap1\n      0x0100\n      exp\n      swap1\n      div\n      0xffffffffffffffffffffffffffffffffffffffff\n      and\n        /* \"contracts/LotteryWinner.sol\":1184:1217  msg.sender == participant[number] */\n      0xffffffffffffffffffffffffffffffffffffffff\n      and\n        /* \"contracts/LotteryWinner.sol\":1184:1194  msg.sender */\n      caller\n        /* \"contracts/LotteryWinner.sol\":1184:1217  msg.sender == participant[number] */\n      0xffffffffffffffffffffffffffffffffffffffff\n      and\n      eq\n        /* \"contracts/LotteryWinner.sol\":1176:1218  require(msg.sender == participant[number]) */\n      tag_63\n      jumpi\n      0x00\n      dup1\n      revert\n    tag_63:\n        /* \"contracts/LotteryWinner.sol\":1236:1246  msg.sender */\n      caller\n        /* \"contracts/LotteryWinner.sol\":1236:1254  msg.sender.balance */\n      0xffffffffffffffffffffffffffffffffffffffff\n      and\n      balance\n        /* \"contracts/LotteryWinner.sol\":1229:1254  return msg.sender.balance */\n      swap1\n      pop\n        /* \"contracts/LotteryWinner.sol\":1110:1262  function getWinnerBalance() public view returns (uint) {... */\n      swap1\n      jump\t// out\n        /* \"contracts/LotteryWinner.sol\":154:183  address payable public winner */\n    tag_28:\n      0x01\n      0x00\n      swap1\n      sload\n      swap1\n      0x0100\n      exp\n      swap1\n      div\n      0xffffffffffffffffffffffffffffffffffffffff\n      and\n      dup2\n      jump\t// out\n    tag_55:\n      dup3\n      dup1\n      sload\n      dup3\n      dup3\n      sstore\n      swap1\n      0x00\n      mstore\n      keccak256(0x00, 0x20)\n      swap1\n      dup2\n      add\n      swap3\n      dup3\n      iszero\n      tag_64\n      jumpi\n      swap2\n      0x20\n      mul\n      dup3\n      add\n    tag_65:\n      dup3\n      dup2\n      gt\n      iszero\n      tag_66\n      jumpi\n      dup3\n      mload\n      dup3\n      exp(0x0100, 0x00)\n      dup2\n      sload\n      dup2\n      0xffffffffffffffffffffffffffffffffffffffff\n      mul\n      not\n      and\n      swap1\n      dup4\n      0xffffffffffffffffffffffffffffffffffffffff\n      and\n      mul\n      or\n      swap1\n      sstore\n      pop\n      swap2\n      0x20\n      add\n      swap2\n      swap1\n      0x01\n      add\n      swap1\n      jump(tag_65)\n    tag_66:\n    tag_64:\n      pop\n      swap1\n      pop\n      tag_67\n      swap2\n      swap1\n      tag_68\n      jump\t// in\n    tag_67:\n      pop\n      swap1\n      jump\t// out\n    tag_68:\n    tag_69:\n      dup1\n      dup3\n      gt\n      iszero\n      tag_70\n      jumpi\n      0x00\n      dup2\n      0x00\n      swap1\n      sstore\n      pop\n      0x01\n      add\n      jump(tag_69)\n    tag_70:\n      pop\n      swap1\n      jump\t// out\n        /* \"#utility.yul\":7:84   */\n    tag_71:\n        /* \"#utility.yul\":44:51   */\n      0x00\n        /* \"#utility.yul\":73:78   */\n      dup2\n        /* \"#utility.yul\":62:78   */\n      swap1\n      pop\n        /* \"#utility.yul\":7:84   */\n      swap2\n      swap1\n      pop\n      jump\t// out\n        /* \"#utility.yul\":90:208   */\n    tag_72:\n        /* \"#utility.yul\":177:201   */\n      tag_86\n        /* \"#utility.yul\":195:200   */\n      dup2\n        /* \"#utility.yul\":177:201   */\n      tag_71\n      jump\t// in\n    tag_86:\n        /* \"#utility.yul\":172:175   */\n      dup3\n        /* \"#utility.yul\":165:202   */\n      mstore\n        /* \"#utility.yul\":90:208   */\n      pop\n      pop\n      jump\t// out\n        /* \"#utility.yul\":214:436   */\n    tag_12:\n        /* \"#utility.yul\":307:311   */\n      0x00\n        /* \"#utility.yul\":345:347   */\n      0x20\n        /* \"#utility.yul\":334:343   */\n      dup3\n        /* \"#utility.yul\":330:348   */\n      add\n        /* \"#utility.yul\":322:348   */\n      swap1\n      pop\n        /* \"#utility.yul\":358:429   */\n      tag_88\n        /* \"#utility.yul\":426:427   */\n      0x00\n        /* \"#utility.yul\":415:424   */\n      dup4\n        /* \"#utility.yul\":411:428   */\n      add\n        /* \"#utility.yul\":402:408   */\n      dup5\n        /* \"#utility.yul\":358:429   */\n      tag_72\n      jump\t// in\n    tag_88:\n        /* \"#utility.yul\":214:436   */\n      swap3\n      swap2\n      pop\n      pop\n      jump\t// out\n        /* \"#utility.yul\":442:568   */\n    tag_73:\n        /* \"#utility.yul\":479:486   */\n      0x00\n        /* \"#utility.yul\":519:561   */\n      0xffffffffffffffffffffffffffffffffffffffff\n        /* \"#utility.yul\":512:517   */\n      dup3\n        /* \"#utility.yul\":508:562   */\n      and\n        /* \"#utility.yul\":497:562   */\n      swap1\n      pop\n        /* \"#utility.yul\":442:568   */\n      swap2\n      swap1\n      pop\n      jump\t// out\n        /* \"#utility.yul\":574:670   */\n    tag_74:\n        /* \"#utility.yul\":611:618   */\n      0x00\n        /* \"#utility.yul\":640:664   */\n      tag_91\n        /* \"#utility.yul\":658:663   */\n      dup3\n        /* \"#utility.yul\":640:664   */\n      tag_73\n      jump\t// in\n    tag_91:\n        /* \"#utility.yul\":629:664   */\n      swap1\n      pop\n        /* \"#utility.yul\":574:670   */\n      swap2\n      swap1\n      pop\n      jump\t// out\n        /* \"#utility.yul\":676:794   */\n    tag_75:\n        /* \"#utility.yul\":763:787   */\n      tag_93\n        /* \"#utility.yul\":781:786   */\n      dup2\n        /* \"#utility.yul\":763:787   */\n      tag_74\n      jump\t// in\n    tag_93:\n        /* \"#utility.yul\":758:761   */\n      dup3\n        /* \"#utility.yul\":751:788   */\n      mstore\n        /* \"#utility.yul\":676:794   */\n      pop\n      pop\n      jump\t// out\n        /* \"#utility.yul\":800:1022   */\n    tag_17:\n        /* \"#utility.yul\":893:897   */\n      0x00\n        /* \"#utility.yul\":931:933   */\n      0x20\n        /* \"#utility.yul\":920:929   */\n      dup3\n        /* \"#utility.yul\":916:934   */\n      add\n        /* \"#utility.yul\":908:934   */\n      swap1\n      pop\n        /* \"#utility.yul\":944:1015   */\n      tag_95\n        /* \"#utility.yul\":1012:1013   */\n      0x00\n        /* \"#utility.yul\":1001:1010   */\n      dup4\n        /* \"#utility.yul\":997:1014   */\n      add\n        /* \"#utility.yul\":988:994   */\n      dup5\n        /* \"#utility.yul\":944:1015   */\n      tag_75\n      jump\t// in\n    tag_95:\n        /* \"#utility.yul\":800:1022   */\n      swap3\n      swap2\n      pop\n      pop\n      jump\t// out\n        /* \"#utility.yul\":1028:1132   */\n    tag_76:\n        /* \"#utility.yul\":1073:1080   */\n      0x00\n        /* \"#utility.yul\":1102:1126   */\n      tag_97\n        /* \"#utility.yul\":1120:1125   */\n      dup3\n        /* \"#utility.yul\":1102:1126   */\n      tag_73\n      jump\t// in\n    tag_97:\n        /* \"#utility.yul\":1091:1126   */\n      swap1\n      pop\n        /* \"#utility.yul\":1028:1132   */\n      swap2\n      swap1\n      pop\n      jump\t// out\n        /* \"#utility.yul\":1138:1280   */\n    tag_77:\n        /* \"#utility.yul\":1241:1273   */\n      tag_99\n        /* \"#utility.yul\":1267:1272   */\n      dup2\n        /* \"#utility.yul\":1241:1273   */\n      tag_76\n      jump\t// in\n    tag_99:\n        /* \"#utility.yul\":1236:1239   */\n      dup3\n        /* \"#utility.yul\":1229:1274   */\n      mstore\n        /* \"#utility.yul\":1138:1280   */\n      pop\n      pop\n      jump\t// out\n        /* \"#utility.yul\":1286:1540   */\n    tag_30:\n        /* \"#utility.yul\":1395:1399   */\n      0x00\n        /* \"#utility.yul\":1433:1435   */\n      0x20\n        /* \"#utility.yul\":1422:1431   */\n      dup3\n        /* \"#utility.yul\":1418:1436   */\n      add\n        /* \"#utility.yul\":1410:1436   */\n      swap1\n      pop\n        /* \"#utility.yul\":1446:1533   */\n      tag_101\n        /* \"#utility.yul\":1530:1531   */\n      0x00\n        /* \"#utility.yul\":1519:1528   */\n      dup4\n        /* \"#utility.yul\":1515:1532   */\n      add\n        /* \"#utility.yul\":1506:1512   */\n      dup5\n        /* \"#utility.yul\":1446:1533   */\n      tag_77\n      jump\t// in\n    tag_101:\n        /* \"#utility.yul\":1286:1540   */\n      swap3\n      swap2\n      pop\n      pop\n      jump\t// out\n        /* \"#utility.yul\":1546:1726   */\n    tag_78:\n        /* \"#utility.yul\":1594:1671   */\n      0x4e487b7100000000000000000000000000000000000000000000000000000000\n        /* \"#utility.yul\":1591:1592   */\n      0x00\n        /* \"#utility.yul\":1584:1672   */\n      mstore\n        /* \"#utility.yul\":1691:1695   */\n      0x11\n        /* \"#utility.yul\":1688:1689   */\n      0x04\n        /* \"#utility.yul\":1681:1696   */\n      mstore\n        /* \"#utility.yul\":1715:1719   */\n      0x24\n        /* \"#utility.yul\":1712:1713   */\n      0x00\n        /* \"#utility.yul\":1705:1720   */\n      revert\n        /* \"#utility.yul\":1732:1926   */\n    tag_36:\n        /* \"#utility.yul\":1772:1776   */\n      0x00\n        /* \"#utility.yul\":1792:1812   */\n      tag_104\n        /* \"#utility.yul\":1810:1811   */\n      dup3\n        /* \"#utility.yul\":1792:1812   */\n      tag_71\n      jump\t// in\n    tag_104:\n        /* \"#utility.yul\":1787:1812   */\n      swap2\n      pop\n        /* \"#utility.yul\":1826:1846   */\n      tag_105\n        /* \"#utility.yul\":1844:1845   */\n      dup4\n        /* \"#utility.yul\":1826:1846   */\n      tag_71\n      jump\t// in\n    tag_105:\n        /* \"#utility.yul\":1821:1846   */\n      swap3\n      pop\n        /* \"#utility.yul\":1870:1871   */\n      dup3\n        /* \"#utility.yul\":1867:1868   */\n      dup3\n        /* \"#utility.yul\":1863:1872   */\n      sub\n        /* \"#utility.yul\":1855:1872   */\n      swap1\n      pop\n        /* \"#utility.yul\":1894:1895   */\n      dup2\n        /* \"#utility.yul\":1888:1892   */\n      dup2\n        /* \"#utility.yul\":1885:1896   */\n      gt\n        /* \"#utility.yul\":1882:1919   */\n      iszero\n      tag_106\n      jumpi\n        /* \"#utility.yul\":1899:1917   */\n      tag_107\n      tag_78\n      jump\t// in\n    tag_107:\n        /* \"#utility.yul\":1882:1919   */\n    tag_106:\n        /* \"#utility.yul\":1732:1926   */\n      swap3\n      swap2\n      pop\n      pop\n      jump\t// out\n        /* \"#utility.yul\":1932:2009   */\n    tag_79:\n        /* \"#utility.yul\":1969:1976   */\n      0x00\n        /* \"#utility.yul\":1998:2003   */\n      dup2\n        /* \"#utility.yul\":1987:2003   */\n      swap1\n      pop\n        /* \"#utility.yul\":1932:2009   */\n      swap2\n      swap1\n      pop\n      jump\t// out\n        /* \"#utility.yul\":2015:2094   */\n    tag_80:\n        /* \"#utility.yul\":2054:2061   */\n      0x00\n        /* \"#utility.yul\":2083:2088   */\n      dup2\n        /* \"#utility.yul\":2072:2088   */\n      swap1\n      pop\n        /* \"#utility.yul\":2015:2094   */\n      swap2\n      swap1\n      pop\n      jump\t// out\n        /* \"#utility.yul\":2100:2257   */\n    tag_81:\n        /* \"#utility.yul\":2205:2250   */\n      tag_111\n        /* \"#utility.yul\":2225:2249   */\n      tag_112\n        /* \"#utility.yul\":2243:2248   */\n      dup3\n        /* \"#utility.yul\":2225:2249   */\n      tag_79\n      jump\t// in\n    tag_112:\n        /* \"#utility.yul\":2205:2250   */\n      tag_80\n      jump\t// in\n    tag_111:\n        /* \"#utility.yul\":2200:2203   */\n      dup3\n        /* \"#utility.yul\":2193:2251   */\n      mstore\n        /* \"#utility.yul\":2100:2257   */\n      pop\n      pop\n      jump\t// out\n        /* \"#utility.yul\":2263:2801   */\n    tag_40:\n        /* \"#utility.yul\":2431:2434   */\n      0x00\n        /* \"#utility.yul\":2446:2521   */\n      tag_114\n        /* \"#utility.yul\":2517:2520   */\n      dup3\n        /* \"#utility.yul\":2508:2514   */\n      dup7\n        /* \"#utility.yul\":2446:2521   */\n      tag_81\n      jump\t// in\n    tag_114:\n        /* \"#utility.yul\":2546:2548   */\n      0x20\n        /* \"#utility.yul\":2541:2544   */\n      dup3\n        /* \"#utility.yul\":2537:2549   */\n      add\n        /* \"#utility.yul\":2530:2549   */\n      swap2\n      pop\n        /* \"#utility.yul\":2559:2634   */\n      tag_115\n        /* \"#utility.yul\":2630:2633   */\n      dup3\n        /* \"#utility.yul\":2621:2627   */\n      dup6\n        /* \"#utility.yul\":2559:2634   */\n      tag_81\n      jump\t// in\n    tag_115:\n        /* \"#utility.yul\":2659:2661   */\n      0x20\n        /* \"#utility.yul\":2654:2657   */\n      dup3\n        /* \"#utility.yul\":2650:2662   */\n      add\n        /* \"#utility.yul\":2643:2662   */\n      swap2\n      pop\n        /* \"#utility.yul\":2672:2747   */\n      tag_116\n        /* \"#utility.yul\":2743:2746   */\n      dup3\n        /* \"#utility.yul\":2734:2740   */\n      dup5\n        /* \"#utility.yul\":2672:2747   */\n      tag_81\n      jump\t// in\n    tag_116:\n        /* \"#utility.yul\":2772:2774   */\n      0x20\n        /* \"#utility.yul\":2767:2770   */\n      dup3\n        /* \"#utility.yul\":2763:2775   */\n      add\n        /* \"#utility.yul\":2756:2775   */\n      swap2\n      pop\n        /* \"#utility.yul\":2792:2795   */\n      dup2\n        /* \"#utility.yul\":2785:2795   */\n      swap1\n      pop\n        /* \"#utility.yul\":2263:2801   */\n      swap5\n      swap4\n      pop\n      pop\n      pop\n      pop\n      jump\t// out\n        /* \"#utility.yul\":2807:2987   */\n    tag_82:\n        /* \"#utility.yul\":2855:2932   */\n      0x4e487b7100000000000000000000000000000000000000000000000000000000\n        /* \"#utility.yul\":2852:2853   */\n      0x00\n        /* \"#utility.yul\":2845:2933   */\n      mstore\n        /* \"#utility.yul\":2952:2956   */\n      0x12\n        /* \"#utility.yul\":2949:2950   */\n      0x04\n        /* \"#utility.yul\":2942:2957   */\n      mstore\n        /* \"#utility.yul\":2976:2980   */\n      0x24\n        /* \"#utility.yul\":2973:2974   */\n      0x00\n        /* \"#utility.yul\":2966:2981   */\n      revert\n        /* \"#utility.yul\":2993:3169   */\n    tag_42:\n        /* \"#utility.yul\":3025:3026   */\n      0x00\n        /* \"#utility.yul\":3042:3062   */\n      tag_119\n        /* \"#utility.yul\":3060:3061   */\n      dup3\n        /* \"#utility.yul\":3042:3062   */\n      tag_71\n      jump\t// in\n    tag_119:\n        /* \"#utility.yul\":3037:3062   */\n      swap2\n      pop\n        /* \"#utility.yul\":3076:3096   */\n      tag_120\n        /* \"#utility.yul\":3094:3095   */\n      dup4\n        /* \"#utility.yul\":3076:3096   */\n      tag_71\n      jump\t// in\n    tag_120:\n        /* \"#utility.yul\":3071:3096   */\n      swap3\n      pop\n        /* \"#utility.yul\":3115:3116   */\n      dup3\n        /* \"#utility.yul\":3105:3140   */\n      tag_121\n      jumpi\n        /* \"#utility.yul\":3120:3138   */\n      tag_122\n      tag_82\n      jump\t// in\n    tag_122:\n        /* \"#utility.yul\":3105:3140   */\n    tag_121:\n        /* \"#utility.yul\":3161:3162   */\n      dup3\n        /* \"#utility.yul\":3158:3159   */\n      dup3\n        /* \"#utility.yul\":3154:3163   */\n      mod\n        /* \"#utility.yul\":3149:3163   */\n      swap1\n      pop\n        /* \"#utility.yul\":2993:3169   */\n      swap3\n      swap2\n      pop\n      pop\n      jump\t// out\n        /* \"#utility.yul\":3175:3355   */\n    tag_45:\n        /* \"#utility.yul\":3223:3300   */\n      0x4e487b7100000000000000000000000000000000000000000000000000000000\n        /* \"#utility.yul\":3220:3221   */\n      0x00\n        /* \"#utility.yul\":3213:3301   */\n      mstore\n        /* \"#utility.yul\":3320:3324   */\n      0x32\n        /* \"#utility.yul\":3317:3318   */\n      0x04\n        /* \"#utility.yul\":3310:3325   */\n      mstore\n        /* \"#utility.yul\":3344:3348   */\n      0x24\n        /* \"#utility.yul\":3341:3342   */\n      0x00\n        /* \"#utility.yul\":3334:3349   */\n      revert\n        /* \"#utility.yul\":3361:3541   */\n    tag_52:\n        /* \"#utility.yul\":3409:3486   */\n      0x4e487b7100000000000000000000000000000000000000000000000000000000\n        /* \"#utility.yul\":3406:3407   */\n      0x00\n        /* \"#utility.yul\":3399:3487   */\n      mstore\n        /* \"#utility.yul\":3506:3510   */\n      0x41\n        /* \"#utility.yul\":3503:3504   */\n      0x04\n        /* \"#utility.yul\":3496:3511   */\n      mstore\n        /* \"#utility.yul\":3530:3534   */\n      0x24\n        /* \"#utility.yul\":3527:3528   */\n      0x00\n        /* \"#utility.yul\":3520:3535   */\n      revert\n\n    auxdata: 0xa264697066735822122057bb5cd84a3d4fcf738ae1e2fb7764cbeebb2c3f6f683e859ff0af9d228d026564736f6c63430008120033\n}\n",
				"bytecode": {
					"linkReferences": {},
					"object": "608060405234801561001057600080fd5b50610839806100206000396000f3fe6080604052600436106100555760003560e01c806312065fe01461005a5780634f989520146100855780636694f1a5146100b0578063d11711a2146100ba578063d369e686146100c4578063dfbf53ae146100ef575b600080fd5b34801561006657600080fd5b5061006f61011a565b60405161007c91906105c7565b60405180910390f35b34801561009157600080fd5b5061009a61017c565b6040516100a79190610623565b60405180910390f35b6100b86101a2565b005b6100c26103d2565b005b3480156100d057600080fd5b506100d961044b565b6040516100e691906105c7565b60405180910390f35b3480156100fb57600080fd5b506101046104e1565b604051610111919061065f565b60405180910390f35b6000600260009054906101000a900473ffffffffffffffffffffffffffffffffffffffff1673ffffffffffffffffffffffffffffffffffffffff163373ffffffffffffffffffffffffffffffffffffffff161461017657600080fd5b47905090565b600260009054906101000a900473ffffffffffffffffffffffffffffffffffffffff1681565b600260009054906101000a900473ffffffffffffffffffffffffffffffffffffffff1673ffffffffffffffffffffffffffffffffffffffff163373ffffffffffffffffffffffffffffffffffffffff16146101fc57600080fd5b600060014361020b91906106a9565b409050600060024361021d91906106a9565b409050600060034361022f91906106a9565b409050600083838360405160200161024993929190610708565b6040516020818303038152906040528051906020012060001c9050600080549050816102759190610774565b600381905550600060035481548110610291576102906107a5565b5b9060005260206000200160009054906101000a900473ffffffffffffffffffffffffffffffffffffffff16600160006101000a81548173ffffffffffffffffffffffffffffffffffffffff021916908373ffffffffffffffffffffffffffffffffffffffff160217905550600160009054906101000a900473ffffffffffffffffffffffffffffffffffffffff1673ffffffffffffffffffffffffffffffffffffffff166108fc61034061011a565b9081150290604051600060405180830381858888f1935050505015801561036b573d6000803e3d6000fd5b50600067ffffffffffffffff811115610387576103866107d4565b5b6040519080825280602002602001820160405280156103b55781602001602082028036833780820191505090505b50600090805190602001906103cb929190610507565b5050505050565b6729a2241af62c000034146103e657600080fd5b6000339080600181540180825580915050600190039060005260206000200160009091909190916101000a81548173ffffffffffffffffffffffffffffffffffffffff021916908373ffffffffffffffffffffffffffffffffffffffff160217905550565b60008060035481548110610462576104616107a5565b5b9060005260206000200160009054906101000a900473ffffffffffffffffffffffffffffffffffffffff1673ffffffffffffffffffffffffffffffffffffffff163373ffffffffffffffffffffffffffffffffffffffff16146104c457600080fd5b3373ffffffffffffffffffffffffffffffffffffffff1631905090565b600160009054906101000a900473ffffffffffffffffffffffffffffffffffffffff1681565b828054828255906000526020600020908101928215610580579160200282015b8281111561057f5782518260006101000a81548173ffffffffffffffffffffffffffffffffffffffff021916908373ffffffffffffffffffffffffffffffffffffffff16021790555091602001919060010190610527565b5b50905061058d9190610591565b5090565b5b808211156105aa576000816000905550600101610592565b5090565b6000819050919050565b6105c1816105ae565b82525050565b60006020820190506105dc60008301846105b8565b92915050565b600073ffffffffffffffffffffffffffffffffffffffff82169050919050565b600061060d826105e2565b9050919050565b61061d81610602565b82525050565b60006020820190506106386000830184610614565b92915050565b6000610649826105e2565b9050919050565b6106598161063e565b82525050565b60006020820190506106746000830184610650565b92915050565b7f4e487b7100000000000000000000000000000000000000000000000000000000600052601160045260246000fd5b60006106b4826105ae565b91506106bf836105ae565b92508282039050818111156106d7576106d661067a565b5b92915050565b6000819050919050565b6000819050919050565b6107026106fd826106dd565b6106e7565b82525050565b600061071482866106f1565b60208201915061072482856106f1565b60208201915061073482846106f1565b602082019150819050949350505050565b7f4e487b7100000000000000000000000000000000000000000000000000000000600052601260045260246000fd5b600061077f826105ae565b915061078a836105ae565b92508261079a57610799610745565b5b828206905092915050565b7f4e487b7100000000000000000000000000000000000000000000000000000000600052603260045260246000fd5b7f4e487b7100000000000000000000000000000000000000000000000000000000600052604160045260246000fdfea264697066735822122057bb5cd84a3d4fcf738ae1e2fb7764cbeebb2c3f6f683e859ff0af9d228d026564736f6c63430008120033",
					"opcodes": "PUSH1 0x80 PUSH1 0x40 MSTORE CALLVALUE DUP1 ISZERO PUSH2 0x10 JUMPI PUSH1 0x0 DUP1 REVERT JUMPDEST POP PUSH2 0x839 DUP1 PUSH2 0x20 PUSH1 0x0 CODECOPY PUSH1 0x0 RETURN INVALID PUSH1 0x80 PUSH1 0x40 MSTORE PUSH1 0x4 CALLDATASIZE LT PUSH2 0x55 JUMPI PUSH1 0x0 CALLDATALOAD PUSH1 0xE0 SHR DUP1 PUSH4 0x12065FE0 EQ PUSH2 0x5A JUMPI DUP1 PUSH4 0x4F989520 EQ PUSH2 0x85 JUMPI DUP1 PUSH4 0x6694F1A5 EQ PUSH2 0xB0 JUMPI DUP1 PUSH4 0xD11711A2 EQ PUSH2 0xBA JUMPI DUP1 PUSH4 0xD369E686 EQ PUSH2 0xC4 JUMPI DUP1 PUSH4 0xDFBF53AE EQ PUSH2 0xEF JUMPI JUMPDEST PUSH1 0x0 DUP1 REVERT JUMPDEST CALLVALUE DUP1 ISZERO PUSH2 0x66 JUMPI PUSH1 0x0 DUP1 REVERT JUMPDEST POP PUSH2 0x6F PUSH2 0x11A JUMP JUMPDEST PUSH1 0x40 MLOAD PUSH2 0x7C SWAP2 SWAP1 PUSH2 0x5C7 JUMP JUMPDEST PUSH1 0x40 MLOAD DUP1 SWAP2 SUB SWAP1 RETURN JUMPDEST CALLVALUE DUP1 ISZERO PUSH2 0x91 JUMPI PUSH1 0x0 DUP1 REVERT JUMPDEST POP PUSH2 0x9A PUSH2 0x17C JUMP JUMPDEST PUSH1 0x40 MLOAD PUSH2 0xA7 SWAP2 SWAP1 PUSH2 0x623 JUMP JUMPDEST PUSH1 0x40 MLOAD DUP1 SWAP2 SUB SWAP1 RETURN JUMPDEST PUSH2 0xB8 PUSH2 0x1A2 JUMP JUMPDEST STOP JUMPDEST PUSH2 0xC2 PUSH2 0x3D2 JUMP JUMPDEST STOP JUMPDEST CALLVALUE DUP1 ISZERO PUSH2 0xD0 JUMPI PUSH1 0x0 DUP1 REVERT JUMPDEST POP PUSH2 0xD9 PUSH2 0x44B JUMP JUMPDEST PUSH1 0x40 MLOAD PUSH2 0xE6 SWAP2 SWAP1 PUSH2 0x5C7 JUMP JUMPDEST PUSH1 0x40 MLOAD DUP1 SWAP2 SUB SWAP1 RETURN JUMPDEST CALLVALUE DUP1 ISZERO PUSH2 0xFB JUMPI PUSH1 0x0 DUP1 REVERT JUMPDEST POP PUSH2 0x104 PUSH2 0x4E1 JUMP JUMPDEST PUSH1 0x40 MLOAD PUSH2 0x111 SWAP2 SWAP1 PUSH2 0x65F JUMP JUMPDEST PUSH1 0x40 MLOAD DUP1 SWAP2 SUB SWAP1 RETURN JUMPDEST PUSH1 0x0 PUSH1 0x2 PUSH1 0x0 SWAP1 SLOAD SWAP1 PUSH2 0x100 EXP SWAP1 DIV PUSH20 0xFFFFFFFFFFFFFFFFFFFFFFFFFFFFFFFFFFFFFFFF AND PUSH20 0xFFFFFFFFFFFFFFFFFFFFFFFFFFFFFFFFFFFFFFFF AND CALLER PUSH20 0xFFFFFFFFFFFFFFFFFFFFFFFFFFFFFFFFFFFFFFFF AND EQ PUSH2 0x176 JUMPI PUSH1 0x0 DUP1 REVERT JUMPDEST SELFBALANCE SWAP1 POP SWAP1 JUMP JUMPDEST PUSH1 0x2 PUSH1 0x0 SWAP1 SLOAD SWAP1 PUSH2 0x100 EXP SWAP1 DIV PUSH20 0xFFFFFFFFFFFFFFFFFFFFFFFFFFFFFFFFFFFFFFFF AND DUP2 JUMP JUMPDEST PUSH1 0x2 PUSH1 0x0 SWAP1 SLOAD SWAP1 PUSH2 0x100 EXP SWAP1 DIV PUSH20 0xFFFFFFFFFFFFFFFFFFFFFFFFFFFFFFFFFFFFFFFF AND PUSH20 0xFFFFFFFFFFFFFFFFFFFFFFFFFFFFFFFFFFFFFFFF AND CALLER PUSH20 0xFFFFFFFFFFFFFFFFFFFFFFFFFFFFFFFFFFFFFFFF AND EQ PUSH2 0x1FC JUMPI PUSH1 0x0 DUP1 REVERT JUMPDEST PUSH1 0x0 PUSH1 0x1 NUMBER PUSH2 0x20B SWAP2 SWAP1 PUSH2 0x6A9 JUMP JUMPDEST BLOCKHASH SWAP1 POP PUSH1 0x0 PUSH1 0x2 NUMBER PUSH2 0x21D SWAP2 SWAP1 PUSH2 0x6A9 JUMP JUMPDEST BLOCKHASH SWAP1 POP PUSH1 0x0 PUSH1 0x3 NUMBER PUSH2 0x22F SWAP2 SWAP1 PUSH2 0x6A9 JUMP JUMPDEST BLOCKHASH SWAP1 POP PUSH1 0x0 DUP4 DUP4 DUP4 PUSH1 0x40 MLOAD PUSH1 0x20 ADD PUSH2 0x249 SWAP4 SWAP3 SWAP2 SWAP1 PUSH2 0x708 JUMP JUMPDEST PUSH1 0x40 MLOAD PUSH1 0x20 DUP2 DUP4 SUB SUB DUP2 MSTORE SWAP1 PUSH1 0x40 MSTORE DUP1 MLOAD SWAP1 PUSH1 0x20 ADD KECCAK256 PUSH1 0x0 SHR SWAP1 POP PUSH1 0x0 DUP1 SLOAD SWAP1 POP DUP2 PUSH2 0x275 SWAP2 SWAP1 PUSH2 0x774 JUMP JUMPDEST PUSH1 0x3 DUP2 SWAP1 SSTORE POP PUSH1 0x0 PUSH1 0x3 SLOAD DUP2 SLOAD DUP2 LT PUSH2 0x291 JUMPI PUSH2 0x290 PUSH2 0x7A5 JUMP JUMPDEST JUMPDEST SWAP1 PUSH1 0x0 MSTORE PUSH1 0x20 PUSH1 0x0 KECCAK256 ADD PUSH1 0x0 SWAP1 SLOAD SWAP1 PUSH2 0x100 EXP SWAP1 DIV PUSH20 0xFFFFFFFFFFFFFFFFFFFFFFFFFFFFFFFFFFFFFFFF AND PUSH1 0x1 PUSH1 0x0 PUSH2 0x100 EXP DUP2 SLOAD DUP2 PUSH20 0xFFFFFFFFFFFFFFFFFFFFFFFFFFFFFFFFFFFFFFFF MUL NOT AND SWAP1 DUP4 PUSH20 0xFFFFFFFFFFFFFFFFFFFFFFFFFFFFFFFFFFFFFFFF AND MUL OR SWAP1 SSTORE POP PUSH1 0x1 PUSH1 0x0 SWAP1 SLOAD SWAP1 PUSH2 0x100 EXP SWAP1 DIV PUSH20 0xFFFFFFFFFFFFFFFFFFFFFFFFFFFFFFFFFFFFFFFF AND PUSH20 0xFFFFFFFFFFFFFFFFFFFFFFFFFFFFFFFFFFFFFFFF AND PUSH2 0x8FC PUSH2 0x340 PUSH2 0x11A JUMP JUMPDEST SWAP1 DUP2 ISZERO MUL SWAP1 PUSH1 0x40 MLOAD PUSH1 0x0 PUSH1 0x40 MLOAD DUP1 DUP4 SUB DUP2 DUP6 DUP9 DUP9 CALL SWAP4 POP POP POP POP ISZERO DUP1 ISZERO PUSH2 0x36B JUMPI RETURNDATASIZE PUSH1 0x0 DUP1 RETURNDATACOPY RETURNDATASIZE PUSH1 0x0 REVERT JUMPDEST POP PUSH1 0x0 PUSH8 0xFFFFFFFFFFFFFFFF DUP2 GT ISZERO PUSH2 0x387 JUMPI PUSH2 0x386 PUSH2 0x7D4 JUMP JUMPDEST JUMPDEST PUSH1 0x40 MLOAD SWAP1 DUP1 DUP3 MSTORE DUP1 PUSH1 0x20 MUL PUSH1 0x20 ADD DUP3 ADD PUSH1 0x40 MSTORE DUP1 ISZERO PUSH2 0x3B5 JUMPI DUP2 PUSH1 0x20 ADD PUSH1 0x20 DUP3 MUL DUP1 CALLDATASIZE DUP4 CALLDATACOPY DUP1 DUP3 ADD SWAP2 POP POP SWAP1 POP JUMPDEST POP PUSH1 0x0 SWAP1 DUP1 MLOAD SWAP1 PUSH1 0x20 ADD SWAP1 PUSH2 0x3CB SWAP3 SWAP2 SWAP1 PUSH2 0x507 JUMP JUMPDEST POP POP POP POP POP JUMP JUMPDEST PUSH8 0x29A2241AF62C0000 CALLVALUE EQ PUSH2 0x3E6 JUMPI PUSH1 0x0 DUP1 REVERT JUMPDEST PUSH1 0x0 CALLER SWAP1 DUP1 PUSH1 0x1 DUP2 SLOAD ADD DUP1 DUP3 SSTORE DUP1 SWAP2 POP POP PUSH1 0x1 SWAP1 SUB SWAP1 PUSH1 0x0 MSTORE PUSH1 0x20 PUSH1 0x0 KECCAK256 ADD PUSH1 0x0 SWAP1 SWAP2 SWAP1 SWAP2 SWAP1 SWAP2 PUSH2 0x100 EXP DUP2 SLOAD DUP2 PUSH20 0xFFFFFFFFFFFFFFFFFFFFFFFFFFFFFFFFFFFFFFFF MUL NOT AND SWAP1 DUP4 PUSH20 0xFFFFFFFFFFFFFFFFFFFFFFFFFFFFFFFFFFFFFFFF AND MUL OR SWAP1 SSTORE POP JUMP JUMPDEST PUSH1 0x0 DUP1 PUSH1 0x3 SLOAD DUP2 SLOAD DUP2 LT PUSH2 0x462 JUMPI PUSH2 0x461 PUSH2 0x7A5 JUMP JUMPDEST JUMPDEST SWAP1 PUSH1 0x0 MSTORE PUSH1 0x20 PUSH1 0x0 KECCAK256 ADD PUSH1 0x0 SWAP1 SLOAD SWAP1 PUSH2 0x100 EXP SWAP1 DIV PUSH20 0xFFFFFFFFFFFFFFFFFFFFFFFFFFFFFFFFFFFFFFFF AND PUSH20 0xFFFFFFFFFFFFFFFFFFFFFFFFFFFFFFFFFFFFFFFF AND CALLER PUSH20 0xFFFFFFFFFFFFFFFFFFFFFFFFFFFFFFFFFFFFFFFF AND EQ PUSH2 0x4C4 JUMPI PUSH1 0x0 DUP1 REVERT JUMPDEST CALLER PUSH20 0xFFFFFFFFFFFFFFFFFFFFFFFFFFFFFFFFFFFFFFFF AND BALANCE SWAP1 POP SWAP1 JUMP JUMPDEST PUSH1 0x1 PUSH1 0x0 SWAP1 SLOAD SWAP1 PUSH2 0x100 EXP SWAP1 DIV PUSH20 0xFFFFFFFFFFFFFFFFFFFFFFFFFFFFFFFFFFFFFFFF AND DUP2 JUMP JUMPDEST DUP3 DUP1 SLOAD DUP3 DUP3 SSTORE SWAP1 PUSH1 0x0 MSTORE PUSH1 0x20 PUSH1 0x0 KECCAK256 SWAP1 DUP2 ADD SWAP3 DUP3 ISZERO PUSH2 0x580 JUMPI SWAP2 PUSH1 0x20 MUL DUP3 ADD JUMPDEST DUP3 DUP2 GT ISZERO PUSH2 0x57F JUMPI DUP3 MLOAD DUP3 PUSH1 0x0 PUSH2 0x100 EXP DUP2 SLOAD DUP2 PUSH20 0xFFFFFFFFFFFFFFFFFFFFFFFFFFFFFFFFFFFFFFFF MUL NOT AND SWAP1 DUP4 PUSH20 0xFFFFFFFFFFFFFFFFFFFFFFFFFFFFFFFFFFFFFFFF AND MUL OR SWAP1 SSTORE POP SWAP2 PUSH1 0x20 ADD SWAP2 SWAP1 PUSH1 0x1 ADD SWAP1 PUSH2 0x527 JUMP JUMPDEST JUMPDEST POP SWAP1 POP PUSH2 0x58D SWAP2 SWAP1 PUSH2 0x591 JUMP JUMPDEST POP SWAP1 JUMP JUMPDEST JUMPDEST DUP1 DUP3 GT ISZERO PUSH2 0x5AA JUMPI PUSH1 0x0 DUP2 PUSH1 0x0 SWAP1 SSTORE POP PUSH1 0x1 ADD PUSH2 0x592 JUMP JUMPDEST POP SWAP1 JUMP JUMPDEST PUSH1 0x0 DUP2 SWAP1 POP SWAP2 SWAP1 POP JUMP JUMPDEST PUSH2 0x5C1 DUP2 PUSH2 0x5AE JUMP JUMPDEST DUP3 MSTORE POP POP JUMP JUMPDEST PUSH1 0x0 PUSH1 0x20 DUP3 ADD SWAP1 POP PUSH2 0x5DC PUSH1 0x0 DUP4 ADD DUP5 PUSH2 0x5B8 JUMP JUMPDEST SWAP3 SWAP2 POP POP JUMP JUMPDEST PUSH1 0x0 PUSH20 0xFFFFFFFFFFFFFFFFFFFFFFFFFFFFFFFFFFFFFFFF DUP3 AND SWAP1 POP SWAP2 SWAP1 POP JUMP JUMPDEST PUSH1 0x0 PUSH2 0x60D DUP3 PUSH2 0x5E2 JUMP JUMPDEST SWAP1 POP SWAP2 SWAP1 POP JUMP JUMPDEST PUSH2 0x61D DUP2 PUSH2 0x602 JUMP JUMPDEST DUP3 MSTORE POP POP JUMP JUMPDEST PUSH1 0x0 PUSH1 0x20 DUP3 ADD SWAP1 POP PUSH2 0x638 PUSH1 0x0 DUP4 ADD DUP5 PUSH2 0x614 JUMP JUMPDEST SWAP3 SWAP2 POP POP JUMP JUMPDEST PUSH1 0x0 PUSH2 0x649 DUP3 PUSH2 0x5E2 JUMP JUMPDEST SWAP1 POP SWAP2 SWAP1 POP JUMP JUMPDEST PUSH2 0x659 DUP2 PUSH2 0x63E JUMP JUMPDEST DUP3 MSTORE POP POP JUMP JUMPDEST PUSH1 0x0 PUSH1 0x20 DUP3 ADD SWAP1 POP PUSH2 0x674 PUSH1 0x0 DUP4 ADD DUP5 PUSH2 0x650 JUMP JUMPDEST SWAP3 SWAP2 POP POP JUMP JUMPDEST PUSH32 0x4E487B7100000000000000000000000000000000000000000000000000000000 PUSH1 0x0 MSTORE PUSH1 0x11 PUSH1 0x4 MSTORE PUSH1 0x24 PUSH1 0x0 REVERT JUMPDEST PUSH1 0x0 PUSH2 0x6B4 DUP3 PUSH2 0x5AE JUMP JUMPDEST SWAP2 POP PUSH2 0x6BF DUP4 PUSH2 0x5AE JUMP JUMPDEST SWAP3 POP DUP3 DUP3 SUB SWAP1 POP DUP2 DUP2 GT ISZERO PUSH2 0x6D7 JUMPI PUSH2 0x6D6 PUSH2 0x67A JUMP JUMPDEST JUMPDEST SWAP3 SWAP2 POP POP JUMP JUMPDEST PUSH1 0x0 DUP2 SWAP1 POP SWAP2 SWAP1 POP JUMP JUMPDEST PUSH1 0x0 DUP2 SWAP1 POP SWAP2 SWAP1 POP JUMP JUMPDEST PUSH2 0x702 PUSH2 0x6FD DUP3 PUSH2 0x6DD JUMP JUMPDEST PUSH2 0x6E7 JUMP JUMPDEST DUP3 MSTORE POP POP JUMP JUMPDEST PUSH1 0x0 PUSH2 0x714 DUP3 DUP7 PUSH2 0x6F1 JUMP JUMPDEST PUSH1 0x20 DUP3 ADD SWAP2 POP PUSH2 0x724 DUP3 DUP6 PUSH2 0x6F1 JUMP JUMPDEST PUSH1 0x20 DUP3 ADD SWAP2 POP PUSH2 0x734 DUP3 DUP5 PUSH2 0x6F1 JUMP JUMPDEST PUSH1 0x20 DUP3 ADD SWAP2 POP DUP2 SWAP1 POP SWAP5 SWAP4 POP POP POP POP JUMP JUMPDEST PUSH32 0x4E487B7100000000000000000000000000000000000000000000000000000000 PUSH1 0x0 MSTORE PUSH1 0x12 PUSH1 0x4 MSTORE PUSH1 0x24 PUSH1 0x0 REVERT JUMPDEST PUSH1 0x0 PUSH2 0x77F DUP3 PUSH2 0x5AE JUMP JUMPDEST SWAP2 POP PUSH2 0x78A DUP4 PUSH2 0x5AE JUMP JUMPDEST SWAP3 POP DUP3 PUSH2 0x79A JUMPI PUSH2 0x799 PUSH2 0x745 JUMP JUMPDEST JUMPDEST DUP3 DUP3 MOD SWAP1 POP SWAP3 SWAP2 POP POP JUMP JUMPDEST PUSH32 0x4E487B7100000000000000000000000000000000000000000000000000000000 PUSH1 0x0 MSTORE PUSH1 0x32 PUSH1 0x4 MSTORE PUSH1 0x24 PUSH1 0x0 REVERT JUMPDEST PUSH32 0x4E487B7100000000000000000000000000000000000000000000000000000000 PUSH1 0x0 MSTORE PUSH1 0x41 PUSH1 0x4 MSTORE PUSH1 0x24 PUSH1 0x0 REVERT INVALID LOG2 PUSH5 0x6970667358 0x22 SLT KECCAK256 JUMPI 0xBB 0x5C 0xD8 0x4A RETURNDATASIZE 0x4F 0xCF PUSH20 0x8AE1E2FB7764CBEEBB2C3F6F683E859FF0AF9D22 DUP14 MUL PUSH6 0x64736F6C6343 STOP ADDMOD SLT STOP CALLER "
				},
				"gasEstimates": {
					"creation": {
						"codeDepositCost": "421000",
						"executionCost": "455",
						"totalCost": "421455"
					},
					"external": {
						"getBalance()": "2487",
						"getRandomWinner()": "infinite",
						"getWinnerBalance()": "9458",
						"lotteryManager()": "2514",
						"participate()": "48764",
						"winner()": "2602"
					}
				},
				"methodIdentifiers": {
					"getBalance()": "12065fe0",
					"getRandomWinner()": "6694f1a5",
					"getWinnerBalance()": "d369e686",
					"lotteryManager()": "4f989520",
					"participate()": "d11711a2",
					"winner()": "dfbf53ae"
				}
			},
			"storageLayout": {
				"storage": [
					{
						"astId": 4,
						"contract": "contracts/LotteryWinner.sol:Lottery",
						"label": "participant",
						"offset": 0,
						"slot": "0",
						"type": "t_array(t_address_payable)dyn_storage"
					},
					{
						"astId": 6,
						"contract": "contracts/LotteryWinner.sol:Lottery",
						"label": "winner",
						"offset": 0,
						"slot": "1",
						"type": "t_address_payable"
					},
					{
						"astId": 8,
						"contract": "contracts/LotteryWinner.sol:Lottery",
						"label": "lotteryManager",
						"offset": 0,
						"slot": "2",
						"type": "t_address"
					},
					{
						"astId": 10,
						"contract": "contracts/LotteryWinner.sol:Lottery",
						"label": "number",
						"offset": 0,
						"slot": "3",
						"type": "t_uint256"
					}
				],
				"types": {
					"t_address": {
						"encoding": "inplace",
						"label": "address",
						"numberOfBytes": "20"
					},
					"t_address_payable": {
						"encoding": "inplace",
						"label": "address payable",
						"numberOfBytes": "20"
					},
					"t_array(t_address_payable)dyn_storage": {
						"base": "t_address_payable",
						"encoding": "dynamic_array",
						"label": "address payable[]",
						"numberOfBytes": "32"
					},
					"t_uint256": {
						"encoding": "inplace",
						"label": "uint256",
						"numberOfBytes": "32"
					}
				}
			},
			"userdoc": {
				"kind": "user",
				"methods": {},
				"version": 1
			}
		}
	}
}