{
	"contracts/LotteryWinnerDemo.sol": {
		"Lottery": {
			"abi": [
				{
					"inputs": [],
					"name": "_1setLotteryAccount",
					"outputs": [],
					"stateMutability": "nonpayable",
					"type": "function"
				},
				{
					"inputs": [],
					"name": "_2setManagerAccount",
					"outputs": [],
					"stateMutability": "nonpayable",
					"type": "function"
				},
				{
					"inputs": [],
					"name": "_3participate",
					"outputs": [
						{
							"internalType": "address",
							"name": "participated",
							"type": "address"
						}
					],
					"stateMutability": "nonpayable",
					"type": "function"
				},
				{
					"inputs": [
						{
							"internalType": "uint256",
							"name": "",
							"type": "uint256"
						}
					],
					"name": "_4payLotteryFee",
					"outputs": [],
					"stateMutability": "payable",
					"type": "function"
				},
				{
					"inputs": [],
					"name": "_5getBalance",
					"outputs": [
						{
							"internalType": "uint256",
							"name": "",
							"type": "uint256"
						}
					],
					"stateMutability": "view",
					"type": "function"
				},
				{
					"inputs": [],
					"name": "_6getRandomWinner",
					"outputs": [],
					"stateMutability": "payable",
					"type": "function"
				},
				{
					"inputs": [],
					"name": "_7getWinnerBalance",
					"outputs": [
						{
							"internalType": "uint256",
							"name": "",
							"type": "uint256"
						}
					],
					"stateMutability": "view",
					"type": "function"
				},
				{
					"inputs": [],
					"name": "lotteryManager",
					"outputs": [
						{
							"internalType": "address",
							"name": "",
							"type": "address"
						}
					],
					"stateMutability": "view",
					"type": "function"
				},
				{
					"inputs": [],
					"name": "winner",
					"outputs": [
						{
							"internalType": "address payable",
							"name": "",
							"type": "address"
						}
					],
					"stateMutability": "view",
					"type": "function"
				}
			],
			"devdoc": {
				"kind": "dev",
				"methods": {},
				"version": 1
			},
			"evm": {
				"assembly": "    /* \"contracts/LotteryWinnerDemo.sol\":89:1829  contract Lottery {... */\n  mstore(0x40, 0x80)\n  callvalue\n  dup1\n  iszero\n  tag_1\n  jumpi\n  0x00\n  dup1\n  revert\ntag_1:\n  pop\n  dataSize(sub_0)\n  dup1\n  dataOffset(sub_0)\n  0x00\n  codecopy\n  0x00\n  return\nstop\n\nsub_0: assembly {\n        /* \"contracts/LotteryWinnerDemo.sol\":89:1829  contract Lottery {... */\n      mstore(0x40, 0x80)\n      jumpi(tag_1, lt(calldatasize, 0x04))\n      shr(0xe0, calldataload(0x00))\n      dup1\n      0x76cb699f\n      gt\n      tag_11\n      jumpi\n      dup1\n      0x76cb699f\n      eq\n      tag_6\n      jumpi\n      dup1\n      0xaa007e52\n      eq\n      tag_7\n      jumpi\n      dup1\n      0xdfbf53ae\n      eq\n      tag_8\n      jumpi\n      dup1\n      0xeef0c4d9\n      eq\n      tag_9\n      jumpi\n      dup1\n      0xfcc185b1\n      eq\n      tag_10\n      jumpi\n      jump(tag_1)\n    tag_11:\n      dup1\n      0x36bbf3\n      eq\n      tag_2\n      jumpi\n      dup1\n      0x23399a0b\n      eq\n      tag_3\n      jumpi\n      dup1\n      0x368e1bb6\n      eq\n      tag_4\n      jumpi\n      dup1\n      0x4f989520\n      eq\n      tag_5\n      jumpi\n    tag_1:\n      0x00\n      dup1\n      revert\n        /* \"contracts/LotteryWinnerDemo.sol\":718:863  function _4payLotteryFee(uint) public payable {... */\n    tag_2:\n      tag_12\n      0x04\n      dup1\n      calldatasize\n      sub\n      dup2\n      add\n      swap1\n      tag_13\n      swap2\n      swap1\n      tag_14\n      jump\t// in\n    tag_13:\n      tag_15\n      jump\t// in\n    tag_12:\n      stop\n        /* \"contracts/LotteryWinnerDemo.sol\":1673:1827  function _7getWinnerBalance() public view returns (uint256) {... */\n    tag_3:\n      callvalue\n      dup1\n      iszero\n      tag_16\n      jumpi\n      0x00\n      dup1\n      revert\n    tag_16:\n      pop\n      tag_17\n      tag_18\n      jump\t// in\n    tag_17:\n      mload(0x40)\n      tag_19\n      swap2\n      swap1\n      tag_20\n      jump\t// in\n    tag_19:\n      mload(0x40)\n      dup1\n      swap2\n      sub\n      swap1\n      return\n        /* \"contracts/LotteryWinnerDemo.sol\":308:398  function _1setLotteryAccount() public {... */\n    tag_4:\n      callvalue\n      dup1\n      iszero\n      tag_21\n      jumpi\n      0x00\n      dup1\n      revert\n    tag_21:\n      pop\n      tag_22\n      tag_23\n      jump\t// in\n    tag_22:\n      stop\n        /* \"contracts/LotteryWinnerDemo.sol\":174:203  address public lotteryManager */\n    tag_5:\n      callvalue\n      dup1\n      iszero\n      tag_24\n      jumpi\n      0x00\n      dup1\n      revert\n    tag_24:\n      pop\n      tag_25\n      tag_26\n      jump\t// in\n    tag_25:\n      mload(0x40)\n      tag_27\n      swap2\n      swap1\n      tag_28\n      jump\t// in\n    tag_27:\n      mload(0x40)\n      dup1\n      swap2\n      sub\n      swap1\n      return\n        /* \"contracts/LotteryWinnerDemo.sol\":904:1056  function _5getBalance() public view returns (uint) {... */\n    tag_6:\n      callvalue\n      dup1\n      iszero\n      tag_29\n      jumpi\n      0x00\n      dup1\n      revert\n    tag_29:\n      pop\n      tag_30\n      tag_31\n      jump\t// in\n    tag_30:\n      mload(0x40)\n      tag_32\n      swap2\n      swap1\n      tag_20\n      jump\t// in\n    tag_32:\n      mload(0x40)\n      dup1\n      swap2\n      sub\n      swap1\n      return\n        /* \"contracts/LotteryWinnerDemo.sol\":1086:1642  function _6getRandomWinner() public payable {... */\n    tag_7:\n      tag_33\n      tag_34\n      jump\t// in\n    tag_33:\n      stop\n        /* \"contracts/LotteryWinnerDemo.sol\":139:168  address payable public winner */\n    tag_8:\n      callvalue\n      dup1\n      iszero\n      tag_35\n      jumpi\n      0x00\n      dup1\n      revert\n    tag_35:\n      pop\n      tag_36\n      tag_37\n      jump\t// in\n    tag_36:\n      mload(0x40)\n      tag_38\n      swap2\n      swap1\n      tag_39\n      jump\t// in\n    tag_38:\n      mload(0x40)\n      dup1\n      swap2\n      sub\n      swap1\n      return\n        /* \"contracts/LotteryWinnerDemo.sol\":433:523  function _2setManagerAccount() public {... */\n    tag_9:\n      callvalue\n      dup1\n      iszero\n      tag_40\n      jumpi\n      0x00\n      dup1\n      revert\n    tag_40:\n      pop\n      tag_41\n      tag_42\n      jump\t// in\n    tag_41:\n      stop\n        /* \"contracts/LotteryWinnerDemo.sol\":547:691  function _3participate() public returns(address participated ) {... */\n    tag_10:\n      callvalue\n      dup1\n      iszero\n      tag_43\n      jumpi\n      0x00\n      dup1\n      revert\n    tag_43:\n      pop\n      tag_44\n      tag_45\n      jump\t// in\n    tag_44:\n      mload(0x40)\n      tag_46\n      swap2\n      swap1\n      tag_28\n      jump\t// in\n    tag_46:\n      mload(0x40)\n      dup1\n      swap2\n      sub\n      swap1\n      return\n        /* \"contracts/LotteryWinnerDemo.sol\":718:863  function _4payLotteryFee(uint) public payable {... */\n    tag_15:\n        /* \"contracts/LotteryWinnerDemo.sol\":800:810  msg.sender */\n      caller\n        /* \"contracts/LotteryWinnerDemo.sol\":783:810  _3participate()==msg.sender */\n      0xffffffffffffffffffffffffffffffffffffffff\n      and\n        /* \"contracts/LotteryWinnerDemo.sol\":783:798  _3participate() */\n      tag_48\n        /* \"contracts/LotteryWinnerDemo.sol\":783:796  _3participate */\n      tag_45\n        /* \"contracts/LotteryWinnerDemo.sol\":783:798  _3participate() */\n      jump\t// in\n    tag_48:\n        /* \"contracts/LotteryWinnerDemo.sol\":783:810  _3participate()==msg.sender */\n      0xffffffffffffffffffffffffffffffffffffffff\n      and\n      eq\n        /* \"contracts/LotteryWinnerDemo.sol\":775:811  require(_3participate()==msg.sender) */\n      tag_49\n      jumpi\n      0x00\n      dup1\n      revert\n    tag_49:\n        /* \"contracts/LotteryWinnerDemo.sol\":823:836  lotterAccount */\n      0x03\n      0x00\n      swap1\n      sload\n      swap1\n      0x0100\n      exp\n      swap1\n      div\n      0xffffffffffffffffffffffffffffffffffffffff\n      and\n        /* \"contracts/LotteryWinnerDemo.sol\":823:845  lotterAccount.transfer */\n      0xffffffffffffffffffffffffffffffffffffffff\n      and\n        /* \"contracts/LotteryWinnerDemo.sol\":823:856  lotterAccount.transfer(msg.value) */\n      0x08fc\n        /* \"contracts/LotteryWinnerDemo.sol\":846:855  msg.value */\n      callvalue\n        /* \"contracts/LotteryWinnerDemo.sol\":823:856  lotterAccount.transfer(msg.value) */\n      swap1\n      dup2\n      iszero\n      mul\n      swap1\n      mload(0x40)\n      0x00\n      mload(0x40)\n      dup1\n      dup4\n      sub\n      dup2\n      dup6\n      dup9\n      dup9\n      call\n      swap4\n      pop\n      pop\n      pop\n      pop\n      iszero\n      dup1\n      iszero\n      tag_51\n      jumpi\n      returndatasize\n      0x00\n      dup1\n      returndatacopy\n      revert(0x00, returndatasize)\n    tag_51:\n      pop\n        /* \"contracts/LotteryWinnerDemo.sol\":718:863  function _4payLotteryFee(uint) public payable {... */\n      pop\n      jump\t// out\n        /* \"contracts/LotteryWinnerDemo.sol\":1673:1827  function _7getWinnerBalance() public view returns (uint256) {... */\n    tag_18:\n        /* \"contracts/LotteryWinnerDemo.sol\":1724:1731  uint256 */\n      0x00\n        /* \"contracts/LotteryWinnerDemo.sol\":1765:1776  participant */\n      dup1\n        /* \"contracts/LotteryWinnerDemo.sol\":1777:1783  number */\n      sload(0x04)\n        /* \"contracts/LotteryWinnerDemo.sol\":1765:1784  participant[number] */\n      dup2\n      sload\n      dup2\n      lt\n      tag_53\n      jumpi\n      tag_54\n      tag_55\n      jump\t// in\n    tag_54:\n    tag_53:\n      swap1\n      0x00\n      mstore\n      keccak256(0x00, 0x20)\n      add\n      0x00\n      swap1\n      sload\n      swap1\n      0x0100\n      exp\n      swap1\n      div\n      0xffffffffffffffffffffffffffffffffffffffff\n      and\n        /* \"contracts/LotteryWinnerDemo.sol\":1751:1784  msg.sender == participant[number] */\n      0xffffffffffffffffffffffffffffffffffffffff\n      and\n        /* \"contracts/LotteryWinnerDemo.sol\":1751:1761  msg.sender */\n      caller\n        /* \"contracts/LotteryWinnerDemo.sol\":1751:1784  msg.sender == participant[number] */\n      0xffffffffffffffffffffffffffffffffffffffff\n      and\n      eq\n        /* \"contracts/LotteryWinnerDemo.sol\":1743:1785  require(msg.sender == participant[number]) */\n      tag_57\n      jumpi\n      0x00\n      dup1\n      revert\n    tag_57:\n        /* \"contracts/LotteryWinnerDemo.sol\":1802:1812  msg.sender */\n      caller\n        /* \"contracts/LotteryWinnerDemo.sol\":1802:1820  msg.sender.balance */\n      0xffffffffffffffffffffffffffffffffffffffff\n      and\n      balance\n        /* \"contracts/LotteryWinnerDemo.sol\":1795:1820  return msg.sender.balance */\n      swap1\n      pop\n        /* \"contracts/LotteryWinnerDemo.sol\":1673:1827  function _7getWinnerBalance() public view returns (uint256) {... */\n      swap1\n      jump\t// out\n        /* \"contracts/LotteryWinnerDemo.sol\":308:398  function _1setLotteryAccount() public {... */\n    tag_23:\n        /* \"contracts/LotteryWinnerDemo.sol\":380:390  msg.sender */\n      caller\n        /* \"contracts/LotteryWinnerDemo.sol\":356:369  lotterAccount */\n      0x03\n      0x00\n        /* \"contracts/LotteryWinnerDemo.sol\":356:391  lotterAccount = payable(msg.sender) */\n      0x0100\n      exp\n      dup2\n      sload\n      dup2\n      0xffffffffffffffffffffffffffffffffffffffff\n      mul\n      not\n      and\n      swap1\n      dup4\n      0xffffffffffffffffffffffffffffffffffffffff\n      and\n      mul\n      or\n      swap1\n      sstore\n      pop\n        /* \"contracts/LotteryWinnerDemo.sol\":308:398  function _1setLotteryAccount() public {... */\n      jump\t// out\n        /* \"contracts/LotteryWinnerDemo.sol\":174:203  address public lotteryManager */\n    tag_26:\n      0x02\n      0x00\n      swap1\n      sload\n      swap1\n      0x0100\n      exp\n      swap1\n      div\n      0xffffffffffffffffffffffffffffffffffffffff\n      and\n      dup2\n      jump\t// out\n        /* \"contracts/LotteryWinnerDemo.sol\":904:1056  function _5getBalance() public view returns (uint) {... */\n    tag_31:\n        /* \"contracts/LotteryWinnerDemo.sol\":949:953  uint */\n      0x00\n        /* \"contracts/LotteryWinnerDemo.sol\":987:1001  lotteryManager */\n      0x02\n      0x00\n      swap1\n      sload\n      swap1\n      0x0100\n      exp\n      swap1\n      div\n      0xffffffffffffffffffffffffffffffffffffffff\n      and\n        /* \"contracts/LotteryWinnerDemo.sol\":973:1001  msg.sender == lotteryManager */\n      0xffffffffffffffffffffffffffffffffffffffff\n      and\n        /* \"contracts/LotteryWinnerDemo.sol\":973:983  msg.sender */\n      caller\n        /* \"contracts/LotteryWinnerDemo.sol\":973:1001  msg.sender == lotteryManager */\n      0xffffffffffffffffffffffffffffffffffffffff\n      and\n      eq\n        /* \"contracts/LotteryWinnerDemo.sol\":965:1002  require(msg.sender == lotteryManager) */\n      tag_60\n      jumpi\n      0x00\n      dup1\n      revert\n    tag_60:\n        /* \"contracts/LotteryWinnerDemo.sol\":1027:1040  lotterAccount */\n      0x03\n      0x00\n      swap1\n      sload\n      swap1\n      0x0100\n      exp\n      swap1\n      div\n      0xffffffffffffffffffffffffffffffffffffffff\n      and\n        /* \"contracts/LotteryWinnerDemo.sol\":1019:1049  address(lotterAccount).balance */\n      0xffffffffffffffffffffffffffffffffffffffff\n      and\n      balance\n        /* \"contracts/LotteryWinnerDemo.sol\":1012:1049  return address(lotterAccount).balance */\n      swap1\n      pop\n        /* \"contracts/LotteryWinnerDemo.sol\":904:1056  function _5getBalance() public view returns (uint) {... */\n      swap1\n      jump\t// out\n        /* \"contracts/LotteryWinnerDemo.sol\":1086:1642  function _6getRandomWinner() public payable {... */\n    tag_34:\n        /* \"contracts/LotteryWinnerDemo.sol\":1162:1176  lotteryManager */\n      0x02\n      0x00\n      swap1\n      sload\n      swap1\n      0x0100\n      exp\n      swap1\n      div\n      0xffffffffffffffffffffffffffffffffffffffff\n      and\n        /* \"contracts/LotteryWinnerDemo.sol\":1148:1176  msg.sender == lotteryManager */\n      0xffffffffffffffffffffffffffffffffffffffff\n      and\n        /* \"contracts/LotteryWinnerDemo.sol\":1148:1158  msg.sender */\n      caller\n        /* \"contracts/LotteryWinnerDemo.sol\":1148:1176  msg.sender == lotteryManager */\n      0xffffffffffffffffffffffffffffffffffffffff\n      and\n      eq\n        /* \"contracts/LotteryWinnerDemo.sol\":1140:1177  require(msg.sender == lotteryManager) */\n      tag_62\n      jumpi\n      0x00\n      dup1\n      revert\n    tag_62:\n        /* \"contracts/LotteryWinnerDemo.sol\":1187:1199  bytes32 rand */\n      0x00\n        /* \"contracts/LotteryWinnerDemo.sol\":1227:1228  1 */\n      0x01\n        /* \"contracts/LotteryWinnerDemo.sol\":1212:1224  block.number */\n      number\n        /* \"contracts/LotteryWinnerDemo.sol\":1212:1228  block.number - 1 */\n      tag_63\n      swap2\n      swap1\n      tag_64\n      jump\t// in\n    tag_63:\n        /* \"contracts/LotteryWinnerDemo.sol\":1202:1229  blockhash(block.number - 1) */\n      blockhash\n        /* \"contracts/LotteryWinnerDemo.sol\":1187:1229  bytes32 rand = blockhash(block.number - 1) */\n      swap1\n      pop\n        /* \"contracts/LotteryWinnerDemo.sol\":1239:1252  bytes32 rand2 */\n      0x00\n        /* \"contracts/LotteryWinnerDemo.sol\":1280:1281  2 */\n      0x02\n        /* \"contracts/LotteryWinnerDemo.sol\":1265:1277  block.number */\n      number\n        /* \"contracts/LotteryWinnerDemo.sol\":1265:1281  block.number - 2 */\n      tag_65\n      swap2\n      swap1\n      tag_64\n      jump\t// in\n    tag_65:\n        /* \"contracts/LotteryWinnerDemo.sol\":1255:1282  blockhash(block.number - 2) */\n      blockhash\n        /* \"contracts/LotteryWinnerDemo.sol\":1239:1282  bytes32 rand2 = blockhash(block.number - 2) */\n      swap1\n      pop\n        /* \"contracts/LotteryWinnerDemo.sol\":1292:1305  bytes32 rand3 */\n      0x00\n        /* \"contracts/LotteryWinnerDemo.sol\":1333:1334  3 */\n      0x03\n        /* \"contracts/LotteryWinnerDemo.sol\":1318:1330  block.number */\n      number\n        /* \"contracts/LotteryWinnerDemo.sol\":1318:1334  block.number - 3 */\n      tag_66\n      swap2\n      swap1\n      tag_64\n      jump\t// in\n    tag_66:\n        /* \"contracts/LotteryWinnerDemo.sol\":1308:1335  blockhash(block.number - 3) */\n      blockhash\n        /* \"contracts/LotteryWinnerDemo.sol\":1292:1335  bytes32 rand3 = blockhash(block.number - 3) */\n      swap1\n      pop\n        /* \"contracts/LotteryWinnerDemo.sol\":1346:1366  uint256 randomNumber */\n      0x00\n        /* \"contracts/LotteryWinnerDemo.sol\":1417:1421  rand */\n      dup4\n        /* \"contracts/LotteryWinnerDemo.sol\":1423:1428  rand2 */\n      dup4\n        /* \"contracts/LotteryWinnerDemo.sol\":1430:1435  rand3 */\n      dup4\n        /* \"contracts/LotteryWinnerDemo.sol\":1400:1436  abi.encodePacked(rand, rand2, rand3) */\n      add(0x20, mload(0x40))\n      tag_67\n      swap4\n      swap3\n      swap2\n      swap1\n      tag_68\n      jump\t// in\n    tag_67:\n      mload(0x40)\n      0x20\n      dup2\n      dup4\n      sub\n      sub\n      dup2\n      mstore\n      swap1\n      0x40\n      mstore\n        /* \"contracts/LotteryWinnerDemo.sol\":1390:1437  keccak256(abi.encodePacked(rand, rand2, rand3)) */\n      dup1\n      mload\n      swap1\n      0x20\n      add\n      keccak256\n        /* \"contracts/LotteryWinnerDemo.sol\":1369:1447  uint256(... */\n      0x00\n      shr\n        /* \"contracts/LotteryWinnerDemo.sol\":1346:1447  uint256 randomNumber = uint256(... */\n      swap1\n      pop\n        /* \"contracts/LotteryWinnerDemo.sol\":1481:1492  participant */\n      0x00\n        /* \"contracts/LotteryWinnerDemo.sol\":1481:1499  participant.length */\n      dup1\n      sload\n      swap1\n      pop\n        /* \"contracts/LotteryWinnerDemo.sol\":1466:1478  randomNumber */\n      dup2\n        /* \"contracts/LotteryWinnerDemo.sol\":1466:1499  randomNumber % participant.length */\n      tag_69\n      swap2\n      swap1\n      tag_70\n      jump\t// in\n    tag_69:\n        /* \"contracts/LotteryWinnerDemo.sol\":1457:1463  number */\n      0x04\n        /* \"contracts/LotteryWinnerDemo.sol\":1457:1499  number = randomNumber % participant.length */\n      dup2\n      swap1\n      sstore\n      pop\n        /* \"contracts/LotteryWinnerDemo.sol\":1526:1537  participant */\n      0x00\n        /* \"contracts/LotteryWinnerDemo.sol\":1538:1544  number */\n      sload(0x04)\n        /* \"contracts/LotteryWinnerDemo.sol\":1526:1545  participant[number] */\n      dup2\n      sload\n      dup2\n      lt\n      tag_71\n      jumpi\n      tag_72\n      tag_55\n      jump\t// in\n    tag_72:\n    tag_71:\n      swap1\n      0x00\n      mstore\n      keccak256(0x00, 0x20)\n      add\n      0x00\n      swap1\n      sload\n      swap1\n      0x0100\n      exp\n      swap1\n      div\n      0xffffffffffffffffffffffffffffffffffffffff\n      and\n        /* \"contracts/LotteryWinnerDemo.sol\":1509:1515  winner */\n      0x01\n      0x00\n        /* \"contracts/LotteryWinnerDemo.sol\":1509:1546  winner = payable(participant[number]) */\n      0x0100\n      exp\n      dup2\n      sload\n      dup2\n      0xffffffffffffffffffffffffffffffffffffffff\n      mul\n      not\n      and\n      swap1\n      dup4\n      0xffffffffffffffffffffffffffffffffffffffff\n      and\n      mul\n      or\n      swap1\n      sstore\n      pop\n        /* \"contracts/LotteryWinnerDemo.sol\":1556:1562  winner */\n      0x01\n      0x00\n      swap1\n      sload\n      swap1\n      0x0100\n      exp\n      swap1\n      div\n      0xffffffffffffffffffffffffffffffffffffffff\n      and\n        /* \"contracts/LotteryWinnerDemo.sol\":1556:1571  winner.transfer */\n      0xffffffffffffffffffffffffffffffffffffffff\n      and\n        /* \"contracts/LotteryWinnerDemo.sol\":1556:1587  winner.transfer(_5getBalance()) */\n      0x08fc\n        /* \"contracts/LotteryWinnerDemo.sol\":1572:1586  _5getBalance() */\n      tag_74\n        /* \"contracts/LotteryWinnerDemo.sol\":1572:1584  _5getBalance */\n      tag_31\n        /* \"contracts/LotteryWinnerDemo.sol\":1572:1586  _5getBalance() */\n      jump\t// in\n    tag_74:\n        /* \"contracts/LotteryWinnerDemo.sol\":1556:1587  winner.transfer(_5getBalance()) */\n      swap1\n      dup2\n      iszero\n      mul\n      swap1\n      mload(0x40)\n      0x00\n      mload(0x40)\n      dup1\n      dup4\n      sub\n      dup2\n      dup6\n      dup9\n      dup9\n      call\n      swap4\n      pop\n      pop\n      pop\n      pop\n      iszero\n      dup1\n      iszero\n      tag_76\n      jumpi\n      returndatasize\n      0x00\n      dup1\n      returndatacopy\n      revert(0x00, returndatasize)\n    tag_76:\n      pop\n        /* \"contracts/LotteryWinnerDemo.sol\":1633:1634  0 */\n      0x00\n        /* \"contracts/LotteryWinnerDemo.sol\":1611:1635  new address payable[](0) */\n      0xffffffffffffffff\n      dup2\n      gt\n      iszero\n      tag_77\n      jumpi\n      tag_78\n      tag_79\n      jump\t// in\n    tag_78:\n    tag_77:\n      mload(0x40)\n      swap1\n      dup1\n      dup3\n      mstore\n      dup1\n      0x20\n      mul\n      0x20\n      add\n      dup3\n      add\n      0x40\n      mstore\n      dup1\n      iszero\n      tag_80\n      jumpi\n      dup2\n      0x20\n      add\n      0x20\n      dup3\n      mul\n      dup1\n      calldatasize\n      dup4\n      calldatacopy\n      dup1\n      dup3\n      add\n      swap2\n      pop\n      pop\n      swap1\n      pop\n    tag_80:\n      pop\n        /* \"contracts/LotteryWinnerDemo.sol\":1597:1608  participant */\n      0x00\n        /* \"contracts/LotteryWinnerDemo.sol\":1597:1635  participant = new address payable[](0) */\n      swap1\n      dup1\n      mload\n      swap1\n      0x20\n      add\n      swap1\n      tag_81\n      swap3\n      swap2\n      swap1\n      tag_82\n      jump\t// in\n    tag_81:\n      pop\n        /* \"contracts/LotteryWinnerDemo.sol\":1130:1642  {... */\n      pop\n      pop\n      pop\n      pop\n        /* \"contracts/LotteryWinnerDemo.sol\":1086:1642  function _6getRandomWinner() public payable {... */\n      jump\t// out\n        /* \"contracts/LotteryWinnerDemo.sol\":139:168  address payable public winner */\n    tag_37:\n      0x01\n      0x00\n      swap1\n      sload\n      swap1\n      0x0100\n      exp\n      swap1\n      div\n      0xffffffffffffffffffffffffffffffffffffffff\n      and\n      dup2\n      jump\t// out\n        /* \"contracts/LotteryWinnerDemo.sol\":433:523  function _2setManagerAccount() public {... */\n    tag_42:\n        /* \"contracts/LotteryWinnerDemo.sol\":505:515  msg.sender */\n      caller\n        /* \"contracts/LotteryWinnerDemo.sol\":481:494  lotterAccount */\n      0x03\n      0x00\n        /* \"contracts/LotteryWinnerDemo.sol\":481:516  lotterAccount = payable(msg.sender) */\n      0x0100\n      exp\n      dup2\n      sload\n      dup2\n      0xffffffffffffffffffffffffffffffffffffffff\n      mul\n      not\n      and\n      swap1\n      dup4\n      0xffffffffffffffffffffffffffffffffffffffff\n      and\n      mul\n      or\n      swap1\n      sstore\n      pop\n        /* \"contracts/LotteryWinnerDemo.sol\":433:523  function _2setManagerAccount() public {... */\n      jump\t// out\n        /* \"contracts/LotteryWinnerDemo.sol\":547:691  function _3participate() public returns(address participated ) {... */\n    tag_45:\n        /* \"contracts/LotteryWinnerDemo.sol\":587:607  address participated */\n      0x00\n        /* \"contracts/LotteryWinnerDemo.sol\":629:640  participant */\n      dup1\n        /* \"contracts/LotteryWinnerDemo.sol\":646:656  msg.sender */\n      caller\n        /* \"contracts/LotteryWinnerDemo.sol\":629:657  participant.push(msg.sender) */\n      swap1\n      dup1\n      0x01\n      dup2\n      sload\n      add\n      dup1\n      dup3\n      sstore\n      dup1\n      swap2\n      pop\n      pop\n      0x01\n      swap1\n      sub\n      swap1\n      0x00\n      mstore\n      keccak256(0x00, 0x20)\n      add\n      0x00\n      swap1\n      swap2\n      swap1\n      swap2\n      swap1\n      swap2\n      0x0100\n      exp\n      dup2\n      sload\n      dup2\n      0xffffffffffffffffffffffffffffffffffffffff\n      mul\n      not\n      and\n      swap1\n      dup4\n      0xffffffffffffffffffffffffffffffffffffffff\n      and\n      mul\n      or\n      swap1\n      sstore\n      pop\n        /* \"contracts/LotteryWinnerDemo.sol\":674:684  msg.sender */\n      caller\n        /* \"contracts/LotteryWinnerDemo.sol\":667:684  return msg.sender */\n      swap1\n      pop\n        /* \"contracts/LotteryWinnerDemo.sol\":547:691  function _3participate() public returns(address participated ) {... */\n      swap1\n      jump\t// out\n    tag_82:\n      dup3\n      dup1\n      sload\n      dup3\n      dup3\n      sstore\n      swap1\n      0x00\n      mstore\n      keccak256(0x00, 0x20)\n      swap1\n      dup2\n      add\n      swap3\n      dup3\n      iszero\n      tag_86\n      jumpi\n      swap2\n      0x20\n      mul\n      dup3\n      add\n    tag_87:\n      dup3\n      dup2\n      gt\n      iszero\n      tag_88\n      jumpi\n      dup3\n      mload\n      dup3\n      exp(0x0100, 0x00)\n      dup2\n      sload\n      dup2\n      0xffffffffffffffffffffffffffffffffffffffff\n      mul\n      not\n      and\n      swap1\n      dup4\n      0xffffffffffffffffffffffffffffffffffffffff\n      and\n      mul\n      or\n      swap1\n      sstore\n      pop\n      swap2\n      0x20\n      add\n      swap2\n      swap1\n      0x01\n      add\n      swap1\n      jump(tag_87)\n    tag_88:\n    tag_86:\n      pop\n      swap1\n      pop\n      tag_89\n      swap2\n      swap1\n      tag_90\n      jump\t// in\n    tag_89:\n      pop\n      swap1\n      jump\t// out\n    tag_90:\n    tag_91:\n      dup1\n      dup3\n      gt\n      iszero\n      tag_92\n      jumpi\n      0x00\n      dup2\n      0x00\n      swap1\n      sstore\n      pop\n      0x01\n      add\n      jump(tag_91)\n    tag_92:\n      pop\n      swap1\n      jump\t// out\n        /* \"#utility.yul\":88:205   */\n    tag_94:\n        /* \"#utility.yul\":197:198   */\n      0x00\n        /* \"#utility.yul\":194:195   */\n      dup1\n        /* \"#utility.yul\":187:199   */\n      revert\n        /* \"#utility.yul\":334:411   */\n    tag_96:\n        /* \"#utility.yul\":371:378   */\n      0x00\n        /* \"#utility.yul\":400:405   */\n      dup2\n        /* \"#utility.yul\":389:405   */\n      swap1\n      pop\n        /* \"#utility.yul\":334:411   */\n      swap2\n      swap1\n      pop\n      jump\t// out\n        /* \"#utility.yul\":417:539   */\n    tag_97:\n        /* \"#utility.yul\":490:514   */\n      tag_116\n        /* \"#utility.yul\":508:513   */\n      dup2\n        /* \"#utility.yul\":490:514   */\n      tag_96\n      jump\t// in\n    tag_116:\n        /* \"#utility.yul\":483:488   */\n      dup2\n        /* \"#utility.yul\":480:515   */\n      eq\n        /* \"#utility.yul\":470:533   */\n      tag_117\n      jumpi\n        /* \"#utility.yul\":529:530   */\n      0x00\n        /* \"#utility.yul\":526:527   */\n      dup1\n        /* \"#utility.yul\":519:531   */\n      revert\n        /* \"#utility.yul\":470:533   */\n    tag_117:\n        /* \"#utility.yul\":417:539   */\n      pop\n      jump\t// out\n        /* \"#utility.yul\":545:684   */\n    tag_98:\n        /* \"#utility.yul\":591:596   */\n      0x00\n        /* \"#utility.yul\":629:635   */\n      dup2\n        /* \"#utility.yul\":616:636   */\n      calldataload\n        /* \"#utility.yul\":607:636   */\n      swap1\n      pop\n        /* \"#utility.yul\":645:678   */\n      tag_119\n        /* \"#utility.yul\":672:677   */\n      dup2\n        /* \"#utility.yul\":645:678   */\n      tag_97\n      jump\t// in\n    tag_119:\n        /* \"#utility.yul\":545:684   */\n      swap3\n      swap2\n      pop\n      pop\n      jump\t// out\n        /* \"#utility.yul\":690:1019   */\n    tag_14:\n        /* \"#utility.yul\":749:755   */\n      0x00\n        /* \"#utility.yul\":798:800   */\n      0x20\n        /* \"#utility.yul\":786:795   */\n      dup3\n        /* \"#utility.yul\":777:784   */\n      dup5\n        /* \"#utility.yul\":773:796   */\n      sub\n        /* \"#utility.yul\":769:801   */\n      slt\n        /* \"#utility.yul\":766:885   */\n      iszero\n      tag_121\n      jumpi\n        /* \"#utility.yul\":804:883   */\n      tag_122\n      tag_94\n      jump\t// in\n    tag_122:\n        /* \"#utility.yul\":766:885   */\n    tag_121:\n        /* \"#utility.yul\":924:925   */\n      0x00\n        /* \"#utility.yul\":949:1002   */\n      tag_123\n        /* \"#utility.yul\":994:1001   */\n      dup5\n        /* \"#utility.yul\":985:991   */\n      dup3\n        /* \"#utility.yul\":974:983   */\n      dup6\n        /* \"#utility.yul\":970:992   */\n      add\n        /* \"#utility.yul\":949:1002   */\n      tag_98\n      jump\t// in\n    tag_123:\n        /* \"#utility.yul\":939:1002   */\n      swap2\n      pop\n        /* \"#utility.yul\":895:1012   */\n      pop\n        /* \"#utility.yul\":690:1019   */\n      swap3\n      swap2\n      pop\n      pop\n      jump\t// out\n        /* \"#utility.yul\":1025:1143   */\n    tag_99:\n        /* \"#utility.yul\":1112:1136   */\n      tag_125\n        /* \"#utility.yul\":1130:1135   */\n      dup2\n        /* \"#utility.yul\":1112:1136   */\n      tag_96\n      jump\t// in\n    tag_125:\n        /* \"#utility.yul\":1107:1110   */\n      dup3\n        /* \"#utility.yul\":1100:1137   */\n      mstore\n        /* \"#utility.yul\":1025:1143   */\n      pop\n      pop\n      jump\t// out\n        /* \"#utility.yul\":1149:1371   */\n    tag_20:\n        /* \"#utility.yul\":1242:1246   */\n      0x00\n        /* \"#utility.yul\":1280:1282   */\n      0x20\n        /* \"#utility.yul\":1269:1278   */\n      dup3\n        /* \"#utility.yul\":1265:1283   */\n      add\n        /* \"#utility.yul\":1257:1283   */\n      swap1\n      pop\n        /* \"#utility.yul\":1293:1364   */\n      tag_127\n        /* \"#utility.yul\":1361:1362   */\n      0x00\n        /* \"#utility.yul\":1350:1359   */\n      dup4\n        /* \"#utility.yul\":1346:1363   */\n      add\n        /* \"#utility.yul\":1337:1343   */\n      dup5\n        /* \"#utility.yul\":1293:1364   */\n      tag_99\n      jump\t// in\n    tag_127:\n        /* \"#utility.yul\":1149:1371   */\n      swap3\n      swap2\n      pop\n      pop\n      jump\t// out\n        /* \"#utility.yul\":1377:1503   */\n    tag_100:\n        /* \"#utility.yul\":1414:1421   */\n      0x00\n        /* \"#utility.yul\":1454:1496   */\n      0xffffffffffffffffffffffffffffffffffffffff\n        /* \"#utility.yul\":1447:1452   */\n      dup3\n        /* \"#utility.yul\":1443:1497   */\n      and\n        /* \"#utility.yul\":1432:1497   */\n      swap1\n      pop\n        /* \"#utility.yul\":1377:1503   */\n      swap2\n      swap1\n      pop\n      jump\t// out\n        /* \"#utility.yul\":1509:1605   */\n    tag_101:\n        /* \"#utility.yul\":1546:1553   */\n      0x00\n        /* \"#utility.yul\":1575:1599   */\n      tag_130\n        /* \"#utility.yul\":1593:1598   */\n      dup3\n        /* \"#utility.yul\":1575:1599   */\n      tag_100\n      jump\t// in\n    tag_130:\n        /* \"#utility.yul\":1564:1599   */\n      swap1\n      pop\n        /* \"#utility.yul\":1509:1605   */\n      swap2\n      swap1\n      pop\n      jump\t// out\n        /* \"#utility.yul\":1611:1729   */\n    tag_102:\n        /* \"#utility.yul\":1698:1722   */\n      tag_132\n        /* \"#utility.yul\":1716:1721   */\n      dup2\n        /* \"#utility.yul\":1698:1722   */\n      tag_101\n      jump\t// in\n    tag_132:\n        /* \"#utility.yul\":1693:1696   */\n      dup3\n        /* \"#utility.yul\":1686:1723   */\n      mstore\n        /* \"#utility.yul\":1611:1729   */\n      pop\n      pop\n      jump\t// out\n        /* \"#utility.yul\":1735:1957   */\n    tag_28:\n        /* \"#utility.yul\":1828:1832   */\n      0x00\n        /* \"#utility.yul\":1866:1868   */\n      0x20\n        /* \"#utility.yul\":1855:1864   */\n      dup3\n        /* \"#utility.yul\":1851:1869   */\n      add\n        /* \"#utility.yul\":1843:1869   */\n      swap1\n      pop\n        /* \"#utility.yul\":1879:1950   */\n      tag_134\n        /* \"#utility.yul\":1947:1948   */\n      0x00\n        /* \"#utility.yul\":1936:1945   */\n      dup4\n        /* \"#utility.yul\":1932:1949   */\n      add\n        /* \"#utility.yul\":1923:1929   */\n      dup5\n        /* \"#utility.yul\":1879:1950   */\n      tag_102\n      jump\t// in\n    tag_134:\n        /* \"#utility.yul\":1735:1957   */\n      swap3\n      swap2\n      pop\n      pop\n      jump\t// out\n        /* \"#utility.yul\":1963:2067   */\n    tag_103:\n        /* \"#utility.yul\":2008:2015   */\n      0x00\n        /* \"#utility.yul\":2037:2061   */\n      tag_136\n        /* \"#utility.yul\":2055:2060   */\n      dup3\n        /* \"#utility.yul\":2037:2061   */\n      tag_100\n      jump\t// in\n    tag_136:\n        /* \"#utility.yul\":2026:2061   */\n      swap1\n      pop\n        /* \"#utility.yul\":1963:2067   */\n      swap2\n      swap1\n      pop\n      jump\t// out\n        /* \"#utility.yul\":2073:2215   */\n    tag_104:\n        /* \"#utility.yul\":2176:2208   */\n      tag_138\n        /* \"#utility.yul\":2202:2207   */\n      dup2\n        /* \"#utility.yul\":2176:2208   */\n      tag_103\n      jump\t// in\n    tag_138:\n        /* \"#utility.yul\":2171:2174   */\n      dup3\n        /* \"#utility.yul\":2164:2209   */\n      mstore\n        /* \"#utility.yul\":2073:2215   */\n      pop\n      pop\n      jump\t// out\n        /* \"#utility.yul\":2221:2475   */\n    tag_39:\n        /* \"#utility.yul\":2330:2334   */\n      0x00\n        /* \"#utility.yul\":2368:2370   */\n      0x20\n        /* \"#utility.yul\":2357:2366   */\n      dup3\n        /* \"#utility.yul\":2353:2371   */\n      add\n        /* \"#utility.yul\":2345:2371   */\n      swap1\n      pop\n        /* \"#utility.yul\":2381:2468   */\n      tag_140\n        /* \"#utility.yul\":2465:2466   */\n      0x00\n        /* \"#utility.yul\":2454:2463   */\n      dup4\n        /* \"#utility.yul\":2450:2467   */\n      add\n        /* \"#utility.yul\":2441:2447   */\n      dup5\n        /* \"#utility.yul\":2381:2468   */\n      tag_104\n      jump\t// in\n    tag_140:\n        /* \"#utility.yul\":2221:2475   */\n      swap3\n      swap2\n      pop\n      pop\n      jump\t// out\n        /* \"#utility.yul\":2481:2661   */\n    tag_55:\n        /* \"#utility.yul\":2529:2606   */\n      0x4e487b7100000000000000000000000000000000000000000000000000000000\n        /* \"#utility.yul\":2526:2527   */\n      0x00\n        /* \"#utility.yul\":2519:2607   */\n      mstore\n        /* \"#utility.yul\":2626:2630   */\n      0x32\n        /* \"#utility.yul\":2623:2624   */\n      0x04\n        /* \"#utility.yul\":2616:2631   */\n      mstore\n        /* \"#utility.yul\":2650:2654   */\n      0x24\n        /* \"#utility.yul\":2647:2648   */\n      0x00\n        /* \"#utility.yul\":2640:2655   */\n      revert\n        /* \"#utility.yul\":2667:2847   */\n    tag_105:\n        /* \"#utility.yul\":2715:2792   */\n      0x4e487b7100000000000000000000000000000000000000000000000000000000\n        /* \"#utility.yul\":2712:2713   */\n      0x00\n        /* \"#utility.yul\":2705:2793   */\n      mstore\n        /* \"#utility.yul\":2812:2816   */\n      0x11\n        /* \"#utility.yul\":2809:2810   */\n      0x04\n        /* \"#utility.yul\":2802:2817   */\n      mstore\n        /* \"#utility.yul\":2836:2840   */\n      0x24\n        /* \"#utility.yul\":2833:2834   */\n      0x00\n        /* \"#utility.yul\":2826:2841   */\n      revert\n        /* \"#utility.yul\":2853:3047   */\n    tag_64:\n        /* \"#utility.yul\":2893:2897   */\n      0x00\n        /* \"#utility.yul\":2913:2933   */\n      tag_144\n        /* \"#utility.yul\":2931:2932   */\n      dup3\n        /* \"#utility.yul\":2913:2933   */\n      tag_96\n      jump\t// in\n    tag_144:\n        /* \"#utility.yul\":2908:2933   */\n      swap2\n      pop\n        /* \"#utility.yul\":2947:2967   */\n      tag_145\n        /* \"#utility.yul\":2965:2966   */\n      dup4\n        /* \"#utility.yul\":2947:2967   */\n      tag_96\n      jump\t// in\n    tag_145:\n        /* \"#utility.yul\":2942:2967   */\n      swap3\n      pop\n        /* \"#utility.yul\":2991:2992   */\n      dup3\n        /* \"#utility.yul\":2988:2989   */\n      dup3\n        /* \"#utility.yul\":2984:2993   */\n      sub\n        /* \"#utility.yul\":2976:2993   */\n      swap1\n      pop\n        /* \"#utility.yul\":3015:3016   */\n      dup2\n        /* \"#utility.yul\":3009:3013   */\n      dup2\n        /* \"#utility.yul\":3006:3017   */\n      gt\n        /* \"#utility.yul\":3003:3040   */\n      iszero\n      tag_146\n      jumpi\n        /* \"#utility.yul\":3020:3038   */\n      tag_147\n      tag_105\n      jump\t// in\n    tag_147:\n        /* \"#utility.yul\":3003:3040   */\n    tag_146:\n        /* \"#utility.yul\":2853:3047   */\n      swap3\n      swap2\n      pop\n      pop\n      jump\t// out\n        /* \"#utility.yul\":3053:3130   */\n    tag_106:\n        /* \"#utility.yul\":3090:3097   */\n      0x00\n        /* \"#utility.yul\":3119:3124   */\n      dup2\n        /* \"#utility.yul\":3108:3124   */\n      swap1\n      pop\n        /* \"#utility.yul\":3053:3130   */\n      swap2\n      swap1\n      pop\n      jump\t// out\n        /* \"#utility.yul\":3136:3215   */\n    tag_107:\n        /* \"#utility.yul\":3175:3182   */\n      0x00\n        /* \"#utility.yul\":3204:3209   */\n      dup2\n        /* \"#utility.yul\":3193:3209   */\n      swap1\n      pop\n        /* \"#utility.yul\":3136:3215   */\n      swap2\n      swap1\n      pop\n      jump\t// out\n        /* \"#utility.yul\":3221:3378   */\n    tag_108:\n        /* \"#utility.yul\":3326:3371   */\n      tag_151\n        /* \"#utility.yul\":3346:3370   */\n      tag_152\n        /* \"#utility.yul\":3364:3369   */\n      dup3\n        /* \"#utility.yul\":3346:3370   */\n      tag_106\n      jump\t// in\n    tag_152:\n        /* \"#utility.yul\":3326:3371   */\n      tag_107\n      jump\t// in\n    tag_151:\n        /* \"#utility.yul\":3321:3324   */\n      dup3\n        /* \"#utility.yul\":3314:3372   */\n      mstore\n        /* \"#utility.yul\":3221:3378   */\n      pop\n      pop\n      jump\t// out\n        /* \"#utility.yul\":3384:3922   */\n    tag_68:\n        /* \"#utility.yul\":3552:3555   */\n      0x00\n        /* \"#utility.yul\":3567:3642   */\n      tag_154\n        /* \"#utility.yul\":3638:3641   */\n      dup3\n        /* \"#utility.yul\":3629:3635   */\n      dup7\n        /* \"#utility.yul\":3567:3642   */\n      tag_108\n      jump\t// in\n    tag_154:\n        /* \"#utility.yul\":3667:3669   */\n      0x20\n        /* \"#utility.yul\":3662:3665   */\n      dup3\n        /* \"#utility.yul\":3658:3670   */\n      add\n        /* \"#utility.yul\":3651:3670   */\n      swap2\n      pop\n        /* \"#utility.yul\":3680:3755   */\n      tag_155\n        /* \"#utility.yul\":3751:3754   */\n      dup3\n        /* \"#utility.yul\":3742:3748   */\n      dup6\n        /* \"#utility.yul\":3680:3755   */\n      tag_108\n      jump\t// in\n    tag_155:\n        /* \"#utility.yul\":3780:3782   */\n      0x20\n        /* \"#utility.yul\":3775:3778   */\n      dup3\n        /* \"#utility.yul\":3771:3783   */\n      add\n        /* \"#utility.yul\":3764:3783   */\n      swap2\n      pop\n        /* \"#utility.yul\":3793:3868   */\n      tag_156\n        /* \"#utility.yul\":3864:3867   */\n      dup3\n        /* \"#utility.yul\":3855:3861   */\n      dup5\n        /* \"#utility.yul\":3793:3868   */\n      tag_108\n      jump\t// in\n    tag_156:\n        /* \"#utility.yul\":3893:3895   */\n      0x20\n        /* \"#utility.yul\":3888:3891   */\n      dup3\n        /* \"#utility.yul\":3884:3896   */\n      add\n        /* \"#utility.yul\":3877:3896   */\n      swap2\n      pop\n        /* \"#utility.yul\":3913:3916   */\n      dup2\n        /* \"#utility.yul\":3906:3916   */\n      swap1\n      pop\n        /* \"#utility.yul\":3384:3922   */\n      swap5\n      swap4\n      pop\n      pop\n      pop\n      pop\n      jump\t// out\n        /* \"#utility.yul\":3928:4108   */\n    tag_109:\n        /* \"#utility.yul\":3976:4053   */\n      0x4e487b7100000000000000000000000000000000000000000000000000000000\n        /* \"#utility.yul\":3973:3974   */\n      0x00\n        /* \"#utility.yul\":3966:4054   */\n      mstore\n        /* \"#utility.yul\":4073:4077   */\n      0x12\n        /* \"#utility.yul\":4070:4071   */\n      0x04\n        /* \"#utility.yul\":4063:4078   */\n      mstore\n        /* \"#utility.yul\":4097:4101   */\n      0x24\n        /* \"#utility.yul\":4094:4095   */\n      0x00\n        /* \"#utility.yul\":4087:4102   */\n      revert\n        /* \"#utility.yul\":4114:4290   */\n    tag_70:\n        /* \"#utility.yul\":4146:4147   */\n      0x00\n        /* \"#utility.yul\":4163:4183   */\n      tag_159\n        /* \"#utility.yul\":4181:4182   */\n      dup3\n        /* \"#utility.yul\":4163:4183   */\n      tag_96\n      jump\t// in\n    tag_159:\n        /* \"#utility.yul\":4158:4183   */\n      swap2\n      pop\n        /* \"#utility.yul\":4197:4217   */\n      tag_160\n        /* \"#utility.yul\":4215:4216   */\n      dup4\n        /* \"#utility.yul\":4197:4217   */\n      tag_96\n      jump\t// in\n    tag_160:\n        /* \"#utility.yul\":4192:4217   */\n      swap3\n      pop\n        /* \"#utility.yul\":4236:4237   */\n      dup3\n        /* \"#utility.yul\":4226:4261   */\n      tag_161\n      jumpi\n        /* \"#utility.yul\":4241:4259   */\n      tag_162\n      tag_109\n      jump\t// in\n    tag_162:\n        /* \"#utility.yul\":4226:4261   */\n    tag_161:\n        /* \"#utility.yul\":4282:4283   */\n      dup3\n        /* \"#utility.yul\":4279:4280   */\n      dup3\n        /* \"#utility.yul\":4275:4284   */\n      mod\n        /* \"#utility.yul\":4270:4284   */\n      swap1\n      pop\n        /* \"#utility.yul\":4114:4290   */\n      swap3\n      swap2\n      pop\n      pop\n      jump\t// out\n        /* \"#utility.yul\":4296:4476   */\n    tag_79:\n        /* \"#utility.yul\":4344:4421   */\n      0x4e487b7100000000000000000000000000000000000000000000000000000000\n        /* \"#utility.yul\":4341:4342   */\n      0x00\n        /* \"#utility.yul\":4334:4422   */\n      mstore\n        /* \"#utility.yul\":4441:4445   */\n      0x41\n        /* \"#utility.yul\":4438:4439   */\n      0x04\n        /* \"#utility.yul\":4431:4446   */\n      mstore\n        /* \"#utility.yul\":4465:4469   */\n      0x24\n        /* \"#utility.yul\":4462:4463   */\n      0x00\n        /* \"#utility.yul\":4455:4470   */\n      revert\n\n    auxdata: 0xa26469706673582212203b5630269b81de7a0bf20fee384eb0764dba3f3a99698b44652d971c416e625164736f6c63430008120033\n}\n",
				"bytecode": {
					"linkReferences": {},
					"object": "608060405234801561001057600080fd5b50610a8d806100206000396000f3fe6080604052600436106100855760003560e01c806376cb699f1161005957806376cb699f14610113578063aa007e521461013e578063dfbf53ae14610148578063eef0c4d914610173578063fcc185b11461018a57610085565b806236bbf31461008a57806323399a0b146100a6578063368e1bb6146100d15780634f989520146100e8575b600080fd5b6100a4600480360381019061009f91906107df565b6101b5565b005b3480156100b257600080fd5b506100bb610260565b6040516100c8919061081b565b60405180910390f35b3480156100dd57600080fd5b506100e66102f6565b005b3480156100f457600080fd5b506100fd610339565b60405161010a9190610877565b60405180910390f35b34801561011f57600080fd5b5061012861035f565b604051610135919061081b565b60405180910390f35b6101466103fa565b005b34801561015457600080fd5b5061015d61062a565b60405161016a91906108b3565b60405180910390f35b34801561017f57600080fd5b50610188610650565b005b34801561019657600080fd5b5061019f610693565b6040516101ac9190610877565b60405180910390f35b3373ffffffffffffffffffffffffffffffffffffffff166101d4610693565b73ffffffffffffffffffffffffffffffffffffffff16146101f457600080fd5b600360009054906101000a900473ffffffffffffffffffffffffffffffffffffffff1673ffffffffffffffffffffffffffffffffffffffff166108fc349081150290604051600060405180830381858888f1935050505015801561025c573d6000803e3d6000fd5b5050565b60008060045481548110610277576102766108ce565b5b9060005260206000200160009054906101000a900473ffffffffffffffffffffffffffffffffffffffff1673ffffffffffffffffffffffffffffffffffffffff163373ffffffffffffffffffffffffffffffffffffffff16146102d957600080fd5b3373ffffffffffffffffffffffffffffffffffffffff1631905090565b33600360006101000a81548173ffffffffffffffffffffffffffffffffffffffff021916908373ffffffffffffffffffffffffffffffffffffffff160217905550565b600260009054906101000a900473ffffffffffffffffffffffffffffffffffffffff1681565b6000600260009054906101000a900473ffffffffffffffffffffffffffffffffffffffff1673ffffffffffffffffffffffffffffffffffffffff163373ffffffffffffffffffffffffffffffffffffffff16146103bb57600080fd5b600360009054906101000a900473ffffffffffffffffffffffffffffffffffffffff1673ffffffffffffffffffffffffffffffffffffffff1631905090565b600260009054906101000a900473ffffffffffffffffffffffffffffffffffffffff1673ffffffffffffffffffffffffffffffffffffffff163373ffffffffffffffffffffffffffffffffffffffff161461045457600080fd5b6000600143610463919061092c565b4090506000600243610475919061092c565b4090506000600343610487919061092c565b40905060008383836040516020016104a19392919061098b565b6040516020818303038152906040528051906020012060001c9050600080549050816104cd91906109f7565b6004819055506000600454815481106104e9576104e86108ce565b5b9060005260206000200160009054906101000a900473ffffffffffffffffffffffffffffffffffffffff16600160006101000a81548173ffffffffffffffffffffffffffffffffffffffff021916908373ffffffffffffffffffffffffffffffffffffffff160217905550600160009054906101000a900473ffffffffffffffffffffffffffffffffffffffff1673ffffffffffffffffffffffffffffffffffffffff166108fc61059861035f565b9081150290604051600060405180830381858888f193505050501580156105c3573d6000803e3d6000fd5b50600067ffffffffffffffff8111156105df576105de610a28565b5b60405190808252806020026020018201604052801561060d5781602001602082028036833780820191505090505b50600090805190602001906106239291906106fd565b5050505050565b600160009054906101000a900473ffffffffffffffffffffffffffffffffffffffff1681565b33600360006101000a81548173ffffffffffffffffffffffffffffffffffffffff021916908373ffffffffffffffffffffffffffffffffffffffff160217905550565b600080339080600181540180825580915050600190039060005260206000200160009091909190916101000a81548173ffffffffffffffffffffffffffffffffffffffff021916908373ffffffffffffffffffffffffffffffffffffffff16021790555033905090565b828054828255906000526020600020908101928215610776579160200282015b828111156107755782518260006101000a81548173ffffffffffffffffffffffffffffffffffffffff021916908373ffffffffffffffffffffffffffffffffffffffff1602179055509160200191906001019061071d565b5b5090506107839190610787565b5090565b5b808211156107a0576000816000905550600101610788565b5090565b600080fd5b6000819050919050565b6107bc816107a9565b81146107c757600080fd5b50565b6000813590506107d9816107b3565b92915050565b6000602082840312156107f5576107f46107a4565b5b6000610803848285016107ca565b91505092915050565b610815816107a9565b82525050565b6000602082019050610830600083018461080c565b92915050565b600073ffffffffffffffffffffffffffffffffffffffff82169050919050565b600061086182610836565b9050919050565b61087181610856565b82525050565b600060208201905061088c6000830184610868565b92915050565b600061089d82610836565b9050919050565b6108ad81610892565b82525050565b60006020820190506108c860008301846108a4565b92915050565b7f4e487b7100000000000000000000000000000000000000000000000000000000600052603260045260246000fd5b7f4e487b7100000000000000000000000000000000000000000000000000000000600052601160045260246000fd5b6000610937826107a9565b9150610942836107a9565b925082820390508181111561095a576109596108fd565b5b92915050565b6000819050919050565b6000819050919050565b61098561098082610960565b61096a565b82525050565b60006109978286610974565b6020820191506109a78285610974565b6020820191506109b78284610974565b602082019150819050949350505050565b7f4e487b7100000000000000000000000000000000000000000000000000000000600052601260045260246000fd5b6000610a02826107a9565b9150610a0d836107a9565b925082610a1d57610a1c6109c8565b5b828206905092915050565b7f4e487b7100000000000000000000000000000000000000000000000000000000600052604160045260246000fdfea26469706673582212203b5630269b81de7a0bf20fee384eb0764dba3f3a99698b44652d971c416e625164736f6c63430008120033",
					"opcodes": "PUSH1 0x80 PUSH1 0x40 MSTORE CALLVALUE DUP1 ISZERO PUSH2 0x10 JUMPI PUSH1 0x0 DUP1 REVERT JUMPDEST POP PUSH2 0xA8D DUP1 PUSH2 0x20 PUSH1 0x0 CODECOPY PUSH1 0x0 RETURN INVALID PUSH1 0x80 PUSH1 0x40 MSTORE PUSH1 0x4 CALLDATASIZE LT PUSH2 0x85 JUMPI PUSH1 0x0 CALLDATALOAD PUSH1 0xE0 SHR DUP1 PUSH4 0x76CB699F GT PUSH2 0x59 JUMPI DUP1 PUSH4 0x76CB699F EQ PUSH2 0x113 JUMPI DUP1 PUSH4 0xAA007E52 EQ PUSH2 0x13E JUMPI DUP1 PUSH4 0xDFBF53AE EQ PUSH2 0x148 JUMPI DUP1 PUSH4 0xEEF0C4D9 EQ PUSH2 0x173 JUMPI DUP1 PUSH4 0xFCC185B1 EQ PUSH2 0x18A JUMPI PUSH2 0x85 JUMP JUMPDEST DUP1 PUSH3 0x36BBF3 EQ PUSH2 0x8A JUMPI DUP1 PUSH4 0x23399A0B EQ PUSH2 0xA6 JUMPI DUP1 PUSH4 0x368E1BB6 EQ PUSH2 0xD1 JUMPI DUP1 PUSH4 0x4F989520 EQ PUSH2 0xE8 JUMPI JUMPDEST PUSH1 0x0 DUP1 REVERT JUMPDEST PUSH2 0xA4 PUSH1 0x4 DUP1 CALLDATASIZE SUB DUP2 ADD SWAP1 PUSH2 0x9F SWAP2 SWAP1 PUSH2 0x7DF JUMP JUMPDEST PUSH2 0x1B5 JUMP JUMPDEST STOP JUMPDEST CALLVALUE DUP1 ISZERO PUSH2 0xB2 JUMPI PUSH1 0x0 DUP1 REVERT JUMPDEST POP PUSH2 0xBB PUSH2 0x260 JUMP JUMPDEST PUSH1 0x40 MLOAD PUSH2 0xC8 SWAP2 SWAP1 PUSH2 0x81B JUMP JUMPDEST PUSH1 0x40 MLOAD DUP1 SWAP2 SUB SWAP1 RETURN JUMPDEST CALLVALUE DUP1 ISZERO PUSH2 0xDD JUMPI PUSH1 0x0 DUP1 REVERT JUMPDEST POP PUSH2 0xE6 PUSH2 0x2F6 JUMP JUMPDEST STOP JUMPDEST CALLVALUE DUP1 ISZERO PUSH2 0xF4 JUMPI PUSH1 0x0 DUP1 REVERT JUMPDEST POP PUSH2 0xFD PUSH2 0x339 JUMP JUMPDEST PUSH1 0x40 MLOAD PUSH2 0x10A SWAP2 SWAP1 PUSH2 0x877 JUMP JUMPDEST PUSH1 0x40 MLOAD DUP1 SWAP2 SUB SWAP1 RETURN JUMPDEST CALLVALUE DUP1 ISZERO PUSH2 0x11F JUMPI PUSH1 0x0 DUP1 REVERT JUMPDEST POP PUSH2 0x128 PUSH2 0x35F JUMP JUMPDEST PUSH1 0x40 MLOAD PUSH2 0x135 SWAP2 SWAP1 PUSH2 0x81B JUMP JUMPDEST PUSH1 0x40 MLOAD DUP1 SWAP2 SUB SWAP1 RETURN JUMPDEST PUSH2 0x146 PUSH2 0x3FA JUMP JUMPDEST STOP JUMPDEST CALLVALUE DUP1 ISZERO PUSH2 0x154 JUMPI PUSH1 0x0 DUP1 REVERT JUMPDEST POP PUSH2 0x15D PUSH2 0x62A JUMP JUMPDEST PUSH1 0x40 MLOAD PUSH2 0x16A SWAP2 SWAP1 PUSH2 0x8B3 JUMP JUMPDEST PUSH1 0x40 MLOAD DUP1 SWAP2 SUB SWAP1 RETURN JUMPDEST CALLVALUE DUP1 ISZERO PUSH2 0x17F JUMPI PUSH1 0x0 DUP1 REVERT JUMPDEST POP PUSH2 0x188 PUSH2 0x650 JUMP JUMPDEST STOP JUMPDEST CALLVALUE DUP1 ISZERO PUSH2 0x196 JUMPI PUSH1 0x0 DUP1 REVERT JUMPDEST POP PUSH2 0x19F PUSH2 0x693 JUMP JUMPDEST PUSH1 0x40 MLOAD PUSH2 0x1AC SWAP2 SWAP1 PUSH2 0x877 JUMP JUMPDEST PUSH1 0x40 MLOAD DUP1 SWAP2 SUB SWAP1 RETURN JUMPDEST CALLER PUSH20 0xFFFFFFFFFFFFFFFFFFFFFFFFFFFFFFFFFFFFFFFF AND PUSH2 0x1D4 PUSH2 0x693 JUMP JUMPDEST PUSH20 0xFFFFFFFFFFFFFFFFFFFFFFFFFFFFFFFFFFFFFFFF AND EQ PUSH2 0x1F4 JUMPI PUSH1 0x0 DUP1 REVERT JUMPDEST PUSH1 0x3 PUSH1 0x0 SWAP1 SLOAD SWAP1 PUSH2 0x100 EXP SWAP1 DIV PUSH20 0xFFFFFFFFFFFFFFFFFFFFFFFFFFFFFFFFFFFFFFFF AND PUSH20 0xFFFFFFFFFFFFFFFFFFFFFFFFFFFFFFFFFFFFFFFF AND PUSH2 0x8FC CALLVALUE SWAP1 DUP2 ISZERO MUL SWAP1 PUSH1 0x40 MLOAD PUSH1 0x0 PUSH1 0x40 MLOAD DUP1 DUP4 SUB DUP2 DUP6 DUP9 DUP9 CALL SWAP4 POP POP POP POP ISZERO DUP1 ISZERO PUSH2 0x25C JUMPI RETURNDATASIZE PUSH1 0x0 DUP1 RETURNDATACOPY RETURNDATASIZE PUSH1 0x0 REVERT JUMPDEST POP POP JUMP JUMPDEST PUSH1 0x0 DUP1 PUSH1 0x4 SLOAD DUP2 SLOAD DUP2 LT PUSH2 0x277 JUMPI PUSH2 0x276 PUSH2 0x8CE JUMP JUMPDEST JUMPDEST SWAP1 PUSH1 0x0 MSTORE PUSH1 0x20 PUSH1 0x0 KECCAK256 ADD PUSH1 0x0 SWAP1 SLOAD SWAP1 PUSH2 0x100 EXP SWAP1 DIV PUSH20 0xFFFFFFFFFFFFFFFFFFFFFFFFFFFFFFFFFFFFFFFF AND PUSH20 0xFFFFFFFFFFFFFFFFFFFFFFFFFFFFFFFFFFFFFFFF AND CALLER PUSH20 0xFFFFFFFFFFFFFFFFFFFFFFFFFFFFFFFFFFFFFFFF AND EQ PUSH2 0x2D9 JUMPI PUSH1 0x0 DUP1 REVERT JUMPDEST CALLER PUSH20 0xFFFFFFFFFFFFFFFFFFFFFFFFFFFFFFFFFFFFFFFF AND BALANCE SWAP1 POP SWAP1 JUMP JUMPDEST CALLER PUSH1 0x3 PUSH1 0x0 PUSH2 0x100 EXP DUP2 SLOAD DUP2 PUSH20 0xFFFFFFFFFFFFFFFFFFFFFFFFFFFFFFFFFFFFFFFF MUL NOT AND SWAP1 DUP4 PUSH20 0xFFFFFFFFFFFFFFFFFFFFFFFFFFFFFFFFFFFFFFFF AND MUL OR SWAP1 SSTORE POP JUMP JUMPDEST PUSH1 0x2 PUSH1 0x0 SWAP1 SLOAD SWAP1 PUSH2 0x100 EXP SWAP1 DIV PUSH20 0xFFFFFFFFFFFFFFFFFFFFFFFFFFFFFFFFFFFFFFFF AND DUP2 JUMP JUMPDEST PUSH1 0x0 PUSH1 0x2 PUSH1 0x0 SWAP1 SLOAD SWAP1 PUSH2 0x100 EXP SWAP1 DIV PUSH20 0xFFFFFFFFFFFFFFFFFFFFFFFFFFFFFFFFFFFFFFFF AND PUSH20 0xFFFFFFFFFFFFFFFFFFFFFFFFFFFFFFFFFFFFFFFF AND CALLER PUSH20 0xFFFFFFFFFFFFFFFFFFFFFFFFFFFFFFFFFFFFFFFF AND EQ PUSH2 0x3BB JUMPI PUSH1 0x0 DUP1 REVERT JUMPDEST PUSH1 0x3 PUSH1 0x0 SWAP1 SLOAD SWAP1 PUSH2 0x100 EXP SWAP1 DIV PUSH20 0xFFFFFFFFFFFFFFFFFFFFFFFFFFFFFFFFFFFFFFFF AND PUSH20 0xFFFFFFFFFFFFFFFFFFFFFFFFFFFFFFFFFFFFFFFF AND BALANCE SWAP1 POP SWAP1 JUMP JUMPDEST PUSH1 0x2 PUSH1 0x0 SWAP1 SLOAD SWAP1 PUSH2 0x100 EXP SWAP1 DIV PUSH20 0xFFFFFFFFFFFFFFFFFFFFFFFFFFFFFFFFFFFFFFFF AND PUSH20 0xFFFFFFFFFFFFFFFFFFFFFFFFFFFFFFFFFFFFFFFF AND CALLER PUSH20 0xFFFFFFFFFFFFFFFFFFFFFFFFFFFFFFFFFFFFFFFF AND EQ PUSH2 0x454 JUMPI PUSH1 0x0 DUP1 REVERT JUMPDEST PUSH1 0x0 PUSH1 0x1 NUMBER PUSH2 0x463 SWAP2 SWAP1 PUSH2 0x92C JUMP JUMPDEST BLOCKHASH SWAP1 POP PUSH1 0x0 PUSH1 0x2 NUMBER PUSH2 0x475 SWAP2 SWAP1 PUSH2 0x92C JUMP JUMPDEST BLOCKHASH SWAP1 POP PUSH1 0x0 PUSH1 0x3 NUMBER PUSH2 0x487 SWAP2 SWAP1 PUSH2 0x92C JUMP JUMPDEST BLOCKHASH SWAP1 POP PUSH1 0x0 DUP4 DUP4 DUP4 PUSH1 0x40 MLOAD PUSH1 0x20 ADD PUSH2 0x4A1 SWAP4 SWAP3 SWAP2 SWAP1 PUSH2 0x98B JUMP JUMPDEST PUSH1 0x40 MLOAD PUSH1 0x20 DUP2 DUP4 SUB SUB DUP2 MSTORE SWAP1 PUSH1 0x40 MSTORE DUP1 MLOAD SWAP1 PUSH1 0x20 ADD KECCAK256 PUSH1 0x0 SHR SWAP1 POP PUSH1 0x0 DUP1 SLOAD SWAP1 POP DUP2 PUSH2 0x4CD SWAP2 SWAP1 PUSH2 0x9F7 JUMP JUMPDEST PUSH1 0x4 DUP2 SWAP1 SSTORE POP PUSH1 0x0 PUSH1 0x4 SLOAD DUP2 SLOAD DUP2 LT PUSH2 0x4E9 JUMPI PUSH2 0x4E8 PUSH2 0x8CE JUMP JUMPDEST JUMPDEST SWAP1 PUSH1 0x0 MSTORE PUSH1 0x20 PUSH1 0x0 KECCAK256 ADD PUSH1 0x0 SWAP1 SLOAD SWAP1 PUSH2 0x100 EXP SWAP1 DIV PUSH20 0xFFFFFFFFFFFFFFFFFFFFFFFFFFFFFFFFFFFFFFFF AND PUSH1 0x1 PUSH1 0x0 PUSH2 0x100 EXP DUP2 SLOAD DUP2 PUSH20 0xFFFFFFFFFFFFFFFFFFFFFFFFFFFFFFFFFFFFFFFF MUL NOT AND SWAP1 DUP4 PUSH20 0xFFFFFFFFFFFFFFFFFFFFFFFFFFFFFFFFFFFFFFFF AND MUL OR SWAP1 SSTORE POP PUSH1 0x1 PUSH1 0x0 SWAP1 SLOAD SWAP1 PUSH2 0x100 EXP SWAP1 DIV PUSH20 0xFFFFFFFFFFFFFFFFFFFFFFFFFFFFFFFFFFFFFFFF AND PUSH20 0xFFFFFFFFFFFFFFFFFFFFFFFFFFFFFFFFFFFFFFFF AND PUSH2 0x8FC PUSH2 0x598 PUSH2 0x35F JUMP JUMPDEST SWAP1 DUP2 ISZERO MUL SWAP1 PUSH1 0x40 MLOAD PUSH1 0x0 PUSH1 0x40 MLOAD DUP1 DUP4 SUB DUP2 DUP6 DUP9 DUP9 CALL SWAP4 POP POP POP POP ISZERO DUP1 ISZERO PUSH2 0x5C3 JUMPI RETURNDATASIZE PUSH1 0x0 DUP1 RETURNDATACOPY RETURNDATASIZE PUSH1 0x0 REVERT JUMPDEST POP PUSH1 0x0 PUSH8 0xFFFFFFFFFFFFFFFF DUP2 GT ISZERO PUSH2 0x5DF JUMPI PUSH2 0x5DE PUSH2 0xA28 JUMP JUMPDEST JUMPDEST PUSH1 0x40 MLOAD SWAP1 DUP1 DUP3 MSTORE DUP1 PUSH1 0x20 MUL PUSH1 0x20 ADD DUP3 ADD PUSH1 0x40 MSTORE DUP1 ISZERO PUSH2 0x60D JUMPI DUP2 PUSH1 0x20 ADD PUSH1 0x20 DUP3 MUL DUP1 CALLDATASIZE DUP4 CALLDATACOPY DUP1 DUP3 ADD SWAP2 POP POP SWAP1 POP JUMPDEST POP PUSH1 0x0 SWAP1 DUP1 MLOAD SWAP1 PUSH1 0x20 ADD SWAP1 PUSH2 0x623 SWAP3 SWAP2 SWAP1 PUSH2 0x6FD JUMP JUMPDEST POP POP POP POP POP JUMP JUMPDEST PUSH1 0x1 PUSH1 0x0 SWAP1 SLOAD SWAP1 PUSH2 0x100 EXP SWAP1 DIV PUSH20 0xFFFFFFFFFFFFFFFFFFFFFFFFFFFFFFFFFFFFFFFF AND DUP2 JUMP JUMPDEST CALLER PUSH1 0x3 PUSH1 0x0 PUSH2 0x100 EXP DUP2 SLOAD DUP2 PUSH20 0xFFFFFFFFFFFFFFFFFFFFFFFFFFFFFFFFFFFFFFFF MUL NOT AND SWAP1 DUP4 PUSH20 0xFFFFFFFFFFFFFFFFFFFFFFFFFFFFFFFFFFFFFFFF AND MUL OR SWAP1 SSTORE POP JUMP JUMPDEST PUSH1 0x0 DUP1 CALLER SWAP1 DUP1 PUSH1 0x1 DUP2 SLOAD ADD DUP1 DUP3 SSTORE DUP1 SWAP2 POP POP PUSH1 0x1 SWAP1 SUB SWAP1 PUSH1 0x0 MSTORE PUSH1 0x20 PUSH1 0x0 KECCAK256 ADD PUSH1 0x0 SWAP1 SWAP2 SWAP1 SWAP2 SWAP1 SWAP2 PUSH2 0x100 EXP DUP2 SLOAD DUP2 PUSH20 0xFFFFFFFFFFFFFFFFFFFFFFFFFFFFFFFFFFFFFFFF MUL NOT AND SWAP1 DUP4 PUSH20 0xFFFFFFFFFFFFFFFFFFFFFFFFFFFFFFFFFFFFFFFF AND MUL OR SWAP1 SSTORE POP CALLER SWAP1 POP SWAP1 JUMP JUMPDEST DUP3 DUP1 SLOAD DUP3 DUP3 SSTORE SWAP1 PUSH1 0x0 MSTORE PUSH1 0x20 PUSH1 0x0 KECCAK256 SWAP1 DUP2 ADD SWAP3 DUP3 ISZERO PUSH2 0x776 JUMPI SWAP2 PUSH1 0x20 MUL DUP3 ADD JUMPDEST DUP3 DUP2 GT ISZERO PUSH2 0x775 JUMPI DUP3 MLOAD DUP3 PUSH1 0x0 PUSH2 0x100 EXP DUP2 SLOAD DUP2 PUSH20 0xFFFFFFFFFFFFFFFFFFFFFFFFFFFFFFFFFFFFFFFF MUL NOT AND SWAP1 DUP4 PUSH20 0xFFFFFFFFFFFFFFFFFFFFFFFFFFFFFFFFFFFFFFFF AND MUL OR SWAP1 SSTORE POP SWAP2 PUSH1 0x20 ADD SWAP2 SWAP1 PUSH1 0x1 ADD SWAP1 PUSH2 0x71D JUMP JUMPDEST JUMPDEST POP SWAP1 POP PUSH2 0x783 SWAP2 SWAP1 PUSH2 0x787 JUMP JUMPDEST POP SWAP1 JUMP JUMPDEST JUMPDEST DUP1 DUP3 GT ISZERO PUSH2 0x7A0 JUMPI PUSH1 0x0 DUP2 PUSH1 0x0 SWAP1 SSTORE POP PUSH1 0x1 ADD PUSH2 0x788 JUMP JUMPDEST POP SWAP1 JUMP JUMPDEST PUSH1 0x0 DUP1 REVERT JUMPDEST PUSH1 0x0 DUP2 SWAP1 POP SWAP2 SWAP1 POP JUMP JUMPDEST PUSH2 0x7BC DUP2 PUSH2 0x7A9 JUMP JUMPDEST DUP2 EQ PUSH2 0x7C7 JUMPI PUSH1 0x0 DUP1 REVERT JUMPDEST POP JUMP JUMPDEST PUSH1 0x0 DUP2 CALLDATALOAD SWAP1 POP PUSH2 0x7D9 DUP2 PUSH2 0x7B3 JUMP JUMPDEST SWAP3 SWAP2 POP POP JUMP JUMPDEST PUSH1 0x0 PUSH1 0x20 DUP3 DUP5 SUB SLT ISZERO PUSH2 0x7F5 JUMPI PUSH2 0x7F4 PUSH2 0x7A4 JUMP JUMPDEST JUMPDEST PUSH1 0x0 PUSH2 0x803 DUP5 DUP3 DUP6 ADD PUSH2 0x7CA JUMP JUMPDEST SWAP2 POP POP SWAP3 SWAP2 POP POP JUMP JUMPDEST PUSH2 0x815 DUP2 PUSH2 0x7A9 JUMP JUMPDEST DUP3 MSTORE POP POP JUMP JUMPDEST PUSH1 0x0 PUSH1 0x20 DUP3 ADD SWAP1 POP PUSH2 0x830 PUSH1 0x0 DUP4 ADD DUP5 PUSH2 0x80C JUMP JUMPDEST SWAP3 SWAP2 POP POP JUMP JUMPDEST PUSH1 0x0 PUSH20 0xFFFFFFFFFFFFFFFFFFFFFFFFFFFFFFFFFFFFFFFF DUP3 AND SWAP1 POP SWAP2 SWAP1 POP JUMP JUMPDEST PUSH1 0x0 PUSH2 0x861 DUP3 PUSH2 0x836 JUMP JUMPDEST SWAP1 POP SWAP2 SWAP1 POP JUMP JUMPDEST PUSH2 0x871 DUP2 PUSH2 0x856 JUMP JUMPDEST DUP3 MSTORE POP POP JUMP JUMPDEST PUSH1 0x0 PUSH1 0x20 DUP3 ADD SWAP1 POP PUSH2 0x88C PUSH1 0x0 DUP4 ADD DUP5 PUSH2 0x868 JUMP JUMPDEST SWAP3 SWAP2 POP POP JUMP JUMPDEST PUSH1 0x0 PUSH2 0x89D DUP3 PUSH2 0x836 JUMP JUMPDEST SWAP1 POP SWAP2 SWAP1 POP JUMP JUMPDEST PUSH2 0x8AD DUP2 PUSH2 0x892 JUMP JUMPDEST DUP3 MSTORE POP POP JUMP JUMPDEST PUSH1 0x0 PUSH1 0x20 DUP3 ADD SWAP1 POP PUSH2 0x8C8 PUSH1 0x0 DUP4 ADD DUP5 PUSH2 0x8A4 JUMP JUMPDEST SWAP3 SWAP2 POP POP JUMP JUMPDEST PUSH32 0x4E487B7100000000000000000000000000000000000000000000000000000000 PUSH1 0x0 MSTORE PUSH1 0x32 PUSH1 0x4 MSTORE PUSH1 0x24 PUSH1 0x0 REVERT JUMPDEST PUSH32 0x4E487B7100000000000000000000000000000000000000000000000000000000 PUSH1 0x0 MSTORE PUSH1 0x11 PUSH1 0x4 MSTORE PUSH1 0x24 PUSH1 0x0 REVERT JUMPDEST PUSH1 0x0 PUSH2 0x937 DUP3 PUSH2 0x7A9 JUMP JUMPDEST SWAP2 POP PUSH2 0x942 DUP4 PUSH2 0x7A9 JUMP JUMPDEST SWAP3 POP DUP3 DUP3 SUB SWAP1 POP DUP2 DUP2 GT ISZERO PUSH2 0x95A JUMPI PUSH2 0x959 PUSH2 0x8FD JUMP JUMPDEST JUMPDEST SWAP3 SWAP2 POP POP JUMP JUMPDEST PUSH1 0x0 DUP2 SWAP1 POP SWAP2 SWAP1 POP JUMP JUMPDEST PUSH1 0x0 DUP2 SWAP1 POP SWAP2 SWAP1 POP JUMP JUMPDEST PUSH2 0x985 PUSH2 0x980 DUP3 PUSH2 0x960 JUMP JUMPDEST PUSH2 0x96A JUMP JUMPDEST DUP3 MSTORE POP POP JUMP JUMPDEST PUSH1 0x0 PUSH2 0x997 DUP3 DUP7 PUSH2 0x974 JUMP JUMPDEST PUSH1 0x20 DUP3 ADD SWAP2 POP PUSH2 0x9A7 DUP3 DUP6 PUSH2 0x974 JUMP JUMPDEST PUSH1 0x20 DUP3 ADD SWAP2 POP PUSH2 0x9B7 DUP3 DUP5 PUSH2 0x974 JUMP JUMPDEST PUSH1 0x20 DUP3 ADD SWAP2 POP DUP2 SWAP1 POP SWAP5 SWAP4 POP POP POP POP JUMP JUMPDEST PUSH32 0x4E487B7100000000000000000000000000000000000000000000000000000000 PUSH1 0x0 MSTORE PUSH1 0x12 PUSH1 0x4 MSTORE PUSH1 0x24 PUSH1 0x0 REVERT JUMPDEST PUSH1 0x0 PUSH2 0xA02 DUP3 PUSH2 0x7A9 JUMP JUMPDEST SWAP2 POP PUSH2 0xA0D DUP4 PUSH2 0x7A9 JUMP JUMPDEST SWAP3 POP DUP3 PUSH2 0xA1D JUMPI PUSH2 0xA1C PUSH2 0x9C8 JUMP JUMPDEST JUMPDEST DUP3 DUP3 MOD SWAP1 POP SWAP3 SWAP2 POP POP JUMP JUMPDEST PUSH32 0x4E487B7100000000000000000000000000000000000000000000000000000000 PUSH1 0x0 MSTORE PUSH1 0x41 PUSH1 0x4 MSTORE PUSH1 0x24 PUSH1 0x0 REVERT INVALID LOG2 PUSH5 0x6970667358 0x22 SLT KECCAK256 EXTCODESIZE JUMP ADDRESS 0x26 SWAP12 DUP2 0xDE PUSH27 0xBF20FEE384EB0764DBA3F3A99698B44652D971C416E625164736F PUSH13 0x63430008120033000000000000 "
				},
				"gasEstimates": {
					"creation": {
						"codeDepositCost": "540200",
						"executionCost": "575",
						"totalCost": "540775"
					},
					"external": {
						"_1setLotteryAccount()": "24455",
						"_2setManagerAccount()": "24476",
						"_3participate()": "49051",
						"_4payLotteryFee(uint256)": "infinite",
						"_5getBalance()": "7249",
						"_6getRandomWinner()": "infinite",
						"_7getWinnerBalance()": "9415",
						"lotteryManager()": "2581",
						"winner()": "2558"
					}
				},
				"methodIdentifiers": {
					"_1setLotteryAccount()": "368e1bb6",
					"_2setManagerAccount()": "eef0c4d9",
					"_3participate()": "fcc185b1",
					"_4payLotteryFee(uint256)": "0036bbf3",
					"_5getBalance()": "76cb699f",
					"_6getRandomWinner()": "aa007e52",
					"_7getWinnerBalance()": "23399a0b",
					"lotteryManager()": "4f989520",
					"winner()": "dfbf53ae"
				}
			},
			"storageLayout": {
				"storage": [
					{
						"astId": 4,
						"contract": "contracts/LotteryWinnerDemo.sol:Lottery",
						"label": "participant",
						"offset": 0,
						"slot": "0",
						"type": "t_array(t_address)dyn_storage"
					},
					{
						"astId": 6,
						"contract": "contracts/LotteryWinnerDemo.sol:Lottery",
						"label": "winner",
						"offset": 0,
						"slot": "1",
						"type": "t_address_payable"
					},
					{
						"astId": 8,
						"contract": "contracts/LotteryWinnerDemo.sol:Lottery",
						"label": "lotteryManager",
						"offset": 0,
						"slot": "2",
						"type": "t_address"
					},
					{
						"astId": 10,
						"contract": "contracts/LotteryWinnerDemo.sol:Lottery",
						"label": "lotterAccount",
						"offset": 0,
						"slot": "3",
						"type": "t_address_payable"
					},
					{
						"astId": 12,
						"contract": "contracts/LotteryWinnerDemo.sol:Lottery",
						"label": "number",
						"offset": 0,
						"slot": "4",
						"type": "t_uint256"
					}
				],
				"types": {
					"t_address": {
						"encoding": "inplace",
						"label": "address",
						"numberOfBytes": "20"
					},
					"t_address_payable": {
						"encoding": "inplace",
						"label": "address payable",
						"numberOfBytes": "20"
					},
					"t_array(t_address)dyn_storage": {
						"base": "t_address",
						"encoding": "dynamic_array",
						"label": "address[]",
						"numberOfBytes": "32"
					},
					"t_uint256": {
						"encoding": "inplace",
						"label": "uint256",
						"numberOfBytes": "32"
					}
				}
			},
			"userdoc": {
				"kind": "user",
				"methods": {},
				"version": 1
			}
		}
	}
}