{
	"contracts/prac.sol": {
		"MBD_BANK": {
			"abi": [
				{
					"anonymous": false,
					"inputs": [
						{
							"indexed": false,
							"internalType": "address",
							"name": "",
							"type": "address"
						},
						{
							"indexed": false,
							"internalType": "string",
							"name": "",
							"type": "string"
						},
						{
							"indexed": false,
							"internalType": "uint256",
							"name": "",
							"type": "uint256"
						}
					],
					"name": "logTransactionFlow",
					"type": "event"
				},
				{
					"inputs": [],
					"name": "depositMoney",
					"outputs": [],
					"stateMutability": "payable",
					"type": "function"
				},
				{
					"inputs": [],
					"name": "getBalance",
					"outputs": [
						{
							"internalType": "uint256",
							"name": "_userBalance",
							"type": "uint256"
						}
					],
					"stateMutability": "view",
					"type": "function"
				},
				{
					"inputs": [
						{
							"internalType": "address payable",
							"name": "to",
							"type": "address"
						},
						{
							"internalType": "uint256",
							"name": "amount",
							"type": "uint256"
						}
					],
					"name": "transferAmount",
					"outputs": [
						{
							"internalType": "uint256",
							"name": "updatedBalance",
							"type": "uint256"
						}
					],
					"stateMutability": "payable",
					"type": "function"
				},
				{
					"inputs": [
						{
							"internalType": "uint256",
							"name": "amount",
							"type": "uint256"
						}
					],
					"name": "withdrawAmount",
					"outputs": [],
					"stateMutability": "nonpayable",
					"type": "function"
				}
			],
			"devdoc": {
				"kind": "dev",
				"methods": {},
				"version": 1
			},
			"evm": {
				"assembly": "    /* \"contracts/prac.sol\":63:2730  contract MBD_BANK {... */\n  mstore(0x40, 0x80)\n  callvalue\n  dup1\n  iszero\n  tag_1\n  jumpi\n  0x00\n  dup1\n  revert\ntag_1:\n  pop\n  dataSize(sub_0)\n  dup1\n  dataOffset(sub_0)\n  0x00\n  codecopy\n  0x00\n  return\nstop\n\nsub_0: assembly {\n        /* \"contracts/prac.sol\":63:2730  contract MBD_BANK {... */\n      mstore(0x40, 0x80)\n      jumpi(tag_1, lt(calldatasize, 0x04))\n      shr(0xe0, calldataload(0x00))\n      dup1\n      0x0562b9f7\n      eq\n      tag_2\n      jumpi\n      dup1\n      0x12065fe0\n      eq\n      tag_3\n      jumpi\n      dup1\n      0x16c05aa2\n      eq\n      tag_4\n      jumpi\n      dup1\n      0xd7081e03\n      eq\n      tag_5\n      jumpi\n    tag_1:\n      0x00\n      dup1\n      revert\n        /* \"contracts/prac.sol\":2206:2727  function withdrawAmount(uint amount) public mapUser {... */\n    tag_2:\n      callvalue\n      dup1\n      iszero\n      tag_6\n      jumpi\n      0x00\n      dup1\n      revert\n    tag_6:\n      pop\n      tag_7\n      0x04\n      dup1\n      calldatasize\n      sub\n      dup2\n      add\n      swap1\n      tag_8\n      swap2\n      swap1\n      tag_9\n      jump\t// in\n    tag_8:\n      tag_10\n      jump\t// in\n    tag_7:\n      stop\n        /* \"contracts/prac.sol\":628:758  function getBalance() public view returns (uint _userBalance) {... */\n    tag_3:\n      callvalue\n      dup1\n      iszero\n      tag_11\n      jumpi\n      0x00\n      dup1\n      revert\n    tag_11:\n      pop\n      tag_12\n      tag_13\n      jump\t// in\n    tag_12:\n      mload(0x40)\n      tag_14\n      swap2\n      swap1\n      tag_15\n      jump\t// in\n    tag_14:\n      mload(0x40)\n      dup1\n      swap2\n      sub\n      swap1\n      return\n        /* \"contracts/prac.sol\":766:1233  function depositMoney() public payable mapUser {... */\n    tag_4:\n      tag_16\n      tag_17\n      jump\t// in\n    tag_16:\n      stop\n        /* \"contracts/prac.sol\":1241:2191  function  transferAmount(address payable to, uint amount) ... */\n    tag_5:\n      tag_18\n      0x04\n      dup1\n      calldatasize\n      sub\n      dup2\n      add\n      swap1\n      tag_19\n      swap2\n      swap1\n      tag_20\n      jump\t// in\n    tag_19:\n      tag_21\n      jump\t// in\n    tag_18:\n      mload(0x40)\n      tag_22\n      swap2\n      swap1\n      tag_15\n      jump\t// in\n    tag_22:\n      mload(0x40)\n      dup1\n      swap2\n      sub\n      swap1\n      return\n        /* \"contracts/prac.sol\":2206:2727  function withdrawAmount(uint amount) public mapUser {... */\n    tag_10:\n        /* \"contracts/prac.sol\":270:283  userExitOrNot */\n      0x01\n        /* \"contracts/prac.sol\":270:295  userExitOrNot[msg.sender] */\n      0x00\n        /* \"contracts/prac.sol\":284:294  msg.sender */\n      caller\n        /* \"contracts/prac.sol\":270:295  userExitOrNot[msg.sender] */\n      0xffffffffffffffffffffffffffffffffffffffff\n      and\n      0xffffffffffffffffffffffffffffffffffffffff\n      and\n      dup2\n      mstore\n      0x20\n      add\n      swap1\n      dup2\n      mstore\n      0x20\n      add\n      0x00\n      keccak256\n      0x00\n      swap1\n      sload\n      swap1\n      0x0100\n      exp\n      swap1\n      div\n      0xff\n      and\n        /* \"contracts/prac.sol\":266:600  if (userExitOrNot[msg.sender]) {... */\n      iszero\n      tag_24\n      jumpi\n        /* \"contracts/prac.sol\":340:350  msg.sender */\n      caller\n        /* \"contracts/prac.sol\":340:358  msg.sender.balance */\n      0xffffffffffffffffffffffffffffffffffffffff\n      and\n      balance\n        /* \"contracts/prac.sol\":312:325  balanceLedger */\n      0x00\n        /* \"contracts/prac.sol\":312:337  balanceLedger[msg.sender] */\n      dup1\n        /* \"contracts/prac.sol\":326:336  msg.sender */\n      caller\n        /* \"contracts/prac.sol\":312:337  balanceLedger[msg.sender] */\n      0xffffffffffffffffffffffffffffffffffffffff\n      and\n      0xffffffffffffffffffffffffffffffffffffffff\n      and\n      dup2\n      mstore\n      0x20\n      add\n      swap1\n      dup2\n      mstore\n      0x20\n      add\n      0x00\n      keccak256\n        /* \"contracts/prac.sol\":312:358  balanceLedger[msg.sender] = msg.sender.balance */\n      dup2\n      swap1\n      sstore\n      pop\n        /* \"contracts/prac.sol\":403:407  true */\n      0x01\n        /* \"contracts/prac.sol\":375:388  userExitOrNot */\n      dup1\n        /* \"contracts/prac.sol\":375:400  userExitOrNot[msg.sender] */\n      0x00\n        /* \"contracts/prac.sol\":389:399  msg.sender */\n      caller\n        /* \"contracts/prac.sol\":375:400  userExitOrNot[msg.sender] */\n      0xffffffffffffffffffffffffffffffffffffffff\n      and\n      0xffffffffffffffffffffffffffffffffffffffff\n      and\n      dup2\n      mstore\n      0x20\n      add\n      swap1\n      dup2\n      mstore\n      0x20\n      add\n      0x00\n      keccak256\n      0x00\n        /* \"contracts/prac.sol\":375:407  userExitOrNot[msg.sender] = true */\n      0x0100\n      exp\n      dup2\n      sload\n      dup2\n      0xff\n      mul\n      not\n      and\n      swap1\n      dup4\n      iszero\n      iszero\n      mul\n      or\n      swap1\n      sstore\n      pop\n        /* \"contracts/prac.sol\":427:575  logTransactionFlow(... */\n      0x3928eb6c73f8b27f8264006f092393f8ff2e5684ac2e649d0a932ae36df69088\n        /* \"contracts/prac.sol\":464:474  msg.sender */\n      caller\n        /* \"contracts/prac.sol\":542:552  msg.sender */\n      caller\n        /* \"contracts/prac.sol\":542:560  msg.sender.balance */\n      0xffffffffffffffffffffffffffffffffffffffff\n      and\n      balance\n        /* \"contracts/prac.sol\":427:575  logTransactionFlow(... */\n      mload(0x40)\n      tag_25\n      swap3\n      swap2\n      swap1\n      tag_26\n      jump\t// in\n    tag_25:\n      mload(0x40)\n      dup1\n      swap2\n      sub\n      swap1\n      log1\n        /* \"contracts/prac.sol\":266:600  if (userExitOrNot[msg.sender]) {... */\n    tag_24:\n        /* \"contracts/prac.sol\":2407:2413  amount */\n      dup1\n        /* \"contracts/prac.sol\":2378:2391  balanceLedger */\n      0x00\n        /* \"contracts/prac.sol\":2378:2403  balanceLedger[msg.sender] */\n      dup1\n        /* \"contracts/prac.sol\":2392:2402  msg.sender */\n      caller\n        /* \"contracts/prac.sol\":2378:2403  balanceLedger[msg.sender] */\n      0xffffffffffffffffffffffffffffffffffffffff\n      and\n      0xffffffffffffffffffffffffffffffffffffffff\n      and\n      dup2\n      mstore\n      0x20\n      add\n      swap1\n      dup2\n      mstore\n      0x20\n      add\n      0x00\n      keccak256\n      sload\n        /* \"contracts/prac.sol\":2378:2413  balanceLedger[msg.sender] >= amount */\n      lt\n      iszero\n        /* \"contracts/prac.sol\":2356:2488  require(... */\n      tag_28\n      jumpi\n      mload(0x40)\n      0x08c379a000000000000000000000000000000000000000000000000000000000\n      dup2\n      mstore\n      0x04\n      add\n      tag_29\n      swap1\n      tag_30\n      jump\t// in\n    tag_29:\n      mload(0x40)\n      dup1\n      swap2\n      sub\n      swap1\n      revert\n    tag_28:\n        /* \"contracts/prac.sol\":2555:2561  amount */\n      dup1\n        /* \"contracts/prac.sol\":2527:2540  balanceLedger */\n      0x00\n        /* \"contracts/prac.sol\":2527:2552  balanceLedger[msg.sender] */\n      dup1\n        /* \"contracts/prac.sol\":2541:2551  msg.sender */\n      caller\n        /* \"contracts/prac.sol\":2527:2552  balanceLedger[msg.sender] */\n      0xffffffffffffffffffffffffffffffffffffffff\n      and\n      0xffffffffffffffffffffffffffffffffffffffff\n      and\n      dup2\n      mstore\n      0x20\n      add\n      swap1\n      dup2\n      mstore\n      0x20\n      add\n      0x00\n      keccak256\n      sload\n        /* \"contracts/prac.sol\":2527:2561  balanceLedger[msg.sender] - amount */\n      tag_31\n      swap2\n      swap1\n      tag_32\n      jump\t// in\n    tag_31:\n        /* \"contracts/prac.sol\":2499:2512  balanceLedger */\n      0x00\n        /* \"contracts/prac.sol\":2499:2524  balanceLedger[msg.sender] */\n      dup1\n        /* \"contracts/prac.sol\":2513:2523  msg.sender */\n      caller\n        /* \"contracts/prac.sol\":2499:2524  balanceLedger[msg.sender] */\n      0xffffffffffffffffffffffffffffffffffffffff\n      and\n      0xffffffffffffffffffffffffffffffffffffffff\n      and\n      dup2\n      mstore\n      0x20\n      add\n      swap1\n      dup2\n      mstore\n      0x20\n      add\n      0x00\n      keccak256\n        /* \"contracts/prac.sol\":2499:2561  balanceLedger[msg.sender] = balanceLedger[msg.sender] - amount */\n      dup2\n      swap1\n      sstore\n      pop\n        /* \"contracts/prac.sol\":2579:2719  logTransactionFlow(... */\n      0x3928eb6c73f8b27f8264006f092393f8ff2e5684ac2e649d0a932ae36df69088\n        /* \"contracts/prac.sol\":2612:2622  msg.sender */\n      caller\n        /* \"contracts/prac.sol\":2683:2696  balanceLedger */\n      0x00\n        /* \"contracts/prac.sol\":2683:2708  balanceLedger[msg.sender] */\n      dup1\n        /* \"contracts/prac.sol\":2697:2707  msg.sender */\n      caller\n        /* \"contracts/prac.sol\":2683:2708  balanceLedger[msg.sender] */\n      0xffffffffffffffffffffffffffffffffffffffff\n      and\n      0xffffffffffffffffffffffffffffffffffffffff\n      and\n      dup2\n      mstore\n      0x20\n      add\n      swap1\n      dup2\n      mstore\n      0x20\n      add\n      0x00\n      keccak256\n      sload\n        /* \"contracts/prac.sol\":2579:2719  logTransactionFlow(... */\n      mload(0x40)\n      tag_33\n      swap3\n      swap2\n      swap1\n      tag_34\n      jump\t// in\n    tag_33:\n      mload(0x40)\n      dup1\n      swap2\n      sub\n      swap1\n      log1\n        /* \"contracts/prac.sol\":2206:2727  function withdrawAmount(uint amount) public mapUser {... */\n      pop\n      jump\t// out\n        /* \"contracts/prac.sol\":628:758  function getBalance() public view returns (uint _userBalance) {... */\n    tag_13:\n        /* \"contracts/prac.sol\":671:688  uint _userBalance */\n      0x00\n        /* \"contracts/prac.sol\":718:731  balanceLedger */\n      dup1\n        /* \"contracts/prac.sol\":718:743  balanceLedger[msg.sender] */\n      0x00\n        /* \"contracts/prac.sol\":732:742  msg.sender */\n      caller\n        /* \"contracts/prac.sol\":718:743  balanceLedger[msg.sender] */\n      0xffffffffffffffffffffffffffffffffffffffff\n      and\n      0xffffffffffffffffffffffffffffffffffffffff\n      and\n      dup2\n      mstore\n      0x20\n      add\n      swap1\n      dup2\n      mstore\n      0x20\n      add\n      0x00\n      keccak256\n      sload\n        /* \"contracts/prac.sol\":711:743  return balanceLedger[msg.sender] */\n      swap1\n      pop\n        /* \"contracts/prac.sol\":628:758  function getBalance() public view returns (uint _userBalance) {... */\n      swap1\n      jump\t// out\n        /* \"contracts/prac.sol\":766:1233  function depositMoney() public payable mapUser {... */\n    tag_17:\n        /* \"contracts/prac.sol\":270:283  userExitOrNot */\n      0x01\n        /* \"contracts/prac.sol\":270:295  userExitOrNot[msg.sender] */\n      0x00\n        /* \"contracts/prac.sol\":284:294  msg.sender */\n      caller\n        /* \"contracts/prac.sol\":270:295  userExitOrNot[msg.sender] */\n      0xffffffffffffffffffffffffffffffffffffffff\n      and\n      0xffffffffffffffffffffffffffffffffffffffff\n      and\n      dup2\n      mstore\n      0x20\n      add\n      swap1\n      dup2\n      mstore\n      0x20\n      add\n      0x00\n      keccak256\n      0x00\n      swap1\n      sload\n      swap1\n      0x0100\n      exp\n      swap1\n      div\n      0xff\n      and\n        /* \"contracts/prac.sol\":266:600  if (userExitOrNot[msg.sender]) {... */\n      iszero\n      tag_37\n      jumpi\n        /* \"contracts/prac.sol\":340:350  msg.sender */\n      caller\n        /* \"contracts/prac.sol\":340:358  msg.sender.balance */\n      0xffffffffffffffffffffffffffffffffffffffff\n      and\n      balance\n        /* \"contracts/prac.sol\":312:325  balanceLedger */\n      0x00\n        /* \"contracts/prac.sol\":312:337  balanceLedger[msg.sender] */\n      dup1\n        /* \"contracts/prac.sol\":326:336  msg.sender */\n      caller\n        /* \"contracts/prac.sol\":312:337  balanceLedger[msg.sender] */\n      0xffffffffffffffffffffffffffffffffffffffff\n      and\n      0xffffffffffffffffffffffffffffffffffffffff\n      and\n      dup2\n      mstore\n      0x20\n      add\n      swap1\n      dup2\n      mstore\n      0x20\n      add\n      0x00\n      keccak256\n        /* \"contracts/prac.sol\":312:358  balanceLedger[msg.sender] = msg.sender.balance */\n      dup2\n      swap1\n      sstore\n      pop\n        /* \"contracts/prac.sol\":403:407  true */\n      0x01\n        /* \"contracts/prac.sol\":375:388  userExitOrNot */\n      dup1\n        /* \"contracts/prac.sol\":375:400  userExitOrNot[msg.sender] */\n      0x00\n        /* \"contracts/prac.sol\":389:399  msg.sender */\n      caller\n        /* \"contracts/prac.sol\":375:400  userExitOrNot[msg.sender] */\n      0xffffffffffffffffffffffffffffffffffffffff\n      and\n      0xffffffffffffffffffffffffffffffffffffffff\n      and\n      dup2\n      mstore\n      0x20\n      add\n      swap1\n      dup2\n      mstore\n      0x20\n      add\n      0x00\n      keccak256\n      0x00\n        /* \"contracts/prac.sol\":375:407  userExitOrNot[msg.sender] = true */\n      0x0100\n      exp\n      dup2\n      sload\n      dup2\n      0xff\n      mul\n      not\n      and\n      swap1\n      dup4\n      iszero\n      iszero\n      mul\n      or\n      swap1\n      sstore\n      pop\n        /* \"contracts/prac.sol\":427:575  logTransactionFlow(... */\n      0x3928eb6c73f8b27f8264006f092393f8ff2e5684ac2e649d0a932ae36df69088\n        /* \"contracts/prac.sol\":464:474  msg.sender */\n      caller\n        /* \"contracts/prac.sol\":542:552  msg.sender */\n      caller\n        /* \"contracts/prac.sol\":542:560  msg.sender.balance */\n      0xffffffffffffffffffffffffffffffffffffffff\n      and\n      balance\n        /* \"contracts/prac.sol\":427:575  logTransactionFlow(... */\n      mload(0x40)\n      tag_38\n      swap3\n      swap2\n      swap1\n      tag_26\n      jump\t// in\n    tag_38:\n      mload(0x40)\n      dup1\n      swap2\n      sub\n      swap1\n      log1\n        /* \"contracts/prac.sol\":266:600  if (userExitOrNot[msg.sender]) {... */\n    tag_37:\n        /* \"contracts/prac.sol\":902:903  0 */\n      0x00\n        /* \"contracts/prac.sol\":890:899  msg.value */\n      callvalue\n        /* \"contracts/prac.sol\":890:903  msg.value > 0 */\n      gt\n        /* \"contracts/prac.sol\":868:983  require(... */\n      tag_40\n      jumpi\n      mload(0x40)\n      0x08c379a000000000000000000000000000000000000000000000000000000000\n      dup2\n      mstore\n      0x04\n      add\n      tag_41\n      swap1\n      tag_42\n      jump\t// in\n    tag_41:\n      mload(0x40)\n      dup1\n      swap2\n      sub\n      swap1\n      revert\n    tag_40:\n        /* \"contracts/prac.sol\":1060:1069  msg.value */\n      callvalue\n        /* \"contracts/prac.sol\":1032:1045  balanceLedger */\n      0x00\n        /* \"contracts/prac.sol\":1032:1057  balanceLedger[msg.sender] */\n      dup1\n        /* \"contracts/prac.sol\":1046:1056  msg.sender */\n      caller\n        /* \"contracts/prac.sol\":1032:1057  balanceLedger[msg.sender] */\n      0xffffffffffffffffffffffffffffffffffffffff\n      and\n      0xffffffffffffffffffffffffffffffffffffffff\n      and\n      dup2\n      mstore\n      0x20\n      add\n      swap1\n      dup2\n      mstore\n      0x20\n      add\n      0x00\n      keccak256\n      sload\n        /* \"contracts/prac.sol\":1032:1069  balanceLedger[msg.sender] + msg.value */\n      tag_43\n      swap2\n      swap1\n      tag_44\n      jump\t// in\n    tag_43:\n        /* \"contracts/prac.sol\":1004:1017  balanceLedger */\n      0x00\n        /* \"contracts/prac.sol\":1004:1029  balanceLedger[msg.sender] */\n      dup1\n        /* \"contracts/prac.sol\":1018:1028  msg.sender */\n      caller\n        /* \"contracts/prac.sol\":1004:1029  balanceLedger[msg.sender] */\n      0xffffffffffffffffffffffffffffffffffffffff\n      and\n      0xffffffffffffffffffffffffffffffffffffffff\n      and\n      dup2\n      mstore\n      0x20\n      add\n      swap1\n      dup2\n      mstore\n      0x20\n      add\n      0x00\n      keccak256\n        /* \"contracts/prac.sol\":1004:1069  balanceLedger[msg.sender] = balanceLedger[msg.sender] + msg.value */\n      dup2\n      swap1\n      sstore\n      pop\n        /* \"contracts/prac.sol\":1095:1225  logTransactionFlow(... */\n      0x3928eb6c73f8b27f8264006f092393f8ff2e5684ac2e649d0a932ae36df69088\n        /* \"contracts/prac.sol\":1128:1138  msg.sender */\n      caller\n        /* \"contracts/prac.sol\":1198:1211  balanceLedger */\n      0x00\n        /* \"contracts/prac.sol\":1198:1223  balanceLedger[msg.sender] */\n      dup1\n        /* \"contracts/prac.sol\":1212:1222  msg.sender */\n      caller\n        /* \"contracts/prac.sol\":1198:1223  balanceLedger[msg.sender] */\n      0xffffffffffffffffffffffffffffffffffffffff\n      and\n      0xffffffffffffffffffffffffffffffffffffffff\n      and\n      dup2\n      mstore\n      0x20\n      add\n      swap1\n      dup2\n      mstore\n      0x20\n      add\n      0x00\n      keccak256\n      sload\n        /* \"contracts/prac.sol\":1095:1225  logTransactionFlow(... */\n      mload(0x40)\n      tag_45\n      swap3\n      swap2\n      swap1\n      tag_46\n      jump\t// in\n    tag_45:\n      mload(0x40)\n      dup1\n      swap2\n      sub\n      swap1\n      log1\n        /* \"contracts/prac.sol\":766:1233  function depositMoney() public payable mapUser {... */\n      jump\t// out\n        /* \"contracts/prac.sol\":1241:2191  function  transferAmount(address payable to, uint amount) ... */\n    tag_21:\n        /* \"contracts/prac.sol\":1360:1379  uint updatedBalance */\n      0x00\n        /* \"contracts/prac.sol\":270:283  userExitOrNot */\n      0x01\n        /* \"contracts/prac.sol\":270:295  userExitOrNot[msg.sender] */\n      0x00\n        /* \"contracts/prac.sol\":284:294  msg.sender */\n      caller\n        /* \"contracts/prac.sol\":270:295  userExitOrNot[msg.sender] */\n      0xffffffffffffffffffffffffffffffffffffffff\n      and\n      0xffffffffffffffffffffffffffffffffffffffff\n      and\n      dup2\n      mstore\n      0x20\n      add\n      swap1\n      dup2\n      mstore\n      0x20\n      add\n      0x00\n      keccak256\n      0x00\n      swap1\n      sload\n      swap1\n      0x0100\n      exp\n      swap1\n      div\n      0xff\n      and\n        /* \"contracts/prac.sol\":266:600  if (userExitOrNot[msg.sender]) {... */\n      iszero\n      tag_48\n      jumpi\n        /* \"contracts/prac.sol\":340:350  msg.sender */\n      caller\n        /* \"contracts/prac.sol\":340:358  msg.sender.balance */\n      0xffffffffffffffffffffffffffffffffffffffff\n      and\n      balance\n        /* \"contracts/prac.sol\":312:325  balanceLedger */\n      0x00\n        /* \"contracts/prac.sol\":312:337  balanceLedger[msg.sender] */\n      dup1\n        /* \"contracts/prac.sol\":326:336  msg.sender */\n      caller\n        /* \"contracts/prac.sol\":312:337  balanceLedger[msg.sender] */\n      0xffffffffffffffffffffffffffffffffffffffff\n      and\n      0xffffffffffffffffffffffffffffffffffffffff\n      and\n      dup2\n      mstore\n      0x20\n      add\n      swap1\n      dup2\n      mstore\n      0x20\n      add\n      0x00\n      keccak256\n        /* \"contracts/prac.sol\":312:358  balanceLedger[msg.sender] = msg.sender.balance */\n      dup2\n      swap1\n      sstore\n      pop\n        /* \"contracts/prac.sol\":403:407  true */\n      0x01\n        /* \"contracts/prac.sol\":375:388  userExitOrNot */\n      dup1\n        /* \"contracts/prac.sol\":375:400  userExitOrNot[msg.sender] */\n      0x00\n        /* \"contracts/prac.sol\":389:399  msg.sender */\n      caller\n        /* \"contracts/prac.sol\":375:400  userExitOrNot[msg.sender] */\n      0xffffffffffffffffffffffffffffffffffffffff\n      and\n      0xffffffffffffffffffffffffffffffffffffffff\n      and\n      dup2\n      mstore\n      0x20\n      add\n      swap1\n      dup2\n      mstore\n      0x20\n      add\n      0x00\n      keccak256\n      0x00\n        /* \"contracts/prac.sol\":375:407  userExitOrNot[msg.sender] = true */\n      0x0100\n      exp\n      dup2\n      sload\n      dup2\n      0xff\n      mul\n      not\n      and\n      swap1\n      dup4\n      iszero\n      iszero\n      mul\n      or\n      swap1\n      sstore\n      pop\n        /* \"contracts/prac.sol\":427:575  logTransactionFlow(... */\n      0x3928eb6c73f8b27f8264006f092393f8ff2e5684ac2e649d0a932ae36df69088\n        /* \"contracts/prac.sol\":464:474  msg.sender */\n      caller\n        /* \"contracts/prac.sol\":542:552  msg.sender */\n      caller\n        /* \"contracts/prac.sol\":542:560  msg.sender.balance */\n      0xffffffffffffffffffffffffffffffffffffffff\n      and\n      balance\n        /* \"contracts/prac.sol\":427:575  logTransactionFlow(... */\n      mload(0x40)\n      tag_49\n      swap3\n      swap2\n      swap1\n      tag_26\n      jump\t// in\n    tag_49:\n      mload(0x40)\n      dup1\n      swap2\n      sub\n      swap1\n      log1\n        /* \"contracts/prac.sol\":266:600  if (userExitOrNot[msg.sender]) {... */\n    tag_48:\n        /* \"contracts/prac.sol\":1641:1642  0 */\n      0x00\n        /* \"contracts/prac.sol\":1632:1638  amount */\n      dup3\n        /* \"contracts/prac.sol\":1632:1642  amount > 0 */\n      gt\n        /* \"contracts/prac.sol\":1610:1722  require(... */\n      tag_51\n      jumpi\n      mload(0x40)\n      0x08c379a000000000000000000000000000000000000000000000000000000000\n      dup2\n      mstore\n      0x04\n      add\n      tag_52\n      swap1\n      tag_53\n      jump\t// in\n    tag_52:\n      mload(0x40)\n      dup1\n      swap2\n      sub\n      swap1\n      revert\n    tag_51:\n        /* \"contracts/prac.sol\":1786:1792  amount */\n      dup2\n        /* \"contracts/prac.sol\":1757:1770  balanceLedger */\n      0x00\n        /* \"contracts/prac.sol\":1757:1782  balanceLedger[msg.sender] */\n      dup1\n        /* \"contracts/prac.sol\":1771:1781  msg.sender */\n      caller\n        /* \"contracts/prac.sol\":1757:1782  balanceLedger[msg.sender] */\n      0xffffffffffffffffffffffffffffffffffffffff\n      and\n      0xffffffffffffffffffffffffffffffffffffffff\n      and\n      dup2\n      mstore\n      0x20\n      add\n      swap1\n      dup2\n      mstore\n      0x20\n      add\n      0x00\n      keccak256\n      sload\n        /* \"contracts/prac.sol\":1757:1792  balanceLedger[msg.sender] >= amount */\n      lt\n      iszero\n        /* \"contracts/prac.sol\":1735:1867  require(... */\n      tag_54\n      jumpi\n      mload(0x40)\n      0x08c379a000000000000000000000000000000000000000000000000000000000\n      dup2\n      mstore\n      0x04\n      add\n      tag_55\n      swap1\n      tag_30\n      jump\t// in\n    tag_55:\n      mload(0x40)\n      dup1\n      swap2\n      sub\n      swap1\n      revert\n    tag_54:\n        /* \"contracts/prac.sol\":1936:1942  amount */\n      dup2\n        /* \"contracts/prac.sol\":1908:1921  balanceLedger */\n      0x00\n        /* \"contracts/prac.sol\":1908:1933  balanceLedger[msg.sender] */\n      dup1\n        /* \"contracts/prac.sol\":1922:1932  msg.sender */\n      caller\n        /* \"contracts/prac.sol\":1908:1933  balanceLedger[msg.sender] */\n      0xffffffffffffffffffffffffffffffffffffffff\n      and\n      0xffffffffffffffffffffffffffffffffffffffff\n      and\n      dup2\n      mstore\n      0x20\n      add\n      swap1\n      dup2\n      mstore\n      0x20\n      add\n      0x00\n      keccak256\n      sload\n        /* \"contracts/prac.sol\":1908:1942  balanceLedger[msg.sender] - amount */\n      tag_56\n      swap2\n      swap1\n      tag_32\n      jump\t// in\n    tag_56:\n        /* \"contracts/prac.sol\":1880:1893  balanceLedger */\n      0x00\n        /* \"contracts/prac.sol\":1880:1905  balanceLedger[msg.sender] */\n      dup1\n        /* \"contracts/prac.sol\":1894:1904  msg.sender */\n      caller\n        /* \"contracts/prac.sol\":1880:1905  balanceLedger[msg.sender] */\n      0xffffffffffffffffffffffffffffffffffffffff\n      and\n      0xffffffffffffffffffffffffffffffffffffffff\n      and\n      dup2\n      mstore\n      0x20\n      add\n      swap1\n      dup2\n      mstore\n      0x20\n      add\n      0x00\n      keccak256\n        /* \"contracts/prac.sol\":1880:1942  balanceLedger[msg.sender] = balanceLedger[msg.sender] - amount */\n      dup2\n      swap1\n      sstore\n      pop\n        /* \"contracts/prac.sol\":1953:1955  to */\n      dup3\n        /* \"contracts/prac.sol\":1953:1964  to.transfer */\n      0xffffffffffffffffffffffffffffffffffffffff\n      and\n        /* \"contracts/prac.sol\":1953:1972  to.transfer(amount) */\n      0x08fc\n        /* \"contracts/prac.sol\":1965:1971  amount */\n      dup4\n        /* \"contracts/prac.sol\":1953:1972  to.transfer(amount) */\n      swap1\n      dup2\n      iszero\n      mul\n      swap1\n      mload(0x40)\n      0x00\n      mload(0x40)\n      dup1\n      dup4\n      sub\n      dup2\n      dup6\n      dup9\n      dup9\n      call\n      swap4\n      pop\n      pop\n      pop\n      pop\n      iszero\n      dup1\n      iszero\n      tag_58\n      jumpi\n      returndatasize\n      0x00\n      dup1\n      returndatacopy\n      revert(0x00, returndatasize)\n    tag_58:\n      pop\n        /* \"contracts/prac.sol\":1994:2111  logTransactionFlow(... */\n      0x3928eb6c73f8b27f8264006f092393f8ff2e5684ac2e649d0a932ae36df69088\n        /* \"contracts/prac.sol\":2027:2029  to */\n      dup4\n        /* \"contracts/prac.sol\":2090:2092  to */\n      dup5\n        /* \"contracts/prac.sol\":2090:2100  to.balance */\n      0xffffffffffffffffffffffffffffffffffffffff\n      and\n      balance\n        /* \"contracts/prac.sol\":1994:2111  logTransactionFlow(... */\n      mload(0x40)\n      tag_59\n      swap3\n      swap2\n      swap1\n      tag_60\n      jump\t// in\n    tag_59:\n      mload(0x40)\n      dup1\n      swap2\n      sub\n      swap1\n      log1\n        /* \"contracts/prac.sol\":2149:2162  balanceLedger */\n      0x00\n        /* \"contracts/prac.sol\":2149:2174  balanceLedger[msg.sender] */\n      dup1\n        /* \"contracts/prac.sol\":2163:2173  msg.sender */\n      caller\n        /* \"contracts/prac.sol\":2149:2174  balanceLedger[msg.sender] */\n      0xffffffffffffffffffffffffffffffffffffffff\n      and\n      0xffffffffffffffffffffffffffffffffffffffff\n      and\n      dup2\n      mstore\n      0x20\n      add\n      swap1\n      dup2\n      mstore\n      0x20\n      add\n      0x00\n      keccak256\n      sload\n        /* \"contracts/prac.sol\":2132:2174  updatedBalance = balanceLedger[msg.sender] */\n      swap1\n      pop\n        /* \"contracts/prac.sol\":1241:2191  function  transferAmount(address payable to, uint amount) ... */\n      swap3\n      swap2\n      pop\n      pop\n      jump\t// out\n        /* \"#utility.yul\":88:205   */\n    tag_62:\n        /* \"#utility.yul\":197:198   */\n      0x00\n        /* \"#utility.yul\":194:195   */\n      dup1\n        /* \"#utility.yul\":187:199   */\n      revert\n        /* \"#utility.yul\":334:411   */\n    tag_64:\n        /* \"#utility.yul\":371:378   */\n      0x00\n        /* \"#utility.yul\":400:405   */\n      dup2\n        /* \"#utility.yul\":389:405   */\n      swap1\n      pop\n        /* \"#utility.yul\":334:411   */\n      swap2\n      swap1\n      pop\n      jump\t// out\n        /* \"#utility.yul\":417:539   */\n    tag_65:\n        /* \"#utility.yul\":490:514   */\n      tag_101\n        /* \"#utility.yul\":508:513   */\n      dup2\n        /* \"#utility.yul\":490:514   */\n      tag_64\n      jump\t// in\n    tag_101:\n        /* \"#utility.yul\":483:488   */\n      dup2\n        /* \"#utility.yul\":480:515   */\n      eq\n        /* \"#utility.yul\":470:533   */\n      tag_102\n      jumpi\n        /* \"#utility.yul\":529:530   */\n      0x00\n        /* \"#utility.yul\":526:527   */\n      dup1\n        /* \"#utility.yul\":519:531   */\n      revert\n        /* \"#utility.yul\":470:533   */\n    tag_102:\n        /* \"#utility.yul\":417:539   */\n      pop\n      jump\t// out\n        /* \"#utility.yul\":545:684   */\n    tag_66:\n        /* \"#utility.yul\":591:596   */\n      0x00\n        /* \"#utility.yul\":629:635   */\n      dup2\n        /* \"#utility.yul\":616:636   */\n      calldataload\n        /* \"#utility.yul\":607:636   */\n      swap1\n      pop\n        /* \"#utility.yul\":645:678   */\n      tag_104\n        /* \"#utility.yul\":672:677   */\n      dup2\n        /* \"#utility.yul\":645:678   */\n      tag_65\n      jump\t// in\n    tag_104:\n        /* \"#utility.yul\":545:684   */\n      swap3\n      swap2\n      pop\n      pop\n      jump\t// out\n        /* \"#utility.yul\":690:1019   */\n    tag_9:\n        /* \"#utility.yul\":749:755   */\n      0x00\n        /* \"#utility.yul\":798:800   */\n      0x20\n        /* \"#utility.yul\":786:795   */\n      dup3\n        /* \"#utility.yul\":777:784   */\n      dup5\n        /* \"#utility.yul\":773:796   */\n      sub\n        /* \"#utility.yul\":769:801   */\n      slt\n        /* \"#utility.yul\":766:885   */\n      iszero\n      tag_106\n      jumpi\n        /* \"#utility.yul\":804:883   */\n      tag_107\n      tag_62\n      jump\t// in\n    tag_107:\n        /* \"#utility.yul\":766:885   */\n    tag_106:\n        /* \"#utility.yul\":924:925   */\n      0x00\n        /* \"#utility.yul\":949:1002   */\n      tag_108\n        /* \"#utility.yul\":994:1001   */\n      dup5\n        /* \"#utility.yul\":985:991   */\n      dup3\n        /* \"#utility.yul\":974:983   */\n      dup6\n        /* \"#utility.yul\":970:992   */\n      add\n        /* \"#utility.yul\":949:1002   */\n      tag_66\n      jump\t// in\n    tag_108:\n        /* \"#utility.yul\":939:1002   */\n      swap2\n      pop\n        /* \"#utility.yul\":895:1012   */\n      pop\n        /* \"#utility.yul\":690:1019   */\n      swap3\n      swap2\n      pop\n      pop\n      jump\t// out\n        /* \"#utility.yul\":1025:1143   */\n    tag_67:\n        /* \"#utility.yul\":1112:1136   */\n      tag_110\n        /* \"#utility.yul\":1130:1135   */\n      dup2\n        /* \"#utility.yul\":1112:1136   */\n      tag_64\n      jump\t// in\n    tag_110:\n        /* \"#utility.yul\":1107:1110   */\n      dup3\n        /* \"#utility.yul\":1100:1137   */\n      mstore\n        /* \"#utility.yul\":1025:1143   */\n      pop\n      pop\n      jump\t// out\n        /* \"#utility.yul\":1149:1371   */\n    tag_15:\n        /* \"#utility.yul\":1242:1246   */\n      0x00\n        /* \"#utility.yul\":1280:1282   */\n      0x20\n        /* \"#utility.yul\":1269:1278   */\n      dup3\n        /* \"#utility.yul\":1265:1283   */\n      add\n        /* \"#utility.yul\":1257:1283   */\n      swap1\n      pop\n        /* \"#utility.yul\":1293:1364   */\n      tag_112\n        /* \"#utility.yul\":1361:1362   */\n      0x00\n        /* \"#utility.yul\":1350:1359   */\n      dup4\n        /* \"#utility.yul\":1346:1363   */\n      add\n        /* \"#utility.yul\":1337:1343   */\n      dup5\n        /* \"#utility.yul\":1293:1364   */\n      tag_67\n      jump\t// in\n    tag_112:\n        /* \"#utility.yul\":1149:1371   */\n      swap3\n      swap2\n      pop\n      pop\n      jump\t// out\n        /* \"#utility.yul\":1377:1503   */\n    tag_68:\n        /* \"#utility.yul\":1414:1421   */\n      0x00\n        /* \"#utility.yul\":1454:1496   */\n      0xffffffffffffffffffffffffffffffffffffffff\n        /* \"#utility.yul\":1447:1452   */\n      dup3\n        /* \"#utility.yul\":1443:1497   */\n      and\n        /* \"#utility.yul\":1432:1497   */\n      swap1\n      pop\n        /* \"#utility.yul\":1377:1503   */\n      swap2\n      swap1\n      pop\n      jump\t// out\n        /* \"#utility.yul\":1509:1613   */\n    tag_69:\n        /* \"#utility.yul\":1554:1561   */\n      0x00\n        /* \"#utility.yul\":1583:1607   */\n      tag_115\n        /* \"#utility.yul\":1601:1606   */\n      dup3\n        /* \"#utility.yul\":1583:1607   */\n      tag_68\n      jump\t// in\n    tag_115:\n        /* \"#utility.yul\":1572:1607   */\n      swap1\n      pop\n        /* \"#utility.yul\":1509:1613   */\n      swap2\n      swap1\n      pop\n      jump\t// out\n        /* \"#utility.yul\":1619:1757   */\n    tag_70:\n        /* \"#utility.yul\":1700:1732   */\n      tag_117\n        /* \"#utility.yul\":1726:1731   */\n      dup2\n        /* \"#utility.yul\":1700:1732   */\n      tag_69\n      jump\t// in\n    tag_117:\n        /* \"#utility.yul\":1693:1698   */\n      dup2\n        /* \"#utility.yul\":1690:1733   */\n      eq\n        /* \"#utility.yul\":1680:1751   */\n      tag_118\n      jumpi\n        /* \"#utility.yul\":1747:1748   */\n      0x00\n        /* \"#utility.yul\":1744:1745   */\n      dup1\n        /* \"#utility.yul\":1737:1749   */\n      revert\n        /* \"#utility.yul\":1680:1751   */\n    tag_118:\n        /* \"#utility.yul\":1619:1757   */\n      pop\n      jump\t// out\n        /* \"#utility.yul\":1763:1918   */\n    tag_71:\n        /* \"#utility.yul\":1817:1822   */\n      0x00\n        /* \"#utility.yul\":1855:1861   */\n      dup2\n        /* \"#utility.yul\":1842:1862   */\n      calldataload\n        /* \"#utility.yul\":1833:1862   */\n      swap1\n      pop\n        /* \"#utility.yul\":1871:1912   */\n      tag_120\n        /* \"#utility.yul\":1906:1911   */\n      dup2\n        /* \"#utility.yul\":1871:1912   */\n      tag_70\n      jump\t// in\n    tag_120:\n        /* \"#utility.yul\":1763:1918   */\n      swap3\n      swap2\n      pop\n      pop\n      jump\t// out\n        /* \"#utility.yul\":1924:2414   */\n    tag_20:\n        /* \"#utility.yul\":2000:2006   */\n      0x00\n        /* \"#utility.yul\":2008:2014   */\n      dup1\n        /* \"#utility.yul\":2057:2059   */\n      0x40\n        /* \"#utility.yul\":2045:2054   */\n      dup4\n        /* \"#utility.yul\":2036:2043   */\n      dup6\n        /* \"#utility.yul\":2032:2055   */\n      sub\n        /* \"#utility.yul\":2028:2060   */\n      slt\n        /* \"#utility.yul\":2025:2144   */\n      iszero\n      tag_122\n      jumpi\n        /* \"#utility.yul\":2063:2142   */\n      tag_123\n      tag_62\n      jump\t// in\n    tag_123:\n        /* \"#utility.yul\":2025:2144   */\n    tag_122:\n        /* \"#utility.yul\":2183:2184   */\n      0x00\n        /* \"#utility.yul\":2208:2269   */\n      tag_124\n        /* \"#utility.yul\":2261:2268   */\n      dup6\n        /* \"#utility.yul\":2252:2258   */\n      dup3\n        /* \"#utility.yul\":2241:2250   */\n      dup7\n        /* \"#utility.yul\":2237:2259   */\n      add\n        /* \"#utility.yul\":2208:2269   */\n      tag_71\n      jump\t// in\n    tag_124:\n        /* \"#utility.yul\":2198:2269   */\n      swap3\n      pop\n        /* \"#utility.yul\":2154:2279   */\n      pop\n        /* \"#utility.yul\":2318:2320   */\n      0x20\n        /* \"#utility.yul\":2344:2397   */\n      tag_125\n        /* \"#utility.yul\":2389:2396   */\n      dup6\n        /* \"#utility.yul\":2380:2386   */\n      dup3\n        /* \"#utility.yul\":2369:2378   */\n      dup7\n        /* \"#utility.yul\":2365:2387   */\n      add\n        /* \"#utility.yul\":2344:2397   */\n      tag_66\n      jump\t// in\n    tag_125:\n        /* \"#utility.yul\":2334:2397   */\n      swap2\n      pop\n        /* \"#utility.yul\":2289:2407   */\n      pop\n        /* \"#utility.yul\":1924:2414   */\n      swap3\n      pop\n      swap3\n      swap1\n      pop\n      jump\t// out\n        /* \"#utility.yul\":2420:2516   */\n    tag_72:\n        /* \"#utility.yul\":2457:2464   */\n      0x00\n        /* \"#utility.yul\":2486:2510   */\n      tag_127\n        /* \"#utility.yul\":2504:2509   */\n      dup3\n        /* \"#utility.yul\":2486:2510   */\n      tag_68\n      jump\t// in\n    tag_127:\n        /* \"#utility.yul\":2475:2510   */\n      swap1\n      pop\n        /* \"#utility.yul\":2420:2516   */\n      swap2\n      swap1\n      pop\n      jump\t// out\n        /* \"#utility.yul\":2522:2640   */\n    tag_73:\n        /* \"#utility.yul\":2609:2633   */\n      tag_129\n        /* \"#utility.yul\":2627:2632   */\n      dup2\n        /* \"#utility.yul\":2609:2633   */\n      tag_72\n      jump\t// in\n    tag_129:\n        /* \"#utility.yul\":2604:2607   */\n      dup3\n        /* \"#utility.yul\":2597:2634   */\n      mstore\n        /* \"#utility.yul\":2522:2640   */\n      pop\n      pop\n      jump\t// out\n        /* \"#utility.yul\":2646:2815   */\n    tag_74:\n        /* \"#utility.yul\":2730:2741   */\n      0x00\n        /* \"#utility.yul\":2764:2770   */\n      dup3\n        /* \"#utility.yul\":2759:2762   */\n      dup3\n        /* \"#utility.yul\":2752:2771   */\n      mstore\n        /* \"#utility.yul\":2804:2808   */\n      0x20\n        /* \"#utility.yul\":2799:2802   */\n      dup3\n        /* \"#utility.yul\":2795:2809   */\n      add\n        /* \"#utility.yul\":2780:2809   */\n      swap1\n      pop\n        /* \"#utility.yul\":2646:2815   */\n      swap3\n      swap2\n      pop\n      pop\n      jump\t// out\n        /* \"#utility.yul\":2821:2999   */\n    tag_75:\n        /* \"#utility.yul\":2961:2991   */\n      0x4e65772055736572206d6170706564207375636365737366756c6c7900000000\n        /* \"#utility.yul\":2957:2958   */\n      0x00\n        /* \"#utility.yul\":2949:2955   */\n      dup3\n        /* \"#utility.yul\":2945:2959   */\n      add\n        /* \"#utility.yul\":2938:2992   */\n      mstore\n        /* \"#utility.yul\":2821:2999   */\n      pop\n      jump\t// out\n        /* \"#utility.yul\":3005:3371   */\n    tag_76:\n        /* \"#utility.yul\":3147:3150   */\n      0x00\n        /* \"#utility.yul\":3168:3235   */\n      tag_133\n        /* \"#utility.yul\":3232:3234   */\n      0x1c\n        /* \"#utility.yul\":3227:3230   */\n      dup4\n        /* \"#utility.yul\":3168:3235   */\n      tag_74\n      jump\t// in\n    tag_133:\n        /* \"#utility.yul\":3161:3235   */\n      swap2\n      pop\n        /* \"#utility.yul\":3244:3337   */\n      tag_134\n        /* \"#utility.yul\":3333:3336   */\n      dup3\n        /* \"#utility.yul\":3244:3337   */\n      tag_75\n      jump\t// in\n    tag_134:\n        /* \"#utility.yul\":3362:3364   */\n      0x20\n        /* \"#utility.yul\":3357:3360   */\n      dup3\n        /* \"#utility.yul\":3353:3365   */\n      add\n        /* \"#utility.yul\":3346:3365   */\n      swap1\n      pop\n        /* \"#utility.yul\":3005:3371   */\n      swap2\n      swap1\n      pop\n      jump\t// out\n        /* \"#utility.yul\":3377:4016   */\n    tag_26:\n        /* \"#utility.yul\":3599:3603   */\n      0x00\n        /* \"#utility.yul\":3637:3639   */\n      0x60\n        /* \"#utility.yul\":3626:3635   */\n      dup3\n        /* \"#utility.yul\":3622:3640   */\n      add\n        /* \"#utility.yul\":3614:3640   */\n      swap1\n      pop\n        /* \"#utility.yul\":3650:3721   */\n      tag_136\n        /* \"#utility.yul\":3718:3719   */\n      0x00\n        /* \"#utility.yul\":3707:3716   */\n      dup4\n        /* \"#utility.yul\":3703:3720   */\n      add\n        /* \"#utility.yul\":3694:3700   */\n      dup6\n        /* \"#utility.yul\":3650:3721   */\n      tag_73\n      jump\t// in\n    tag_136:\n        /* \"#utility.yul\":3768:3777   */\n      dup2\n        /* \"#utility.yul\":3762:3766   */\n      dup2\n        /* \"#utility.yul\":3758:3778   */\n      sub\n        /* \"#utility.yul\":3753:3755   */\n      0x20\n        /* \"#utility.yul\":3742:3751   */\n      dup4\n        /* \"#utility.yul\":3738:3756   */\n      add\n        /* \"#utility.yul\":3731:3779   */\n      mstore\n        /* \"#utility.yul\":3796:3927   */\n      tag_137\n        /* \"#utility.yul\":3922:3926   */\n      dup2\n        /* \"#utility.yul\":3796:3927   */\n      tag_76\n      jump\t// in\n    tag_137:\n        /* \"#utility.yul\":3788:3927   */\n      swap1\n      pop\n        /* \"#utility.yul\":3937:4009   */\n      tag_138\n        /* \"#utility.yul\":4005:4007   */\n      0x40\n        /* \"#utility.yul\":3994:4003   */\n      dup4\n        /* \"#utility.yul\":3990:4008   */\n      add\n        /* \"#utility.yul\":3981:3987   */\n      dup5\n        /* \"#utility.yul\":3937:4009   */\n      tag_67\n      jump\t// in\n    tag_138:\n        /* \"#utility.yul\":3377:4016   */\n      swap4\n      swap3\n      pop\n      pop\n      pop\n      jump\t// out\n        /* \"#utility.yul\":4022:4256   */\n    tag_77:\n        /* \"#utility.yul\":4162:4196   */\n      0x696e737566666963656e742062616c616e636520746f20706572666f726d2074\n        /* \"#utility.yul\":4158:4159   */\n      0x00\n        /* \"#utility.yul\":4150:4156   */\n      dup3\n        /* \"#utility.yul\":4146:4160   */\n      add\n        /* \"#utility.yul\":4139:4197   */\n      mstore\n        /* \"#utility.yul\":4231:4248   */\n      0x686973207472616e73616374696f6e0000000000000000000000000000000000\n        /* \"#utility.yul\":4226:4228   */\n      0x20\n        /* \"#utility.yul\":4218:4224   */\n      dup3\n        /* \"#utility.yul\":4214:4229   */\n      add\n        /* \"#utility.yul\":4207:4249   */\n      mstore\n        /* \"#utility.yul\":4022:4256   */\n      pop\n      jump\t// out\n        /* \"#utility.yul\":4262:4628   */\n    tag_78:\n        /* \"#utility.yul\":4404:4407   */\n      0x00\n        /* \"#utility.yul\":4425:4492   */\n      tag_141\n        /* \"#utility.yul\":4489:4491   */\n      0x2f\n        /* \"#utility.yul\":4484:4487   */\n      dup4\n        /* \"#utility.yul\":4425:4492   */\n      tag_74\n      jump\t// in\n    tag_141:\n        /* \"#utility.yul\":4418:4492   */\n      swap2\n      pop\n        /* \"#utility.yul\":4501:4594   */\n      tag_142\n        /* \"#utility.yul\":4590:4593   */\n      dup3\n        /* \"#utility.yul\":4501:4594   */\n      tag_77\n      jump\t// in\n    tag_142:\n        /* \"#utility.yul\":4619:4621   */\n      0x40\n        /* \"#utility.yul\":4614:4617   */\n      dup3\n        /* \"#utility.yul\":4610:4622   */\n      add\n        /* \"#utility.yul\":4603:4622   */\n      swap1\n      pop\n        /* \"#utility.yul\":4262:4628   */\n      swap2\n      swap1\n      pop\n      jump\t// out\n        /* \"#utility.yul\":4634:5053   */\n    tag_30:\n        /* \"#utility.yul\":4800:4804   */\n      0x00\n        /* \"#utility.yul\":4838:4840   */\n      0x20\n        /* \"#utility.yul\":4827:4836   */\n      dup3\n        /* \"#utility.yul\":4823:4841   */\n      add\n        /* \"#utility.yul\":4815:4841   */\n      swap1\n      pop\n        /* \"#utility.yul\":4887:4896   */\n      dup2\n        /* \"#utility.yul\":4881:4885   */\n      dup2\n        /* \"#utility.yul\":4877:4897   */\n      sub\n        /* \"#utility.yul\":4873:4874   */\n      0x00\n        /* \"#utility.yul\":4862:4871   */\n      dup4\n        /* \"#utility.yul\":4858:4875   */\n      add\n        /* \"#utility.yul\":4851:4898   */\n      mstore\n        /* \"#utility.yul\":4915:5046   */\n      tag_144\n        /* \"#utility.yul\":5041:5045   */\n      dup2\n        /* \"#utility.yul\":4915:5046   */\n      tag_78\n      jump\t// in\n    tag_144:\n        /* \"#utility.yul\":4907:5046   */\n      swap1\n      pop\n        /* \"#utility.yul\":4634:5053   */\n      swap2\n      swap1\n      pop\n      jump\t// out\n        /* \"#utility.yul\":5059:5239   */\n    tag_79:\n        /* \"#utility.yul\":5107:5184   */\n      0x4e487b7100000000000000000000000000000000000000000000000000000000\n        /* \"#utility.yul\":5104:5105   */\n      0x00\n        /* \"#utility.yul\":5097:5185   */\n      mstore\n        /* \"#utility.yul\":5204:5208   */\n      0x11\n        /* \"#utility.yul\":5201:5202   */\n      0x04\n        /* \"#utility.yul\":5194:5209   */\n      mstore\n        /* \"#utility.yul\":5228:5232   */\n      0x24\n        /* \"#utility.yul\":5225:5226   */\n      0x00\n        /* \"#utility.yul\":5218:5233   */\n      revert\n        /* \"#utility.yul\":5245:5439   */\n    tag_32:\n        /* \"#utility.yul\":5285:5289   */\n      0x00\n        /* \"#utility.yul\":5305:5325   */\n      tag_147\n        /* \"#utility.yul\":5323:5324   */\n      dup3\n        /* \"#utility.yul\":5305:5325   */\n      tag_64\n      jump\t// in\n    tag_147:\n        /* \"#utility.yul\":5300:5325   */\n      swap2\n      pop\n        /* \"#utility.yul\":5339:5359   */\n      tag_148\n        /* \"#utility.yul\":5357:5358   */\n      dup4\n        /* \"#utility.yul\":5339:5359   */\n      tag_64\n      jump\t// in\n    tag_148:\n        /* \"#utility.yul\":5334:5359   */\n      swap3\n      pop\n        /* \"#utility.yul\":5383:5384   */\n      dup3\n        /* \"#utility.yul\":5380:5381   */\n      dup3\n        /* \"#utility.yul\":5376:5385   */\n      sub\n        /* \"#utility.yul\":5368:5385   */\n      swap1\n      pop\n        /* \"#utility.yul\":5407:5408   */\n      dup2\n        /* \"#utility.yul\":5401:5405   */\n      dup2\n        /* \"#utility.yul\":5398:5409   */\n      gt\n        /* \"#utility.yul\":5395:5432   */\n      iszero\n      tag_149\n      jumpi\n        /* \"#utility.yul\":5412:5430   */\n      tag_150\n      tag_79\n      jump\t// in\n    tag_150:\n        /* \"#utility.yul\":5395:5432   */\n    tag_149:\n        /* \"#utility.yul\":5245:5439   */\n      swap3\n      swap2\n      pop\n      pop\n      jump\t// out\n        /* \"#utility.yul\":5445:5624   */\n    tag_80:\n        /* \"#utility.yul\":5585:5616   */\n      0x416d6f756e742077697468647261776e207375636365737366756c6c79000000\n        /* \"#utility.yul\":5581:5582   */\n      0x00\n        /* \"#utility.yul\":5573:5579   */\n      dup3\n        /* \"#utility.yul\":5569:5583   */\n      add\n        /* \"#utility.yul\":5562:5617   */\n      mstore\n        /* \"#utility.yul\":5445:5624   */\n      pop\n      jump\t// out\n        /* \"#utility.yul\":5630:5996   */\n    tag_81:\n        /* \"#utility.yul\":5772:5775   */\n      0x00\n        /* \"#utility.yul\":5793:5860   */\n      tag_153\n        /* \"#utility.yul\":5857:5859   */\n      0x1d\n        /* \"#utility.yul\":5852:5855   */\n      dup4\n        /* \"#utility.yul\":5793:5860   */\n      tag_74\n      jump\t// in\n    tag_153:\n        /* \"#utility.yul\":5786:5860   */\n      swap2\n      pop\n        /* \"#utility.yul\":5869:5962   */\n      tag_154\n        /* \"#utility.yul\":5958:5961   */\n      dup3\n        /* \"#utility.yul\":5869:5962   */\n      tag_80\n      jump\t// in\n    tag_154:\n        /* \"#utility.yul\":5987:5989   */\n      0x20\n        /* \"#utility.yul\":5982:5985   */\n      dup3\n        /* \"#utility.yul\":5978:5990   */\n      add\n        /* \"#utility.yul\":5971:5990   */\n      swap1\n      pop\n        /* \"#utility.yul\":5630:5996   */\n      swap2\n      swap1\n      pop\n      jump\t// out\n        /* \"#utility.yul\":6002:6641   */\n    tag_34:\n        /* \"#utility.yul\":6224:6228   */\n      0x00\n        /* \"#utility.yul\":6262:6264   */\n      0x60\n        /* \"#utility.yul\":6251:6260   */\n      dup3\n        /* \"#utility.yul\":6247:6265   */\n      add\n        /* \"#utility.yul\":6239:6265   */\n      swap1\n      pop\n        /* \"#utility.yul\":6275:6346   */\n      tag_156\n        /* \"#utility.yul\":6343:6344   */\n      0x00\n        /* \"#utility.yul\":6332:6341   */\n      dup4\n        /* \"#utility.yul\":6328:6345   */\n      add\n        /* \"#utility.yul\":6319:6325   */\n      dup6\n        /* \"#utility.yul\":6275:6346   */\n      tag_73\n      jump\t// in\n    tag_156:\n        /* \"#utility.yul\":6393:6402   */\n      dup2\n        /* \"#utility.yul\":6387:6391   */\n      dup2\n        /* \"#utility.yul\":6383:6403   */\n      sub\n        /* \"#utility.yul\":6378:6380   */\n      0x20\n        /* \"#utility.yul\":6367:6376   */\n      dup4\n        /* \"#utility.yul\":6363:6381   */\n      add\n        /* \"#utility.yul\":6356:6404   */\n      mstore\n        /* \"#utility.yul\":6421:6552   */\n      tag_157\n        /* \"#utility.yul\":6547:6551   */\n      dup2\n        /* \"#utility.yul\":6421:6552   */\n      tag_81\n      jump\t// in\n    tag_157:\n        /* \"#utility.yul\":6413:6552   */\n      swap1\n      pop\n        /* \"#utility.yul\":6562:6634   */\n      tag_158\n        /* \"#utility.yul\":6630:6632   */\n      0x40\n        /* \"#utility.yul\":6619:6628   */\n      dup4\n        /* \"#utility.yul\":6615:6633   */\n      add\n        /* \"#utility.yul\":6606:6612   */\n      dup5\n        /* \"#utility.yul\":6562:6634   */\n      tag_67\n      jump\t// in\n    tag_158:\n        /* \"#utility.yul\":6002:6641   */\n      swap4\n      swap3\n      pop\n      pop\n      pop\n      jump\t// out\n        /* \"#utility.yul\":6647:6886   */\n    tag_82:\n        /* \"#utility.yul\":6787:6821   */\n      0x496e76616c696420416d6f756e7421212120416d6f756e742073686f756c6420\n        /* \"#utility.yul\":6783:6784   */\n      0x00\n        /* \"#utility.yul\":6775:6781   */\n      dup3\n        /* \"#utility.yul\":6771:6785   */\n      add\n        /* \"#utility.yul\":6764:6822   */\n      mstore\n        /* \"#utility.yul\":6856:6878   */\n      0x62652067726561746572207468616e207a65726f000000000000000000000000\n        /* \"#utility.yul\":6851:6853   */\n      0x20\n        /* \"#utility.yul\":6843:6849   */\n      dup3\n        /* \"#utility.yul\":6839:6854   */\n      add\n        /* \"#utility.yul\":6832:6879   */\n      mstore\n        /* \"#utility.yul\":6647:6886   */\n      pop\n      jump\t// out\n        /* \"#utility.yul\":6892:7258   */\n    tag_83:\n        /* \"#utility.yul\":7034:7037   */\n      0x00\n        /* \"#utility.yul\":7055:7122   */\n      tag_161\n        /* \"#utility.yul\":7119:7121   */\n      0x34\n        /* \"#utility.yul\":7114:7117   */\n      dup4\n        /* \"#utility.yul\":7055:7122   */\n      tag_74\n      jump\t// in\n    tag_161:\n        /* \"#utility.yul\":7048:7122   */\n      swap2\n      pop\n        /* \"#utility.yul\":7131:7224   */\n      tag_162\n        /* \"#utility.yul\":7220:7223   */\n      dup3\n        /* \"#utility.yul\":7131:7224   */\n      tag_82\n      jump\t// in\n    tag_162:\n        /* \"#utility.yul\":7249:7251   */\n      0x40\n        /* \"#utility.yul\":7244:7247   */\n      dup3\n        /* \"#utility.yul\":7240:7252   */\n      add\n        /* \"#utility.yul\":7233:7252   */\n      swap1\n      pop\n        /* \"#utility.yul\":6892:7258   */\n      swap2\n      swap1\n      pop\n      jump\t// out\n        /* \"#utility.yul\":7264:7683   */\n    tag_42:\n        /* \"#utility.yul\":7430:7434   */\n      0x00\n        /* \"#utility.yul\":7468:7470   */\n      0x20\n        /* \"#utility.yul\":7457:7466   */\n      dup3\n        /* \"#utility.yul\":7453:7471   */\n      add\n        /* \"#utility.yul\":7445:7471   */\n      swap1\n      pop\n        /* \"#utility.yul\":7517:7526   */\n      dup2\n        /* \"#utility.yul\":7511:7515   */\n      dup2\n        /* \"#utility.yul\":7507:7527   */\n      sub\n        /* \"#utility.yul\":7503:7504   */\n      0x00\n        /* \"#utility.yul\":7492:7501   */\n      dup4\n        /* \"#utility.yul\":7488:7505   */\n      add\n        /* \"#utility.yul\":7481:7528   */\n      mstore\n        /* \"#utility.yul\":7545:7676   */\n      tag_164\n        /* \"#utility.yul\":7671:7675   */\n      dup2\n        /* \"#utility.yul\":7545:7676   */\n      tag_83\n      jump\t// in\n    tag_164:\n        /* \"#utility.yul\":7537:7676   */\n      swap1\n      pop\n        /* \"#utility.yul\":7264:7683   */\n      swap2\n      swap1\n      pop\n      jump\t// out\n        /* \"#utility.yul\":7689:7880   */\n    tag_44:\n        /* \"#utility.yul\":7729:7732   */\n      0x00\n        /* \"#utility.yul\":7748:7768   */\n      tag_166\n        /* \"#utility.yul\":7766:7767   */\n      dup3\n        /* \"#utility.yul\":7748:7768   */\n      tag_64\n      jump\t// in\n    tag_166:\n        /* \"#utility.yul\":7743:7768   */\n      swap2\n      pop\n        /* \"#utility.yul\":7782:7802   */\n      tag_167\n        /* \"#utility.yul\":7800:7801   */\n      dup4\n        /* \"#utility.yul\":7782:7802   */\n      tag_64\n      jump\t// in\n    tag_167:\n        /* \"#utility.yul\":7777:7802   */\n      swap3\n      pop\n        /* \"#utility.yul\":7825:7826   */\n      dup3\n        /* \"#utility.yul\":7822:7823   */\n      dup3\n        /* \"#utility.yul\":7818:7827   */\n      add\n        /* \"#utility.yul\":7811:7827   */\n      swap1\n      pop\n        /* \"#utility.yul\":7846:7849   */\n      dup1\n        /* \"#utility.yul\":7843:7844   */\n      dup3\n        /* \"#utility.yul\":7840:7850   */\n      gt\n        /* \"#utility.yul\":7837:7873   */\n      iszero\n      tag_168\n      jumpi\n        /* \"#utility.yul\":7853:7871   */\n      tag_169\n      tag_79\n      jump\t// in\n    tag_169:\n        /* \"#utility.yul\":7837:7873   */\n    tag_168:\n        /* \"#utility.yul\":7689:7880   */\n      swap3\n      swap2\n      pop\n      pop\n      jump\t// out\n        /* \"#utility.yul\":7886:8064   */\n    tag_84:\n        /* \"#utility.yul\":8026:8056   */\n      0x4d6f6e6579206465706f7369746564207375636365737366756c6c7900000000\n        /* \"#utility.yul\":8022:8023   */\n      0x00\n        /* \"#utility.yul\":8014:8020   */\n      dup3\n        /* \"#utility.yul\":8010:8024   */\n      add\n        /* \"#utility.yul\":8003:8057   */\n      mstore\n        /* \"#utility.yul\":7886:8064   */\n      pop\n      jump\t// out\n        /* \"#utility.yul\":8070:8436   */\n    tag_85:\n        /* \"#utility.yul\":8212:8215   */\n      0x00\n        /* \"#utility.yul\":8233:8300   */\n      tag_172\n        /* \"#utility.yul\":8297:8299   */\n      0x1c\n        /* \"#utility.yul\":8292:8295   */\n      dup4\n        /* \"#utility.yul\":8233:8300   */\n      tag_74\n      jump\t// in\n    tag_172:\n        /* \"#utility.yul\":8226:8300   */\n      swap2\n      pop\n        /* \"#utility.yul\":8309:8402   */\n      tag_173\n        /* \"#utility.yul\":8398:8401   */\n      dup3\n        /* \"#utility.yul\":8309:8402   */\n      tag_84\n      jump\t// in\n    tag_173:\n        /* \"#utility.yul\":8427:8429   */\n      0x20\n        /* \"#utility.yul\":8422:8425   */\n      dup3\n        /* \"#utility.yul\":8418:8430   */\n      add\n        /* \"#utility.yul\":8411:8430   */\n      swap1\n      pop\n        /* \"#utility.yul\":8070:8436   */\n      swap2\n      swap1\n      pop\n      jump\t// out\n        /* \"#utility.yul\":8442:9081   */\n    tag_46:\n        /* \"#utility.yul\":8664:8668   */\n      0x00\n        /* \"#utility.yul\":8702:8704   */\n      0x60\n        /* \"#utility.yul\":8691:8700   */\n      dup3\n        /* \"#utility.yul\":8687:8705   */\n      add\n        /* \"#utility.yul\":8679:8705   */\n      swap1\n      pop\n        /* \"#utility.yul\":8715:8786   */\n      tag_175\n        /* \"#utility.yul\":8783:8784   */\n      0x00\n        /* \"#utility.yul\":8772:8781   */\n      dup4\n        /* \"#utility.yul\":8768:8785   */\n      add\n        /* \"#utility.yul\":8759:8765   */\n      dup6\n        /* \"#utility.yul\":8715:8786   */\n      tag_73\n      jump\t// in\n    tag_175:\n        /* \"#utility.yul\":8833:8842   */\n      dup2\n        /* \"#utility.yul\":8827:8831   */\n      dup2\n        /* \"#utility.yul\":8823:8843   */\n      sub\n        /* \"#utility.yul\":8818:8820   */\n      0x20\n        /* \"#utility.yul\":8807:8816   */\n      dup4\n        /* \"#utility.yul\":8803:8821   */\n      add\n        /* \"#utility.yul\":8796:8844   */\n      mstore\n        /* \"#utility.yul\":8861:8992   */\n      tag_176\n        /* \"#utility.yul\":8987:8991   */\n      dup2\n        /* \"#utility.yul\":8861:8992   */\n      tag_85\n      jump\t// in\n    tag_176:\n        /* \"#utility.yul\":8853:8992   */\n      swap1\n      pop\n        /* \"#utility.yul\":9002:9074   */\n      tag_177\n        /* \"#utility.yul\":9070:9072   */\n      0x40\n        /* \"#utility.yul\":9059:9068   */\n      dup4\n        /* \"#utility.yul\":9055:9073   */\n      add\n        /* \"#utility.yul\":9046:9052   */\n      dup5\n        /* \"#utility.yul\":9002:9074   */\n      tag_67\n      jump\t// in\n    tag_177:\n        /* \"#utility.yul\":8442:9081   */\n      swap4\n      swap3\n      pop\n      pop\n      pop\n      jump\t// out\n        /* \"#utility.yul\":9087:9326   */\n    tag_86:\n        /* \"#utility.yul\":9227:9261   */\n      0x696e76616c696420416d6f756e7421212120616d6f756e742073686f756c6420\n        /* \"#utility.yul\":9223:9224   */\n      0x00\n        /* \"#utility.yul\":9215:9221   */\n      dup3\n        /* \"#utility.yul\":9211:9225   */\n      add\n        /* \"#utility.yul\":9204:9262   */\n      mstore\n        /* \"#utility.yul\":9296:9318   */\n      0x62652067726561746572207468616e207a65726f000000000000000000000000\n        /* \"#utility.yul\":9291:9293   */\n      0x20\n        /* \"#utility.yul\":9283:9289   */\n      dup3\n        /* \"#utility.yul\":9279:9294   */\n      add\n        /* \"#utility.yul\":9272:9319   */\n      mstore\n        /* \"#utility.yul\":9087:9326   */\n      pop\n      jump\t// out\n        /* \"#utility.yul\":9332:9698   */\n    tag_87:\n        /* \"#utility.yul\":9474:9477   */\n      0x00\n        /* \"#utility.yul\":9495:9562   */\n      tag_180\n        /* \"#utility.yul\":9559:9561   */\n      0x34\n        /* \"#utility.yul\":9554:9557   */\n      dup4\n        /* \"#utility.yul\":9495:9562   */\n      tag_74\n      jump\t// in\n    tag_180:\n        /* \"#utility.yul\":9488:9562   */\n      swap2\n      pop\n        /* \"#utility.yul\":9571:9664   */\n      tag_181\n        /* \"#utility.yul\":9660:9663   */\n      dup3\n        /* \"#utility.yul\":9571:9664   */\n      tag_86\n      jump\t// in\n    tag_181:\n        /* \"#utility.yul\":9689:9691   */\n      0x40\n        /* \"#utility.yul\":9684:9687   */\n      dup3\n        /* \"#utility.yul\":9680:9692   */\n      add\n        /* \"#utility.yul\":9673:9692   */\n      swap1\n      pop\n        /* \"#utility.yul\":9332:9698   */\n      swap2\n      swap1\n      pop\n      jump\t// out\n        /* \"#utility.yul\":9704:10123   */\n    tag_53:\n        /* \"#utility.yul\":9870:9874   */\n      0x00\n        /* \"#utility.yul\":9908:9910   */\n      0x20\n        /* \"#utility.yul\":9897:9906   */\n      dup3\n        /* \"#utility.yul\":9893:9911   */\n      add\n        /* \"#utility.yul\":9885:9911   */\n      swap1\n      pop\n        /* \"#utility.yul\":9957:9966   */\n      dup2\n        /* \"#utility.yul\":9951:9955   */\n      dup2\n        /* \"#utility.yul\":9947:9967   */\n      sub\n        /* \"#utility.yul\":9943:9944   */\n      0x00\n        /* \"#utility.yul\":9932:9941   */\n      dup4\n        /* \"#utility.yul\":9928:9945   */\n      add\n        /* \"#utility.yul\":9921:9968   */\n      mstore\n        /* \"#utility.yul\":9985:10116   */\n      tag_183\n        /* \"#utility.yul\":10111:10115   */\n      dup2\n        /* \"#utility.yul\":9985:10116   */\n      tag_87\n      jump\t// in\n    tag_183:\n        /* \"#utility.yul\":9977:10116   */\n      swap1\n      pop\n        /* \"#utility.yul\":9704:10123   */\n      swap2\n      swap1\n      pop\n      jump\t// out\n        /* \"#utility.yul\":10129:10189   */\n    tag_88:\n        /* \"#utility.yul\":10157:10160   */\n      0x00\n        /* \"#utility.yul\":10178:10183   */\n      dup2\n        /* \"#utility.yul\":10171:10183   */\n      swap1\n      pop\n        /* \"#utility.yul\":10129:10189   */\n      swap2\n      swap1\n      pop\n      jump\t// out\n        /* \"#utility.yul\":10195:10337   */\n    tag_89:\n        /* \"#utility.yul\":10245:10254   */\n      0x00\n        /* \"#utility.yul\":10278:10331   */\n      tag_186\n        /* \"#utility.yul\":10296:10330   */\n      tag_187\n        /* \"#utility.yul\":10305:10329   */\n      tag_188\n        /* \"#utility.yul\":10323:10328   */\n      dup5\n        /* \"#utility.yul\":10305:10329   */\n      tag_68\n      jump\t// in\n    tag_188:\n        /* \"#utility.yul\":10296:10330   */\n      tag_88\n      jump\t// in\n    tag_187:\n        /* \"#utility.yul\":10278:10331   */\n      tag_68\n      jump\t// in\n    tag_186:\n        /* \"#utility.yul\":10265:10331   */\n      swap1\n      pop\n        /* \"#utility.yul\":10195:10337   */\n      swap2\n      swap1\n      pop\n      jump\t// out\n        /* \"#utility.yul\":10343:10469   */\n    tag_90:\n        /* \"#utility.yul\":10393:10402   */\n      0x00\n        /* \"#utility.yul\":10426:10463   */\n      tag_190\n        /* \"#utility.yul\":10457:10462   */\n      dup3\n        /* \"#utility.yul\":10426:10463   */\n      tag_89\n      jump\t// in\n    tag_190:\n        /* \"#utility.yul\":10413:10463   */\n      swap1\n      pop\n        /* \"#utility.yul\":10343:10469   */\n      swap2\n      swap1\n      pop\n      jump\t// out\n        /* \"#utility.yul\":10475:10609   */\n    tag_91:\n        /* \"#utility.yul\":10533:10542   */\n      0x00\n        /* \"#utility.yul\":10566:10603   */\n      tag_192\n        /* \"#utility.yul\":10597:10602   */\n      dup3\n        /* \"#utility.yul\":10566:10603   */\n      tag_90\n      jump\t// in\n    tag_192:\n        /* \"#utility.yul\":10553:10603   */\n      swap1\n      pop\n        /* \"#utility.yul\":10475:10609   */\n      swap2\n      swap1\n      pop\n      jump\t// out\n        /* \"#utility.yul\":10615:10762   */\n    tag_92:\n        /* \"#utility.yul\":10710:10755   */\n      tag_194\n        /* \"#utility.yul\":10749:10754   */\n      dup2\n        /* \"#utility.yul\":10710:10755   */\n      tag_91\n      jump\t// in\n    tag_194:\n        /* \"#utility.yul\":10705:10708   */\n      dup3\n        /* \"#utility.yul\":10698:10756   */\n      mstore\n        /* \"#utility.yul\":10615:10762   */\n      pop\n      pop\n      jump\t// out\n        /* \"#utility.yul\":10768:10947   */\n    tag_93:\n        /* \"#utility.yul\":10908:10939   */\n      0x4d6f6e6579207472616e736665726564207375636365737366756c6c79000000\n        /* \"#utility.yul\":10904:10905   */\n      0x00\n        /* \"#utility.yul\":10896:10902   */\n      dup3\n        /* \"#utility.yul\":10892:10906   */\n      add\n        /* \"#utility.yul\":10885:10940   */\n      mstore\n        /* \"#utility.yul\":10768:10947   */\n      pop\n      jump\t// out\n        /* \"#utility.yul\":10953:11319   */\n    tag_94:\n        /* \"#utility.yul\":11095:11098   */\n      0x00\n        /* \"#utility.yul\":11116:11183   */\n      tag_197\n        /* \"#utility.yul\":11180:11182   */\n      0x1d\n        /* \"#utility.yul\":11175:11178   */\n      dup4\n        /* \"#utility.yul\":11116:11183   */\n      tag_74\n      jump\t// in\n    tag_197:\n        /* \"#utility.yul\":11109:11183   */\n      swap2\n      pop\n        /* \"#utility.yul\":11192:11285   */\n      tag_198\n        /* \"#utility.yul\":11281:11284   */\n      dup3\n        /* \"#utility.yul\":11192:11285   */\n      tag_93\n      jump\t// in\n    tag_198:\n        /* \"#utility.yul\":11310:11312   */\n      0x20\n        /* \"#utility.yul\":11305:11308   */\n      dup3\n        /* \"#utility.yul\":11301:11313   */\n      add\n        /* \"#utility.yul\":11294:11313   */\n      swap1\n      pop\n        /* \"#utility.yul\":10953:11319   */\n      swap2\n      swap1\n      pop\n      jump\t// out\n        /* \"#utility.yul\":11325:11980   */\n    tag_60:\n        /* \"#utility.yul\":11555:11559   */\n      0x00\n        /* \"#utility.yul\":11593:11595   */\n      0x60\n        /* \"#utility.yul\":11582:11591   */\n      dup3\n        /* \"#utility.yul\":11578:11596   */\n      add\n        /* \"#utility.yul\":11570:11596   */\n      swap1\n      pop\n        /* \"#utility.yul\":11606:11685   */\n      tag_200\n        /* \"#utility.yul\":11682:11683   */\n      0x00\n        /* \"#utility.yul\":11671:11680   */\n      dup4\n        /* \"#utility.yul\":11667:11684   */\n      add\n        /* \"#utility.yul\":11658:11664   */\n      dup6\n        /* \"#utility.yul\":11606:11685   */\n      tag_92\n      jump\t// in\n    tag_200:\n        /* \"#utility.yul\":11732:11741   */\n      dup2\n        /* \"#utility.yul\":11726:11730   */\n      dup2\n        /* \"#utility.yul\":11722:11742   */\n      sub\n        /* \"#utility.yul\":11717:11719   */\n      0x20\n        /* \"#utility.yul\":11706:11715   */\n      dup4\n        /* \"#utility.yul\":11702:11720   */\n      add\n        /* \"#utility.yul\":11695:11743   */\n      mstore\n        /* \"#utility.yul\":11760:11891   */\n      tag_201\n        /* \"#utility.yul\":11886:11890   */\n      dup2\n        /* \"#utility.yul\":11760:11891   */\n      tag_94\n      jump\t// in\n    tag_201:\n        /* \"#utility.yul\":11752:11891   */\n      swap1\n      pop\n        /* \"#utility.yul\":11901:11973   */\n      tag_202\n        /* \"#utility.yul\":11969:11971   */\n      0x40\n        /* \"#utility.yul\":11958:11967   */\n      dup4\n        /* \"#utility.yul\":11954:11972   */\n      add\n        /* \"#utility.yul\":11945:11951   */\n      dup5\n        /* \"#utility.yul\":11901:11973   */\n      tag_67\n      jump\t// in\n    tag_202:\n        /* \"#utility.yul\":11325:11980   */\n      swap4\n      swap3\n      pop\n      pop\n      pop\n      jump\t// out\n\n    auxdata: 0xa26469706673582212200ac97f2f275cca13d8ce120a226494cb0dc49445fde9fc213f5ba73480f3992564736f6c63430008120033\n}\n",
				"bytecode": {
					"linkReferences": {},
					"object": "608060405234801561001057600080fd5b50611077806100206000396000f3fe60806040526004361061003f5760003560e01c80630562b9f71461004457806312065fe01461006d57806316c05aa214610098578063d7081e03146100a2575b600080fd5b34801561005057600080fd5b5061006b60048036038101906100669190610a4e565b6100d2565b005b34801561007957600080fd5b506100826103ad565b60405161008f9190610a8a565b60405180910390f35b6100a06103f3565b005b6100bc60048036038101906100b79190610b03565b61068f565b6040516100c99190610a8a565b60405180910390f35b600160003373ffffffffffffffffffffffffffffffffffffffff1673ffffffffffffffffffffffffffffffffffffffff16815260200190815260200160002060009054906101000a900460ff1615610226573373ffffffffffffffffffffffffffffffffffffffff16316000803373ffffffffffffffffffffffffffffffffffffffff1673ffffffffffffffffffffffffffffffffffffffff1681526020019081526020016000208190555060018060003373ffffffffffffffffffffffffffffffffffffffff1673ffffffffffffffffffffffffffffffffffffffff16815260200190815260200160002060006101000a81548160ff0219169083151502179055507f3928eb6c73f8b27f8264006f092393f8ff2e5684ac2e649d0a932ae36df69088333373ffffffffffffffffffffffffffffffffffffffff163160405161021d929190610bc1565b60405180910390a15b806000803373ffffffffffffffffffffffffffffffffffffffff1673ffffffffffffffffffffffffffffffffffffffff1681526020019081526020016000205410156102a7576040517f08c379a000000000000000000000000000000000000000000000000000000000815260040161029e90610c6f565b60405180910390fd5b806000803373ffffffffffffffffffffffffffffffffffffffff1673ffffffffffffffffffffffffffffffffffffffff168152602001908152602001600020546102f19190610cbe565b6000803373ffffffffffffffffffffffffffffffffffffffff1673ffffffffffffffffffffffffffffffffffffffff168152602001908152602001600020819055507f3928eb6c73f8b27f8264006f092393f8ff2e5684ac2e649d0a932ae36df69088336000803373ffffffffffffffffffffffffffffffffffffffff1673ffffffffffffffffffffffffffffffffffffffff168152602001908152602001600020546040516103a2929190610d3e565b60405180910390a150565b60008060003373ffffffffffffffffffffffffffffffffffffffff1673ffffffffffffffffffffffffffffffffffffffff16815260200190815260200160002054905090565b600160003373ffffffffffffffffffffffffffffffffffffffff1673ffffffffffffffffffffffffffffffffffffffff16815260200190815260200160002060009054906101000a900460ff1615610547573373ffffffffffffffffffffffffffffffffffffffff16316000803373ffffffffffffffffffffffffffffffffffffffff1673ffffffffffffffffffffffffffffffffffffffff1681526020019081526020016000208190555060018060003373ffffffffffffffffffffffffffffffffffffffff1673ffffffffffffffffffffffffffffffffffffffff16815260200190815260200160002060006101000a81548160ff0219169083151502179055507f3928eb6c73f8b27f8264006f092393f8ff2e5684ac2e649d0a932ae36df69088333373ffffffffffffffffffffffffffffffffffffffff163160405161053e929190610bc1565b60405180910390a15b6000341161058a576040517f08c379a000000000000000000000000000000000000000000000000000000000815260040161058190610dec565b60405180910390fd5b346000803373ffffffffffffffffffffffffffffffffffffffff1673ffffffffffffffffffffffffffffffffffffffff168152602001908152602001600020546105d49190610e0c565b6000803373ffffffffffffffffffffffffffffffffffffffff1673ffffffffffffffffffffffffffffffffffffffff168152602001908152602001600020819055507f3928eb6c73f8b27f8264006f092393f8ff2e5684ac2e649d0a932ae36df69088336000803373ffffffffffffffffffffffffffffffffffffffff1673ffffffffffffffffffffffffffffffffffffffff16815260200190815260200160002054604051610685929190610e8c565b60405180910390a1565b6000600160003373ffffffffffffffffffffffffffffffffffffffff1673ffffffffffffffffffffffffffffffffffffffff16815260200190815260200160002060009054906101000a900460ff16156107e5573373ffffffffffffffffffffffffffffffffffffffff16316000803373ffffffffffffffffffffffffffffffffffffffff1673ffffffffffffffffffffffffffffffffffffffff1681526020019081526020016000208190555060018060003373ffffffffffffffffffffffffffffffffffffffff1673ffffffffffffffffffffffffffffffffffffffff16815260200190815260200160002060006101000a81548160ff0219169083151502179055507f3928eb6c73f8b27f8264006f092393f8ff2e5684ac2e649d0a932ae36df69088333373ffffffffffffffffffffffffffffffffffffffff16316040516107dc929190610bc1565b60405180910390a15b60008211610828576040517f08c379a000000000000000000000000000000000000000000000000000000000815260040161081f90610f3a565b60405180910390fd5b816000803373ffffffffffffffffffffffffffffffffffffffff1673ffffffffffffffffffffffffffffffffffffffff1681526020019081526020016000205410156108a9576040517f08c379a00000000000000000000000000000000000000000000000000000000081526004016108a090610c6f565b60405180910390fd5b816000803373ffffffffffffffffffffffffffffffffffffffff1673ffffffffffffffffffffffffffffffffffffffff168152602001908152602001600020546108f39190610cbe565b6000803373ffffffffffffffffffffffffffffffffffffffff1673ffffffffffffffffffffffffffffffffffffffff168152602001908152602001600020819055508273ffffffffffffffffffffffffffffffffffffffff166108fc839081150290604051600060405180830381858888f1935050505015801561097b573d6000803e3d6000fd5b507f3928eb6c73f8b27f8264006f092393f8ff2e5684ac2e649d0a932ae36df69088838473ffffffffffffffffffffffffffffffffffffffff16316040516109c4929190611005565b60405180910390a16000803373ffffffffffffffffffffffffffffffffffffffff1673ffffffffffffffffffffffffffffffffffffffff16815260200190815260200160002054905092915050565b600080fd5b6000819050919050565b610a2b81610a18565b8114610a3657600080fd5b50565b600081359050610a4881610a22565b92915050565b600060208284031215610a6457610a63610a13565b5b6000610a7284828501610a39565b91505092915050565b610a8481610a18565b82525050565b6000602082019050610a9f6000830184610a7b565b92915050565b600073ffffffffffffffffffffffffffffffffffffffff82169050919050565b6000610ad082610aa5565b9050919050565b610ae081610ac5565b8114610aeb57600080fd5b50565b600081359050610afd81610ad7565b92915050565b60008060408385031215610b1a57610b19610a13565b5b6000610b2885828601610aee565b9250506020610b3985828601610a39565b9150509250929050565b6000610b4e82610aa5565b9050919050565b610b5e81610b43565b82525050565b600082825260208201905092915050565b7f4e65772055736572206d6170706564207375636365737366756c6c7900000000600082015250565b6000610bab601c83610b64565b9150610bb682610b75565b602082019050919050565b6000606082019050610bd66000830185610b55565b8181036020830152610be781610b9e565b9050610bf66040830184610a7b565b9392505050565b7f696e737566666963656e742062616c616e636520746f20706572666f726d207460008201527f686973207472616e73616374696f6e0000000000000000000000000000000000602082015250565b6000610c59602f83610b64565b9150610c6482610bfd565b604082019050919050565b60006020820190508181036000830152610c8881610c4c565b9050919050565b7f4e487b7100000000000000000000000000000000000000000000000000000000600052601160045260246000fd5b6000610cc982610a18565b9150610cd483610a18565b9250828203905081811115610cec57610ceb610c8f565b5b92915050565b7f416d6f756e742077697468647261776e207375636365737366756c6c79000000600082015250565b6000610d28601d83610b64565b9150610d3382610cf2565b602082019050919050565b6000606082019050610d536000830185610b55565b8181036020830152610d6481610d1b565b9050610d736040830184610a7b565b9392505050565b7f496e76616c696420416d6f756e7421212120416d6f756e742073686f756c642060008201527f62652067726561746572207468616e207a65726f000000000000000000000000602082015250565b6000610dd6603483610b64565b9150610de182610d7a565b604082019050919050565b60006020820190508181036000830152610e0581610dc9565b9050919050565b6000610e1782610a18565b9150610e2283610a18565b9250828201905080821115610e3a57610e39610c8f565b5b92915050565b7f4d6f6e6579206465706f7369746564207375636365737366756c6c7900000000600082015250565b6000610e76601c83610b64565b9150610e8182610e40565b602082019050919050565b6000606082019050610ea16000830185610b55565b8181036020830152610eb281610e69565b9050610ec16040830184610a7b565b9392505050565b7f696e76616c696420416d6f756e7421212120616d6f756e742073686f756c642060008201527f62652067726561746572207468616e207a65726f000000000000000000000000602082015250565b6000610f24603483610b64565b9150610f2f82610ec8565b604082019050919050565b60006020820190508181036000830152610f5381610f17565b9050919050565b6000819050919050565b6000610f7f610f7a610f7584610aa5565b610f5a565b610aa5565b9050919050565b6000610f9182610f64565b9050919050565b6000610fa382610f86565b9050919050565b610fb381610f98565b82525050565b7f4d6f6e6579207472616e736665726564207375636365737366756c6c79000000600082015250565b6000610fef601d83610b64565b9150610ffa82610fb9565b602082019050919050565b600060608201905061101a6000830185610faa565b818103602083015261102b81610fe2565b905061103a6040830184610a7b565b939250505056fea26469706673582212200ac97f2f275cca13d8ce120a226494cb0dc49445fde9fc213f5ba73480f3992564736f6c63430008120033",
					"opcodes": "PUSH1 0x80 PUSH1 0x40 MSTORE CALLVALUE DUP1 ISZERO PUSH2 0x10 JUMPI PUSH1 0x0 DUP1 REVERT JUMPDEST POP PUSH2 0x1077 DUP1 PUSH2 0x20 PUSH1 0x0 CODECOPY PUSH1 0x0 RETURN INVALID PUSH1 0x80 PUSH1 0x40 MSTORE PUSH1 0x4 CALLDATASIZE LT PUSH2 0x3F JUMPI PUSH1 0x0 CALLDATALOAD PUSH1 0xE0 SHR DUP1 PUSH4 0x562B9F7 EQ PUSH2 0x44 JUMPI DUP1 PUSH4 0x12065FE0 EQ PUSH2 0x6D JUMPI DUP1 PUSH4 0x16C05AA2 EQ PUSH2 0x98 JUMPI DUP1 PUSH4 0xD7081E03 EQ PUSH2 0xA2 JUMPI JUMPDEST PUSH1 0x0 DUP1 REVERT JUMPDEST CALLVALUE DUP1 ISZERO PUSH2 0x50 JUMPI PUSH1 0x0 DUP1 REVERT JUMPDEST POP PUSH2 0x6B PUSH1 0x4 DUP1 CALLDATASIZE SUB DUP2 ADD SWAP1 PUSH2 0x66 SWAP2 SWAP1 PUSH2 0xA4E JUMP JUMPDEST PUSH2 0xD2 JUMP JUMPDEST STOP JUMPDEST CALLVALUE DUP1 ISZERO PUSH2 0x79 JUMPI PUSH1 0x0 DUP1 REVERT JUMPDEST POP PUSH2 0x82 PUSH2 0x3AD JUMP JUMPDEST PUSH1 0x40 MLOAD PUSH2 0x8F SWAP2 SWAP1 PUSH2 0xA8A JUMP JUMPDEST PUSH1 0x40 MLOAD DUP1 SWAP2 SUB SWAP1 RETURN JUMPDEST PUSH2 0xA0 PUSH2 0x3F3 JUMP JUMPDEST STOP JUMPDEST PUSH2 0xBC PUSH1 0x4 DUP1 CALLDATASIZE SUB DUP2 ADD SWAP1 PUSH2 0xB7 SWAP2 SWAP1 PUSH2 0xB03 JUMP JUMPDEST PUSH2 0x68F JUMP JUMPDEST PUSH1 0x40 MLOAD PUSH2 0xC9 SWAP2 SWAP1 PUSH2 0xA8A JUMP JUMPDEST PUSH1 0x40 MLOAD DUP1 SWAP2 SUB SWAP1 RETURN JUMPDEST PUSH1 0x1 PUSH1 0x0 CALLER PUSH20 0xFFFFFFFFFFFFFFFFFFFFFFFFFFFFFFFFFFFFFFFF AND PUSH20 0xFFFFFFFFFFFFFFFFFFFFFFFFFFFFFFFFFFFFFFFF AND DUP2 MSTORE PUSH1 0x20 ADD SWAP1 DUP2 MSTORE PUSH1 0x20 ADD PUSH1 0x0 KECCAK256 PUSH1 0x0 SWAP1 SLOAD SWAP1 PUSH2 0x100 EXP SWAP1 DIV PUSH1 0xFF AND ISZERO PUSH2 0x226 JUMPI CALLER PUSH20 0xFFFFFFFFFFFFFFFFFFFFFFFFFFFFFFFFFFFFFFFF AND BALANCE PUSH1 0x0 DUP1 CALLER PUSH20 0xFFFFFFFFFFFFFFFFFFFFFFFFFFFFFFFFFFFFFFFF AND PUSH20 0xFFFFFFFFFFFFFFFFFFFFFFFFFFFFFFFFFFFFFFFF AND DUP2 MSTORE PUSH1 0x20 ADD SWAP1 DUP2 MSTORE PUSH1 0x20 ADD PUSH1 0x0 KECCAK256 DUP2 SWAP1 SSTORE POP PUSH1 0x1 DUP1 PUSH1 0x0 CALLER PUSH20 0xFFFFFFFFFFFFFFFFFFFFFFFFFFFFFFFFFFFFFFFF AND PUSH20 0xFFFFFFFFFFFFFFFFFFFFFFFFFFFFFFFFFFFFFFFF AND DUP2 MSTORE PUSH1 0x20 ADD SWAP1 DUP2 MSTORE PUSH1 0x20 ADD PUSH1 0x0 KECCAK256 PUSH1 0x0 PUSH2 0x100 EXP DUP2 SLOAD DUP2 PUSH1 0xFF MUL NOT AND SWAP1 DUP4 ISZERO ISZERO MUL OR SWAP1 SSTORE POP PUSH32 0x3928EB6C73F8B27F8264006F092393F8FF2E5684AC2E649D0A932AE36DF69088 CALLER CALLER PUSH20 0xFFFFFFFFFFFFFFFFFFFFFFFFFFFFFFFFFFFFFFFF AND BALANCE PUSH1 0x40 MLOAD PUSH2 0x21D SWAP3 SWAP2 SWAP1 PUSH2 0xBC1 JUMP JUMPDEST PUSH1 0x40 MLOAD DUP1 SWAP2 SUB SWAP1 LOG1 JUMPDEST DUP1 PUSH1 0x0 DUP1 CALLER PUSH20 0xFFFFFFFFFFFFFFFFFFFFFFFFFFFFFFFFFFFFFFFF AND PUSH20 0xFFFFFFFFFFFFFFFFFFFFFFFFFFFFFFFFFFFFFFFF AND DUP2 MSTORE PUSH1 0x20 ADD SWAP1 DUP2 MSTORE PUSH1 0x20 ADD PUSH1 0x0 KECCAK256 SLOAD LT ISZERO PUSH2 0x2A7 JUMPI PUSH1 0x40 MLOAD PUSH32 0x8C379A000000000000000000000000000000000000000000000000000000000 DUP2 MSTORE PUSH1 0x4 ADD PUSH2 0x29E SWAP1 PUSH2 0xC6F JUMP JUMPDEST PUSH1 0x40 MLOAD DUP1 SWAP2 SUB SWAP1 REVERT JUMPDEST DUP1 PUSH1 0x0 DUP1 CALLER PUSH20 0xFFFFFFFFFFFFFFFFFFFFFFFFFFFFFFFFFFFFFFFF AND PUSH20 0xFFFFFFFFFFFFFFFFFFFFFFFFFFFFFFFFFFFFFFFF AND DUP2 MSTORE PUSH1 0x20 ADD SWAP1 DUP2 MSTORE PUSH1 0x20 ADD PUSH1 0x0 KECCAK256 SLOAD PUSH2 0x2F1 SWAP2 SWAP1 PUSH2 0xCBE JUMP JUMPDEST PUSH1 0x0 DUP1 CALLER PUSH20 0xFFFFFFFFFFFFFFFFFFFFFFFFFFFFFFFFFFFFFFFF AND PUSH20 0xFFFFFFFFFFFFFFFFFFFFFFFFFFFFFFFFFFFFFFFF AND DUP2 MSTORE PUSH1 0x20 ADD SWAP1 DUP2 MSTORE PUSH1 0x20 ADD PUSH1 0x0 KECCAK256 DUP2 SWAP1 SSTORE POP PUSH32 0x3928EB6C73F8B27F8264006F092393F8FF2E5684AC2E649D0A932AE36DF69088 CALLER PUSH1 0x0 DUP1 CALLER PUSH20 0xFFFFFFFFFFFFFFFFFFFFFFFFFFFFFFFFFFFFFFFF AND PUSH20 0xFFFFFFFFFFFFFFFFFFFFFFFFFFFFFFFFFFFFFFFF AND DUP2 MSTORE PUSH1 0x20 ADD SWAP1 DUP2 MSTORE PUSH1 0x20 ADD PUSH1 0x0 KECCAK256 SLOAD PUSH1 0x40 MLOAD PUSH2 0x3A2 SWAP3 SWAP2 SWAP1 PUSH2 0xD3E JUMP JUMPDEST PUSH1 0x40 MLOAD DUP1 SWAP2 SUB SWAP1 LOG1 POP JUMP JUMPDEST PUSH1 0x0 DUP1 PUSH1 0x0 CALLER PUSH20 0xFFFFFFFFFFFFFFFFFFFFFFFFFFFFFFFFFFFFFFFF AND PUSH20 0xFFFFFFFFFFFFFFFFFFFFFFFFFFFFFFFFFFFFFFFF AND DUP2 MSTORE PUSH1 0x20 ADD SWAP1 DUP2 MSTORE PUSH1 0x20 ADD PUSH1 0x0 KECCAK256 SLOAD SWAP1 POP SWAP1 JUMP JUMPDEST PUSH1 0x1 PUSH1 0x0 CALLER PUSH20 0xFFFFFFFFFFFFFFFFFFFFFFFFFFFFFFFFFFFFFFFF AND PUSH20 0xFFFFFFFFFFFFFFFFFFFFFFFFFFFFFFFFFFFFFFFF AND DUP2 MSTORE PUSH1 0x20 ADD SWAP1 DUP2 MSTORE PUSH1 0x20 ADD PUSH1 0x0 KECCAK256 PUSH1 0x0 SWAP1 SLOAD SWAP1 PUSH2 0x100 EXP SWAP1 DIV PUSH1 0xFF AND ISZERO PUSH2 0x547 JUMPI CALLER PUSH20 0xFFFFFFFFFFFFFFFFFFFFFFFFFFFFFFFFFFFFFFFF AND BALANCE PUSH1 0x0 DUP1 CALLER PUSH20 0xFFFFFFFFFFFFFFFFFFFFFFFFFFFFFFFFFFFFFFFF AND PUSH20 0xFFFFFFFFFFFFFFFFFFFFFFFFFFFFFFFFFFFFFFFF AND DUP2 MSTORE PUSH1 0x20 ADD SWAP1 DUP2 MSTORE PUSH1 0x20 ADD PUSH1 0x0 KECCAK256 DUP2 SWAP1 SSTORE POP PUSH1 0x1 DUP1 PUSH1 0x0 CALLER PUSH20 0xFFFFFFFFFFFFFFFFFFFFFFFFFFFFFFFFFFFFFFFF AND PUSH20 0xFFFFFFFFFFFFFFFFFFFFFFFFFFFFFFFFFFFFFFFF AND DUP2 MSTORE PUSH1 0x20 ADD SWAP1 DUP2 MSTORE PUSH1 0x20 ADD PUSH1 0x0 KECCAK256 PUSH1 0x0 PUSH2 0x100 EXP DUP2 SLOAD DUP2 PUSH1 0xFF MUL NOT AND SWAP1 DUP4 ISZERO ISZERO MUL OR SWAP1 SSTORE POP PUSH32 0x3928EB6C73F8B27F8264006F092393F8FF2E5684AC2E649D0A932AE36DF69088 CALLER CALLER PUSH20 0xFFFFFFFFFFFFFFFFFFFFFFFFFFFFFFFFFFFFFFFF AND BALANCE PUSH1 0x40 MLOAD PUSH2 0x53E SWAP3 SWAP2 SWAP1 PUSH2 0xBC1 JUMP JUMPDEST PUSH1 0x40 MLOAD DUP1 SWAP2 SUB SWAP1 LOG1 JUMPDEST PUSH1 0x0 CALLVALUE GT PUSH2 0x58A JUMPI PUSH1 0x40 MLOAD PUSH32 0x8C379A000000000000000000000000000000000000000000000000000000000 DUP2 MSTORE PUSH1 0x4 ADD PUSH2 0x581 SWAP1 PUSH2 0xDEC JUMP JUMPDEST PUSH1 0x40 MLOAD DUP1 SWAP2 SUB SWAP1 REVERT JUMPDEST CALLVALUE PUSH1 0x0 DUP1 CALLER PUSH20 0xFFFFFFFFFFFFFFFFFFFFFFFFFFFFFFFFFFFFFFFF AND PUSH20 0xFFFFFFFFFFFFFFFFFFFFFFFFFFFFFFFFFFFFFFFF AND DUP2 MSTORE PUSH1 0x20 ADD SWAP1 DUP2 MSTORE PUSH1 0x20 ADD PUSH1 0x0 KECCAK256 SLOAD PUSH2 0x5D4 SWAP2 SWAP1 PUSH2 0xE0C JUMP JUMPDEST PUSH1 0x0 DUP1 CALLER PUSH20 0xFFFFFFFFFFFFFFFFFFFFFFFFFFFFFFFFFFFFFFFF AND PUSH20 0xFFFFFFFFFFFFFFFFFFFFFFFFFFFFFFFFFFFFFFFF AND DUP2 MSTORE PUSH1 0x20 ADD SWAP1 DUP2 MSTORE PUSH1 0x20 ADD PUSH1 0x0 KECCAK256 DUP2 SWAP1 SSTORE POP PUSH32 0x3928EB6C73F8B27F8264006F092393F8FF2E5684AC2E649D0A932AE36DF69088 CALLER PUSH1 0x0 DUP1 CALLER PUSH20 0xFFFFFFFFFFFFFFFFFFFFFFFFFFFFFFFFFFFFFFFF AND PUSH20 0xFFFFFFFFFFFFFFFFFFFFFFFFFFFFFFFFFFFFFFFF AND DUP2 MSTORE PUSH1 0x20 ADD SWAP1 DUP2 MSTORE PUSH1 0x20 ADD PUSH1 0x0 KECCAK256 SLOAD PUSH1 0x40 MLOAD PUSH2 0x685 SWAP3 SWAP2 SWAP1 PUSH2 0xE8C JUMP JUMPDEST PUSH1 0x40 MLOAD DUP1 SWAP2 SUB SWAP1 LOG1 JUMP JUMPDEST PUSH1 0x0 PUSH1 0x1 PUSH1 0x0 CALLER PUSH20 0xFFFFFFFFFFFFFFFFFFFFFFFFFFFFFFFFFFFFFFFF AND PUSH20 0xFFFFFFFFFFFFFFFFFFFFFFFFFFFFFFFFFFFFFFFF AND DUP2 MSTORE PUSH1 0x20 ADD SWAP1 DUP2 MSTORE PUSH1 0x20 ADD PUSH1 0x0 KECCAK256 PUSH1 0x0 SWAP1 SLOAD SWAP1 PUSH2 0x100 EXP SWAP1 DIV PUSH1 0xFF AND ISZERO PUSH2 0x7E5 JUMPI CALLER PUSH20 0xFFFFFFFFFFFFFFFFFFFFFFFFFFFFFFFFFFFFFFFF AND BALANCE PUSH1 0x0 DUP1 CALLER PUSH20 0xFFFFFFFFFFFFFFFFFFFFFFFFFFFFFFFFFFFFFFFF AND PUSH20 0xFFFFFFFFFFFFFFFFFFFFFFFFFFFFFFFFFFFFFFFF AND DUP2 MSTORE PUSH1 0x20 ADD SWAP1 DUP2 MSTORE PUSH1 0x20 ADD PUSH1 0x0 KECCAK256 DUP2 SWAP1 SSTORE POP PUSH1 0x1 DUP1 PUSH1 0x0 CALLER PUSH20 0xFFFFFFFFFFFFFFFFFFFFFFFFFFFFFFFFFFFFFFFF AND PUSH20 0xFFFFFFFFFFFFFFFFFFFFFFFFFFFFFFFFFFFFFFFF AND DUP2 MSTORE PUSH1 0x20 ADD SWAP1 DUP2 MSTORE PUSH1 0x20 ADD PUSH1 0x0 KECCAK256 PUSH1 0x0 PUSH2 0x100 EXP DUP2 SLOAD DUP2 PUSH1 0xFF MUL NOT AND SWAP1 DUP4 ISZERO ISZERO MUL OR SWAP1 SSTORE POP PUSH32 0x3928EB6C73F8B27F8264006F092393F8FF2E5684AC2E649D0A932AE36DF69088 CALLER CALLER PUSH20 0xFFFFFFFFFFFFFFFFFFFFFFFFFFFFFFFFFFFFFFFF AND BALANCE PUSH1 0x40 MLOAD PUSH2 0x7DC SWAP3 SWAP2 SWAP1 PUSH2 0xBC1 JUMP JUMPDEST PUSH1 0x40 MLOAD DUP1 SWAP2 SUB SWAP1 LOG1 JUMPDEST PUSH1 0x0 DUP3 GT PUSH2 0x828 JUMPI PUSH1 0x40 MLOAD PUSH32 0x8C379A000000000000000000000000000000000000000000000000000000000 DUP2 MSTORE PUSH1 0x4 ADD PUSH2 0x81F SWAP1 PUSH2 0xF3A JUMP JUMPDEST PUSH1 0x40 MLOAD DUP1 SWAP2 SUB SWAP1 REVERT JUMPDEST DUP2 PUSH1 0x0 DUP1 CALLER PUSH20 0xFFFFFFFFFFFFFFFFFFFFFFFFFFFFFFFFFFFFFFFF AND PUSH20 0xFFFFFFFFFFFFFFFFFFFFFFFFFFFFFFFFFFFFFFFF AND DUP2 MSTORE PUSH1 0x20 ADD SWAP1 DUP2 MSTORE PUSH1 0x20 ADD PUSH1 0x0 KECCAK256 SLOAD LT ISZERO PUSH2 0x8A9 JUMPI PUSH1 0x40 MLOAD PUSH32 0x8C379A000000000000000000000000000000000000000000000000000000000 DUP2 MSTORE PUSH1 0x4 ADD PUSH2 0x8A0 SWAP1 PUSH2 0xC6F JUMP JUMPDEST PUSH1 0x40 MLOAD DUP1 SWAP2 SUB SWAP1 REVERT JUMPDEST DUP2 PUSH1 0x0 DUP1 CALLER PUSH20 0xFFFFFFFFFFFFFFFFFFFFFFFFFFFFFFFFFFFFFFFF AND PUSH20 0xFFFFFFFFFFFFFFFFFFFFFFFFFFFFFFFFFFFFFFFF AND DUP2 MSTORE PUSH1 0x20 ADD SWAP1 DUP2 MSTORE PUSH1 0x20 ADD PUSH1 0x0 KECCAK256 SLOAD PUSH2 0x8F3 SWAP2 SWAP1 PUSH2 0xCBE JUMP JUMPDEST PUSH1 0x0 DUP1 CALLER PUSH20 0xFFFFFFFFFFFFFFFFFFFFFFFFFFFFFFFFFFFFFFFF AND PUSH20 0xFFFFFFFFFFFFFFFFFFFFFFFFFFFFFFFFFFFFFFFF AND DUP2 MSTORE PUSH1 0x20 ADD SWAP1 DUP2 MSTORE PUSH1 0x20 ADD PUSH1 0x0 KECCAK256 DUP2 SWAP1 SSTORE POP DUP3 PUSH20 0xFFFFFFFFFFFFFFFFFFFFFFFFFFFFFFFFFFFFFFFF AND PUSH2 0x8FC DUP4 SWAP1 DUP2 ISZERO MUL SWAP1 PUSH1 0x40 MLOAD PUSH1 0x0 PUSH1 0x40 MLOAD DUP1 DUP4 SUB DUP2 DUP6 DUP9 DUP9 CALL SWAP4 POP POP POP POP ISZERO DUP1 ISZERO PUSH2 0x97B JUMPI RETURNDATASIZE PUSH1 0x0 DUP1 RETURNDATACOPY RETURNDATASIZE PUSH1 0x0 REVERT JUMPDEST POP PUSH32 0x3928EB6C73F8B27F8264006F092393F8FF2E5684AC2E649D0A932AE36DF69088 DUP4 DUP5 PUSH20 0xFFFFFFFFFFFFFFFFFFFFFFFFFFFFFFFFFFFFFFFF AND BALANCE PUSH1 0x40 MLOAD PUSH2 0x9C4 SWAP3 SWAP2 SWAP1 PUSH2 0x1005 JUMP JUMPDEST PUSH1 0x40 MLOAD DUP1 SWAP2 SUB SWAP1 LOG1 PUSH1 0x0 DUP1 CALLER PUSH20 0xFFFFFFFFFFFFFFFFFFFFFFFFFFFFFFFFFFFFFFFF AND PUSH20 0xFFFFFFFFFFFFFFFFFFFFFFFFFFFFFFFFFFFFFFFF AND DUP2 MSTORE PUSH1 0x20 ADD SWAP1 DUP2 MSTORE PUSH1 0x20 ADD PUSH1 0x0 KECCAK256 SLOAD SWAP1 POP SWAP3 SWAP2 POP POP JUMP JUMPDEST PUSH1 0x0 DUP1 REVERT JUMPDEST PUSH1 0x0 DUP2 SWAP1 POP SWAP2 SWAP1 POP JUMP JUMPDEST PUSH2 0xA2B DUP2 PUSH2 0xA18 JUMP JUMPDEST DUP2 EQ PUSH2 0xA36 JUMPI PUSH1 0x0 DUP1 REVERT JUMPDEST POP JUMP JUMPDEST PUSH1 0x0 DUP2 CALLDATALOAD SWAP1 POP PUSH2 0xA48 DUP2 PUSH2 0xA22 JUMP JUMPDEST SWAP3 SWAP2 POP POP JUMP JUMPDEST PUSH1 0x0 PUSH1 0x20 DUP3 DUP5 SUB SLT ISZERO PUSH2 0xA64 JUMPI PUSH2 0xA63 PUSH2 0xA13 JUMP JUMPDEST JUMPDEST PUSH1 0x0 PUSH2 0xA72 DUP5 DUP3 DUP6 ADD PUSH2 0xA39 JUMP JUMPDEST SWAP2 POP POP SWAP3 SWAP2 POP POP JUMP JUMPDEST PUSH2 0xA84 DUP2 PUSH2 0xA18 JUMP JUMPDEST DUP3 MSTORE POP POP JUMP JUMPDEST PUSH1 0x0 PUSH1 0x20 DUP3 ADD SWAP1 POP PUSH2 0xA9F PUSH1 0x0 DUP4 ADD DUP5 PUSH2 0xA7B JUMP JUMPDEST SWAP3 SWAP2 POP POP JUMP JUMPDEST PUSH1 0x0 PUSH20 0xFFFFFFFFFFFFFFFFFFFFFFFFFFFFFFFFFFFFFFFF DUP3 AND SWAP1 POP SWAP2 SWAP1 POP JUMP JUMPDEST PUSH1 0x0 PUSH2 0xAD0 DUP3 PUSH2 0xAA5 JUMP JUMPDEST SWAP1 POP SWAP2 SWAP1 POP JUMP JUMPDEST PUSH2 0xAE0 DUP2 PUSH2 0xAC5 JUMP JUMPDEST DUP2 EQ PUSH2 0xAEB JUMPI PUSH1 0x0 DUP1 REVERT JUMPDEST POP JUMP JUMPDEST PUSH1 0x0 DUP2 CALLDATALOAD SWAP1 POP PUSH2 0xAFD DUP2 PUSH2 0xAD7 JUMP JUMPDEST SWAP3 SWAP2 POP POP JUMP JUMPDEST PUSH1 0x0 DUP1 PUSH1 0x40 DUP4 DUP6 SUB SLT ISZERO PUSH2 0xB1A JUMPI PUSH2 0xB19 PUSH2 0xA13 JUMP JUMPDEST JUMPDEST PUSH1 0x0 PUSH2 0xB28 DUP6 DUP3 DUP7 ADD PUSH2 0xAEE JUMP JUMPDEST SWAP3 POP POP PUSH1 0x20 PUSH2 0xB39 DUP6 DUP3 DUP7 ADD PUSH2 0xA39 JUMP JUMPDEST SWAP2 POP POP SWAP3 POP SWAP3 SWAP1 POP JUMP JUMPDEST PUSH1 0x0 PUSH2 0xB4E DUP3 PUSH2 0xAA5 JUMP JUMPDEST SWAP1 POP SWAP2 SWAP1 POP JUMP JUMPDEST PUSH2 0xB5E DUP2 PUSH2 0xB43 JUMP JUMPDEST DUP3 MSTORE POP POP JUMP JUMPDEST PUSH1 0x0 DUP3 DUP3 MSTORE PUSH1 0x20 DUP3 ADD SWAP1 POP SWAP3 SWAP2 POP POP JUMP JUMPDEST PUSH32 0x4E65772055736572206D6170706564207375636365737366756C6C7900000000 PUSH1 0x0 DUP3 ADD MSTORE POP JUMP JUMPDEST PUSH1 0x0 PUSH2 0xBAB PUSH1 0x1C DUP4 PUSH2 0xB64 JUMP JUMPDEST SWAP2 POP PUSH2 0xBB6 DUP3 PUSH2 0xB75 JUMP JUMPDEST PUSH1 0x20 DUP3 ADD SWAP1 POP SWAP2 SWAP1 POP JUMP JUMPDEST PUSH1 0x0 PUSH1 0x60 DUP3 ADD SWAP1 POP PUSH2 0xBD6 PUSH1 0x0 DUP4 ADD DUP6 PUSH2 0xB55 JUMP JUMPDEST DUP2 DUP2 SUB PUSH1 0x20 DUP4 ADD MSTORE PUSH2 0xBE7 DUP2 PUSH2 0xB9E JUMP JUMPDEST SWAP1 POP PUSH2 0xBF6 PUSH1 0x40 DUP4 ADD DUP5 PUSH2 0xA7B JUMP JUMPDEST SWAP4 SWAP3 POP POP POP JUMP JUMPDEST PUSH32 0x696E737566666963656E742062616C616E636520746F20706572666F726D2074 PUSH1 0x0 DUP3 ADD MSTORE PUSH32 0x686973207472616E73616374696F6E0000000000000000000000000000000000 PUSH1 0x20 DUP3 ADD MSTORE POP JUMP JUMPDEST PUSH1 0x0 PUSH2 0xC59 PUSH1 0x2F DUP4 PUSH2 0xB64 JUMP JUMPDEST SWAP2 POP PUSH2 0xC64 DUP3 PUSH2 0xBFD JUMP JUMPDEST PUSH1 0x40 DUP3 ADD SWAP1 POP SWAP2 SWAP1 POP JUMP JUMPDEST PUSH1 0x0 PUSH1 0x20 DUP3 ADD SWAP1 POP DUP2 DUP2 SUB PUSH1 0x0 DUP4 ADD MSTORE PUSH2 0xC88 DUP2 PUSH2 0xC4C JUMP JUMPDEST SWAP1 POP SWAP2 SWAP1 POP JUMP JUMPDEST PUSH32 0x4E487B7100000000000000000000000000000000000000000000000000000000 PUSH1 0x0 MSTORE PUSH1 0x11 PUSH1 0x4 MSTORE PUSH1 0x24 PUSH1 0x0 REVERT JUMPDEST PUSH1 0x0 PUSH2 0xCC9 DUP3 PUSH2 0xA18 JUMP JUMPDEST SWAP2 POP PUSH2 0xCD4 DUP4 PUSH2 0xA18 JUMP JUMPDEST SWAP3 POP DUP3 DUP3 SUB SWAP1 POP DUP2 DUP2 GT ISZERO PUSH2 0xCEC JUMPI PUSH2 0xCEB PUSH2 0xC8F JUMP JUMPDEST JUMPDEST SWAP3 SWAP2 POP POP JUMP JUMPDEST PUSH32 0x416D6F756E742077697468647261776E207375636365737366756C6C79000000 PUSH1 0x0 DUP3 ADD MSTORE POP JUMP JUMPDEST PUSH1 0x0 PUSH2 0xD28 PUSH1 0x1D DUP4 PUSH2 0xB64 JUMP JUMPDEST SWAP2 POP PUSH2 0xD33 DUP3 PUSH2 0xCF2 JUMP JUMPDEST PUSH1 0x20 DUP3 ADD SWAP1 POP SWAP2 SWAP1 POP JUMP JUMPDEST PUSH1 0x0 PUSH1 0x60 DUP3 ADD SWAP1 POP PUSH2 0xD53 PUSH1 0x0 DUP4 ADD DUP6 PUSH2 0xB55 JUMP JUMPDEST DUP2 DUP2 SUB PUSH1 0x20 DUP4 ADD MSTORE PUSH2 0xD64 DUP2 PUSH2 0xD1B JUMP JUMPDEST SWAP1 POP PUSH2 0xD73 PUSH1 0x40 DUP4 ADD DUP5 PUSH2 0xA7B JUMP JUMPDEST SWAP4 SWAP3 POP POP POP JUMP JUMPDEST PUSH32 0x496E76616C696420416D6F756E7421212120416D6F756E742073686F756C6420 PUSH1 0x0 DUP3 ADD MSTORE PUSH32 0x62652067726561746572207468616E207A65726F000000000000000000000000 PUSH1 0x20 DUP3 ADD MSTORE POP JUMP JUMPDEST PUSH1 0x0 PUSH2 0xDD6 PUSH1 0x34 DUP4 PUSH2 0xB64 JUMP JUMPDEST SWAP2 POP PUSH2 0xDE1 DUP3 PUSH2 0xD7A JUMP JUMPDEST PUSH1 0x40 DUP3 ADD SWAP1 POP SWAP2 SWAP1 POP JUMP JUMPDEST PUSH1 0x0 PUSH1 0x20 DUP3 ADD SWAP1 POP DUP2 DUP2 SUB PUSH1 0x0 DUP4 ADD MSTORE PUSH2 0xE05 DUP2 PUSH2 0xDC9 JUMP JUMPDEST SWAP1 POP SWAP2 SWAP1 POP JUMP JUMPDEST PUSH1 0x0 PUSH2 0xE17 DUP3 PUSH2 0xA18 JUMP JUMPDEST SWAP2 POP PUSH2 0xE22 DUP4 PUSH2 0xA18 JUMP JUMPDEST SWAP3 POP DUP3 DUP3 ADD SWAP1 POP DUP1 DUP3 GT ISZERO PUSH2 0xE3A JUMPI PUSH2 0xE39 PUSH2 0xC8F JUMP JUMPDEST JUMPDEST SWAP3 SWAP2 POP POP JUMP JUMPDEST PUSH32 0x4D6F6E6579206465706F7369746564207375636365737366756C6C7900000000 PUSH1 0x0 DUP3 ADD MSTORE POP JUMP JUMPDEST PUSH1 0x0 PUSH2 0xE76 PUSH1 0x1C DUP4 PUSH2 0xB64 JUMP JUMPDEST SWAP2 POP PUSH2 0xE81 DUP3 PUSH2 0xE40 JUMP JUMPDEST PUSH1 0x20 DUP3 ADD SWAP1 POP SWAP2 SWAP1 POP JUMP JUMPDEST PUSH1 0x0 PUSH1 0x60 DUP3 ADD SWAP1 POP PUSH2 0xEA1 PUSH1 0x0 DUP4 ADD DUP6 PUSH2 0xB55 JUMP JUMPDEST DUP2 DUP2 SUB PUSH1 0x20 DUP4 ADD MSTORE PUSH2 0xEB2 DUP2 PUSH2 0xE69 JUMP JUMPDEST SWAP1 POP PUSH2 0xEC1 PUSH1 0x40 DUP4 ADD DUP5 PUSH2 0xA7B JUMP JUMPDEST SWAP4 SWAP3 POP POP POP JUMP JUMPDEST PUSH32 0x696E76616C696420416D6F756E7421212120616D6F756E742073686F756C6420 PUSH1 0x0 DUP3 ADD MSTORE PUSH32 0x62652067726561746572207468616E207A65726F000000000000000000000000 PUSH1 0x20 DUP3 ADD MSTORE POP JUMP JUMPDEST PUSH1 0x0 PUSH2 0xF24 PUSH1 0x34 DUP4 PUSH2 0xB64 JUMP JUMPDEST SWAP2 POP PUSH2 0xF2F DUP3 PUSH2 0xEC8 JUMP JUMPDEST PUSH1 0x40 DUP3 ADD SWAP1 POP SWAP2 SWAP1 POP JUMP JUMPDEST PUSH1 0x0 PUSH1 0x20 DUP3 ADD SWAP1 POP DUP2 DUP2 SUB PUSH1 0x0 DUP4 ADD MSTORE PUSH2 0xF53 DUP2 PUSH2 0xF17 JUMP JUMPDEST SWAP1 POP SWAP2 SWAP1 POP JUMP JUMPDEST PUSH1 0x0 DUP2 SWAP1 POP SWAP2 SWAP1 POP JUMP JUMPDEST PUSH1 0x0 PUSH2 0xF7F PUSH2 0xF7A PUSH2 0xF75 DUP5 PUSH2 0xAA5 JUMP JUMPDEST PUSH2 0xF5A JUMP JUMPDEST PUSH2 0xAA5 JUMP JUMPDEST SWAP1 POP SWAP2 SWAP1 POP JUMP JUMPDEST PUSH1 0x0 PUSH2 0xF91 DUP3 PUSH2 0xF64 JUMP JUMPDEST SWAP1 POP SWAP2 SWAP1 POP JUMP JUMPDEST PUSH1 0x0 PUSH2 0xFA3 DUP3 PUSH2 0xF86 JUMP JUMPDEST SWAP1 POP SWAP2 SWAP1 POP JUMP JUMPDEST PUSH2 0xFB3 DUP2 PUSH2 0xF98 JUMP JUMPDEST DUP3 MSTORE POP POP JUMP JUMPDEST PUSH32 0x4D6F6E6579207472616E736665726564207375636365737366756C6C79000000 PUSH1 0x0 DUP3 ADD MSTORE POP JUMP JUMPDEST PUSH1 0x0 PUSH2 0xFEF PUSH1 0x1D DUP4 PUSH2 0xB64 JUMP JUMPDEST SWAP2 POP PUSH2 0xFFA DUP3 PUSH2 0xFB9 JUMP JUMPDEST PUSH1 0x20 DUP3 ADD SWAP1 POP SWAP2 SWAP1 POP JUMP JUMPDEST PUSH1 0x0 PUSH1 0x60 DUP3 ADD SWAP1 POP PUSH2 0x101A PUSH1 0x0 DUP4 ADD DUP6 PUSH2 0xFAA JUMP JUMPDEST DUP2 DUP2 SUB PUSH1 0x20 DUP4 ADD MSTORE PUSH2 0x102B DUP2 PUSH2 0xFE2 JUMP JUMPDEST SWAP1 POP PUSH2 0x103A PUSH1 0x40 DUP4 ADD DUP5 PUSH2 0xA7B JUMP JUMPDEST SWAP4 SWAP3 POP POP POP JUMP INVALID LOG2 PUSH5 0x6970667358 0x22 SLT KECCAK256 EXP 0xC9 PUSH32 0x2F275CCA13D8CE120A226494CB0DC49445FDE9FC213F5BA73480F3992564736F PUSH13 0x63430008120033000000000000 "
				},
				"gasEstimates": {
					"creation": {
						"codeDepositCost": "843000",
						"executionCost": "877",
						"totalCost": "843877"
					},
					"external": {
						"depositMoney()": "infinite",
						"getBalance()": "2526",
						"transferAmount(address,uint256)": "infinite",
						"withdrawAmount(uint256)": "infinite"
					}
				},
				"methodIdentifiers": {
					"depositMoney()": "16c05aa2",
					"getBalance()": "12065fe0",
					"transferAmount(address,uint256)": "d7081e03",
					"withdrawAmount(uint256)": "0562b9f7"
				}
			},
			"storageLayout": {
				"storage": [
					{
						"astId": 5,
						"contract": "contracts/prac.sol:MBD_BANK",
						"label": "balanceLedger",
						"offset": 0,
						"slot": "0",
						"type": "t_mapping(t_address,t_uint256)"
					},
					{
						"astId": 9,
						"contract": "contracts/prac.sol:MBD_BANK",
						"label": "userExitOrNot",
						"offset": 0,
						"slot": "1",
						"type": "t_mapping(t_address,t_bool)"
					}
				],
				"types": {
					"t_address": {
						"encoding": "inplace",
						"label": "address",
						"numberOfBytes": "20"
					},
					"t_bool": {
						"encoding": "inplace",
						"label": "bool",
						"numberOfBytes": "1"
					},
					"t_mapping(t_address,t_bool)": {
						"encoding": "mapping",
						"key": "t_address",
						"label": "mapping(address => bool)",
						"numberOfBytes": "32",
						"value": "t_bool"
					},
					"t_mapping(t_address,t_uint256)": {
						"encoding": "mapping",
						"key": "t_address",
						"label": "mapping(address => uint256)",
						"numberOfBytes": "32",
						"value": "t_uint256"
					},
					"t_uint256": {
						"encoding": "inplace",
						"label": "uint256",
						"numberOfBytes": "32"
					}
				}
			},
			"userdoc": {
				"kind": "user",
				"methods": {},
				"version": 1
			}
		}
	}
}